{
  "address": "0x7761D33924bb90129EF56480FC1bD8Da79C8069B",
  "abi": [
    {
      "inputs": [
        {
          "internalType": "contract IAMB",
          "name": "_amb",
          "type": "address"
        },
        {
          "internalType": "address",
          "name": "_foreignProxy",
          "type": "address"
        },
        {
          "internalType": "bytes32",
          "name": "_foreignChainId",
          "type": "bytes32"
        },
        {
          "internalType": "contract RealitioInterface",
          "name": "_realitio",
          "type": "address"
        }
      ],
      "stateMutability": "nonpayable",
      "type": "constructor"
    },
    {
      "anonymous": false,
      "inputs": [
        {
          "indexed": true,
          "internalType": "bytes32",
          "name": "_questionID",
          "type": "bytes32"
        },
        {
          "indexed": true,
          "internalType": "bytes32",
          "name": "_contestedAnswer",
          "type": "bytes32"
        }
      ],
      "name": "ArbitrationFailed",
      "type": "event"
    },
    {
      "anonymous": false,
      "inputs": [
        {
          "indexed": true,
          "internalType": "bytes32",
          "name": "_questionID",
          "type": "bytes32"
        }
      ],
      "name": "ArbitrationFinished",
      "type": "event"
    },
    {
      "anonymous": false,
      "inputs": [
        {
          "indexed": true,
          "internalType": "bytes32",
          "name": "_questionID",
          "type": "bytes32"
        },
        {
          "indexed": false,
          "internalType": "bytes32",
          "name": "_answer",
          "type": "bytes32"
        }
      ],
      "name": "ArbitratorAnswered",
      "type": "event"
    },
    {
      "anonymous": false,
      "inputs": [
        {
          "indexed": true,
          "internalType": "bytes32",
          "name": "_questionID",
          "type": "bytes32"
        },
        {
          "indexed": true,
          "internalType": "bytes32",
          "name": "_contestedAnswer",
          "type": "bytes32"
        }
      ],
      "name": "RequestAcknowledged",
      "type": "event"
    },
    {
      "anonymous": false,
      "inputs": [
        {
          "indexed": true,
          "internalType": "bytes32",
          "name": "_questionID",
          "type": "bytes32"
        },
        {
          "indexed": true,
          "internalType": "bytes32",
          "name": "_contestedAnswer",
          "type": "bytes32"
        }
      ],
      "name": "RequestCanceled",
      "type": "event"
    },
    {
      "anonymous": false,
      "inputs": [
        {
          "indexed": true,
          "internalType": "bytes32",
          "name": "_questionID",
          "type": "bytes32"
        },
        {
          "indexed": true,
          "internalType": "bytes32",
          "name": "_contestedAnswer",
          "type": "bytes32"
        },
        {
          "indexed": true,
          "internalType": "address",
          "name": "_requester",
          "type": "address"
        }
      ],
      "name": "RequestNotified",
      "type": "event"
    },
    {
      "anonymous": false,
      "inputs": [
        {
          "indexed": true,
          "internalType": "bytes32",
          "name": "_questionID",
          "type": "bytes32"
        },
        {
          "indexed": true,
          "internalType": "bytes32",
          "name": "_contestedAnswer",
          "type": "bytes32"
        },
        {
          "indexed": true,
          "internalType": "address",
          "name": "_requester",
          "type": "address"
        }
      ],
      "name": "RequestRejected",
      "type": "event"
    },
    {
      "inputs": [],
      "name": "amb",
      "outputs": [
        {
          "internalType": "contract IAMB",
          "name": "",
          "type": "address"
        }
      ],
      "stateMutability": "view",
      "type": "function"
    },
    {
      "inputs": [],
      "name": "foreignChainId",
      "outputs": [
        {
          "internalType": "bytes32",
          "name": "",
          "type": "bytes32"
        }
      ],
      "stateMutability": "view",
      "type": "function"
    },
    {
      "inputs": [],
      "name": "foreignProxy",
      "outputs": [
        {
          "internalType": "address",
          "name": "",
          "type": "address"
        }
      ],
      "stateMutability": "view",
      "type": "function"
    },
    {
      "inputs": [
        {
          "internalType": "bytes32",
          "name": "_questionID",
          "type": "bytes32"
        },
        {
          "internalType": "bytes32",
          "name": "_contestedAnswer",
          "type": "bytes32"
        }
      ],
      "name": "handleNotifiedRequest",
      "outputs": [],
      "stateMutability": "nonpayable",
      "type": "function"
    },
    {
      "inputs": [
        {
          "internalType": "bytes32",
          "name": "_questionID",
          "type": "bytes32"
        },
        {
          "internalType": "bytes32",
          "name": "_contestedAnswer",
          "type": "bytes32"
        }
      ],
      "name": "handleRejectedRequest",
      "outputs": [],
      "stateMutability": "nonpayable",
      "type": "function"
    },
    {
      "inputs": [],
      "name": "metadata",
      "outputs": [
        {
          "internalType": "string",
          "name": "",
          "type": "string"
        }
      ],
      "stateMutability": "view",
      "type": "function"
    },
    {
      "inputs": [
        {
          "internalType": "bytes32",
          "name": "",
          "type": "bytes32"
        }
      ],
      "name": "questionIDToContestedAnswer",
      "outputs": [
        {
          "internalType": "bytes32",
          "name": "",
          "type": "bytes32"
        }
      ],
      "stateMutability": "view",
      "type": "function"
    },
    {
      "inputs": [],
      "name": "realitio",
      "outputs": [
        {
          "internalType": "contract RealitioInterface",
          "name": "",
          "type": "address"
        }
      ],
      "stateMutability": "view",
      "type": "function"
    },
    {
      "inputs": [
        {
          "internalType": "bytes32",
          "name": "_questionID",
          "type": "bytes32"
        },
        {
          "internalType": "bytes32",
          "name": "_answer",
          "type": "bytes32"
        }
      ],
      "name": "receiveArbitrationAnswer",
      "outputs": [],
      "stateMutability": "nonpayable",
      "type": "function"
    },
    {
      "inputs": [
        {
          "internalType": "bytes32",
          "name": "_questionID",
          "type": "bytes32"
        },
        {
          "internalType": "bytes32",
          "name": "_contestedAnswer",
          "type": "bytes32"
        }
      ],
      "name": "receiveArbitrationFailure",
      "outputs": [],
      "stateMutability": "nonpayable",
      "type": "function"
    },
    {
      "inputs": [
        {
          "internalType": "bytes32",
          "name": "_questionID",
          "type": "bytes32"
        },
        {
          "internalType": "bytes32",
          "name": "_contestedAnswer",
          "type": "bytes32"
        },
        {
          "internalType": "address",
          "name": "_requester",
          "type": "address"
        }
      ],
      "name": "receiveArbitrationRequest",
      "outputs": [],
      "stateMutability": "nonpayable",
      "type": "function"
    },
    {
      "inputs": [
        {
          "internalType": "bytes32",
          "name": "_questionID",
          "type": "bytes32"
        },
        {
          "internalType": "bytes32",
          "name": "_lastHistoryHash",
          "type": "bytes32"
        },
        {
          "internalType": "bytes32",
          "name": "_lastAnswerOrCommitmentID",
          "type": "bytes32"
        },
        {
          "internalType": "address",
          "name": "_lastAnswerer",
          "type": "address"
        }
      ],
      "name": "reportArbitrationAnswer",
      "outputs": [],
      "stateMutability": "nonpayable",
      "type": "function"
    },
    {
      "inputs": [
        {
          "internalType": "bytes32",
          "name": "",
          "type": "bytes32"
        },
        {
          "internalType": "bytes32",
          "name": "",
          "type": "bytes32"
        }
      ],
      "name": "requests",
      "outputs": [
        {
          "internalType": "enum RealitioHomeArbitrationProxy.Status",
          "name": "status",
          "type": "uint8"
        },
        {
          "internalType": "address",
          "name": "requester",
          "type": "address"
        },
        {
          "internalType": "bytes32",
          "name": "arbitratorAnswer",
          "type": "bytes32"
        }
      ],
      "stateMutability": "view",
      "type": "function"
    }
  ],
  "transactionHash": "0x273e56f1a572766b8f2bf3d7356d9723c4bba1b867a3f922cd3d73ba076f261b",
  "args": [
    "0x75Df5AF045d91108662D8080fD1FEFAd6aA0bb59",
    "0xaFffbEA35c395e4BD246B4834071D01498151B16",
    "0x0000000000000000000000000000000000000000000000000000000000000001",
    "0x79e32aE03fb27B07C89c0c568F80287C01ca2E57"
  ],
  "solcInputHash": "4a4afd01e09ee9d4a71bc972d92cf4f9",
  "bytecode": "0x61010060405234801561001157600080fd5b506040516117f63803806117f68339818101604052608081101561003457600080fd5b508051602082015160408301516060938401516001600160601b031993851b841660a05291841b831660c05260e05290911b1660805260805160601c60a05160601c60c05160601c60e0516116db61011b6000398061054c5280610a1c5280610d40528061111c52508061064152806109e65280610b435280610e355280611211528061151a52508061031152806104e5528061056d528061066b5280610b125280610cd95280610d615280610e5f52806110b5528061113d528061123b52806114f152508061040a52806107bc52806108525280610ff1528061108852506116db6000f3fe608060405234801561001057600080fd5b50600436106100cf5760003560e01c806395e088fc1161008c578063bc8802a211610066578063bc8802a214610266578063d75a86e01461026e578063e059833314610291578063edc8d090146102ec576100cf565b806395e088fc14610218578063a16b9bb114610220578063aea268ee14610243576100cf565b80631062b39a146100d4578063241a9f82146100f8578063392f37e9146101325780634d274aee146101af5780636e190f17146101e1578063785d7cb4146101e9575b600080fd5b6100dc61030f565b604080516001600160a01b039092168252519081900360200190f35b6101306004803603608081101561010e57600080fd5b50803590602081013590604081013590606001356001600160a01b0316610333565b005b61013a6104a9565b6040805160208082528351818301528351919283929083019185019080838360005b8381101561017457818101518382015260200161015c565b50505050905090810190601f1680156101a15780820380516001836020036101000a031916815260200191505b509250505060405180910390f35b610130600480360360608110156101c557600080fd5b50803590602081013590604001356001600160a01b03166104da565b6100dc6109e4565b610206600480360360208110156101ff57600080fd5b5035610a08565b60408051918252519081900360200190f35b610206610a1a565b6101306004803603604081101561023657600080fd5b5080359060200135610a3e565b6101306004803603604081101561025957600080fd5b5080359060200135610cce565b6100dc611086565b6101306004803603604081101561028457600080fd5b50803590602001356110aa565b6102b4600480360360408110156102a757600080fd5b50803590602001356113e4565b604051808460058111156102c457fe5b8152602001836001600160a01b03168152602001828152602001935050505060405180910390f35b6101306004803603604081101561030257600080fd5b5080359060200135611419565b7f000000000000000000000000000000000000000000000000000000000000000081565b6000848152600160209081526040808320548383528184208185529092529091206004815460ff16600581111561036657fe5b146103b8576040805162461bcd60e51b815260206004820152601c60248201527f41726269747261746f7220686173206e6f742072756c65642079657400000000604482015290519081900360640190fd5b60018101548154604080516335138a4f60e21b8152600481018a905260248101939093526001600160a01b0361010090920482166044840152606483018890526084830187905285821660a4840152517f00000000000000000000000000000000000000000000000000000000000000009091169163d44e293c9160c480830192600092919082900301818387803b15801561045357600080fd5b505af1158015610467573d6000803e3d6000fd5b5050825460ff19166005178355505060405186907f2abf2fd86256e4607561adae782a4853682b6c0b976995a9a45c5fc3a175738690600090a2505050505050565b604051806040016040528060158152602001747b22666f726569676e50726f7879223a747275657d60581b81525081565b336001600160a01b037f0000000000000000000000000000000000000000000000000000000000000000161461054a576040805162461bcd60e51b815260206004820152601060248201526f13db9b1e4810535088185b1b1bddd95960821b604482015290519081900360640190fd5b7f00000000000000000000000000000000000000000000000000000000000000007f00000000000000000000000000000000000000000000000000000000000000006001600160a01b0316639e307dff6040518163ffffffff1660e01b815260040160206040518083038186803b1580156105c457600080fd5b505afa1580156105d8573d6000803e3d6000fd5b505050506040513d60208110156105ee57600080fd5b50511461063f576040805162461bcd60e51b815260206004820152601a60248201527913db9b1e48199bdc995a59db8818da185a5b88185b1b1bddd95960321b604482015290519081900360640190fd5b7f00000000000000000000000000000000000000000000000000000000000000006001600160a01b03167f00000000000000000000000000000000000000000000000000000000000000006001600160a01b031663d67bdd256040518163ffffffff1660e01b815260040160206040518083038186803b1580156106c257600080fd5b505afa1580156106d6573d6000803e3d6000fd5b505050506040513d60208110156106ec57600080fd5b50516001600160a01b031614610746576040805162461bcd60e51b815260206004820152601a60248201527913db9b1e48199bdc995a59db881c1c9bde1e48185b1b1bddd95960321b604482015290519081900360640190fd5b600083815260208181526040808320858452909152812090815460ff16600581111561076e57fe5b146107b9576040805162461bcd60e51b81526020600482015260166024820152755265717565737420616c72656164792065786973747360501b604482015290519081900360640190fd5b827f00000000000000000000000000000000000000000000000000000000000000006001600160a01b0316638d552d46866040518263ffffffff1660e01b81526004018082815260200191505060206040518083038186803b15801561081e57600080fd5b505afa158015610832573d6000803e3d6000fd5b505050506040513d602081101561084857600080fd5b5051141561099a577f00000000000000000000000000000000000000000000000000000000000000006001600160a01b031663f6a94ecb858460006040518463ffffffff1660e01b815260040180848152602001836001600160a01b031681526020018281526020019350505050600060405180830381600087803b1580156108d057600080fd5b505af19250505080156108e1575060015b61092d57805460ff191660011781556040516001600160a01b03831690849086907f505c6b33937ba1c7bcfdcc208ea84cd66a66bac1e59de92b7ff784d722741e4290600090a4610995565b8054600260ff1990911617610100600160a81b0319166101006001600160a01b03841690810291909117825560008581526001602052604080822086905551859187917f6f066f0a8c7c11806be5f3b5b04dd89e76a1b67a44fd8762a27916c3742fecd49190a45b6109de565b805460ff191660011781556040516001600160a01b03831690849086907f505c6b33937ba1c7bcfdcc208ea84cd66a66bac1e59de92b7ff784d722741e4290600090a45b50505050565b7f000000000000000000000000000000000000000000000000000000000000000081565b60016020526000908152604090205481565b7f000000000000000000000000000000000000000000000000000000000000000081565b60008281526020818152604080832084845290915290206002815460ff166005811115610a6757fe5b14610ab2576040805162461bcd60e51b8152602060048201526016602482015275496e76616c696420726571756573742073746174757360501b604482015290519081900360640190fd5b805460ff191660031781556040805160248101859052604480820185905282518083039091018152606490910182526020808201805163ef4f931560e01b6001600160e01b039091168117909152835163e5789d0360e01b8152935190937f00000000000000000000000000000000000000000000000000000000000000006001600160a01b03169263dc8601b3927f0000000000000000000000000000000000000000000000000000000000000000928692869263e5789d03926004808201939291829003018186803b158015610b8957600080fd5b505afa158015610b9d573d6000803e3d6000fd5b505050506040513d6020811015610bb357600080fd5b50516040516001600160e01b031960e086901b1681526001600160a01b038416600482019081526044820183905260606024830190815284516064840152845191929091608490910190602086019080838360005b83811015610c20578181015183820152602001610c08565b50505050905090810190601f168015610c4d5780820380516001836020036101000a031916815260200191505b50945050505050602060405180830381600087803b158015610c6e57600080fd5b505af1158015610c82573d6000803e3d6000fd5b505050506040513d6020811015610c9857600080fd5b5050604051849086907f63200225d1321c11d517f1149bde11b3355f6ff97c717c4e4d114ee85b7b6f5b90600090a35050505050565b336001600160a01b037f00000000000000000000000000000000000000000000000000000000000000001614610d3e576040805162461bcd60e51b815260206004820152601060248201526f13db9b1e4810535088185b1b1bddd95960821b604482015290519081900360640190fd5b7f00000000000000000000000000000000000000000000000000000000000000007f00000000000000000000000000000000000000000000000000000000000000006001600160a01b0316639e307dff6040518163ffffffff1660e01b815260040160206040518083038186803b158015610db857600080fd5b505afa158015610dcc573d6000803e3d6000fd5b505050506040513d6020811015610de257600080fd5b505114610e33576040805162461bcd60e51b815260206004820152601a60248201527913db9b1e48199bdc995a59db8818da185a5b88185b1b1bddd95960321b604482015290519081900360640190fd5b7f00000000000000000000000000000000000000000000000000000000000000006001600160a01b03167f00000000000000000000000000000000000000000000000000000000000000006001600160a01b031663d67bdd256040518163ffffffff1660e01b815260040160206040518083038186803b158015610eb657600080fd5b505afa158015610eca573d6000803e3d6000fd5b505050506040513d6020811015610ee057600080fd5b50516001600160a01b031614610f3a576040805162461bcd60e51b815260206004820152601a60248201527913db9b1e48199bdc995a59db881c1c9bde1e48185b1b1bddd95960321b604482015290519081900360640190fd5b60008281526020818152604080832084845290915290206003815460ff166005811115610f6357fe5b14610fae576040805162461bcd60e51b8152602060048201526016602482015275496e76616c696420726571756573742073746174757360501b604482015290519081900360640190fd5b60008381526020818152604080832085845290915280822080546001600160a81b03191681556001018290558051630ebbdd2b60e41b81526004810186905290517f00000000000000000000000000000000000000000000000000000000000000006001600160a01b03169263ebbdd2b0926024808201939182900301818387803b15801561103c57600080fd5b505af1158015611050573d6000803e3d6000fd5b50506040518492508591507ffc1cc9a0676bd1afbd872786f0b40d6beada8f67b97b31214746a0a2f335719c90600090a3505050565b7f000000000000000000000000000000000000000000000000000000000000000081565b336001600160a01b037f0000000000000000000000000000000000000000000000000000000000000000161461111a576040805162461bcd60e51b815260206004820152601060248201526f13db9b1e4810535088185b1b1bddd95960821b604482015290519081900360640190fd5b7f00000000000000000000000000000000000000000000000000000000000000007f00000000000000000000000000000000000000000000000000000000000000006001600160a01b0316639e307dff6040518163ffffffff1660e01b815260040160206040518083038186803b15801561119457600080fd5b505afa1580156111a8573d6000803e3d6000fd5b505050506040513d60208110156111be57600080fd5b50511461120f576040805162461bcd60e51b815260206004820152601a60248201527913db9b1e48199bdc995a59db8818da185a5b88185b1b1bddd95960321b604482015290519081900360640190fd5b7f00000000000000000000000000000000000000000000000000000000000000006001600160a01b03167f00000000000000000000000000000000000000000000000000000000000000006001600160a01b031663d67bdd256040518163ffffffff1660e01b815260040160206040518083038186803b15801561129257600080fd5b505afa1580156112a6573d6000803e3d6000fd5b505050506040513d60208110156112bc57600080fd5b50516001600160a01b031614611316576040805162461bcd60e51b815260206004820152601a60248201527913db9b1e48199bdc995a59db881c1c9bde1e48185b1b1bddd95960321b604482015290519081900360640190fd5b6000828152600160209081526040808320548383528184208185529092529091206003815460ff16600581111561134957fe5b14611394576040805162461bcd60e51b8152602060048201526016602482015275496e76616c696420726571756573742073746174757360501b604482015290519081900360640190fd5b8054600460ff199091161781556001810183905560408051848152905185917f1813d15d8cef51cff8bbd419a8e13e0655c1babea320dea4174d5e7bc40c4294919081900360200190a250505050565b60006020818152928152604080822090935290815220805460019091015460ff82169161010090046001600160a01b03169083565b60008281526020818152604080832084845290915290206001815460ff16600581111561144257fe5b1461148d576040805162461bcd60e51b8152602060048201526016602482015275496e76616c696420726571756573742073746174757360501b604482015290519081900360640190fd5b805460ff19168155604080516024810185905260448082018590528251808303909101815260649091018252602080820180516001600160e01b031663dfb0070760e01b908117909152835163e5789d0360e01b8152935190936001600160a01b037f0000000000000000000000000000000000000000000000000000000000000000169263dc8601b3927f0000000000000000000000000000000000000000000000000000000000000000928692869263e5789d03926004808201939291829003018186803b15801561156057600080fd5b505afa158015611574573d6000803e3d6000fd5b505050506040513d602081101561158a57600080fd5b50516040516001600160e01b031960e086901b1681526001600160a01b038416600482019081526044820183905260606024830190815284516064840152845191929091608490910190602086019080838360005b838110156115f75781810151838201526020016115df565b50505050905090810190601f1680156116245780820380516001836020036101000a031916815260200191505b50945050505050602060405180830381600087803b15801561164557600080fd5b505af1158015611659573d6000803e3d6000fd5b505050506040513d602081101561166f57600080fd5b5050604051849086907fa1d9dcb2196ff2e29a92d6f345a3bfef05f8c23666c25c8099e65508808d75c290600090a3505050505056fea264697066735822122078798effb3344bb84907fb3e485133d43874dbe474fb8c04f09d3352704341f264736f6c63430007060033",
  "devdoc": {
    "details": "This contract is meant to be deployed to side-chains (i.e.: xDAI) in which Reality.eth is deployed.",
    "kind": "dev",
    "methods": {
      "constructor": {
        "params": {
          "_amb": "ArbitraryMessageBridge contract address.",
          "_foreignChainId": "The ID of the chain where the foreign proxy is deployed.",
          "_foreignProxy": "The address of the proxy.",
          "_realitio": "Realitio contract address."
        }
      },
      "handleNotifiedRequest(bytes32,bytes32)": {
        "details": "This method exists because `receiveArbitrationRequest` is called by the AMB and cannot send messages back to it.",
        "params": {
          "_contestedAnswer": "The answer the requester deems to be incorrect.",
          "_questionID": "The ID of the question."
        }
      },
      "handleRejectedRequest(bytes32,bytes32)": {
        "details": "This method exists because `receiveArbitrationRequest` is called by the AMB and cannot send messages back to it. Reasons why the request might be rejected:  - The question does not exist  - The question was not answered yet  - The contested answer is different from the current best answer  - Another request was already accepted",
        "params": {
          "_contestedAnswer": "The answer the requester deems to be incorrect.",
          "_questionID": "The ID of the question."
        }
      },
      "receiveArbitrationAnswer(bytes32,bytes32)": {
        "params": {
          "_answer": "The answer from the arbitrator.",
          "_questionID": "The ID of the question."
        }
      },
      "receiveArbitrationFailure(bytes32,bytes32)": {
        "details": "Currently this can happen only if the arbitration cost increased in between the arbitration request and its acknowledgement.",
        "params": {
          "_contestedAnswer": "The answer the requester deems to be incorrect.",
          "_questionID": "The ID of the question."
        }
      },
      "receiveArbitrationRequest(bytes32,bytes32,address)": {
        "params": {
          "_contestedAnswer": "The answer the requester deems to be incorrect.",
          "_questionID": "The ID of the question.",
          "_requester": "The address of the user that requested arbitration."
        }
      },
      "reportArbitrationAnswer(bytes32,bytes32,bytes32,address)": {
        "details": "The Realitio contract validates the input parameters passed to this method, so making this publicly accessible is safe.",
        "params": {
          "_lastAnswerOrCommitmentID": "The last answer given, or its commitment ID if it was a commitment, to the question in the Realitio contract.",
          "_lastAnswerer": "The last answerer to the question in the Realitio contract.",
          "_lastHistoryHash": "The history hash given with the last answer to the question in the Realitio contract.",
          "_questionID": "The ID of the question."
        }
      }
    },
    "stateVariables": {
      "amb": {
        "details": "ArbitraryMessageBridge contract address. TRUSTED."
      },
      "foreignChainId": {
        "details": "The chain ID where the foreign proxy is deployed."
      },
      "foreignProxy": {
        "details": "Address of the counter-party proxy on the Foreign Chain. TRUSTED."
      },
      "metadata": {
        "details": "Metadata for Realitio interface."
      },
      "questionIDToContestedAnswer": {
        "details": "Associates a question ID with the contested answer that led to the arbitration be requested. questionIDToContestedAnswer[questionID]"
      },
      "realitio": {
        "details": "The address of the Realitio contract (v2.1+ required). TRUSTED."
      },
      "requests": {
        "details": "Associates an arbitration request with a question ID and a contested answer. requests[questionID][constestedAnswer]"
      }
    },
    "title": "Arbitration proxy for Realitio on the side-chain side (A.K.A. the Home Chain).",
    "version": 1
  },
  "userdoc": {
    "events": {
      "ArbitrationFailed(bytes32,bytes32)": {
        "notice": "To be emitted when the dispute could not be created on the Foreign Chain."
      },
      "ArbitrationFinished(bytes32)": {
        "notice": "To be emitted when reporting the arbitrator answer to Realitio."
      },
      "ArbitratorAnswered(bytes32,bytes32)": {
        "notice": "To be emitted when receiving the answer from the arbitrator."
      },
      "RequestAcknowledged(bytes32,bytes32)": {
        "notice": "To be emitted when the arbitration request acknowledgement is sent to the Foreign Chain."
      },
      "RequestCanceled(bytes32,bytes32)": {
        "notice": "To be emitted when the arbitration request is canceled."
      },
      "RequestNotified(bytes32,bytes32,address)": {
        "notice": "To be emitted when the Realitio contract has been notified of an arbitration request."
      },
      "RequestRejected(bytes32,bytes32,address)": {
        "notice": "To be emitted when arbitration request is rejected."
      }
    },
    "kind": "user",
    "methods": {
      "constructor": {
        "notice": "Creates an arbitration proxy on the home chain."
      },
      "handleNotifiedRequest(bytes32,bytes32)": {
        "notice": "Handles arbitration request after it has been notified to Realitio for a given question."
      },
      "handleRejectedRequest(bytes32,bytes32)": {
        "notice": "Handles arbitration request after it has been rejected."
      },
      "receiveArbitrationAnswer(bytes32,bytes32)": {
        "notice": "Receives the answer to a specified question."
      },
      "receiveArbitrationFailure(bytes32,bytes32)": {
        "notice": "Receives a failed attempt to request arbitration."
      },
      "receiveArbitrationRequest(bytes32,bytes32,address)": {
        "notice": "Receives the requested arbitration for a question."
      },
      "reportArbitrationAnswer(bytes32,bytes32,bytes32,address)": {
        "notice": "Reports the answer provided by the arbitrator to a specified question."
      }
    },
    "version": 1
  },
  "storageLayout": {
    "storage": [
      {
        "astId": 3034,
        "contract": "src/RealitioHomeArbitrationProxy.sol:RealitioHomeArbitrationProxy",
        "label": "requests",
        "offset": 0,
        "slot": "0",
        "type": "t_mapping(t_bytes32,t_mapping(t_bytes32,t_struct(Request)3027_storage))"
      },
      {
        "astId": 3039,
        "contract": "src/RealitioHomeArbitrationProxy.sol:RealitioHomeArbitrationProxy",
        "label": "questionIDToContestedAnswer",
        "offset": 0,
        "slot": "1",
        "type": "t_mapping(t_bytes32,t_bytes32)"
      }
    ],
    "types": {
      "t_address": {
        "encoding": "inplace",
        "label": "address",
        "numberOfBytes": "20"
      },
      "t_bytes32": {
        "encoding": "inplace",
        "label": "bytes32",
        "numberOfBytes": "32"
      },
      "t_enum(Status)3020": {
        "encoding": "inplace",
        "label": "enum RealitioHomeArbitrationProxy.Status",
        "numberOfBytes": "1"
      },
      "t_mapping(t_bytes32,t_bytes32)": {
        "encoding": "mapping",
        "key": "t_bytes32",
        "label": "mapping(bytes32 => bytes32)",
        "numberOfBytes": "32",
        "value": "t_bytes32"
      },
      "t_mapping(t_bytes32,t_mapping(t_bytes32,t_struct(Request)3027_storage))": {
        "encoding": "mapping",
        "key": "t_bytes32",
        "label": "mapping(bytes32 => mapping(bytes32 => struct RealitioHomeArbitrationProxy.Request))",
        "numberOfBytes": "32",
        "value": "t_mapping(t_bytes32,t_struct(Request)3027_storage)"
      },
      "t_mapping(t_bytes32,t_struct(Request)3027_storage)": {
        "encoding": "mapping",
        "key": "t_bytes32",
        "label": "mapping(bytes32 => struct RealitioHomeArbitrationProxy.Request)",
        "numberOfBytes": "32",
        "value": "t_struct(Request)3027_storage"
      },
      "t_struct(Request)3027_storage": {
        "encoding": "inplace",
        "label": "struct RealitioHomeArbitrationProxy.Request",
        "members": [
          {
            "astId": 3022,
            "contract": "src/RealitioHomeArbitrationProxy.sol:RealitioHomeArbitrationProxy",
            "label": "status",
            "offset": 0,
            "slot": "0",
            "type": "t_enum(Status)3020"
          },
          {
            "astId": 3024,
            "contract": "src/RealitioHomeArbitrationProxy.sol:RealitioHomeArbitrationProxy",
            "label": "requester",
            "offset": 1,
            "slot": "0",
            "type": "t_address"
          },
          {
            "astId": 3026,
            "contract": "src/RealitioHomeArbitrationProxy.sol:RealitioHomeArbitrationProxy",
            "label": "arbitratorAnswer",
            "offset": 0,
            "slot": "1",
            "type": "t_bytes32"
          }
        ],
        "numberOfBytes": "64"
      }
    }
  }
}