{
  "address": "0xCE4f321dF13a11EF1B8A2Fa9dE9F94b93F2f4d5f",
  "abi": [
    {
      "inputs": [
        {
          "internalType": "address",
          "name": "_checkpointManager",
          "type": "address"
        },
        {
          "internalType": "address",
          "name": "_fxRoot",
          "type": "address"
        },
        {
          "internalType": "address",
          "name": "_homeProxy",
          "type": "address"
        },
        {
          "internalType": "contract IArbitrator",
          "name": "_arbitrator",
          "type": "address"
        },
        {
          "internalType": "bytes",
          "name": "_arbitratorExtraData",
          "type": "bytes"
        },
        {
          "internalType": "string",
          "name": "_metaEvidence",
          "type": "string"
        },
        {
          "internalType": "string",
          "name": "_termsOfService",
          "type": "string"
        }
      ],
      "stateMutability": "nonpayable",
      "type": "constructor"
    },
    {
      "anonymous": false,
      "inputs": [
        {
          "indexed": true,
          "internalType": "bytes32",
          "name": "_questionID",
          "type": "bytes32"
        },
        {
          "indexed": true,
          "internalType": "address",
          "name": "_requester",
          "type": "address"
        }
      ],
      "name": "ArbitrationCanceled",
      "type": "event"
    },
    {
      "anonymous": false,
      "inputs": [
        {
          "indexed": true,
          "internalType": "bytes32",
          "name": "_questionID",
          "type": "bytes32"
        },
        {
          "indexed": true,
          "internalType": "address",
          "name": "_requester",
          "type": "address"
        },
        {
          "indexed": true,
          "internalType": "uint256",
          "name": "_disputeID",
          "type": "uint256"
        }
      ],
      "name": "ArbitrationCreated",
      "type": "event"
    },
    {
      "anonymous": false,
      "inputs": [
        {
          "indexed": true,
          "internalType": "bytes32",
          "name": "_questionID",
          "type": "bytes32"
        },
        {
          "indexed": true,
          "internalType": "address",
          "name": "_requester",
          "type": "address"
        }
      ],
      "name": "ArbitrationFailed",
      "type": "event"
    },
    {
      "anonymous": false,
      "inputs": [
        {
          "indexed": true,
          "internalType": "bytes32",
          "name": "_questionID",
          "type": "bytes32"
        },
        {
          "indexed": true,
          "internalType": "address",
          "name": "_requester",
          "type": "address"
        },
        {
          "indexed": false,
          "internalType": "uint256",
          "name": "_maxPrevious",
          "type": "uint256"
        }
      ],
      "name": "ArbitrationRequested",
      "type": "event"
    },
    {
      "anonymous": false,
      "inputs": [
        {
          "indexed": true,
          "internalType": "contract IArbitrator",
          "name": "_arbitrator",
          "type": "address"
        },
        {
          "indexed": true,
          "internalType": "uint256",
          "name": "_disputeID",
          "type": "uint256"
        },
        {
          "indexed": false,
          "internalType": "uint256",
          "name": "_metaEvidenceID",
          "type": "uint256"
        },
        {
          "indexed": false,
          "internalType": "uint256",
          "name": "_evidenceGroupID",
          "type": "uint256"
        }
      ],
      "name": "Dispute",
      "type": "event"
    },
    {
      "anonymous": false,
      "inputs": [
        {
          "indexed": true,
          "internalType": "contract IArbitrator",
          "name": "_arbitrator",
          "type": "address"
        },
        {
          "indexed": true,
          "internalType": "uint256",
          "name": "_evidenceGroupID",
          "type": "uint256"
        },
        {
          "indexed": true,
          "internalType": "address",
          "name": "_party",
          "type": "address"
        },
        {
          "indexed": false,
          "internalType": "string",
          "name": "_evidence",
          "type": "string"
        }
      ],
      "name": "Evidence",
      "type": "event"
    },
    {
      "anonymous": false,
      "inputs": [
        {
          "indexed": true,
          "internalType": "uint256",
          "name": "_metaEvidenceID",
          "type": "uint256"
        },
        {
          "indexed": false,
          "internalType": "string",
          "name": "_evidence",
          "type": "string"
        }
      ],
      "name": "MetaEvidence",
      "type": "event"
    },
    {
      "anonymous": false,
      "inputs": [
        {
          "indexed": true,
          "internalType": "contract IArbitrator",
          "name": "_arbitrator",
          "type": "address"
        },
        {
          "indexed": true,
          "internalType": "uint256",
          "name": "_disputeID",
          "type": "uint256"
        },
        {
          "indexed": false,
          "internalType": "uint256",
          "name": "_ruling",
          "type": "uint256"
        }
      ],
      "name": "Ruling",
      "type": "event"
    },
    {
      "inputs": [],
      "name": "META_EVIDENCE_ID",
      "outputs": [
        {
          "internalType": "uint256",
          "name": "",
          "type": "uint256"
        }
      ],
      "stateMutability": "view",
      "type": "function"
    },
    {
      "inputs": [],
      "name": "NUMBER_OF_CHOICES_FOR_ARBITRATOR",
      "outputs": [
        {
          "internalType": "uint256",
          "name": "",
          "type": "uint256"
        }
      ],
      "stateMutability": "view",
      "type": "function"
    },
    {
      "inputs": [],
      "name": "SEND_MESSAGE_EVENT_SIG",
      "outputs": [
        {
          "internalType": "bytes32",
          "name": "",
          "type": "bytes32"
        }
      ],
      "stateMutability": "view",
      "type": "function"
    },
    {
      "inputs": [
        {
          "internalType": "bytes32",
          "name": "",
          "type": "bytes32"
        },
        {
          "internalType": "address",
          "name": "",
          "type": "address"
        }
      ],
      "name": "arbitrationRequests",
      "outputs": [
        {
          "internalType": "enum RealitioForeignArbitrationProxy.Status",
          "name": "status",
          "type": "uint8"
        },
        {
          "internalType": "uint248",
          "name": "deposit",
          "type": "uint248"
        }
      ],
      "stateMutability": "view",
      "type": "function"
    },
    {
      "inputs": [],
      "name": "arbitrator",
      "outputs": [
        {
          "internalType": "contract IArbitrator",
          "name": "",
          "type": "address"
        }
      ],
      "stateMutability": "view",
      "type": "function"
    },
    {
      "inputs": [],
      "name": "arbitratorExtraData",
      "outputs": [
        {
          "internalType": "bytes",
          "name": "",
          "type": "bytes"
        }
      ],
      "stateMutability": "view",
      "type": "function"
    },
    {
      "inputs": [],
      "name": "checkpointManager",
      "outputs": [
        {
          "internalType": "contract ICheckpointManager",
          "name": "",
          "type": "address"
        }
      ],
      "stateMutability": "view",
      "type": "function"
    },
    {
      "inputs": [
        {
          "internalType": "uint256",
          "name": "",
          "type": "uint256"
        }
      ],
      "name": "disputeIDToDisputeDetails",
      "outputs": [
        {
          "internalType": "bytes32",
          "name": "questionID",
          "type": "bytes32"
        },
        {
          "internalType": "address",
          "name": "requester",
          "type": "address"
        }
      ],
      "stateMutability": "view",
      "type": "function"
    },
    {
      "inputs": [],
      "name": "fxChildTunnel",
      "outputs": [
        {
          "internalType": "address",
          "name": "",
          "type": "address"
        }
      ],
      "stateMutability": "view",
      "type": "function"
    },
    {
      "inputs": [],
      "name": "fxRoot",
      "outputs": [
        {
          "internalType": "contract IFxStateSender",
          "name": "",
          "type": "address"
        }
      ],
      "stateMutability": "view",
      "type": "function"
    },
    {
      "inputs": [
        {
          "internalType": "bytes32",
          "name": "",
          "type": "bytes32"
        }
      ],
      "name": "getDisputeFee",
      "outputs": [
        {
          "internalType": "uint256",
          "name": "",
          "type": "uint256"
        }
      ],
      "stateMutability": "view",
      "type": "function"
    },
    {
      "inputs": [
        {
          "internalType": "bytes32",
          "name": "_questionID",
          "type": "bytes32"
        },
        {
          "internalType": "address",
          "name": "_requester",
          "type": "address"
        }
      ],
      "name": "handleFailedDisputeCreation",
      "outputs": [],
      "stateMutability": "nonpayable",
      "type": "function"
    },
    {
      "inputs": [
        {
          "internalType": "bytes32",
          "name": "",
          "type": "bytes32"
        }
      ],
      "name": "processedExits",
      "outputs": [
        {
          "internalType": "bool",
          "name": "",
          "type": "bool"
        }
      ],
      "stateMutability": "view",
      "type": "function"
    },
    {
      "inputs": [
        {
          "internalType": "bytes32",
          "name": "",
          "type": "bytes32"
        }
      ],
      "name": "questionIDToDisputeExists",
      "outputs": [
        {
          "internalType": "bool",
          "name": "",
          "type": "bool"
        }
      ],
      "stateMutability": "view",
      "type": "function"
    },
    {
      "inputs": [
        {
          "internalType": "bytes32",
          "name": "_questionID",
          "type": "bytes32"
        },
        {
          "internalType": "address",
          "name": "_requester",
          "type": "address"
        }
      ],
      "name": "receiveArbitrationAcknowledgement",
      "outputs": [],
      "stateMutability": "nonpayable",
      "type": "function"
    },
    {
      "inputs": [
        {
          "internalType": "bytes32",
          "name": "_questionID",
          "type": "bytes32"
        },
        {
          "internalType": "address",
          "name": "_requester",
          "type": "address"
        }
      ],
      "name": "receiveArbitrationCancelation",
      "outputs": [],
      "stateMutability": "nonpayable",
      "type": "function"
    },
    {
      "inputs": [
        {
          "internalType": "bytes",
          "name": "inputData",
          "type": "bytes"
        }
      ],
      "name": "receiveMessage",
      "outputs": [],
      "stateMutability": "nonpayable",
      "type": "function"
    },
    {
      "inputs": [
        {
          "internalType": "bytes32",
          "name": "_questionID",
          "type": "bytes32"
        },
        {
          "internalType": "uint256",
          "name": "_maxPrevious",
          "type": "uint256"
        }
      ],
      "name": "requestArbitration",
      "outputs": [],
      "stateMutability": "payable",
      "type": "function"
    },
    {
      "inputs": [
        {
          "internalType": "uint256",
          "name": "_disputeID",
          "type": "uint256"
        },
        {
          "internalType": "uint256",
          "name": "_ruling",
          "type": "uint256"
        }
      ],
      "name": "rule",
      "outputs": [],
      "stateMutability": "nonpayable",
      "type": "function"
    },
    {
      "inputs": [],
      "name": "termsOfService",
      "outputs": [
        {
          "internalType": "string",
          "name": "",
          "type": "string"
        }
      ],
      "stateMutability": "view",
      "type": "function"
    }
  ],
  "transactionHash": "0x98e4e80936578dace62188c2d7a66109e3b4414fe13ecc2b1fff442cae11350e",
  "args": [
    "0x2890bA17EfE978480615e330ecB65333b880928e",
    "0x3d1d3E34f7fB6D26245E6640E1c50710eFFf15bA",
    "0x18c8a7ec7897177E4529065a7E7B0878358B3BfF",
    "0xCF5F227De666AF96Cf671Cd5727247A427b28b7A",
    "0x00000000000000000000000000000000000000000000000000000000000000000000000000000000000000000000000000000000000000000000000000000000",
    "/ipfs/Qmc2cpRZgT5PmR4ZikDsVG54xejKF62qSBBnYf4R5bpiNH/realitio.json",
    "/ipfs/Qmf67KPWvFLSQEczsb8Kh9HtGUevNtSSVELqTS8yTe95GW/omen-rules.pdf"
  ],
  "solcInputHash": "25f18a1f52f617770f1f41441056a606",
  "bytecode": "0x60a06040523480156200001157600080fd5b5060405162002cd238038062002cd2833981810160405260e08110156200003757600080fd5b81516020830151604080850151606086015160808701805193519597949692959194919392820192846401000000008211156200007357600080fd5b9083019060208201858111156200008957600080fd5b8251640100000000811182820188101715620000a457600080fd5b82525081516020918201929091019080838360005b83811015620000d3578181015183820152602001620000b9565b50505050905090810190601f168015620001015780820380516001836020036101000a031916815260200191505b50604052602001805160405193929190846401000000008211156200012557600080fd5b9083019060208201858111156200013b57600080fd5b82516401000000008111828201881017156200015657600080fd5b82525081516020918201929091019080838360005b83811015620001855781810151838201526020016200016b565b50505050905090810190601f168015620001b35780820380516001836020036101000a031916815260200191505b5060405260200180516040519392919084640100000000821115620001d757600080fd5b908301906020820185811115620001ed57600080fd5b82516401000000008111828201881017156200020857600080fd5b82525081516020918201929091019080838360005b83811015620002375781810151838201526020016200021d565b50505050905090810190601f168015620002655780820380516001836020036101000a031916815260200191505b506040525050600180546001600160a01b03808b166001600160a01b03199283161790925560008054838b169083161790556002805492891692909116919091179055506001600160601b0319606085901b166080528251620002d090600490602086019062000392565b508051620002e690600590602084019062000392565b5060007f61606860eb6c87306811e2695215385101daab53bd6ab4e9f9049aead9363c7d836040518080602001828103825283818151815260200191508051906020019080838360005b838110156200034a57818101518382015260200162000330565b50505050905090810190601f168015620003785780820380516001836020036101000a031916815260200191505b509250505060405180910390a2505050505050506200043e565b828054600181600116156101000203166002900490600052602060002090601f016020900481019282620003ca576000855562000415565b82601f10620003e557805160ff191683800117855562000415565b8280016001018555821562000415579182015b8281111562000415578251825591602001919060010190620003f8565b506200042392915062000427565b5090565b5b8082111562000423576000815560010162000428565b60805160601c6128536200047f6000398061069c528061081a5280610a0b5280610a7c5280610c98528061111d5280611247528061144352506128536000f3fe60806040526004361061011f5760003560e01c8063972c4928116100a0578063be26fc8811610064578063be26fc881461042f578063c0857ba014610468578063de9b771f1461047d578063e742e2ed14610492578063f953cec7146104cb5761011f565b8063972c492814610318578063a22352e21461032d578063a39782a614610357578063a829c3d1146103c1578063bde80ca7146103e45761011f565b80634aa6a1e4116100e75780634aa6a1e41461023157806354dba90f1461026a578063576dc2891461027f578063607f2d42146102bd5780636cc6cde1146102e75761011f565b80630c7ac7b6146101245780630e387de6146101ae5780630fa8c7ce146101d55780631e117f49146101ea578063311a6c56146101ff575b600080fd5b34801561013057600080fd5b5061013961057e565b6040805160208082528351818301528351919283929083019185019080838360005b8381101561017357818101518382015260200161015b565b50505050905090810190601f1680156101a05780820380516001836020036101000a031916815260200191505b509250505060405180910390f35b3480156101ba57600080fd5b506101c361060c565b60408051918252519081900360200190f35b3480156101e157600080fd5b506101c3610630565b3480156101f657600080fd5b50610139610636565b34801561020b57600080fd5b5061022f6004803603604081101561022257600080fd5b5080359060200135610691565b005b34801561023d57600080fd5b5061022f6004803603604081101561025457600080fd5b50803590602001356001600160a01b0316610870565b34801561027657600080fd5b506101c36109da565b34801561028b57600080fd5b506102a9600480360360208110156102a257600080fd5b50356109df565b604080519115158252519081900360200190f35b3480156102c957600080fd5b506102a9600480360360208110156102e057600080fd5b50356109f4565b3480156102f357600080fd5b506102fc610a09565b604080516001600160a01b039092168252519081900360200190f35b34801561032457600080fd5b506102fc610a2d565b34801561033957600080fd5b506101c36004803603602081101561035057600080fd5b5035610a3c565b34801561036357600080fd5b506103906004803603604081101561037a57600080fd5b50803590602001356001600160a01b0316610b4f565b604051808360048111156103a057fe5b8152602001826001600160f81b031681526020019250505060405180910390f35b61022f600480360360408110156103d757600080fd5b5080359060200135610b7f565b3480156103f057600080fd5b5061040e6004803603602081101561040757600080fd5b5035610e63565b604080519283526001600160a01b0390911660208301528051918290030190f35b34801561043b57600080fd5b5061022f6004803603604081101561045257600080fd5b50803590602001356001600160a01b0316610e85565b34801561047457600080fd5b506102fc610fe8565b34801561048957600080fd5b506102fc610ff7565b34801561049e57600080fd5b5061022f600480360360408110156104b557600080fd5b50803590602001356001600160a01b0316611006565b3480156104d757600080fd5b5061022f600480360360208110156104ee57600080fd5b81019060208101813564010000000081111561050957600080fd5b82018360208201111561051b57600080fd5b8035906020019184600183028401116401000000008311171561053d57600080fd5b91908080601f0160208091040260200160405190810160405280939291908181526020018383808284376000920191909152509295506114e0945050505050565b6004805460408051602060026001851615610100026000190190941693909304601f810184900484028201840190925281815292918301828280156106045780601f106105d957610100808354040283529160200191610604565b820191906000526020600020905b8154815290600101906020018083116105e757829003601f168201915b505050505081565b7f8c5261668696ce22758910d05bab8f186d6eb247ceac2af2e82c7dc17669b03681565b60011981565b6005805460408051602060026001851615610100026000190190941693909304601f810184900484028201840190925281815292918301828280156106045780601f106105d957610100808354040283529160200191610604565b336001600160a01b037f0000000000000000000000000000000000000000000000000000000000000000161461070e576040805162461bcd60e51b815260206004820152601760248201527f4f6e6c792061726269747261746f7220616c6c6f776564000000000000000000604482015290519081900360640190fd5b600082815260076020908152604080832080546001820154818652600685528386206001600160a01b039091168087529452919093209091906002815460ff16600481111561075957fe5b146107a8576040805162461bcd60e51b815260206004820152601a602482015279496e76616c6964206172626974726174696f6e2073746174757360301b604482015290519081900360640190fd5b805460ff191660031781556040805160248101859052600019870160448083018290528351808403909101815260649092019092526020810180516306bad43760e51b6001600160e01b03909116811790915290610805816114fa565b6040805189815290518a916001600160a01b037f000000000000000000000000000000000000000000000000000000000000000016917f394027a5fa6e098a1191094d1719d6929b9abc535fcc0c8f448d6a4e756222769181900360200190a3505050505050505050565b60008281526006602090815260408083206001600160a01b038516845290915290206004815460ff1660048111156108a457fe5b146108f3576040805162461bcd60e51b815260206004820152601a602482015279496e76616c6964206172626974726174696f6e2073746174757360301b604482015290519081900360640190fd5b805460008481526006602090815260408083206001600160a01b0387168085529252808320839055516101009093046001600160f81b03169290916108fc841502918491818181858888f1505060408051602481018990526001600160a01b0388166044808301919091528251808303909101815260649091019091526020810180516001600160e01b03166305fb2b4f60e51b9081179091529350915061099c9050816114fa565b6040516001600160a01b0386169087907fe7700735be0b02f71ef1d623678daf36cd936af4c349a22ad9d5a8b217df0dd990600090a3505050505050565b600081565b60086020526000908152604090205460ff1681565b60036020526000908152604090205460ff1681565b7f000000000000000000000000000000000000000000000000000000000000000081565b6002546001600160a01b031681565b60405163f7434ea960e01b815260206004828101918252805460026000196101006001841615020190911604602484018190526000936001600160a01b037f0000000000000000000000000000000000000000000000000000000000000000169363f7434ea993929091829160449091019084908015610afd5780601f10610ad257610100808354040283529160200191610afd565b820191906000526020600020905b815481529060010190602001808311610ae057829003601f168201915b50509250505060206040518083038186803b158015610b1b57600080fd5b505afa158015610b2f573d6000803e3d6000fd5b505050506040513d6020811015610b4557600080fd5b505190505b919050565b600660209081526000928352604080842090915290825290205460ff81169061010090046001600160f81b031682565b60008281526008602052604090205460ff1615610bdc576040805162461bcd60e51b81526020600482015260166024820152754469737075746520616c72656164792065786973747360501b604482015290519081900360640190fd5b6000828152600660209081526040808320338452909152812090815460ff166004811115610c0657fe5b14610c58576040805162461bcd60e51b815260206004820152601d60248201527f4172626974726174696f6e20616c726561647920726571756573746564000000604482015290519081900360640190fd5b60405163f7434ea960e01b815260206004828101918252805460026000196101006001841615020190911604602484018190526000936001600160a01b037f0000000000000000000000000000000000000000000000000000000000000000169363f7434ea993929091829160449091019084908015610d195780601f10610cee57610100808354040283529160200191610d19565b820191906000526020600020905b815481529060010190602001808311610cfc57829003601f168201915b50509250505060206040518083038186803b158015610d3757600080fd5b505afa158015610d4b573d6000803e3d6000fd5b505050506040513d6020811015610d6157600080fd5b5051905034811115610db2576040805162461bcd60e51b81526020600482015260156024820152744465706f7369742076616c756520746f6f206c6f7760581b604482015290519081900360640190fd5b8154600160ff199091161760ff16610100346001600160f81b0316021782556040805160248101869052336044820152606480820186905282518083039091018152608490910190915260208101805163666b746960e11b6001600160e01b03909116811790915290610e24816114fa565b604080518681529051339188917f2067d1b3170fe803dd001b95b04f9d372eb9c3e5a48ed131a62962a7300bdb209181900360200190a3505050505050565b600760205260009081526040902080546001909101546001600160a01b031682565b333014610ed9576040805162461bcd60e51b815260206004820152601d60248201527f43616e206f6e6c792062652063616c6c65642076696120627269646765000000604482015290519081900360640190fd5b60008281526006602090815260408083206001600160a01b038516845290915290206001815460ff166004811115610f0d57fe5b14610f5c576040805162461bcd60e51b815260206004820152601a602482015279496e76616c6964206172626974726174696f6e2073746174757360301b604482015290519081900360640190fd5b805460008481526006602090815260408083206001600160a01b0387168085529252808320839055516101009093046001600160f81b03169290916108fc841502918491818181858888f150506040516001600160a01b03871693508792507fe7700735be0b02f71ef1d623678daf36cd936af4c349a22ad9d5a8b217df0dd99150600090a350505050565b6001546001600160a01b031681565b6000546001600160a01b031681565b33301461105a576040805162461bcd60e51b815260206004820152601d60248201527f43616e206f6e6c792062652063616c6c65642076696120627269646765000000604482015290519081900360640190fd5b60008281526006602090815260408083206001600160a01b038516845290915290206001815460ff16600481111561108e57fe5b146110dd576040805162461bcd60e51b815260206004820152601a602482015279496e76616c6964206172626974726174696f6e2073746174757360301b604482015290519081900360640190fd5b60405163f7434ea960e01b815260206004828101918252805460026000196101006001841615020190911604602484018190526000936001600160a01b037f0000000000000000000000000000000000000000000000000000000000000000169363f7434ea99392909182916044909101908490801561119e5780601f106111735761010080835404028352916020019161119e565b820191906000526020600020905b81548152906001019060200180831161118157829003601f168201915b50509250505060206040518083038186803b1580156111bc57600080fd5b505afa1580156111d0573d6000803e3d6000fd5b505050506040513d60208110156111e657600080fd5b5051825490915061010090046001600160f81b03168111611498576040805163c13517e160e01b8152600119600482810182815260248401948552815460026101006001831615026000190190911604604485018190526001600160a01b037f0000000000000000000000000000000000000000000000000000000000000000169563c13517e1958895949392606490910190849080156112c85780601f1061129d576101008083540402835291602001916112c8565b820191906000526020600020905b8154815290600101906020018083116112ab57829003601f168201915b505093505050506020604051808303818588803b1580156112e857600080fd5b505af19350505050801561130e57506040513d602081101561130957600080fd5b505160015b61135857815460ff191660041782556040516001600160a01b0384169085907f9beda0c81abc1c65da7685f113195974dfddb781dfde6263e5a1b13a5356ffad90600090a3611493565b6000818152600760209081526040808320888155600180820180546001600160a01b0319166001600160a01b038b1617905589855260089093529220805460ff199081169092179055845460029181169190911760ff16855561010090046001600160f81b031683900380156113ee576040516001600160a01b0387169082156108fc029083906000818181858888f150505050505b82866001600160a01b0316887fcf9bcbc2efae51060af73ef64119281007f63eada739f19c41c181d8350fa81460405160405180910390a4604080516000815260208101899052815185926001600160a01b037f000000000000000000000000000000000000000000000000000000000000000016927f74baab670a4015ab2f1b467c5252a96141a2573f2908e58a92081e80d3cfde3d929081900390910190a35050505b6114da565b815460ff191660041782556040516001600160a01b0384169085907f9beda0c81abc1c65da7685f113195974dfddb781dfde6263e5a1b13a5356ffad90600090a35b50505050565b60006114eb826115d3565b90506114f681611a6c565b5050565b600080546002546040805163b472047760e01b81526001600160a01b039283166004820181815260248301938452875160448401528751949095169563b472047795919488949293606401916020860191908190849084905b8381101561156b578181015183820152602001611553565b50505050905090810190601f1680156115985780820380516001836020036101000a031916815260200191505b509350505050600060405180830381600087803b1580156115b857600080fd5b505af11580156115cc573d6000803e3d6000fd5b5050505050565b606060006115e86115e384611b65565b611b8a565b90506000611609826002815181106115fc57fe5b6020026020010151611c72565b61162e6116298460088151811061161c57fe5b6020026020010151611cd2565b611d57565b61163e846009815181106115fc57fe5b6040516020018084815260200183805190602001908083835b602083106116765780518252601f199092019160209182019101611657565b51815160209384036101000a6000190180199092169116179052920193845250604080518085038152938201815283519382019390932060008181526003909252929020549194505060ff1615915061170290505760405162461bcd60e51b81526004018080602001828103825260248152602001806127d56024913960400191505060405180910390fd5b6000818152600360205260408120805460ff19166001179055825161173b906115e390611736908690600690811061161c57fe5b611b65565b9050600061175c8260038151811061174f57fe5b6020026020010151611b8a565b61176c856009815181106115fc57fe5b8151811061177657fe5b60200260200101519050600061178b82611b8a565b90506117aa8160008151811061179d57fe5b6020026020010151611ecb565b6002546001600160a01b039081169116146117f65760405162461bcd60e51b81526004018080602001828103825260258152602001806127f96025913960400191505060405180910390fd5b61183e6118098660068151811061161c57fe5b6118198760088151811061161c57fe5b6118298860078151811061161c57fe5b611839896005815181106115fc57fe5b611ee5565b6118795760405162461bcd60e51b81526004018080602001828103825260238152602001806127b26023913960400191505060405180910390fd5b6118e761188c866002815181106115fc57fe5b61189c876003815181106115fc57fe5b6118ac886004815181106115fc57fe5b60001b6118bf896005815181106115fc57fe5b60001b6118d28a6000815181106115fc57fe5b6118e28b60018151811061161c57fe5b612125565b5060006118fa8260018151811061174f57fe5b90507f8c5261668696ce22758910d05bab8f186d6eb247ceac2af2e82c7dc17669b03660001b611930826000815181106115fc57fe5b14611982576040805162461bcd60e51b815260206004820152601f60248201527f4678526f6f7454756e6e656c3a20494e56414c49445f5349474e415455524500604482015290519081900360640190fd5b60006119948360028151811061161c57fe5b905060008180602001905160208110156119ad57600080fd5b81019080805160405193929190846401000000008211156119cd57600080fd5b9083019060208201858111156119e257600080fd5b82516401000000008111828201881017156119fc57600080fd5b82525081516020918201929091019080838360005b83811015611a29578181015183820152602001611a11565b50505050905090810190601f168015611a565780820380516001836020036101000a031916815260200191505b5060405250919c9b505050505050505050505050565b6000306001600160a01b0316826040518082805190602001908083835b60208310611aa85780518252601f199092019160209182019101611a89565b6001836020036101000a0380198251168184511680821785525050505050509050019150506000604051808303816000865af19150503d8060008114611b0a576040519150601f19603f3d011682016040523d82523d6000602084013e611b0f565b606091505b50509050806114f6576040805162461bcd60e51b815260206004820152601760248201527f4661696c656420746f2063616c6c20636f6e7472616374000000000000000000604482015290519081900360640190fd5b611b6d612797565b506040805180820190915281518152602082810190820152919050565b6060611b9582612297565b611b9e57600080fd5b6000611ba9836122d1565b905060008167ffffffffffffffff81118015611bc457600080fd5b50604051908082528060200260200182016040528015611bfe57816020015b611beb612797565b815260200190600190039081611be35790505b5090506000611c108560200151612329565b60208601510190506000805b84811015611c6757611c2d8361238c565b9150604051806040016040528083815260200184815250848281518110611c5057fe5b602090810291909101015291810191600101611c1c565b509195945050505050565b805160009015801590611c8757508151602110155b611c9057600080fd5b6000611c9f8360200151612329565b83516020808601518301805193945091849003929190831015611cc957826020036101000a820491505b50949350505050565b8051606090611ce057600080fd5b6000611cef8360200151612329565b835190915081900360008167ffffffffffffffff81118015611d1057600080fd5b506040519080825280601f01601f191660200182016040528015611d3b576020820181803683370190505b5090506000816020019050611cc9848760200151018285612425565b60408051602081019091526000815281516060919015611ec557600080611d7f600086612470565b60f81c90506001811480611d9657508060ff166003145b15611e2557600185516002020367ffffffffffffffff81118015611db957600080fd5b506040519080825280601f01601f191660200182016040528015611de4576020820181803683370190505b5092506000611df4600187612470565b90508084600081518110611e0457fe5b60200101906001600160f81b031916908160001a9053506001925050611e76565b600285516002020367ffffffffffffffff81118015611e4357600080fd5b506040519080825280601f01601f191660200182016040528015611e6e576020820181803683370190505b509250600091505b60ff82165b8351811015611ec157611e968360ff16820360020187612470565b848281518110611ea257fe5b60200101906001600160f81b031916908160001a905350600101611e7b565b5050505b92915050565b8051600090601514611edc57600080fd5b611ec582611c72565b600080611ef184611b65565b90506000611efe82611b8a565b905060608085600080611f108b611d57565b9050805160001415611f2c57600097505050505050505061211d565b60005b8651811015612114578151831115611f525760009850505050505050505061211d565b611f6e878281518110611f6157fe5b60200260200101516124cd565b955085805190602001208414611f8f5760009850505050505050505061211d565b611f9e87828151811061174f57fe5b945084516011141561205b578151831415611ffa578c80519060200120611fcb8660108151811061161c57fe5b805190602001201415611fe95760019850505050505050505061211d565b60009850505050505050505061211d565b600082848151811061200857fe5b016020015160f81c9050601081111561202d576000995050505050505050505061211d565b61204c868260ff168151811061203f57fe5b6020026020010151612546565b9450506001929092019161210c565b845160021415611fe957600061208161207a8760008151811061161c57fe5b8486612563565b9050825181850114156120d7578d805190602001206120a68760018151811061161c57fe5b8051906020012014156120c5576001995050505050505050505061211d565b6000995050505050505050505061211d565b806120ee576000995050505050505050505061211d565b80840193506121038660018151811061203f57fe5b945061210c9050565b600101611f2f565b50505050505050505b949350505050565b600154604080516320a9cea560e11b81526004810185905290516000928392839283926001600160a01b0316916341539d4a9160248083019260a0929190829003018186803b15801561217757600080fd5b505afa15801561218b573d6000803e3d6000fd5b505050506040513d60a08110156121a157600080fd5b8101908080519060200190929190805190602001909291908051906020019092919080519060200190929190805190602001909291905050505093505092509250612239828b0384878d8d8d8d6040516020018085815260200184815260200183815260200182815260200194505050505060405160208183030381529060405280519060200120612641909392919063ffffffff16565b61228a576040805162461bcd60e51b815260206004820152601c60248201527f4678526f6f7454756e6e656c3a20494e56414c49445f48454144455200000000604482015290519081900360640190fd5b9998505050505050505050565b80516000906122a857506000610b4a565b6020820151805160001a9060c08210156122c757600092505050610b4a565b5060019392505050565b80516000906122e257506000610b4a565b6000806122f28460200151612329565b602085015185519181019250015b80821015612320576123118261238c565b60019093019290910190612300565b50909392505050565b8051600090811a6080811015612343576000915050610b4a565b60b881108061235e575060c0811080159061235e575060f881105b1561236d576001915050610b4a565b60c08110156123815760b519019050610b4a565b60f519019050610b4a565b80516000908190811a60808110156123a7576001915061241e565b60b88110156123bc57607e198101915061241e565b60c08110156123e95760b78103600185019450806020036101000a8551046001820181019350505061241e565b60f88110156123fe5760be198101915061241e565b60f78103600185019450806020036101000a855104600182018101935050505b5092915050565b8061242f5761246b565b5b6020811061244f578251825260209283019290910190601f1901612430565b8251825160208390036101000a60001901801990921691161782525b505050565b600060028306156124a157601082600285048151811061248c57fe5b016020015160f81c8161249b57fe5b066124c3565b60108260028504815181106124b257fe5b016020015160f81c816124c157fe5b045b60f81b9392505050565b60606000826000015167ffffffffffffffff811180156124ec57600080fd5b506040519080825280601f01601f191660200182016040528015612517576020820181803683370190505b50905080516000141561252b579050610b4a565b600081602001905061241e8460200151828660000151612425565b805160009060211461255757600080fd5b50602001516001015190565b6000808061257086611d57565b90506000815167ffffffffffffffff8111801561258c57600080fd5b506040519080825280601f01601f1916602001820160405280156125b7576020820181803683370190505b509050845b825186018110156126115760008782815181106125d557fe5b602001015160f81c60f81b90508083888403815181106125f157fe5b60200101906001600160f81b031916908160001a905350506001016125bc565b508080519060200120828051906020012014156126315781519250612636565b600092505b509095945050505050565b6000602082518161264e57fe5b0615612698576040805162461bcd60e51b8152602060048201526014602482015273092dcecc2d8d2c840e0e4dedecc40d8cadccee8d60631b604482015290519081900360640190fd5b600060208351816126a557fe5b0490508060020a85106126f7576040805162461bcd60e51b81526020600482015260156024820152744c65616620696e64657820697320746f6f2062696760581b604482015290519081900360640190fd5b60008660205b855181116127895785810151925060028806612749578183604051602001808381526020018281526020019250505060405160208183030381529060405280519060200120915061277b565b828260405160200180838152602001828152602001925050506040516020818303038152906040528051906020012091505b6002880497506020016126fd565b509094149695505050505050565b60405180604001604052806000815260200160008152509056fe4678526f6f7454756e6e656c3a20494e56414c49445f524543454950545f50524f4f464678526f6f7454756e6e656c3a20455849545f414c52454144595f50524f4345535345444678526f6f7454756e6e656c3a20494e56414c49445f46585f4348494c445f54554e4e454ca2646970667358221220a0c6237f08e90ac312358044cc92a44af2acbea43975b9d5122601d78e07af5d64736f6c63430007060033",
  "devdoc": {
    "details": "This contract is meant to be deployed to the Ethereum chains where Kleros is deployed.",
    "kind": "dev",
    "methods": {
      "constructor": {
        "params": {
          "_arbitrator": "Arbitrator contract address.",
          "_arbitratorExtraData": "The extra data used to raise a dispute in the arbitrator.",
          "_checkpointManager": "For Polygon FX-portal bridge",
          "_fxRoot": "Address of the FxRoot contract of the Polygon bridge",
          "_homeProxy": "The address of the proxy.",
          "_metaEvidence": "The URI of the meta evidence file.",
          "_termsOfService": "The path for the Terms of Service for Kleros as an arbitrator for Realitio."
        }
      },
      "getDisputeFee(bytes32)": {
        "returns": {
          "_0": "The fee to create a dispute."
        }
      },
      "handleFailedDisputeCreation(bytes32,address)": {
        "params": {
          "_questionID": "The ID of the question.",
          "_requester": "The address of the arbitration requester."
        }
      },
      "receiveArbitrationAcknowledgement(bytes32,address)": {
        "params": {
          "_questionID": "The ID of the question.",
          "_requester": "The address of the arbitration requester."
        }
      },
      "receiveArbitrationCancelation(bytes32,address)": {
        "params": {
          "_questionID": "The ID of the question.",
          "_requester": "The address of the arbitration requester."
        }
      },
      "receiveMessage(bytes)": {
        "details": "This function verifies if the transaction actually happened on child chain",
        "params": {
          "inputData": "RLP encoded data of the reference tx containing following list of fields  0 - headerNumber - Checkpoint header block number containing the reference tx  1 - blockProof - Proof that the block header (in the child chain) is a leaf in the submitted merkle root  2 - blockNumber - Block number containing the reference tx on child chain  3 - blockTime - Reference tx block time  4 - txRoot - Transactions root of block  5 - receiptRoot - Receipts root of block  6 - receipt - Receipt of the reference transaction  7 - receiptProof - Merkle proof of the reference receipt  8 - branchMask - 32 bits denoting the path of receipt in merkle tree  9 - receiptLogIndex - Log Index to read from the receipt"
        }
      },
      "requestArbitration(bytes32,uint256)": {
        "params": {
          "_maxPrevious": "The maximum value of the current bond for the question. The arbitration request will get rejected if the current bond is greater than _maxPrevious. If set to 0, _maxPrevious is ignored.",
          "_questionID": "The ID of the question."
        }
      },
      "rule(uint256,uint256)": {
        "details": "Note that 0 is reserved for \"Unable/refused to arbitrate\" and we map it to `bytes32(-1)` which has a similar meaning in Realitio.",
        "params": {
          "_disputeID": "The ID of the dispute in the ERC792 arbitrator.",
          "_ruling": "The ruling given by the arbitrator."
        }
      }
    },
    "stateVariables": {
      "META_EVIDENCE_ID": {
        "details": "The ID of the MetaEvidence for disputes."
      },
      "NUMBER_OF_CHOICES_FOR_ARBITRATOR": {
        "details": "The number of choices for the arbitrator. Kleros is currently able to provide ruling values of up to 2^256 - 2."
      },
      "arbitrationRequests": {
        "details": "Tracks arbitration requests for question ID. arbitrationRequests[questionID][requester]"
      },
      "arbitrator": {
        "details": "The address of the arbitrator. TRUSTED."
      },
      "arbitratorExtraData": {
        "details": "The extra data used to raise a dispute in the arbitrator."
      },
      "disputeIDToDisputeDetails": {
        "details": "Associates dispute ID to question ID and the requester. disputeIDToDisputeDetails[disputeID] -> {questionID, requester}"
      },
      "questionIDToDisputeExists": {
        "details": "Whether a dispute has already been created for the given question ID or not. questionIDToDisputeExists[questionID]"
      },
      "termsOfService": {
        "details": "The path for the Terms of Service for Kleros as an arbitrator for Realitio."
      }
    },
    "title": "Arbitration proxy for Realitio on Ethereum side (A.K.A. the Foreign Chain).",
    "version": 1
  },
  "userdoc": {
    "events": {
      "ArbitrationCanceled(bytes32,address)": {
        "notice": "Should be emitted when the arbitration is canceled by the Home Chain."
      },
      "ArbitrationCreated(bytes32,address,uint256)": {
        "notice": "Should be emitted when the dispute is created."
      },
      "ArbitrationFailed(bytes32,address)": {
        "notice": "Should be emitted when the dispute could not be created."
      },
      "ArbitrationRequested(bytes32,address,uint256)": {
        "notice": "Should be emitted when the arbitration is requested."
      }
    },
    "kind": "user",
    "methods": {
      "constructor": {
        "notice": "Creates an arbitration proxy on the foreign chain."
      },
      "getDisputeFee(bytes32)": {
        "notice": "Gets the fee to create a dispute."
      },
      "handleFailedDisputeCreation(bytes32,address)": {
        "notice": "Cancels the arbitration in case the dispute could not be created."
      },
      "receiveArbitrationAcknowledgement(bytes32,address)": {
        "notice": "Receives the acknowledgement of the arbitration request for the given question and requester. TRUSTED."
      },
      "receiveArbitrationCancelation(bytes32,address)": {
        "notice": "Receives the cancelation of the arbitration request for the given question and requester. TRUSTED."
      },
      "receiveMessage(bytes)": {
        "notice": "receive message from  L2 to L1, validated by proof"
      },
      "requestArbitration(bytes32,uint256)": {
        "notice": "Requests arbitration for the given question and contested answer."
      },
      "rule(uint256,uint256)": {
        "notice": "Rules a specified dispute."
      }
    },
    "version": 1
  },
  "storageLayout": {
    "storage": [
      {
        "astId": 3611,
        "contract": "src/RealitioForeignArbitrationProxy.sol:RealitioForeignArbitrationProxy",
        "label": "fxRoot",
        "offset": 0,
        "slot": "0",
        "type": "t_contract(IFxStateSender)3580"
      },
      {
        "astId": 3613,
        "contract": "src/RealitioForeignArbitrationProxy.sol:RealitioForeignArbitrationProxy",
        "label": "checkpointManager",
        "offset": 0,
        "slot": "1",
        "type": "t_contract(ICheckpointManager)3597"
      },
      {
        "astId": 3615,
        "contract": "src/RealitioForeignArbitrationProxy.sol:RealitioForeignArbitrationProxy",
        "label": "fxChildTunnel",
        "offset": 0,
        "slot": "2",
        "type": "t_address"
      },
      {
        "astId": 3619,
        "contract": "src/RealitioForeignArbitrationProxy.sol:RealitioForeignArbitrationProxy",
        "label": "processedExits",
        "offset": 0,
        "slot": "3",
        "type": "t_mapping(t_bytes32,t_bool)"
      },
      {
        "astId": 565,
        "contract": "src/RealitioForeignArbitrationProxy.sol:RealitioForeignArbitrationProxy",
        "label": "arbitratorExtraData",
        "offset": 0,
        "slot": "4",
        "type": "t_bytes_storage"
      },
      {
        "astId": 568,
        "contract": "src/RealitioForeignArbitrationProxy.sol:RealitioForeignArbitrationProxy",
        "label": "termsOfService",
        "offset": 0,
        "slot": "5",
        "type": "t_string_storage"
      },
      {
        "astId": 605,
        "contract": "src/RealitioForeignArbitrationProxy.sol:RealitioForeignArbitrationProxy",
        "label": "arbitrationRequests",
        "offset": 0,
        "slot": "6",
        "type": "t_mapping(t_bytes32,t_mapping(t_address,t_struct(ArbitrationRequest)593_storage))"
      },
      {
        "astId": 610,
        "contract": "src/RealitioForeignArbitrationProxy.sol:RealitioForeignArbitrationProxy",
        "label": "disputeIDToDisputeDetails",
        "offset": 0,
        "slot": "7",
        "type": "t_mapping(t_uint256,t_struct(DisputeDetails)598_storage)"
      },
      {
        "astId": 615,
        "contract": "src/RealitioForeignArbitrationProxy.sol:RealitioForeignArbitrationProxy",
        "label": "questionIDToDisputeExists",
        "offset": 0,
        "slot": "8",
        "type": "t_mapping(t_bytes32,t_bool)"
      }
    ],
    "types": {
      "t_address": {
        "encoding": "inplace",
        "label": "address",
        "numberOfBytes": "20"
      },
      "t_bool": {
        "encoding": "inplace",
        "label": "bool",
        "numberOfBytes": "1"
      },
      "t_bytes32": {
        "encoding": "inplace",
        "label": "bytes32",
        "numberOfBytes": "32"
      },
      "t_bytes_storage": {
        "encoding": "bytes",
        "label": "bytes",
        "numberOfBytes": "32"
      },
      "t_contract(ICheckpointManager)3597": {
        "encoding": "inplace",
        "label": "contract ICheckpointManager",
        "numberOfBytes": "20"
      },
      "t_contract(IFxStateSender)3580": {
        "encoding": "inplace",
        "label": "contract IFxStateSender",
        "numberOfBytes": "20"
      },
      "t_enum(Status)588": {
        "encoding": "inplace",
        "label": "enum RealitioForeignArbitrationProxy.Status",
        "numberOfBytes": "1"
      },
      "t_mapping(t_address,t_struct(ArbitrationRequest)593_storage)": {
        "encoding": "mapping",
        "key": "t_address",
        "label": "mapping(address => struct RealitioForeignArbitrationProxy.ArbitrationRequest)",
        "numberOfBytes": "32",
        "value": "t_struct(ArbitrationRequest)593_storage"
      },
      "t_mapping(t_bytes32,t_bool)": {
        "encoding": "mapping",
        "key": "t_bytes32",
        "label": "mapping(bytes32 => bool)",
        "numberOfBytes": "32",
        "value": "t_bool"
      },
      "t_mapping(t_bytes32,t_mapping(t_address,t_struct(ArbitrationRequest)593_storage))": {
        "encoding": "mapping",
        "key": "t_bytes32",
        "label": "mapping(bytes32 => mapping(address => struct RealitioForeignArbitrationProxy.ArbitrationRequest))",
        "numberOfBytes": "32",
        "value": "t_mapping(t_address,t_struct(ArbitrationRequest)593_storage)"
      },
      "t_mapping(t_uint256,t_struct(DisputeDetails)598_storage)": {
        "encoding": "mapping",
        "key": "t_uint256",
        "label": "mapping(uint256 => struct RealitioForeignArbitrationProxy.DisputeDetails)",
        "numberOfBytes": "32",
        "value": "t_struct(DisputeDetails)598_storage"
      },
      "t_string_storage": {
        "encoding": "bytes",
        "label": "string",
        "numberOfBytes": "32"
      },
      "t_struct(ArbitrationRequest)593_storage": {
        "encoding": "inplace",
        "label": "struct RealitioForeignArbitrationProxy.ArbitrationRequest",
        "members": [
          {
            "astId": 590,
            "contract": "src/RealitioForeignArbitrationProxy.sol:RealitioForeignArbitrationProxy",
            "label": "status",
            "offset": 0,
            "slot": "0",
            "type": "t_enum(Status)588"
          },
          {
            "astId": 592,
            "contract": "src/RealitioForeignArbitrationProxy.sol:RealitioForeignArbitrationProxy",
            "label": "deposit",
            "offset": 1,
            "slot": "0",
            "type": "t_uint248"
          }
        ],
        "numberOfBytes": "32"
      },
      "t_struct(DisputeDetails)598_storage": {
        "encoding": "inplace",
        "label": "struct RealitioForeignArbitrationProxy.DisputeDetails",
        "members": [
          {
            "astId": 595,
            "contract": "src/RealitioForeignArbitrationProxy.sol:RealitioForeignArbitrationProxy",
            "label": "questionID",
            "offset": 0,
            "slot": "0",
            "type": "t_bytes32"
          },
          {
            "astId": 597,
            "contract": "src/RealitioForeignArbitrationProxy.sol:RealitioForeignArbitrationProxy",
            "label": "requester",
            "offset": 0,
            "slot": "1",
            "type": "t_address"
          }
        ],
        "numberOfBytes": "64"
      },
      "t_uint248": {
        "encoding": "inplace",
        "label": "uint248",
        "numberOfBytes": "31"
      },
      "t_uint256": {
        "encoding": "inplace",
        "label": "uint256",
        "numberOfBytes": "32"
      }
    }
  }
}