{
  "address": "0x5cE3a093D8Ab2d8bE30c7A115a7E21a32dcBD883",
  "abi": [
    {
      "inputs": [
        {
          "internalType": "address",
          "name": "_checkpointManager",
          "type": "address"
        },
        {
          "internalType": "address",
          "name": "_fxRoot",
          "type": "address"
        },
        {
          "internalType": "contract IArbitrator",
          "name": "_arbitrator",
          "type": "address"
        },
        {
          "internalType": "bytes",
          "name": "_arbitratorExtraData",
          "type": "bytes"
        },
        {
          "internalType": "string",
          "name": "_metaEvidence",
          "type": "string"
        },
        {
          "internalType": "uint256",
          "name": "_winnerMultiplier",
          "type": "uint256"
        },
        {
          "internalType": "uint256",
          "name": "_loserMultiplier",
          "type": "uint256"
        },
        {
          "internalType": "uint256",
          "name": "_loserAppealPeriodMultiplier",
          "type": "uint256"
        }
      ],
      "stateMutability": "nonpayable",
      "type": "constructor"
    },
    {
      "anonymous": false,
      "inputs": [
        {
          "indexed": true,
          "internalType": "bytes32",
          "name": "_questionID",
          "type": "bytes32"
        },
        {
          "indexed": true,
          "internalType": "address",
          "name": "_requester",
          "type": "address"
        }
      ],
      "name": "ArbitrationCanceled",
      "type": "event"
    },
    {
      "anonymous": false,
      "inputs": [
        {
          "indexed": true,
          "internalType": "bytes32",
          "name": "_questionID",
          "type": "bytes32"
        },
        {
          "indexed": true,
          "internalType": "address",
          "name": "_requester",
          "type": "address"
        },
        {
          "indexed": true,
          "internalType": "uint256",
          "name": "_disputeID",
          "type": "uint256"
        }
      ],
      "name": "ArbitrationCreated",
      "type": "event"
    },
    {
      "anonymous": false,
      "inputs": [
        {
          "indexed": true,
          "internalType": "bytes32",
          "name": "_questionID",
          "type": "bytes32"
        },
        {
          "indexed": true,
          "internalType": "address",
          "name": "_requester",
          "type": "address"
        }
      ],
      "name": "ArbitrationFailed",
      "type": "event"
    },
    {
      "anonymous": false,
      "inputs": [
        {
          "indexed": true,
          "internalType": "bytes32",
          "name": "_questionID",
          "type": "bytes32"
        },
        {
          "indexed": true,
          "internalType": "address",
          "name": "_requester",
          "type": "address"
        },
        {
          "indexed": false,
          "internalType": "uint256",
          "name": "_maxPrevious",
          "type": "uint256"
        }
      ],
      "name": "ArbitrationRequested",
      "type": "event"
    },
    {
      "anonymous": false,
      "inputs": [
        {
          "indexed": true,
          "internalType": "uint256",
          "name": "_localDisputeID",
          "type": "uint256"
        },
        {
          "indexed": true,
          "internalType": "uint256",
          "name": "_round",
          "type": "uint256"
        },
        {
          "indexed": false,
          "internalType": "uint256",
          "name": "ruling",
          "type": "uint256"
        },
        {
          "indexed": true,
          "internalType": "address",
          "name": "_contributor",
          "type": "address"
        },
        {
          "indexed": false,
          "internalType": "uint256",
          "name": "_amount",
          "type": "uint256"
        }
      ],
      "name": "Contribution",
      "type": "event"
    },
    {
      "anonymous": false,
      "inputs": [
        {
          "indexed": true,
          "internalType": "contract IArbitrator",
          "name": "_arbitrator",
          "type": "address"
        },
        {
          "indexed": true,
          "internalType": "uint256",
          "name": "_disputeID",
          "type": "uint256"
        },
        {
          "indexed": false,
          "internalType": "uint256",
          "name": "_metaEvidenceID",
          "type": "uint256"
        },
        {
          "indexed": false,
          "internalType": "uint256",
          "name": "_evidenceGroupID",
          "type": "uint256"
        }
      ],
      "name": "Dispute",
      "type": "event"
    },
    {
      "anonymous": false,
      "inputs": [
        {
          "indexed": true,
          "internalType": "contract IArbitrator",
          "name": "_arbitrator",
          "type": "address"
        },
        {
          "indexed": true,
          "internalType": "uint256",
          "name": "_evidenceGroupID",
          "type": "uint256"
        },
        {
          "indexed": true,
          "internalType": "address",
          "name": "_party",
          "type": "address"
        },
        {
          "indexed": false,
          "internalType": "string",
          "name": "_evidence",
          "type": "string"
        }
      ],
      "name": "Evidence",
      "type": "event"
    },
    {
      "anonymous": false,
      "inputs": [
        {
          "indexed": true,
          "internalType": "uint256",
          "name": "_metaEvidenceID",
          "type": "uint256"
        },
        {
          "indexed": false,
          "internalType": "string",
          "name": "_evidence",
          "type": "string"
        }
      ],
      "name": "MetaEvidence",
      "type": "event"
    },
    {
      "anonymous": false,
      "inputs": [
        {
          "indexed": true,
          "internalType": "contract IArbitrator",
          "name": "_arbitrator",
          "type": "address"
        },
        {
          "indexed": true,
          "internalType": "uint256",
          "name": "_disputeID",
          "type": "uint256"
        },
        {
          "indexed": false,
          "internalType": "uint256",
          "name": "_ruling",
          "type": "uint256"
        }
      ],
      "name": "Ruling",
      "type": "event"
    },
    {
      "anonymous": false,
      "inputs": [
        {
          "indexed": true,
          "internalType": "uint256",
          "name": "_localDisputeID",
          "type": "uint256"
        },
        {
          "indexed": true,
          "internalType": "uint256",
          "name": "_round",
          "type": "uint256"
        },
        {
          "indexed": true,
          "internalType": "uint256",
          "name": "_ruling",
          "type": "uint256"
        }
      ],
      "name": "RulingFunded",
      "type": "event"
    },
    {
      "anonymous": false,
      "inputs": [
        {
          "indexed": true,
          "internalType": "uint256",
          "name": "_localDisputeID",
          "type": "uint256"
        },
        {
          "indexed": true,
          "internalType": "uint256",
          "name": "_round",
          "type": "uint256"
        },
        {
          "indexed": false,
          "internalType": "uint256",
          "name": "_ruling",
          "type": "uint256"
        },
        {
          "indexed": true,
          "internalType": "address",
          "name": "_contributor",
          "type": "address"
        },
        {
          "indexed": false,
          "internalType": "uint256",
          "name": "_reward",
          "type": "uint256"
        }
      ],
      "name": "Withdrawal",
      "type": "event"
    },
    {
      "inputs": [],
      "name": "META_EVIDENCE_ID",
      "outputs": [
        {
          "internalType": "uint256",
          "name": "",
          "type": "uint256"
        }
      ],
      "stateMutability": "view",
      "type": "function"
    },
    {
      "inputs": [],
      "name": "MULTIPLIER_DIVISOR",
      "outputs": [
        {
          "internalType": "uint256",
          "name": "",
          "type": "uint256"
        }
      ],
      "stateMutability": "view",
      "type": "function"
    },
    {
      "inputs": [],
      "name": "NUMBER_OF_CHOICES_FOR_ARBITRATOR",
      "outputs": [
        {
          "internalType": "uint256",
          "name": "",
          "type": "uint256"
        }
      ],
      "stateMutability": "view",
      "type": "function"
    },
    {
      "inputs": [],
      "name": "REFUSE_TO_ARBITRATE_REALITIO",
      "outputs": [
        {
          "internalType": "uint256",
          "name": "",
          "type": "uint256"
        }
      ],
      "stateMutability": "view",
      "type": "function"
    },
    {
      "inputs": [],
      "name": "SEND_MESSAGE_EVENT_SIG",
      "outputs": [
        {
          "internalType": "bytes32",
          "name": "",
          "type": "bytes32"
        }
      ],
      "stateMutability": "view",
      "type": "function"
    },
    {
      "inputs": [],
      "name": "VERSION",
      "outputs": [
        {
          "internalType": "string",
          "name": "",
          "type": "string"
        }
      ],
      "stateMutability": "view",
      "type": "function"
    },
    {
      "inputs": [
        {
          "internalType": "uint256",
          "name": "",
          "type": "uint256"
        }
      ],
      "name": "arbitrationIDToDisputeExists",
      "outputs": [
        {
          "internalType": "bool",
          "name": "",
          "type": "bool"
        }
      ],
      "stateMutability": "view",
      "type": "function"
    },
    {
      "inputs": [
        {
          "internalType": "uint256",
          "name": "",
          "type": "uint256"
        }
      ],
      "name": "arbitrationIDToRequester",
      "outputs": [
        {
          "internalType": "address",
          "name": "",
          "type": "address"
        }
      ],
      "stateMutability": "view",
      "type": "function"
    },
    {
      "inputs": [
        {
          "internalType": "uint256",
          "name": "",
          "type": "uint256"
        },
        {
          "internalType": "address",
          "name": "",
          "type": "address"
        }
      ],
      "name": "arbitrationRequests",
      "outputs": [
        {
          "internalType": "enum RealitioForeignArbitrationProxyWithAppeals.Status",
          "name": "status",
          "type": "uint8"
        },
        {
          "internalType": "uint248",
          "name": "deposit",
          "type": "uint248"
        },
        {
          "internalType": "uint256",
          "name": "disputeID",
          "type": "uint256"
        },
        {
          "internalType": "uint256",
          "name": "answer",
          "type": "uint256"
        }
      ],
      "stateMutability": "view",
      "type": "function"
    },
    {
      "inputs": [],
      "name": "arbitrator",
      "outputs": [
        {
          "internalType": "contract IArbitrator",
          "name": "",
          "type": "address"
        }
      ],
      "stateMutability": "view",
      "type": "function"
    },
    {
      "inputs": [],
      "name": "arbitratorExtraData",
      "outputs": [
        {
          "internalType": "bytes",
          "name": "",
          "type": "bytes"
        }
      ],
      "stateMutability": "view",
      "type": "function"
    },
    {
      "inputs": [],
      "name": "checkpointManager",
      "outputs": [
        {
          "internalType": "contract ICheckpointManager",
          "name": "",
          "type": "address"
        }
      ],
      "stateMutability": "view",
      "type": "function"
    },
    {
      "inputs": [
        {
          "internalType": "uint256",
          "name": "",
          "type": "uint256"
        }
      ],
      "name": "disputeIDToDisputeDetails",
      "outputs": [
        {
          "internalType": "uint256",
          "name": "arbitrationID",
          "type": "uint256"
        },
        {
          "internalType": "address",
          "name": "requester",
          "type": "address"
        }
      ],
      "stateMutability": "view",
      "type": "function"
    },
    {
      "inputs": [
        {
          "internalType": "uint256",
          "name": "_externalDisputeID",
          "type": "uint256"
        }
      ],
      "name": "externalIDtoLocalID",
      "outputs": [
        {
          "internalType": "uint256",
          "name": "",
          "type": "uint256"
        }
      ],
      "stateMutability": "view",
      "type": "function"
    },
    {
      "inputs": [
        {
          "internalType": "uint256",
          "name": "_arbitrationID",
          "type": "uint256"
        },
        {
          "internalType": "uint256",
          "name": "_answer",
          "type": "uint256"
        }
      ],
      "name": "fundAppeal",
      "outputs": [
        {
          "internalType": "bool",
          "name": "",
          "type": "bool"
        }
      ],
      "stateMutability": "payable",
      "type": "function"
    },
    {
      "inputs": [],
      "name": "fxChildTunnel",
      "outputs": [
        {
          "internalType": "address",
          "name": "",
          "type": "address"
        }
      ],
      "stateMutability": "view",
      "type": "function"
    },
    {
      "inputs": [],
      "name": "fxRoot",
      "outputs": [
        {
          "internalType": "contract IFxStateSender",
          "name": "",
          "type": "address"
        }
      ],
      "stateMutability": "view",
      "type": "function"
    },
    {
      "inputs": [
        {
          "internalType": "uint256",
          "name": "_arbitrationID",
          "type": "uint256"
        },
        {
          "internalType": "uint256",
          "name": "_round",
          "type": "uint256"
        },
        {
          "internalType": "address",
          "name": "_contributor",
          "type": "address"
        }
      ],
      "name": "getContributionsToSuccessfulFundings",
      "outputs": [
        {
          "internalType": "uint256[]",
          "name": "fundedAnswers",
          "type": "uint256[]"
        },
        {
          "internalType": "uint256[]",
          "name": "contributions",
          "type": "uint256[]"
        }
      ],
      "stateMutability": "view",
      "type": "function"
    },
    {
      "inputs": [
        {
          "internalType": "bytes32",
          "name": "",
          "type": "bytes32"
        }
      ],
      "name": "getDisputeFee",
      "outputs": [
        {
          "internalType": "uint256",
          "name": "",
          "type": "uint256"
        }
      ],
      "stateMutability": "view",
      "type": "function"
    },
    {
      "inputs": [
        {
          "internalType": "uint256",
          "name": "_arbitrationID",
          "type": "uint256"
        },
        {
          "internalType": "uint256",
          "name": "_round",
          "type": "uint256"
        },
        {
          "internalType": "uint256",
          "name": "_answer",
          "type": "uint256"
        }
      ],
      "name": "getFundingStatus",
      "outputs": [
        {
          "internalType": "uint256",
          "name": "raised",
          "type": "uint256"
        },
        {
          "internalType": "bool",
          "name": "fullyFunded",
          "type": "bool"
        }
      ],
      "stateMutability": "view",
      "type": "function"
    },
    {
      "inputs": [],
      "name": "getMultipliers",
      "outputs": [
        {
          "internalType": "uint256",
          "name": "winner",
          "type": "uint256"
        },
        {
          "internalType": "uint256",
          "name": "loser",
          "type": "uint256"
        },
        {
          "internalType": "uint256",
          "name": "loserAppealPeriod",
          "type": "uint256"
        },
        {
          "internalType": "uint256",
          "name": "divisor",
          "type": "uint256"
        }
      ],
      "stateMutability": "view",
      "type": "function"
    },
    {
      "inputs": [
        {
          "internalType": "uint256",
          "name": "_arbitrationID",
          "type": "uint256"
        }
      ],
      "name": "getNumberOfRounds",
      "outputs": [
        {
          "internalType": "uint256",
          "name": "",
          "type": "uint256"
        }
      ],
      "stateMutability": "view",
      "type": "function"
    },
    {
      "inputs": [
        {
          "internalType": "uint256",
          "name": "_arbitrationID",
          "type": "uint256"
        },
        {
          "internalType": "uint256",
          "name": "_round",
          "type": "uint256"
        }
      ],
      "name": "getRoundInfo",
      "outputs": [
        {
          "internalType": "uint256[]",
          "name": "paidFees",
          "type": "uint256[]"
        },
        {
          "internalType": "uint256",
          "name": "feeRewards",
          "type": "uint256"
        },
        {
          "internalType": "uint256[]",
          "name": "fundedAnswers",
          "type": "uint256[]"
        }
      ],
      "stateMutability": "view",
      "type": "function"
    },
    {
      "inputs": [
        {
          "internalType": "uint256",
          "name": "_arbitrationID",
          "type": "uint256"
        },
        {
          "internalType": "address payable",
          "name": "_beneficiary",
          "type": "address"
        },
        {
          "internalType": "uint256",
          "name": "_contributedTo",
          "type": "uint256"
        }
      ],
      "name": "getTotalWithdrawableAmount",
      "outputs": [
        {
          "internalType": "uint256",
          "name": "sum",
          "type": "uint256"
        }
      ],
      "stateMutability": "view",
      "type": "function"
    },
    {
      "inputs": [
        {
          "internalType": "bytes32",
          "name": "_questionID",
          "type": "bytes32"
        },
        {
          "internalType": "address",
          "name": "_requester",
          "type": "address"
        }
      ],
      "name": "handleFailedDisputeCreation",
      "outputs": [],
      "stateMutability": "nonpayable",
      "type": "function"
    },
    {
      "inputs": [],
      "name": "loserAppealPeriodMultiplier",
      "outputs": [
        {
          "internalType": "uint256",
          "name": "",
          "type": "uint256"
        }
      ],
      "stateMutability": "view",
      "type": "function"
    },
    {
      "inputs": [],
      "name": "loserMultiplier",
      "outputs": [
        {
          "internalType": "uint256",
          "name": "",
          "type": "uint256"
        }
      ],
      "stateMutability": "view",
      "type": "function"
    },
    {
      "inputs": [
        {
          "internalType": "uint256",
          "name": "",
          "type": "uint256"
        }
      ],
      "name": "numberOfRulingOptions",
      "outputs": [
        {
          "internalType": "uint256",
          "name": "",
          "type": "uint256"
        }
      ],
      "stateMutability": "pure",
      "type": "function"
    },
    {
      "inputs": [
        {
          "internalType": "bytes32",
          "name": "",
          "type": "bytes32"
        }
      ],
      "name": "processedExits",
      "outputs": [
        {
          "internalType": "bool",
          "name": "",
          "type": "bool"
        }
      ],
      "stateMutability": "view",
      "type": "function"
    },
    {
      "inputs": [
        {
          "internalType": "bytes32",
          "name": "_questionID",
          "type": "bytes32"
        }
      ],
      "name": "questionIDToArbitrationID",
      "outputs": [
        {
          "internalType": "uint256",
          "name": "",
          "type": "uint256"
        }
      ],
      "stateMutability": "pure",
      "type": "function"
    },
    {
      "inputs": [
        {
          "internalType": "bytes32",
          "name": "_questionID",
          "type": "bytes32"
        },
        {
          "internalType": "address",
          "name": "_requester",
          "type": "address"
        }
      ],
      "name": "receiveArbitrationAcknowledgement",
      "outputs": [],
      "stateMutability": "nonpayable",
      "type": "function"
    },
    {
      "inputs": [
        {
          "internalType": "bytes32",
          "name": "_questionID",
          "type": "bytes32"
        },
        {
          "internalType": "address",
          "name": "_requester",
          "type": "address"
        }
      ],
      "name": "receiveArbitrationCancelation",
      "outputs": [],
      "stateMutability": "nonpayable",
      "type": "function"
    },
    {
      "inputs": [
        {
          "internalType": "bytes",
          "name": "inputData",
          "type": "bytes"
        }
      ],
      "name": "receiveMessage",
      "outputs": [],
      "stateMutability": "nonpayable",
      "type": "function"
    },
    {
      "inputs": [
        {
          "internalType": "bytes32",
          "name": "_questionID",
          "type": "bytes32"
        },
        {
          "internalType": "uint256",
          "name": "_maxPrevious",
          "type": "uint256"
        }
      ],
      "name": "requestArbitration",
      "outputs": [],
      "stateMutability": "payable",
      "type": "function"
    },
    {
      "inputs": [
        {
          "internalType": "uint256",
          "name": "_disputeID",
          "type": "uint256"
        },
        {
          "internalType": "uint256",
          "name": "_ruling",
          "type": "uint256"
        }
      ],
      "name": "rule",
      "outputs": [],
      "stateMutability": "nonpayable",
      "type": "function"
    },
    {
      "inputs": [
        {
          "internalType": "address",
          "name": "_fxChildTunnel",
          "type": "address"
        }
      ],
      "name": "setFxChildTunnel",
      "outputs": [],
      "stateMutability": "nonpayable",
      "type": "function"
    },
    {
      "inputs": [
        {
          "internalType": "uint256",
          "name": "_arbitrationID",
          "type": "uint256"
        },
        {
          "internalType": "string",
          "name": "_evidenceURI",
          "type": "string"
        }
      ],
      "name": "submitEvidence",
      "outputs": [],
      "stateMutability": "nonpayable",
      "type": "function"
    },
    {
      "inputs": [],
      "name": "winnerMultiplier",
      "outputs": [
        {
          "internalType": "uint256",
          "name": "",
          "type": "uint256"
        }
      ],
      "stateMutability": "view",
      "type": "function"
    },
    {
      "inputs": [
        {
          "internalType": "uint256",
          "name": "_arbitrationID",
          "type": "uint256"
        },
        {
          "internalType": "address payable",
          "name": "_beneficiary",
          "type": "address"
        },
        {
          "internalType": "uint256",
          "name": "_round",
          "type": "uint256"
        },
        {
          "internalType": "uint256",
          "name": "_answer",
          "type": "uint256"
        }
      ],
      "name": "withdrawFeesAndRewards",
      "outputs": [
        {
          "internalType": "uint256",
          "name": "reward",
          "type": "uint256"
        }
      ],
      "stateMutability": "nonpayable",
      "type": "function"
    },
    {
      "inputs": [
        {
          "internalType": "uint256",
          "name": "_arbitrationID",
          "type": "uint256"
        },
        {
          "internalType": "address payable",
          "name": "_beneficiary",
          "type": "address"
        },
        {
          "internalType": "uint256",
          "name": "_contributedTo",
          "type": "uint256"
        }
      ],
      "name": "withdrawFeesAndRewardsForAllRounds",
      "outputs": [],
      "stateMutability": "nonpayable",
      "type": "function"
    }
  ],
  "transactionHash": "0x8565fddae523cc8b6b78b6eca106c7d3ae0277f82397211f92150870415d3058",
  "args": [
    "0x2890bA17EfE978480615e330ecB65333b880928e",
    "0x3d1d3E34f7fB6D26245E6640E1c50710eFFf15bA",
    "0x1128eD55ab2d796fa92D2F8E1f336d745354a77A",
    "0x00000000000000000000000000000000000000000000000000000000000000000000000000000000000000000000000000000000000000000000000000000000",
    "/ipfs/Qmcg1JYNqtuVJUbVk79DuFwWaZwzduiwndoURJa37kZZ2F/realitio.json",
    3000,
    7000,
    5000
  ],
  "numDeployments": 1,
  "solcInputHash": "1edd1e426ad84369aa7fed21b74901e2",
  "bytecode": "0x6101006040523480156200001257600080fd5b50604051620050f8380380620050f8833981016040819052620000359162000216565b600180546001600160a01b03808b166001600160a01b03199283161790925560008054928a16929091169190911790556001600160601b0319606087901b1660805284516200008c906004906020880190620000e7565b5060a083905260c082905260e08190526040516000907f61606860eb6c87306811e2695215385101daab53bd6ab4e9f9049aead9363c7d90620000d1908790620002db565b60405180910390a25050505050505050620003af565b828054620000f59062000343565b90600052602060002090601f01602090048101928262000119576000855562000164565b82601f106200013457805160ff191683800117855562000164565b8280016001018555821562000164579182015b828111156200016457825182559160200191906001019062000147565b506200017292915062000176565b5090565b5b8082111562000172576000815560010162000177565b600082601f8301126200019e578081fd5b81516001600160401b0380821115620001bb57620001bb62000380565b604051601f8301601f191681016020018281118282101715620001e257620001e262000380565b604052828152848301602001861015620001fa578384fd5b6200020d83602083016020880162000310565b95945050505050565b600080600080600080600080610100898b03121562000233578384fd5b8851620002408162000396565b60208a0151909850620002538162000396565b60408a0151909750620002668162000396565b60608a01519096506001600160401b038082111562000283578586fd5b620002918c838d016200018d565b965060808b0151915080821115620002a7578586fd5b50620002b68b828c016200018d565b94505060a0890151925060c0890151915060e089015190509295985092959890939650565b6000602082528251806020840152620002fc81604085016020870162000310565b601f01601f19169190910160400192915050565b60005b838110156200032d57818101518382015260200162000313565b838111156200033d576000848401525b50505050565b6002810460018216806200035857607f821691505b602082108114156200037a57634e487b7160e01b600052602260045260246000fd5b50919050565b634e487b7160e01b600052604160045260246000fd5b6001600160a01b0381168114620003ac57600080fd5b50565b60805160601c60a05160c05160e051614c8e6200046a60003960008181610706015281816110b801526115ed01526000818161111a015281816115cc01526117d901526000818161108a015281816115ab015261180c01526000818161081c015281816109be01528181610f2c01528181610fe4015281816111d5015281816114700152818161156c01528181611848015281816118da015281816119e401528181612028015281816120dd01526122b80152614c8e6000f3fe60806040526004361061023b5760003560e01c8063a22352e21161012e578063c599c66f116100ab578063edabc4741161006f578063edabc4741461065f578063f953cec71461068f578063fc6f8f16146106af578063fe2dddeb146106cf578063ffa1ad74146106ef5761023b565b8063c599c66f146105c7578063d661dd31146105f5578063de9b771f1461060a578063e742e2ed1461061f578063ec85635b1461063f5761023b565b8063bb2fe65f116100f2578063bb2fe65f14610516578063bde80ca714610544578063be26fc8814610572578063c0857ba014610592578063c21ae061146105a75761023b565b8063a22352e214610483578063a6a7f0eb146104a3578063a829c3d1146104c3578063aea4e49e146104d6578063bb163782146104f65761023b565b806368cb30f5116101bc5780638a9bb02a116101805780638a9bb02a146103f55780638d8b2d7e14610424578063965394ab14610444578063972c4928146104595780639b3ac9981461046e5761023b565b806368cb30f51461036e5780636cc6cde11461038e578063756804c0146103b057806379873f8a146103d05780637a710491146102a25761023b565b8063362c347911610203578063362c3479146102d95780634aa6a1e4146102f95780634b2f0ea01461031957806354dba90f14610339578063607f2d421461034e5761023b565b80630c139eb4146102405780630c7ac7b61461026b5780630e387de61461028d5780630fa8c7ce146102a2578063311a6c56146102b7575b600080fd5b34801561024c57600080fd5b50610255610704565b60405161026291906143db565b60405180910390f35b34801561027757600080fd5b50610280610728565b604051610262919061441a565b34801561029957600080fd5b506102556107b6565b3480156102ae57600080fd5b506102556107da565b3480156102c357600080fd5b506102d76102d2366004613ed5565b6107e0565b005b3480156102e557600080fd5b506102556102f436600461408d565b610a2a565b34801561030557600080fd5b506102d7610314366004613ea6565b610d21565b61032c610327366004613ed5565b610e9f565b60405161026291906143d0565b34801561034557600080fd5b5061025561153b565b34801561035a57600080fd5b5061032c610369366004613e8e565b611540565b34801561037a57600080fd5b5061032c610389366004613e8e565b611555565b34801561039a57600080fd5b506103a361156a565b604051610262919061433e565b3480156103bc57600080fd5b506103a36103cb366004613e8e565b61158e565b3480156103dc57600080fd5b506103e56115a9565b6040516102629493929190614323565b34801561040157600080fd5b50610415610410366004613ed5565b611615565b6040516102629392919061439b565b34801561043057600080fd5b5061025561043f366004613e8e565b6117ce565b34801561045057600080fd5b506102556117d7565b34801561046557600080fd5b506103a36117fb565b34801561047a57600080fd5b5061025561180a565b34801561048f57600080fd5b5061025561049e366004613e8e565b61182e565b3480156104af57600080fd5b506102d76104be3660046140c9565b6118cd565b6102d76104d1366004613ed5565b611940565b3480156104e257600080fd5b506102d76104f1366004613e72565b611b54565b34801561050257600080fd5b50610255610511366004613e8e565b611b9f565b34801561052257600080fd5b5061053661053136600461419a565b611ba2565b60405161026292919061490b565b34801561055057600080fd5b5061056461055f366004613e8e565b611c34565b6040516102629291906143e4565b34801561057e57600080fd5b506102d761058d366004613ea6565b611c56565b34801561059e57600080fd5b506103a3611d93565b3480156105b357600080fd5b506102556105c2366004613e8e565b611da2565b3480156105d357600080fd5b506105e76105e2366004614162565b611db4565b604051610262929190614376565b34801561060157600080fd5b50610255611f73565b34801561061657600080fd5b506103a3611f79565b34801561062b57600080fd5b506102d761063a366004613ea6565b611f88565b34801561064b57600080fd5b5061025561065a366004614056565b61236c565b34801561066b57600080fd5b5061067f61067a366004614044565b6125fc565b6040516102629493929190614440565b34801561069b57600080fd5b506102d76106aa366004613f42565b61263b565b3480156106bb57600080fd5b506102556106ca366004613e8e565b612655565b3480156106db57600080fd5b506102d76106ea366004614056565b612687565b3480156106fb57600080fd5b506102806126ed565b7f000000000000000000000000000000000000000000000000000000000000000081565b6004805461073590614b7b565b80601f016020809104026020016040519081016040528092919081815260200182805461076190614b7b565b80156107ae5780601f10610783576101008083540402835291602001916107ae565b820191906000526020600020905b81548152906001019060200180831161079157829003601f168201915b505050505081565b7f8c5261668696ce22758910d05bab8f186d6eb247ceac2af2e82c7dc17669b03681565b60001981565b600082815260066020908152604080832080546001820154818652600585528386206001600160a01b03918216808852955292909420909392917f00000000000000000000000000000000000000000000000000000000000000001633146108635760405162461bcd60e51b815260040161085a906144ed565b60405180910390fd5b6002815460ff16600481111561088957634e487b7160e01b600052602160045260246000fd5b146108a65760405162461bcd60e51b815260040161085a9061489d565b60038101805486916000918291906108c090600190614b11565b815481106108de57634e487b7160e01b600052603260045260246000fd5b90600052602060002090600502019050806004018054905060011415610930578060040160008154811061092257634e487b7160e01b600052603260045260246000fd5b906000526020600020015492505b60028401839055835460ff191660031784558261094f5760001961095a565b61095a600184614b11565b6040519092506306bad43760e51b90600090829061097e908a9087906024016142cc565b60408051601f198184030181529190526020810180516001600160e01b03166001600160e01b03199093169290921790915290506109bb8161270e565b8a7f00000000000000000000000000000000000000000000000000000000000000006001600160a01b03167f394027a5fa6e098a1191094d1719d6929b9abc535fcc0c8f448d6a4e7562227687604051610a1591906143db565b60405180910390a35050505050505050505050565b600084815260086020908152604080832054600583528184206001600160a01b039091168085529252822060038101805484919087908110610a7c57634e487b7160e01b600052603260045260246000fd5b6000918252602090912060059091020190506003825460ff166004811115610ab457634e487b7160e01b600052602160045260246000fd5b14610ad15760405162461bcd60e51b815260040161085a90614663565b600085815260018201602052604090205460ff16610b16576001600160a01b038716600090815260028201602090815260408083208884529091529020549350610c89565b6002820154600090815260018201602052604090205460ff16610c1e576004810154600110610b46576000610c17565b80600001600082600401600181548110610b7057634e487b7160e01b600052603260045260246000fd5b906000526020600020015481526020019081526020016000205481600001600083600401600081548110610bb457634e487b7160e01b600052603260045260246000fd5b9060005260206000200154815260200190815260200160002054610bd89190614990565b60038201546001600160a01b038916600090815260028401602090815260408083208a8452909152902054610c0d9190614af2565b610c1791906149a8565b9350610c89565b8482600201541415610c895760008581526020829052604090205480610c45576000610c85565b60038201546001600160a01b038916600090815260028401602090815260408083208a84529091529020548291610c7b91614af2565b610c8591906149a8565b9450505b8315610d16576001600160a01b038716600081815260028301602090815260408083208984529091528082208290555186156108fc0291879190818181858888f1935050505050866001600160a01b031686897f54b3cab3cb5c4aca3209db1151caff092e878011202e43a36782d4ebe0b963ae8888604051610d0d9291906142cc565b60405180910390a45b505050949350505050565b60008281526005602090815260408083206001600160a01b0385168452909152902082906004815460ff166004811115610d6b57634e487b7160e01b600052602160045260246000fd5b14610d885760405162461bcd60e51b815260040161085a9061489d565b805460008381526005602090815260408083206001600160a01b0388168452909152812081815560018101829055600281018290556101009092046001600160f81b03169190610ddb6003830182613d87565b50506040516001600160a01b0385169082156108fc029083906000818181858888f150506040516305fb2b4f60e51b935060009250839150610e2390899089906024016143e4565b60408051601f198184030181529190526020810180516001600160e01b03166001600160e01b0319909316929092179091529050610e608161270e565b6040516001600160a01b0387169088907fe7700735be0b02f71ef1d623678daf36cd936af4c349a22ad9d5a8b217df0dd990600090a350505050505050565b600082815260056020908152604080832060088352818420546001600160a01b0316845290915281206002815460ff166004811115610eee57634e487b7160e01b600052602160045260246000fd5b14610f0b5760405162461bcd60e51b815260040161085a906146c0565b600181015460405163afe15cfb60e01b815260009081906001600160a01b037f0000000000000000000000000000000000000000000000000000000000000000169063afe15cfb90610f619086906004016143db565b604080518083038186803b158015610f7857600080fd5b505afa158015610f8c573d6000803e3d6000fd5b505050506040513d601f19601f82011682018060405250810190610fb0919061413f565b91509150814210158015610fc357508042105b610fdf5760405162461bcd60e51b815260040161085a906147ba565b6000807f00000000000000000000000000000000000000000000000000000000000000006001600160a01b0316631c3db16d866040518263ffffffff1660e01b815260040161102e91906143db565b60206040518083038186803b15801561104657600080fd5b505afa15801561105a573d6000803e3d6000fd5b505050506040513d601f19601f8201168201806040525081019061107e919061402c565b9050878114156110b0577f0000000000000000000000000000000000000000000000000000000000000000915061113c565b6127106110e77f00000000000000000000000000000000000000000000000000000000000000006110e18787614b11565b90612772565b6110f191906149a8565b6110fb8542614b11565b106111185760405162461bcd60e51b815260040161085a9061482f565b7f000000000000000000000000000000000000000000000000000000000000000091505b50600385015460009061115190600190614b11565b9050600086600301828154811061117857634e487b7160e01b600052603260045260246000fd5b600091825260208083208c84526001600590930201918201905260409091205490915060ff16156111bb5760405162461bcd60e51b815260040161085a90614866565b60405163791f8b7360e11b81526000906001600160a01b037f0000000000000000000000000000000000000000000000000000000000000000169063f23f16e69061120c908a90600490810161491b565b60206040518083038186803b15801561122457600080fd5b505afa158015611238573d6000803e3d6000fd5b505050506040513d601f19601f8201168201806040525081019061125c919061402c565b905060006112816127106112708488612772565b61127a91906149a8565b83906127b1565b60008c8152602085905260408120549192509034906112a19084906127d0565b116112c55760008c8152602085905260409020546112c09083906127d0565b6112c7565b345b9050336001600160a01b0316858e7fcae597f39a3ad75c2e10d46b031f023c5c2babcd58ca0491b122acda3968d4c08f856040516113069291906142cc565b60405180910390a433600090815260028501602090815260408083208f84529091528120805483929061133a908490614990565b909155505060008c8152602085905260408120805483929061135d908490614990565b909155505060008c815260208590526040902054821161142b5760008c8152602085905260408120546003860180549192909161139b908490614990565b92505081905550836004018c908060018154018082558091505060019003906000526020600020016000909190919091505560018460010160008e815260200190815260200160002060006101000a81548160ff0219169083151502179055508b858e7f39493c1b78d9a13bcc9e1d532fc7faed3889248d93affa811416ce3c6bcb1a6860405160405180910390a45b6004840154600110156114dc576003808b018054600101815560005284015461145490846127d0565b600385015560405163093225f160e31b81526001600160a01b037f000000000000000000000000000000000000000000000000000000000000000016906349912f889085906114a9908d90600490810161491b565b6000604051808303818588803b1580156114c257600080fd5b505af11580156114d6573d6000803e3d6000fd5b50505050505b60006114e834836127d0565b111561151457336108fc6114fc34846127d0565b6040518115909202916000818181858888f150505050505b50505060008981526001909101602052604090205460ff1696505050505050505b92915050565b600081565b60036020526000908152604090205460ff1681565b60076020526000908152604090205460ff1681565b7f000000000000000000000000000000000000000000000000000000000000000081565b6008602052600090815260409020546001600160a01b031681565b7f00000000000000000000000000000000000000000000000000000000000000007f00000000000000000000000000000000000000000000000000000000000000007f000000000000000000000000000000000000000000000000000000000000000061271090919293565b600082815260086020908152604080832054600583528184206001600160a01b0390911680855292528220600381018054606094938593909290918591908890811061167157634e487b7160e01b600052603260045260246000fd5b90600052602060002090600502019050806004018054806020026020016040519081016040528092919081815260200182805480156116cf57602002820191906000526020600020905b8154815260200190600101908083116116bb575b505050600484015492965050506001600160401b0381111561170157634e487b7160e01b600052604160045260246000fd5b60405190808252806020026020018201604052801561172a578160200160208202803683370190505b50955060005b60048201548110156117bc5781600001600083600401838154811061176557634e487b7160e01b600052603260045260246000fd5b906000526020600020015481526020019081526020016000205487828151811061179f57634e487b7160e01b600052603260045260246000fd5b6020908102919091010152806117b481614bb0565b915050611730565b50806003015494505050509250925092565b6000195b919050565b7f000000000000000000000000000000000000000000000000000000000000000081565b6002546001600160a01b031681565b7f000000000000000000000000000000000000000000000000000000000000000081565b60405163f7434ea960e01b81526000906001600160a01b037f0000000000000000000000000000000000000000000000000000000000000000169063f7434ea99061187d90600490810161442d565b60206040518083038186803b15801561189557600080fd5b505afa1580156118a9573d6000803e3d6000fd5b505050506040513d601f19601f82011682018060405250810190611535919061402c565b336001600160a01b0316837f00000000000000000000000000000000000000000000000000000000000000006001600160a01b03167fdccf2f8b2cc26eafcd61905cba744cff4b81d14740725f6376390dc6298a6a3c8585604051611933929190614487565b60405180910390a4505050565b60008281526007602052604090205460ff161561196f5760405162461bcd60e51b815260040161085a906144b6565b6000828152600560209081526040808320338452909152812090815460ff1660048111156119ad57634e487b7160e01b600052602160045260246000fd5b146119ca5760405162461bcd60e51b815260040161085a9061462c565b60405163f7434ea960e01b81526000906001600160a01b037f0000000000000000000000000000000000000000000000000000000000000000169063f7434ea990611a1990600490810161442d565b60206040518083038186803b158015611a3157600080fd5b505afa158015611a45573d6000803e3d6000fd5b505050506040513d601f19601f82011682018060405250810190611a69919061402c565b905080341015611a8b5760405162461bcd60e51b815260040161085a90614691565b8154600160ff199091161760ff16610100346001600160f81b03160217825560405163666b746960e11b906000908290611acd908890339089906024016143fb565b60408051601f198184030181529190526020810180516001600160e01b03166001600160e01b0319909316929092179091529050611b0a8161270e565b336001600160a01b0316867f2067d1b3170fe803dd001b95b04f9d372eb9c3e5a48ed131a62962a7300bdb2087604051611b4491906143db565b60405180910390a3505050505050565b6002546001600160a01b031615611b7d5760405162461bcd60e51b815260040161085a9061455b565b600280546001600160a01b0319166001600160a01b0392909216919091179055565b90565b600083815260086020908152604080832054600583528184206001600160a01b039091168085529252822060038101805484939291849188908110611bf757634e487b7160e01b600052603260045260246000fd5b600091825260208083209883526005909102909701808852604080832054600190920190985296902054959860ff90961697509495505050505050565b600660205260009081526040902080546001909101546001600160a01b031682565b333014611c755760405162461bcd60e51b815260040161085a906148d4565b60008281526005602090815260408083206001600160a01b0385168452909152902082906001815460ff166004811115611cbf57634e487b7160e01b600052602160045260246000fd5b14611cdc5760405162461bcd60e51b815260040161085a9061489d565b805460008381526005602090815260408083206001600160a01b0388168452909152812081815560018101829055600281018290556101009092046001600160f81b03169190611d2f6003830182613d87565b50506040516001600160a01b0385169082156108fc029083906000818181858888f150506040516001600160a01b03881693508892507fe7700735be0b02f71ef1d623678daf36cd936af4c349a22ad9d5a8b217df0dd99150600090a35050505050565b6001546001600160a01b031681565b60009081526006602052604090205490565b600083815260086020908152604080832054600583528184206001600160a01b039091168085529252822060038101805460609485949392909188908110611e0c57634e487b7160e01b600052603260045260246000fd5b9060005260206000209060050201905080600401805480602002602001604051908101604052809291908181526020018280548015611e6a57602002820191906000526020600020905b815481526020019060010190808311611e56575b505050600484015492975050506001600160401b03811115611e9c57634e487b7160e01b600052604160045260246000fd5b604051908082528060200260200182016040528015611ec5578160200160208202803683370190505b50935060005b8451811015611f67576001600160a01b038716600090815260028301602052604081208751909190889084908110611f1357634e487b7160e01b600052603260045260246000fd5b6020026020010151815260200190815260200160002054858281518110611f4a57634e487b7160e01b600052603260045260246000fd5b602090810291909101015280611f5f81614bb0565b915050611ecb565b50505050935093915050565b61271081565b6000546001600160a01b031681565b333014611fa75760405162461bcd60e51b815260040161085a906148d4565b60008281526005602090815260408083206001600160a01b0385168452909152902082906001815460ff166004811115611ff157634e487b7160e01b600052602160045260246000fd5b1461200e5760405162461bcd60e51b815260040161085a9061489d565b60405163f7434ea960e01b81526000906001600160a01b037f0000000000000000000000000000000000000000000000000000000000000000169063f7434ea99061205d90600490810161442d565b60206040518083038186803b15801561207557600080fd5b505afa158015612089573d6000803e3d6000fd5b505050506040513d601f19601f820116820180604052508101906120ad919061402c565b825490915061010090046001600160f81b031681116123235760405163c13517e160e01b81526001600160a01b037f0000000000000000000000000000000000000000000000000000000000000000169063c13517e19083906121189060001990600490810161491b565b6020604051808303818588803b15801561213157600080fd5b505af193505050508015612162575060408051601f3d908101601f1916820190925261215f9181019061402c565b60015b6121ac57815460ff191660041782556040516001600160a01b0385169086907f9beda0c81abc1c65da7685f113195974dfddb781dfde6263e5a1b13a5356ffad90600090a361231e565b6000818152600660209081526040808320878155600180820180546001600160a01b038c166001600160a01b031991821681179092558a875260078652848720805460ff191690931790925560089094529184208054909216909217905584549091906122299085906001600160f81b0361010090910416614b11565b855460ff60ff19909116600217168655600180870185905560038701805490910181556000529050801561227d576040516001600160a01b0388169082156108fc029083906000818181858888f150505050505b82876001600160a01b0316897fcf9bcbc2efae51060af73ef64119281007f63eada739f19c41c181d8350fa81460405160405180910390a4827f00000000000000000000000000000000000000000000000000000000000000006001600160a01b03167f74baab670a4015ab2f1b467c5252a96141a2573f2908e58a92081e80d3cfde3d6000896040516123129291906142cc565b60405180910390a35050505b612365565b815460ff191660041782556040516001600160a01b0385169086907f9beda0c81abc1c65da7685f113195974dfddb781dfde6263e5a1b13a5356ffad90600090a35b5050505050565b600083815260086020908152604080832054600583528184206001600160a01b03909116808552925282206003815460ff1660048111156123bd57634e487b7160e01b600052602160045260246000fd5b10156123ca5750506125f5565b6002810154600382015460005b818110156125ef57600084600301828154811061240457634e487b7160e01b600052603260045260246000fd5b600091825260208083208b84526001600590930201918201905260409091205490915060ff16612465576001600160a01b038916600090815260028201602090815260408083208b845290915290205461245e9088614990565b96506125dc565b600084815260018201602052604090205460ff1661256b576004810154600110612490576000612561565b806000016000826004016001815481106124ba57634e487b7160e01b600052603260045260246000fd5b9060005260206000200154815260200190815260200160002054816000016000836004016000815481106124fe57634e487b7160e01b600052603260045260246000fd5b90600052602060002001548152602001908152602001600020546125229190614990565b60038201546001600160a01b038b16600090815260028401602090815260408083208d84529091529020546125579190614af2565b61256191906149a8565b61245e9088614990565b878414156125dc576000888152602082905260409020548061258e5760006125ce565b60038201546001600160a01b038b16600090815260028401602090815260408083208d845290915290205482916125c491614af2565b6125ce91906149a8565b6125d89089614990565b9750505b50806125e781614bb0565b9150506123d7565b50505050505b9392505050565b600560209081526000928352604080842090915290825290208054600182015460029092015460ff8216926101009092046001600160f81b0316919084565b6000612646826127f3565b9050612651816129f1565b5050565b600090815260086020908152604080832054600583528184206001600160a01b03909116845290915290206003015490565b600083815260086020908152604080832054600583528184206001600160a01b0390911680855292528220600381015491929091905b818110156126e4576126d187878388610a2a565b50806126dc81614bb0565b9150506126bd565b50505050505050565b604051806040016040528060058152602001640322e302e360dc1b81525081565b60005460025460405163b472047760e01b81526001600160a01b039283169263b472047792612744929116908590600401614352565b600060405180830381600087803b15801561275e57600080fd5b505af1158015612365573d6000803e3d6000fd5b60008261278157506000611535565b600061278d8385614af2565b90508261279a85836149a8565b146127a7576000196127a9565b805b949350505050565b6000806127be8385614990565b9050838110156127a7576000196127a9565b6000828211156127e257506000611535565b6127ec8284614b11565b9050611535565b6060600061280083612a6e565b9050600061280d82612a9e565b9050600061281a83612ad5565b905060008161282884612b0c565b61283186612d00565b604051602001612843939291906142f6565b60408051601f1981840301815291815281516020928301206000818152600390935291205490915060ff161561288b5760405162461bcd60e51b815260040161085a906145e8565b6000818152600360205260408120805460ff191660011790556128ad85612d2a565b905060006128ba82612e37565b90506128c581612ec6565b6002546001600160a01b039081169116146128f25760405162461bcd60e51b815260040161085a906147ea565b60006128fd87612efd565b905061291b61290b84612f27565b876129158a612f2e565b84612f58565b6129375760405162461bcd60e51b815260040161085a906145a5565b6129658561294489613256565b61294d8a613280565b846129578c6132aa565b6129608d6132d4565b6132fe565b50600061297183613406565b90507f8c5261668696ce22758910d05bab8f186d6eb247ceac2af2e82c7dc17669b0366129a76129a2836000613449565b613483565b146129c45760405162461bcd60e51b815260040161085a90614783565b60006129cf846134fe565b8060200190518101906129e29190613fba565b9b9a5050505050505050505050565b6000306001600160a01b031682604051612a0b91906142da565b6000604051808303816000865af19150503d8060008114612a48576040519150601f19603f3d011682016040523d82523d6000602084013e612a4d565b606091505b50509050806126515760405162461bcd60e51b815260040161085a90614524565b612a76613dab565b6000612a89612a8484613528565b61354d565b60408051602081019091529081529392505050565b60606115358260000151600881518110612ac857634e487b7160e01b600052603260045260246000fd5b6020026020010151613672565b60006115358260000151600281518110612aff57634e487b7160e01b600052603260045260246000fd5b6020026020010151613483565b6040805160208101909152600081528151606091901561153557600080612b3460008661371c565b60f81c90506001811480612b4b57508060ff166003145b15612c0e57600185516002612b609190614af2565b612b6a9190614b11565b6001600160401b03811115612b8f57634e487b7160e01b600052604160045260246000fd5b6040519080825280601f01601f191660200182016040528015612bb9576020820181803683370190505b5092506000612bc960018761371c565b90508084600081518110612bed57634e487b7160e01b600052603260045260246000fd5b60200101906001600160f81b031916908160001a9053506001925050612c7f565b600285516002612c1e9190614af2565b612c289190614b11565b6001600160401b03811115612c4d57634e487b7160e01b600052604160045260246000fd5b6040519080825280601f01601f191660200182016040528015612c77576020820181803683370190505b509250600091505b60ff82165b8351811015612cf757612cae612c9d60ff851683614b11565b612ca8906002614990565b8761371c565b848281518110612cce57634e487b7160e01b600052603260045260246000fd5b60200101906001600160f81b031916908160001a90535080612cef81614bb0565b915050612c84565b50505092915050565b60006115358260000151600981518110612aff57634e487b7160e01b600052603260045260246000fd5b612d32613dbe565b612d5a8260000151600681518110612ac857634e487b7160e01b600052603260045260246000fd5b60208201819052600090612d6d90613528565b9050612d78816137b9565b15612d8d57612d868161354d565b8252612e23565b60208201518051600090612da390600190614b11565b6001600160401b03811115612dc857634e487b7160e01b600052604160045260246000fd5b6040519080825280601f01601f191660200182016040528015612df2576020820181803683370190505b509050600080836021019150826020019050612e10828285516137f3565b612e1c612a8484613528565b8652505050505b612e2c83612d00565b604083015250919050565b612e3f613ddf565b6000612e768360000151600381518110612e6957634e487b7160e01b600052603260045260246000fd5b602002602001015161354d565b836040015181518110612e9957634e487b7160e01b600052603260045260246000fd5b602002602001015190506040518060400160405280828152602001612ebd8361354d565b90529392505050565b60006115358260200151600081518110612ef057634e487b7160e01b600052603260045260246000fd5b602002602001015161386d565b60006115358260000151600581518110612aff57634e487b7160e01b600052603260045260246000fd5b6020015190565b60606115358260000151600781518110612ac857634e487b7160e01b600052603260045260246000fd5b600080612f6484613528565b90506000612f718261354d565b905060608085600080612f838b612b0c565b9050805160001415612f9f5760009750505050505050506127a9565b60005b8651811015613246578151831115612fc5576000985050505050505050506127a9565b612ff5878281518110612fe857634e487b7160e01b600052603260045260246000fd5b6020026020010151613887565b955085805190602001208414613016576000985050505050505050506127a9565b613039878281518110612e6957634e487b7160e01b600052603260045260246000fd5b94508451601114156131385781518314156130a9578c8051906020012061307a86601081518110612ac857634e487b7160e01b600052603260045260246000fd5b805190602001201415613098576001985050505050505050506127a9565b6000985050505050505050506127a9565b60008284815181106130cb57634e487b7160e01b600052603260045260246000fd5b016020015160f81c905060108111156130f057600099505050505050505050506127a9565b613123868260ff168151811061311657634e487b7160e01b600052603260045260246000fd5b6020026020010151613915565b9450613130600185614990565b935050613234565b84516002141561309857600061317261316b87600081518110612ac857634e487b7160e01b600052603260045260246000fd5b8486613943565b83519091506131818286614990565b14156131e4578d805190602001206131b387600181518110612ac857634e487b7160e01b600052603260045260246000fd5b8051906020012014156131d257600199505050505050505050506127a9565b600099505050505050505050506127a9565b806131fb57600099505050505050505050506127a9565b6132058185614990565b935061322b8660018151811061311657634e487b7160e01b600052603260045260246000fd5b94506132349050565b8061323e81614bb0565b915050612fa2565b5050505050505050949350505050565b60006115358260000151600381518110612aff57634e487b7160e01b600052603260045260246000fd5b60006115358260000151600481518110612aff57634e487b7160e01b600052603260045260246000fd5b60006115358260000151600081518110612aff57634e487b7160e01b600052603260045260246000fd5b60606115358260000151600181518110612ac857634e487b7160e01b600052603260045260246000fd5b6001546040516320a9cea560e11b81526000918291829182916001600160a01b03909116906341539d4a906133379089906004016143db565b60a06040518083038186803b15801561334f57600080fd5b505afa158015613363573d6000803e3d6000fd5b505050506040513d601f19601f820116820180604052508101906133879190613ef6565b50935050925092506133dd828b61339e9190614b11565b84878d8d8d8d6040516020016133b79493929190614323565b60405160208183030381529060405280519060200120613a75909392919063ffffffff16565b6133f95760405162461bcd60e51b815260040161085a9061474c565b9998505050505050505050565b61340e613dab565b60405180602001604052806134418460200151600181518110612e6957634e487b7160e01b600052603260045260246000fd5b905292915050565b613451613dff565b825180518390811061347357634e487b7160e01b600052603260045260246000fd5b6020026020010151905092915050565b80516000901580159061349857508151602110155b6134a157600080fd5b60006134b08360200151613b89565b905060008184600001516134c49190614b11565b90506000808386602001516134d99190614990565b90508051915060208310156134f557826020036101000a820491505b50949350505050565b60606115358260200151600281518110612ac857634e487b7160e01b600052603260045260246000fd5b613530613dff565b506040805180820190915281518152602082810190820152919050565b6060613558826137b9565b61356157600080fd5b600061356c83613c14565b90506000816001600160401b0381111561359657634e487b7160e01b600052604160045260246000fd5b6040519080825280602002602001820160405280156135cf57816020015b6135bc613dff565b8152602001906001900390816135b45790505b50905060006135e18560200151613b89565b85602001516135f09190614990565b90506000805b848110156136675761360783613c97565b915060405180604001604052808381526020018481525084828151811061363e57634e487b7160e01b600052603260045260246000fd5b60209081029190910101526136538284614990565b92508061365f81614bb0565b9150506135f6565b509195945050505050565b805160609061368057600080fd5b600061368f8360200151613b89565b905060008184600001516136a39190614b11565b90506000816001600160401b038111156136cd57634e487b7160e01b600052604160045260246000fd5b6040519080825280601f01601f1916602001820160405280156136f7576020820181803683370190505b50905060008160200190506134f58487602001516137159190614990565b8285613d3b565b6000613729600284614bcb565b156137715760108261373c6002866149a8565b8151811061375a57634e487b7160e01b600052603260045260246000fd5b016020015161376c919060f81c614bdf565b6137af565b60108261377f6002866149a8565b8151811061379d57634e487b7160e01b600052603260045260246000fd5b01602001516137af919060f81c6149bc565b60f81b9392505050565b80516000906137ca575060006117d2565b6020820151805160001a9060c08210156137e9576000925050506117d2565b5060019392505050565b806137fd57613868565b602081106138355782518252613814602084614990565b9250613821602083614990565b915061382e602082614b11565b90506137fd565b60006001613844836020614b11565b61385090610100614a24565b61385a9190614b11565b845184518216911916178352505b505050565b805160009060151461387e57600080fd5b61153582613483565b6060600082600001516001600160401b038111156138b557634e487b7160e01b600052604160045260246000fd5b6040519080825280601f01601f1916602001820160405280156138df576020820181803683370190505b5090508051600014156138f35790506117d2565b600081602001905061390e8460200151828660000151613d3b565b5092915050565b805160009060211461392657600080fd5b6000808360200151600161393a9190614990565b51949350505050565b6000808061395086612b0c565b9050600081516001600160401b0381111561397b57634e487b7160e01b600052604160045260246000fd5b6040519080825280601f01601f1916602001820160405280156139a5576020820181803683370190505b509050845b82516139b69087614990565b811015613a455760008782815181106139df57634e487b7160e01b600052603260045260246000fd5b01602001516001600160f81b031916905080836139fc8985614b11565b81518110613a1a57634e487b7160e01b600052603260045260246000fd5b60200101906001600160f81b031916908160001a905350508080613a3d90614bb0565b9150506139aa565b50808051906020012082805190602001201415613a655781519250613a6a565b600092505b509095945050505050565b600060208251613a859190614bcb565b15613aa25760405162461bcd60e51b815260040161085a906146ef565b600060208351613ab291906149a8565b9050613abf816002614a24565b8510613add5760405162461bcd60e51b815260040161085a9061471d565b60008660205b85518111613b7b57858101519250613afc600289614bcb565b613b30578183604051602001613b139291906142cc565b604051602081830303815290604052805190602001209150613b5c565b8282604051602001613b439291906142cc565b6040516020818303038152906040528051906020012091505b613b676002896149a8565b9750613b74602082614990565b9050613ae3565b509094149695505050505050565b8051600090811a6080811015613ba35760009150506117d2565b60b8811080613bbe575060c08110801590613bbe575060f881105b15613bcd5760019150506117d2565b60c0811015613c0257613be2600160b8614b28565b613bef9060ff1682614b11565b613bfa906001614990565b9150506117d2565b613be2600160f8614b28565b50919050565b8051600090613c25575060006117d2565b600080613c358460200151613b89565b8460200151613c449190614990565b9050600084600001518560200151613c5c9190614990565b90505b80821015613c8e57613c7082613c97565b613c7a9083614990565b915082613c8681614bb0565b935050613c5f565b50909392505050565b80516000908190811a6080811015613cb2576001915061390e565b60b8811015613cd857613cc6608082614b11565b613cd1906001614990565b915061390e565b60c0811015613d055760b78103600185019450806020036101000a8551046001820181019350505061390e565b60f8811015613d1957613cc660c082614b11565b60019390930151602084900360f7016101000a900490920160f5190192915050565b80613d4557613868565b60208110613d7d5782518252613d5c602084614990565b9250613d69602083614990565b9150613d76602082614b11565b9050613d45565b8061383557613868565b5080546000825560050290600052602060002090810190613da89190613e19565b50565b6040518060200160405280606081525090565b60405180606001604052806060815260200160608152602001600081525090565b6040518060400160405280613df2613dff565b8152602001606081525090565b604051806040016040528060008152602001600081525090565b80821115613e4057600060038201819055613e376004830182613e44565b50600501613e19565b5090565b5080546000825590600052602060002090810190613da891905b80821115613e405760008155600101613e5e565b600060208284031215613e83578081fd5b81356127a781614c43565b600060208284031215613e9f578081fd5b5035919050565b60008060408385031215613eb8578081fd5b823591506020830135613eca81614c43565b809150509250929050565b60008060408385031215613ee7578182fd5b50508035926020909101359150565b600080600080600060a08688031215613f0d578081fd5b855194506020860151935060408601519250606086015191506080860151613f3481614c43565b809150509295509295909350565b600060208284031215613f53578081fd5b81356001600160401b03811115613f68578182fd5b8201601f81018413613f78578182fd5b8035613f8b613f868261495d565b614934565b818152856020838501011115613f9f578384fd5b81602084016020830137908101602001929092525092915050565b600060208284031215613fcb578081fd5b81516001600160401b03811115613fe0578182fd5b8201601f81018413613ff0578182fd5b8051613ffe613f868261495d565b818152856020838501011115614012578384fd5b614023826020830160208601614b4b565b95945050505050565b60006020828403121561403d578081fd5b5051919050565b60008060408385031215613eb8578182fd5b60008060006060848603121561406a578283fd5b83359250602084013561407c81614c43565b929592945050506040919091013590565b600080600080608085870312156140a2578384fd5b8435935060208501356140b481614c43565b93969395505050506040820135916060013590565b6000806000604084860312156140dd578081fd5b8335925060208401356001600160401b03808211156140fa578283fd5b818601915086601f83011261410d578283fd5b81358181111561411b578384fd5b87602082850101111561412c578384fd5b6020830194508093505050509250925092565b60008060408385031215614151578182fd5b505080516020909101519092909150565b600080600060608486031215614176578081fd5b8335925060208401359150604084013561418f81614c43565b809150509250925092565b6000806000606084860312156141ae578081fd5b505081359360208301359350604090920135919050565b6000815180845260208085019450808401835b838110156141f4578151875295820195908201906001016141d8565b509495945050505050565b60008151808452614217816020860160208601614b4b565b601f01601f19169290920160200192915050565b80546000906002810460018083168061424557607f831692505b602080841082141561426557634e487b7160e01b86526022600452602486fd5b61426f84896143db565b8280156142835760018114614294576142bf565b60ff198716825282820197506142bf565b61429d89614984565b60005b878110156142b9578154848201529086019084016142a0565b83019850505b5050505050505092915050565b918252602082015260400190565b600082516142ec818460208701614b4b565b9190910192915050565b6000848252835161430e816020850160208801614b4b565b60209201918201929092526040019392505050565b93845260208401929092526040830152606082015260800190565b6001600160a01b0391909116815260200190565b6001600160a01b03831681526040602082018190526000906127a9908301846141ff565b60006040825261438960408301856141c5565b828103602084015261402381856141c5565b6000606082526143ae60608301866141c5565b84602084015282810360408401526143c681856141c5565b9695505050505050565b901515815260200190565b90815260200190565b9182526001600160a01b0316602082015260400190565b9283526001600160a01b03919091166020830152604082015260600190565b6000602082526125f560208301846141ff565b6000602082526125f5602083018461422b565b608081016005861061446257634e487b7160e01b600052602160045260246000fd5b9481526001600160f81b03939093166020840152604083019190915260609091015290565b60006020825282602083015282846040840137818301604090810191909152601f909201601f19160101919050565b60208082526017908201527f4469737075746520616c72656164792063726561746564000000000000000000604082015260600190565b60208082526017908201527f4f6e6c792061726269747261746f7220616c6c6f776564000000000000000000604082015260600190565b60208082526017908201527f4661696c656420746f2063616c6c20636f6e7472616374000000000000000000604082015260600190565b6020808252602a908201527f467842617365526f6f7454756e6e656c3a204348494c445f54554e4e454c5f4160408201526913149150511657d4d15560b21b606082015260800190565b60208082526023908201527f4678526f6f7454756e6e656c3a20494e56414c49445f524543454950545f505260408201526227a7a360e91b606082015260800190565b60208082526024908201527f4678526f6f7454756e6e656c3a20455849545f414c52454144595f50524f434560408201526314d4d15160e21b606082015260800190565b6020808252601d908201527f4172626974726174696f6e20616c726561647920726571756573746564000000604082015260600190565b602080825260149082015273111a5cdc1d5d19481b9bdd081c995cdbdb1d995960621b604082015260600190565b6020808252601590820152744465706f7369742076616c756520746f6f206c6f7760581b604082015260600190565b6020808252601590820152742737903234b9b83aba32903a379030b83832b0b61760591b604082015260600190565b602080825260149082015273092dcecc2d8d2c840e0e4dedecc40d8cadccee8d60631b604082015260600190565b6020808252601590820152744c65616620696e64657820697320746f6f2062696760581b604082015260600190565b6020808252601c908201527f4678526f6f7454756e6e656c3a20494e56414c49445f48454144455200000000604082015260600190565b6020808252601f908201527f4678526f6f7454756e6e656c3a20494e56414c49445f5349474e415455524500604082015260600190565b60208082526016908201527520b83832b0b6103832b934b7b21034b99037bb32b91760511b604082015260600190565b60208082526025908201527f4678526f6f7454756e6e656c3a20494e56414c49445f46585f4348494c445f54604082015264155393915360da1b606082015260800190565b6020808252601f908201527f41707065616c20706572696f64206973206f76657220666f72206c6f73657200604082015260600190565b6020808252601b908201527f41707065616c2066656520697320616c726561647920706169642e0000000000604082015260600190565b6020808252601a908201527f496e76616c6964206172626974726174696f6e20737461747573000000000000604082015260600190565b6020808252601d908201527f43616e206f6e6c792062652063616c6c65642076696120627269646765000000604082015260600190565b9182521515602082015260400190565b6000838252604060208301526127a9604083018461422b565b6040518181016001600160401b038111828210171561495557614955614c2d565b604052919050565b60006001600160401b0382111561497657614976614c2d565b50601f01601f191660200190565b60009081526020902090565b600082198211156149a3576149a3614c01565b500190565b6000826149b7576149b7614c17565b500490565b600060ff8316806149cf576149cf614c17565b8060ff84160491505092915050565b80825b60018086116149f05750614a1b565b818704821115614a0257614a02614c01565b80861615614a0f57918102915b9490941c9380026149e1565b94509492505050565b60006125f56000198484600082614a3d575060016125f5565b81614a4a575060006125f5565b8160018114614a605760028114614a6a57614a97565b60019150506125f5565b60ff841115614a7b57614a7b614c01565b6001841b915084821115614a9157614a91614c01565b506125f5565b5060208310610133831016604e8410600b8410161715614aca575081810a83811115614ac557614ac5614c01565b6125f5565b614ad784848460016149de565b808604821115614ae957614ae9614c01565b02949350505050565b6000816000190483118215151615614b0c57614b0c614c01565b500290565b600082821015614b2357614b23614c01565b500390565b600060ff821660ff841680821015614b4257614b42614c01565b90039392505050565b60005b83811015614b66578181015183820152602001614b4e565b83811115614b75576000848401525b50505050565b600281046001821680614b8f57607f821691505b60208210811415613c0e57634e487b7160e01b600052602260045260246000fd5b6000600019821415614bc457614bc4614c01565b5060010190565b600082614bda57614bda614c17565b500690565b600060ff831680614bf257614bf2614c17565b8060ff84160691505092915050565b634e487b7160e01b600052601160045260246000fd5b634e487b7160e01b600052601260045260246000fd5b634e487b7160e01b600052604160045260246000fd5b6001600160a01b0381168114613da857600080fdfea26469706673582212203a6644674ad55bf011cc4d27c9364c2b49d1afa87f89c833822dfed87fe9eedd64736f6c63430008000033",
  "devdoc": {
    "details": "This contract is meant to be deployed to the Ethereum chains where Kleros is deployed.",
    "kind": "dev",
    "methods": {
      "constructor": {
        "params": {
          "_arbitrator": "Arbitrator contract address.",
          "_arbitratorExtraData": "The extra data used to raise a dispute in the arbitrator.",
          "_checkpointManager": "For Polygon FX-portal bridge.",
          "_fxRoot": "Address of the FxRoot contract of the Polygon bridge.",
          "_loserAppealPeriodMultiplier": "Multiplier for calculating the appeal period for the losing answer.",
          "_loserMultiplier": "Multiplier for calculation the appeal cost of the losing answer.",
          "_metaEvidence": "The URI of the meta evidence file.",
          "_winnerMultiplier": "Multiplier for calculating the appeal cost of the winning answer."
        }
      },
      "externalIDtoLocalID(uint256)": {
        "params": {
          "_externalDisputeID": "Dispute id as in arbitrator side."
        },
        "returns": {
          "_0": "localDisputeID Dispute id as in arbitrable contract."
        }
      },
      "fundAppeal(uint256,uint256)": {
        "params": {
          "_answer": "One of the possible rulings the arbitrator can give that the funder considers to be the correct answer to the question. Note that the answer has Kleros denomination, meaning that it has '+1' offset compared to Realitio format. Also note that '0' answer can be funded.",
          "_arbitrationID": "The ID of the arbitration, which is questionID cast into uint256."
        },
        "returns": {
          "_0": "Whether the answer was fully funded or not."
        }
      },
      "getContributionsToSuccessfulFundings(uint256,uint256,address)": {
        "params": {
          "_arbitrationID": "The ID of the arbitration.",
          "_contributor": "The address whose contributions to query.",
          "_round": "The round to query."
        },
        "returns": {
          "contributions": "The amount contributed to each funded answer by the contributor.",
          "fundedAnswers": "IDs of the answers that are fully funded."
        }
      },
      "getDisputeFee(bytes32)": {
        "returns": {
          "_0": "The fee to create a dispute."
        }
      },
      "getFundingStatus(uint256,uint256,uint256)": {
        "params": {
          "_answer": "The answer choice to get funding status for.",
          "_arbitrationID": "The ID of the arbitration.",
          "_round": "The round to query."
        },
        "returns": {
          "fullyFunded": "Whether the answer is fully funded or not.",
          "raised": "The amount paid for this answer."
        }
      },
      "getMultipliers()": {
        "returns": {
          "divisor": "Multiplier divisor.",
          "loser": "Losers stake multiplier.",
          "loserAppealPeriod": "Multiplier for calculating an appeal period duration for the losing side.",
          "winner": "Winners stake multiplier."
        }
      },
      "getNumberOfRounds(uint256)": {
        "params": {
          "_arbitrationID": "The ID of the arbitration related to the question."
        },
        "returns": {
          "_0": "The number of rounds."
        }
      },
      "getRoundInfo(uint256,uint256)": {
        "params": {
          "_arbitrationID": "The ID of the arbitration.",
          "_round": "The round to query."
        },
        "returns": {
          "feeRewards": "The amount of fees that will be used as rewards.",
          "fundedAnswers": "IDs of fully funded answers.",
          "paidFees": "The amount of fees paid for each fully funded answer."
        }
      },
      "getTotalWithdrawableAmount(uint256,address,uint256)": {
        "details": "This function is O(n) where n is the total number of rounds.This could exceed the gas limit, therefore this function should be used only as a utility and not be relied upon by other contracts.",
        "params": {
          "_arbitrationID": "The ID of the arbitration.",
          "_beneficiary": "The contributor for which to query.",
          "_contributedTo": "Answer that received contributions from contributor."
        },
        "returns": {
          "sum": "The total amount available to withdraw."
        }
      },
      "handleFailedDisputeCreation(bytes32,address)": {
        "params": {
          "_questionID": "The ID of the question.",
          "_requester": "The address of the arbitration requester."
        }
      },
      "numberOfRulingOptions(uint256)": {
        "returns": {
          "_0": "count The number of ruling options."
        }
      },
      "questionIDToArbitrationID(bytes32)": {
        "params": {
          "_questionID": "The ID of the question."
        },
        "returns": {
          "_0": "The ID of the arbitration."
        }
      },
      "receiveArbitrationAcknowledgement(bytes32,address)": {
        "params": {
          "_questionID": "The ID of the question.",
          "_requester": "The requester."
        }
      },
      "receiveArbitrationCancelation(bytes32,address)": {
        "params": {
          "_questionID": "The ID of the question.",
          "_requester": "The requester."
        }
      },
      "receiveMessage(bytes)": {
        "details": "This function verifies if the transaction actually happened on child chain",
        "params": {
          "inputData": "RLP encoded data of the reference tx containing following list of fields  0 - headerNumber - Checkpoint header block number containing the reference tx  1 - blockProof - Proof that the block header (in the child chain) is a leaf in the submitted merkle root  2 - blockNumber - Block number containing the reference tx on child chain  3 - blockTime - Reference tx block time  4 - txRoot - Transactions root of block  5 - receiptRoot - Receipts root of block  6 - receipt - Receipt of the reference transaction  7 - receiptProof - Merkle proof of the reference receipt  8 - branchMask - 32 bits denoting the path of receipt in merkle tree  9 - receiptLogIndex - Log Index to read from the receipt"
        }
      },
      "requestArbitration(bytes32,uint256)": {
        "params": {
          "_maxPrevious": "The maximum value of the current bond for the question. The arbitration request will get rejected if the current bond is greater than _maxPrevious. If set to 0, _maxPrevious is ignored.",
          "_questionID": "The ID of the question."
        }
      },
      "rule(uint256,uint256)": {
        "details": "Accounts for the situation where the winner loses a case due to paying less appeal fees than expected.",
        "params": {
          "_disputeID": "The ID of the dispute in the ERC792 arbitrator.",
          "_ruling": "The ruling given by the arbitrator."
        }
      },
      "submitEvidence(uint256,string)": {
        "params": {
          "_arbitrationID": "The ID of the arbitration related to the question.",
          "_evidenceURI": "Link to evidence."
        }
      },
      "withdrawFeesAndRewards(uint256,address,uint256,uint256)": {
        "params": {
          "_answer": "The answer to query the reward from.",
          "_arbitrationID": "The ID of the arbitration.",
          "_beneficiary": "The address to send reward to.",
          "_round": "The round from which to withdraw."
        },
        "returns": {
          "reward": "The withdrawn amount."
        }
      },
      "withdrawFeesAndRewardsForAllRounds(uint256,address,uint256)": {
        "details": "This function is O(n) where n is the total number of rounds. Arbitration cost of subsequent rounds is `A(n) = 2A(n-1) + 1`.      So because of this exponential growth of costs, you can assume n is less than 10 at all times.",
        "params": {
          "_arbitrationID": "The ID of the arbitration.",
          "_beneficiary": "The address that made contributions.",
          "_contributedTo": "Answer that received contributions from contributor."
        }
      }
    },
    "title": "Arbitration proxy for Realitio on Ethereum side (A.K.A. the Foreign Chain).",
    "version": 1
  },
  "userdoc": {
    "events": {
      "ArbitrationCanceled(bytes32,address)": {
        "notice": "Should be emitted when the arbitration is canceled by the Home Chain."
      },
      "ArbitrationCreated(bytes32,address,uint256)": {
        "notice": "Should be emitted when the dispute is created."
      },
      "ArbitrationFailed(bytes32,address)": {
        "notice": "Should be emitted when the dispute could not be created."
      },
      "ArbitrationRequested(bytes32,address,uint256)": {
        "notice": "Should be emitted when the arbitration is requested."
      }
    },
    "kind": "user",
    "methods": {
      "constructor": {
        "notice": "Creates an arbitration proxy on the foreign chain."
      },
      "externalIDtoLocalID(uint256)": {
        "notice": "Maps external (arbitrator side) dispute id to local (arbitrable) dispute id."
      },
      "fundAppeal(uint256,uint256)": {
        "notice": "Takes up to the total amount required to fund an answer. Reimburses the rest. Creates an appeal if at least two answers are funded."
      },
      "getContributionsToSuccessfulFundings(uint256,uint256,address)": {
        "notice": "Gets contributions to the answers that are fully funded."
      },
      "getDisputeFee(bytes32)": {
        "notice": "Gets the fee to create a dispute."
      },
      "getFundingStatus(uint256,uint256,uint256)": {
        "notice": "Gets the information of a round of a question for a specific answer choice."
      },
      "getMultipliers()": {
        "notice": "Returns stake multipliers."
      },
      "getNumberOfRounds(uint256)": {
        "notice": "Gets the number of rounds of the specific question."
      },
      "getRoundInfo(uint256,uint256)": {
        "notice": "Gets the information of a round of a question."
      },
      "getTotalWithdrawableAmount(uint256,address,uint256)": {
        "notice": "Returns the sum of withdrawable amount."
      },
      "handleFailedDisputeCreation(bytes32,address)": {
        "notice": "Cancels the arbitration in case the dispute could not be created."
      },
      "numberOfRulingOptions(uint256)": {
        "notice": "Returns number of possible ruling options. Valid rulings are [0, return value]."
      },
      "questionIDToArbitrationID(bytes32)": {
        "notice": "Casts question ID into uint256 thus returning the related arbitration ID."
      },
      "receiveArbitrationAcknowledgement(bytes32,address)": {
        "notice": "Receives the acknowledgement of the arbitration request for the given question and requester. TRUSTED."
      },
      "receiveArbitrationCancelation(bytes32,address)": {
        "notice": "Receives the cancelation of the arbitration request for the given question and requester. TRUSTED."
      },
      "receiveMessage(bytes)": {
        "notice": "receive message from  L2 to L1, validated by proof"
      },
      "requestArbitration(bytes32,uint256)": {
        "notice": "Requests arbitration for the given question and contested answer."
      },
      "rule(uint256,uint256)": {
        "notice": "Rules a specified dispute. Can only be called by the arbitrator."
      },
      "submitEvidence(uint256,string)": {
        "notice": "Allows to submit evidence for a particular question."
      },
      "withdrawFeesAndRewards(uint256,address,uint256,uint256)": {
        "notice": "Sends the fee stake rewards and reimbursements proportional to the contributions made to the winner of a dispute. Reimburses contributions if there is no winner."
      },
      "withdrawFeesAndRewardsForAllRounds(uint256,address,uint256)": {
        "notice": "Allows to withdraw any rewards or reimbursable fees for all rounds at once."
      }
    },
    "version": 1
  },
  "storageLayout": {
    "storage": [
      {
        "astId": 2957,
        "contract": "src/RealitioForeignArbitrationProxyWithAppeals.sol:RealitioForeignArbitrationProxyWithAppeals",
        "label": "fxRoot",
        "offset": 0,
        "slot": "0",
        "type": "t_contract(IFxStateSender)2907"
      },
      {
        "astId": 2960,
        "contract": "src/RealitioForeignArbitrationProxyWithAppeals.sol:RealitioForeignArbitrationProxyWithAppeals",
        "label": "checkpointManager",
        "offset": 0,
        "slot": "1",
        "type": "t_contract(ICheckpointManager)2925"
      },
      {
        "astId": 2962,
        "contract": "src/RealitioForeignArbitrationProxyWithAppeals.sol:RealitioForeignArbitrationProxyWithAppeals",
        "label": "fxChildTunnel",
        "offset": 0,
        "slot": "2",
        "type": "t_address"
      },
      {
        "astId": 2966,
        "contract": "src/RealitioForeignArbitrationProxyWithAppeals.sol:RealitioForeignArbitrationProxyWithAppeals",
        "label": "processedExits",
        "offset": 0,
        "slot": "3",
        "type": "t_mapping(t_bytes32,t_bool)"
      },
      {
        "astId": 562,
        "contract": "src/RealitioForeignArbitrationProxyWithAppeals.sol:RealitioForeignArbitrationProxyWithAppeals",
        "label": "arbitratorExtraData",
        "offset": 0,
        "slot": "4",
        "type": "t_bytes_storage"
      },
      {
        "astId": 575,
        "contract": "src/RealitioForeignArbitrationProxyWithAppeals.sol:RealitioForeignArbitrationProxyWithAppeals",
        "label": "arbitrationRequests",
        "offset": 0,
        "slot": "5",
        "type": "t_mapping(t_uint256,t_mapping(t_address,t_struct(ArbitrationRequest)532_storage))"
      },
      {
        "astId": 580,
        "contract": "src/RealitioForeignArbitrationProxyWithAppeals.sol:RealitioForeignArbitrationProxyWithAppeals",
        "label": "disputeIDToDisputeDetails",
        "offset": 0,
        "slot": "6",
        "type": "t_mapping(t_uint256,t_struct(DisputeDetails)537_storage)"
      },
      {
        "astId": 584,
        "contract": "src/RealitioForeignArbitrationProxyWithAppeals.sol:RealitioForeignArbitrationProxyWithAppeals",
        "label": "arbitrationIDToDisputeExists",
        "offset": 0,
        "slot": "7",
        "type": "t_mapping(t_uint256,t_bool)"
      },
      {
        "astId": 588,
        "contract": "src/RealitioForeignArbitrationProxyWithAppeals.sol:RealitioForeignArbitrationProxyWithAppeals",
        "label": "arbitrationIDToRequester",
        "offset": 0,
        "slot": "8",
        "type": "t_mapping(t_uint256,t_address)"
      }
    ],
    "types": {
      "t_address": {
        "encoding": "inplace",
        "label": "address",
        "numberOfBytes": "20"
      },
      "t_array(t_struct(Round)557_storage)dyn_storage": {
        "base": "t_struct(Round)557_storage",
        "encoding": "dynamic_array",
        "label": "struct RealitioForeignArbitrationProxyWithAppeals.Round[]",
        "numberOfBytes": "32"
      },
      "t_array(t_uint256)dyn_storage": {
        "base": "t_uint256",
        "encoding": "dynamic_array",
        "label": "uint256[]",
        "numberOfBytes": "32"
      },
      "t_bool": {
        "encoding": "inplace",
        "label": "bool",
        "numberOfBytes": "1"
      },
      "t_bytes32": {
        "encoding": "inplace",
        "label": "bytes32",
        "numberOfBytes": "32"
      },
      "t_bytes_storage": {
        "encoding": "bytes",
        "label": "bytes",
        "numberOfBytes": "32"
      },
      "t_contract(ICheckpointManager)2925": {
        "encoding": "inplace",
        "label": "contract ICheckpointManager",
        "numberOfBytes": "20"
      },
      "t_contract(IFxStateSender)2907": {
        "encoding": "inplace",
        "label": "contract IFxStateSender",
        "numberOfBytes": "20"
      },
      "t_enum(Status)518": {
        "encoding": "inplace",
        "label": "enum RealitioForeignArbitrationProxyWithAppeals.Status",
        "numberOfBytes": "1"
      },
      "t_mapping(t_address,t_mapping(t_uint256,t_uint256))": {
        "encoding": "mapping",
        "key": "t_address",
        "label": "mapping(address => mapping(uint256 => uint256))",
        "numberOfBytes": "32",
        "value": "t_mapping(t_uint256,t_uint256)"
      },
      "t_mapping(t_address,t_struct(ArbitrationRequest)532_storage)": {
        "encoding": "mapping",
        "key": "t_address",
        "label": "mapping(address => struct RealitioForeignArbitrationProxyWithAppeals.ArbitrationRequest)",
        "numberOfBytes": "32",
        "value": "t_struct(ArbitrationRequest)532_storage"
      },
      "t_mapping(t_bytes32,t_bool)": {
        "encoding": "mapping",
        "key": "t_bytes32",
        "label": "mapping(bytes32 => bool)",
        "numberOfBytes": "32",
        "value": "t_bool"
      },
      "t_mapping(t_uint256,t_address)": {
        "encoding": "mapping",
        "key": "t_uint256",
        "label": "mapping(uint256 => address)",
        "numberOfBytes": "32",
        "value": "t_address"
      },
      "t_mapping(t_uint256,t_bool)": {
        "encoding": "mapping",
        "key": "t_uint256",
        "label": "mapping(uint256 => bool)",
        "numberOfBytes": "32",
        "value": "t_bool"
      },
      "t_mapping(t_uint256,t_mapping(t_address,t_struct(ArbitrationRequest)532_storage))": {
        "encoding": "mapping",
        "key": "t_uint256",
        "label": "mapping(uint256 => mapping(address => struct RealitioForeignArbitrationProxyWithAppeals.ArbitrationRequest))",
        "numberOfBytes": "32",
        "value": "t_mapping(t_address,t_struct(ArbitrationRequest)532_storage)"
      },
      "t_mapping(t_uint256,t_struct(DisputeDetails)537_storage)": {
        "encoding": "mapping",
        "key": "t_uint256",
        "label": "mapping(uint256 => struct RealitioForeignArbitrationProxyWithAppeals.DisputeDetails)",
        "numberOfBytes": "32",
        "value": "t_struct(DisputeDetails)537_storage"
      },
      "t_mapping(t_uint256,t_uint256)": {
        "encoding": "mapping",
        "key": "t_uint256",
        "label": "mapping(uint256 => uint256)",
        "numberOfBytes": "32",
        "value": "t_uint256"
      },
      "t_struct(ArbitrationRequest)532_storage": {
        "encoding": "inplace",
        "label": "struct RealitioForeignArbitrationProxyWithAppeals.ArbitrationRequest",
        "members": [
          {
            "astId": 521,
            "contract": "src/RealitioForeignArbitrationProxyWithAppeals.sol:RealitioForeignArbitrationProxyWithAppeals",
            "label": "status",
            "offset": 0,
            "slot": "0",
            "type": "t_enum(Status)518"
          },
          {
            "astId": 523,
            "contract": "src/RealitioForeignArbitrationProxyWithAppeals.sol:RealitioForeignArbitrationProxyWithAppeals",
            "label": "deposit",
            "offset": 1,
            "slot": "0",
            "type": "t_uint248"
          },
          {
            "astId": 525,
            "contract": "src/RealitioForeignArbitrationProxyWithAppeals.sol:RealitioForeignArbitrationProxyWithAppeals",
            "label": "disputeID",
            "offset": 0,
            "slot": "1",
            "type": "t_uint256"
          },
          {
            "astId": 527,
            "contract": "src/RealitioForeignArbitrationProxyWithAppeals.sol:RealitioForeignArbitrationProxyWithAppeals",
            "label": "answer",
            "offset": 0,
            "slot": "2",
            "type": "t_uint256"
          },
          {
            "astId": 531,
            "contract": "src/RealitioForeignArbitrationProxyWithAppeals.sol:RealitioForeignArbitrationProxyWithAppeals",
            "label": "rounds",
            "offset": 0,
            "slot": "3",
            "type": "t_array(t_struct(Round)557_storage)dyn_storage"
          }
        ],
        "numberOfBytes": "128"
      },
      "t_struct(DisputeDetails)537_storage": {
        "encoding": "inplace",
        "label": "struct RealitioForeignArbitrationProxyWithAppeals.DisputeDetails",
        "members": [
          {
            "astId": 534,
            "contract": "src/RealitioForeignArbitrationProxyWithAppeals.sol:RealitioForeignArbitrationProxyWithAppeals",
            "label": "arbitrationID",
            "offset": 0,
            "slot": "0",
            "type": "t_uint256"
          },
          {
            "astId": 536,
            "contract": "src/RealitioForeignArbitrationProxyWithAppeals.sol:RealitioForeignArbitrationProxyWithAppeals",
            "label": "requester",
            "offset": 0,
            "slot": "1",
            "type": "t_address"
          }
        ],
        "numberOfBytes": "64"
      },
      "t_struct(Round)557_storage": {
        "encoding": "inplace",
        "label": "struct RealitioForeignArbitrationProxyWithAppeals.Round",
        "members": [
          {
            "astId": 541,
            "contract": "src/RealitioForeignArbitrationProxyWithAppeals.sol:RealitioForeignArbitrationProxyWithAppeals",
            "label": "paidFees",
            "offset": 0,
            "slot": "0",
            "type": "t_mapping(t_uint256,t_uint256)"
          },
          {
            "astId": 545,
            "contract": "src/RealitioForeignArbitrationProxyWithAppeals.sol:RealitioForeignArbitrationProxyWithAppeals",
            "label": "hasPaid",
            "offset": 0,
            "slot": "1",
            "type": "t_mapping(t_uint256,t_bool)"
          },
          {
            "astId": 551,
            "contract": "src/RealitioForeignArbitrationProxyWithAppeals.sol:RealitioForeignArbitrationProxyWithAppeals",
            "label": "contributions",
            "offset": 0,
            "slot": "2",
            "type": "t_mapping(t_address,t_mapping(t_uint256,t_uint256))"
          },
          {
            "astId": 553,
            "contract": "src/RealitioForeignArbitrationProxyWithAppeals.sol:RealitioForeignArbitrationProxyWithAppeals",
            "label": "feeRewards",
            "offset": 0,
            "slot": "3",
            "type": "t_uint256"
          },
          {
            "astId": 556,
            "contract": "src/RealitioForeignArbitrationProxyWithAppeals.sol:RealitioForeignArbitrationProxyWithAppeals",
            "label": "fundedAnswers",
            "offset": 0,
            "slot": "4",
            "type": "t_array(t_uint256)dyn_storage"
          }
        ],
        "numberOfBytes": "160"
      },
      "t_uint248": {
        "encoding": "inplace",
        "label": "uint248",
        "numberOfBytes": "31"
      },
      "t_uint256": {
        "encoding": "inplace",
        "label": "uint256",
        "numberOfBytes": "32"
      }
    }
  }
}