{
  "address": "0x503fA35b1072e9b5Ff12E037959A23c08a231C6F",
  "abi": [
    {
      "inputs": [
        {
          "internalType": "contract IAMB",
          "name": "_amb",
          "type": "address"
        },
        {
          "internalType": "address",
          "name": "_homeProxy",
          "type": "address"
        },
        {
          "internalType": "uint256",
          "name": "_homeChainId",
          "type": "uint256"
        },
        {
          "internalType": "contract IArbitrator",
          "name": "_arbitrator",
          "type": "address"
        },
        {
          "internalType": "bytes",
          "name": "_arbitratorExtraData",
          "type": "bytes"
        },
        {
          "internalType": "string",
          "name": "_metaEvidence",
          "type": "string"
        },
        {
          "internalType": "string",
          "name": "_termsOfService",
          "type": "string"
        }
      ],
      "stateMutability": "nonpayable",
      "type": "constructor"
    },
    {
      "anonymous": false,
      "inputs": [
        {
          "indexed": true,
          "internalType": "bytes32",
          "name": "_questionID",
          "type": "bytes32"
        },
        {
          "indexed": true,
          "internalType": "bytes32",
          "name": "_contestedAnswer",
          "type": "bytes32"
        }
      ],
      "name": "ArbitrationCanceled",
      "type": "event"
    },
    {
      "anonymous": false,
      "inputs": [
        {
          "indexed": true,
          "internalType": "bytes32",
          "name": "_questionID",
          "type": "bytes32"
        },
        {
          "indexed": true,
          "internalType": "bytes32",
          "name": "_contestedAnswer",
          "type": "bytes32"
        },
        {
          "indexed": true,
          "internalType": "uint256",
          "name": "_disputeID",
          "type": "uint256"
        }
      ],
      "name": "ArbitrationCreated",
      "type": "event"
    },
    {
      "anonymous": false,
      "inputs": [
        {
          "indexed": true,
          "internalType": "bytes32",
          "name": "_questionID",
          "type": "bytes32"
        },
        {
          "indexed": true,
          "internalType": "bytes32",
          "name": "_contestedAnswer",
          "type": "bytes32"
        }
      ],
      "name": "ArbitrationFailed",
      "type": "event"
    },
    {
      "anonymous": false,
      "inputs": [
        {
          "indexed": true,
          "internalType": "bytes32",
          "name": "_questionID",
          "type": "bytes32"
        },
        {
          "indexed": true,
          "internalType": "bytes32",
          "name": "_contestedAnswer",
          "type": "bytes32"
        },
        {
          "indexed": true,
          "internalType": "address",
          "name": "_requester",
          "type": "address"
        }
      ],
      "name": "ArbitrationRequested",
      "type": "event"
    },
    {
      "anonymous": false,
      "inputs": [
        {
          "indexed": true,
          "internalType": "contract IArbitrator",
          "name": "_arbitrator",
          "type": "address"
        },
        {
          "indexed": true,
          "internalType": "uint256",
          "name": "_disputeID",
          "type": "uint256"
        },
        {
          "indexed": false,
          "internalType": "uint256",
          "name": "_metaEvidenceID",
          "type": "uint256"
        },
        {
          "indexed": false,
          "internalType": "uint256",
          "name": "_evidenceGroupID",
          "type": "uint256"
        }
      ],
      "name": "Dispute",
      "type": "event"
    },
    {
      "anonymous": false,
      "inputs": [
        {
          "indexed": true,
          "internalType": "contract IArbitrator",
          "name": "_arbitrator",
          "type": "address"
        },
        {
          "indexed": true,
          "internalType": "uint256",
          "name": "_evidenceGroupID",
          "type": "uint256"
        },
        {
          "indexed": true,
          "internalType": "address",
          "name": "_party",
          "type": "address"
        },
        {
          "indexed": false,
          "internalType": "string",
          "name": "_evidence",
          "type": "string"
        }
      ],
      "name": "Evidence",
      "type": "event"
    },
    {
      "anonymous": false,
      "inputs": [
        {
          "indexed": true,
          "internalType": "uint256",
          "name": "_metaEvidenceID",
          "type": "uint256"
        },
        {
          "indexed": false,
          "internalType": "string",
          "name": "_evidence",
          "type": "string"
        }
      ],
      "name": "MetaEvidence",
      "type": "event"
    },
    {
      "anonymous": false,
      "inputs": [
        {
          "indexed": true,
          "internalType": "contract IArbitrator",
          "name": "_arbitrator",
          "type": "address"
        },
        {
          "indexed": true,
          "internalType": "uint256",
          "name": "_disputeID",
          "type": "uint256"
        },
        {
          "indexed": false,
          "internalType": "uint256",
          "name": "_ruling",
          "type": "uint256"
        }
      ],
      "name": "Ruling",
      "type": "event"
    },
    {
      "inputs": [],
      "name": "META_EVIDENCE_ID",
      "outputs": [
        {
          "internalType": "uint256",
          "name": "",
          "type": "uint256"
        }
      ],
      "stateMutability": "view",
      "type": "function"
    },
    {
      "inputs": [],
      "name": "NUMBER_OF_CHOICES_FOR_ARBITRATOR",
      "outputs": [
        {
          "internalType": "uint256",
          "name": "",
          "type": "uint256"
        }
      ],
      "stateMutability": "view",
      "type": "function"
    },
    {
      "inputs": [
        {
          "internalType": "bytes32",
          "name": "_questionID",
          "type": "bytes32"
        },
        {
          "internalType": "bytes32",
          "name": "_contestedAnswer",
          "type": "bytes32"
        }
      ],
      "name": "acknowledgeArbitration",
      "outputs": [],
      "stateMutability": "nonpayable",
      "type": "function"
    },
    {
      "inputs": [],
      "name": "amb",
      "outputs": [
        {
          "internalType": "contract IAMB",
          "name": "",
          "type": "address"
        }
      ],
      "stateMutability": "view",
      "type": "function"
    },
    {
      "inputs": [
        {
          "internalType": "bytes32",
          "name": "",
          "type": "bytes32"
        },
        {
          "internalType": "bytes32",
          "name": "",
          "type": "bytes32"
        }
      ],
      "name": "arbitrationRequests",
      "outputs": [
        {
          "internalType": "enum RealitioForeignArbitrationProxy.Status",
          "name": "status",
          "type": "uint8"
        },
        {
          "internalType": "address payable",
          "name": "requester",
          "type": "address"
        },
        {
          "internalType": "uint256",
          "name": "deposit",
          "type": "uint256"
        }
      ],
      "stateMutability": "view",
      "type": "function"
    },
    {
      "inputs": [],
      "name": "arbitrator",
      "outputs": [
        {
          "internalType": "contract IArbitrator",
          "name": "",
          "type": "address"
        }
      ],
      "stateMutability": "view",
      "type": "function"
    },
    {
      "inputs": [],
      "name": "arbitratorExtraData",
      "outputs": [
        {
          "internalType": "bytes",
          "name": "",
          "type": "bytes"
        }
      ],
      "stateMutability": "view",
      "type": "function"
    },
    {
      "inputs": [
        {
          "internalType": "bytes32",
          "name": "_questionID",
          "type": "bytes32"
        },
        {
          "internalType": "bytes32",
          "name": "_contestedAnswer",
          "type": "bytes32"
        }
      ],
      "name": "cancelArbitration",
      "outputs": [],
      "stateMutability": "nonpayable",
      "type": "function"
    },
    {
      "inputs": [
        {
          "internalType": "uint256",
          "name": "",
          "type": "uint256"
        },
        {
          "internalType": "uint256",
          "name": "",
          "type": "uint256"
        }
      ],
      "name": "disputeIDToQuestionAndAnswer",
      "outputs": [
        {
          "internalType": "bytes32",
          "name": "",
          "type": "bytes32"
        }
      ],
      "stateMutability": "view",
      "type": "function"
    },
    {
      "inputs": [
        {
          "internalType": "bytes32",
          "name": "questionID",
          "type": "bytes32"
        }
      ],
      "name": "getDisputeFee",
      "outputs": [
        {
          "internalType": "uint256",
          "name": "",
          "type": "uint256"
        }
      ],
      "stateMutability": "view",
      "type": "function"
    },
    {
      "inputs": [
        {
          "internalType": "bytes32",
          "name": "_questionID",
          "type": "bytes32"
        },
        {
          "internalType": "bytes32",
          "name": "_contestedAnswer",
          "type": "bytes32"
        }
      ],
      "name": "handleFailedDisputeCreation",
      "outputs": [],
      "stateMutability": "nonpayable",
      "type": "function"
    },
    {
      "inputs": [],
      "name": "homeChainId",
      "outputs": [
        {
          "internalType": "uint256",
          "name": "",
          "type": "uint256"
        }
      ],
      "stateMutability": "view",
      "type": "function"
    },
    {
      "inputs": [],
      "name": "homeProxy",
      "outputs": [
        {
          "internalType": "address",
          "name": "",
          "type": "address"
        }
      ],
      "stateMutability": "view",
      "type": "function"
    },
    {
      "inputs": [
        {
          "internalType": "bytes32",
          "name": "",
          "type": "bytes32"
        }
      ],
      "name": "questionIDToDisputeExists",
      "outputs": [
        {
          "internalType": "bool",
          "name": "",
          "type": "bool"
        }
      ],
      "stateMutability": "view",
      "type": "function"
    },
    {
      "inputs": [
        {
          "internalType": "bytes32",
          "name": "_questionID",
          "type": "bytes32"
        },
        {
          "internalType": "bytes32",
          "name": "_contestedAnswer",
          "type": "bytes32"
        }
      ],
      "name": "requestArbitration",
      "outputs": [],
      "stateMutability": "payable",
      "type": "function"
    },
    {
      "inputs": [
        {
          "internalType": "uint256",
          "name": "_disputeID",
          "type": "uint256"
        },
        {
          "internalType": "uint256",
          "name": "_ruling",
          "type": "uint256"
        }
      ],
      "name": "rule",
      "outputs": [],
      "stateMutability": "nonpayable",
      "type": "function"
    },
    {
      "inputs": [],
      "name": "termsOfService",
      "outputs": [
        {
          "internalType": "string",
          "name": "",
          "type": "string"
        }
      ],
      "stateMutability": "view",
      "type": "function"
    }
  ],
  "transactionHash": "0x9a92b8824ca303a467fa45dafb718e5bd9988e3a75b1210a70e3f47d5edc1476",
  "args": [
    "0xFe446bEF1DbF7AFE24E81e05BC8B271C1BA9a560",
    "0xd5ce9C7905CB1e874DaA83Cb1be02eB536308419",
    "77",
    "0x3b261920Ba47f0C0c6162e592181bbE2244b63AE",
    "0x00000000000000000000000000000000000000000000000000000000000000000000000000000000000000000000000000000000000000000000000000000000",
    "/ipfs/QmbiGmU35RhB8FziGs8M1oVyxY5pX5zDCFNtBjvHvf4NFe/realitio.json",
    "/ipfs/Qmf67KPWvFLSQEczsb8Kh9HtGUevNtSSVELqTS8yTe95GW/omen-rules.pdf"
  ],
  "solcInputHash": "a0146f372add13a9d9266a7602b32447",
  "bytecode": "0x60c06040523480156200001157600080fd5b506040516200206538038062002065833981810160405260e08110156200003757600080fd5b81516020830151604080850151606086015160808701805193519597949692959194919392820192846401000000008211156200007357600080fd5b9083019060208201858111156200008957600080fd5b8251640100000000811182820188101715620000a457600080fd5b82525081516020918201929091019080838360005b83811015620000d3578181015183820152602001620000b9565b50505050905090810190601f168015620001015780820380516001836020036101000a031916815260200191505b50604052602001805160405193929190846401000000008211156200012557600080fd5b9083019060208201858111156200013b57600080fd5b82516401000000008111828201881017156200015657600080fd5b82525081516020918201929091019080838360005b83811015620001855781810151838201526020016200016b565b50505050905090810190601f168015620001b35780820380516001836020036101000a031916815260200191505b5060405260200180516040519392919084640100000000821115620001d757600080fd5b908301906020820185811115620001ed57600080fd5b82516401000000008111828201881017156200020857600080fd5b82525081516020918201929091019080838360005b83811015620002375781810151838201526020016200021d565b50505050905090810190601f168015620002655780820380516001836020036101000a031916815260200191505b506040525050506001600160a01b038616620002bd576040805162461bcd60e51b8152602060048201526012602482015271496e76616c696420486f6d652050726f787960701b604482015290519081900360640190fd5b6001600160601b0319606088811b8216608052600080546001600160a01b038a166001600160a01b0319909116179055600187905585901b1660a05282516200030e906002906020860190620003d0565b50805162000324906003906020840190620003d0565b5060007f61606860eb6c87306811e2695215385101daab53bd6ab4e9f9049aead9363c7d836040518080602001828103825283818151815260200191508051906020019080838360005b83811015620003885781810151838201526020016200036e565b50505050905090810190601f168015620003b65780820380516001836020036101000a031916815260200191505b509250505060405180910390a2505050505050506200047c565b828054600181600116156101000203166002900490600052602060002090601f01602090048101928262000408576000855562000453565b82601f106200042357805160ff191683800117855562000453565b8280016001018555821562000453579182015b828111156200045357825182559160200191906001019062000436565b506200046192915062000465565b5090565b5b8082111562000461576000815560010162000466565b60805160601c60a05160601c611b6f620004f66000398061054e5280610842528061091f52806109805280610e3252806117b952806118d75280611aa65250806104c652806106c05280610b855280610fd3528061118352806111f052806112de52806114cd528061153a52806116285250611b6f6000f3fe6080604052600436106100fe5760003560e01c8063576dc28911610095578063bacc007811610064578063bacc00781461036b578063cdc10a8a1461039b578063dfb00707146103be578063ef126967146103ee578063ef4f931514610403576100fe565b8063576dc2891461028657806369a87a12146102c45780636cc6cde11461032c578063a22352e214610341576100fe565b8063311a6c56116100d1578063311a6c56146101fa57806348f378571461022c57806349b4af961461024157806354dba90f14610271576100fe565b80630c7ac7b6146101035780630fa8c7ce1461018d5780631062b39a146101b45780631e117f49146101e5575b600080fd5b34801561010f57600080fd5b50610118610433565b6040805160208082528351818301528351919283929083019185019080838360005b8381101561015257818101518382015260200161013a565b50505050905090810190601f16801561017f5780820380516001836020036101000a031916815260200191505b509250505060405180910390f35b34801561019957600080fd5b506101a26104be565b60408051918252519081900360200190f35b3480156101c057600080fd5b506101c96104c4565b604080516001600160a01b039092168252519081900360200190f35b3480156101f157600080fd5b506101186104e8565b34801561020657600080fd5b5061022a6004803603604081101561021d57600080fd5b5080359060200135610543565b005b34801561023857600080fd5b506101c9610897565b34801561024d57600080fd5b506101a26004803603604081101561026457600080fd5b50803590602001356108a6565b34801561027d57600080fd5b506101a26108cb565b34801561029257600080fd5b506102b0600480360360208110156102a957600080fd5b50356108d0565b604080519115158252519081900360200190f35b3480156102d057600080fd5b506102f4600480360360408110156102e757600080fd5b50803590602001356108e5565b6040518084600481111561030457fe5b8152602001836001600160a01b03168152602001828152602001935050505060405180910390f35b34801561033857600080fd5b506101c961091d565b34801561034d57600080fd5b506101a26004803603602081101561036457600080fd5b5035610941565b34801561037757600080fd5b5061022a6004803603604081101561038e57600080fd5b5080359060200135610a51565b61022a600480360360408110156103b157600080fd5b5080359060200135610d1a565b3480156103ca57600080fd5b5061022a600480360360408110156103e157600080fd5b5080359060200135611178565b3480156103fa57600080fd5b506101a26114bc565b34801561040f57600080fd5b5061022a6004803603604081101561042657600080fd5b50803590602001356114c2565b6002805460408051602060018416156101000260001901909316849004601f810184900484028201840190925281815292918301828280156104b65780601f1061048b576101008083540402835291602001916104b6565b820191906000526020600020905b81548152906001019060200180831161049957829003601f168201915b505050505081565b60011981565b7f000000000000000000000000000000000000000000000000000000000000000081565b6003805460408051602060026001851615610100026000190190941693909304601f810184900484028201840190925281815292918301828280156104b65780601f1061048b576101008083540402835291602001916104b6565b336001600160a01b037f000000000000000000000000000000000000000000000000000000000000000016146105c0576040805162461bcd60e51b815260206004820152601760248201527f4f6e6c792061726269747261746f7220616c6c6f776564000000000000000000604482015290519081900360640190fd5b6000828152600560209081526040808320805460019091015481855260048085528386208287529094529190932080549192909160029160ff9091169081111561060657fe5b14610655576040805162461bcd60e51b815260206004820152601a602482015279496e76616c6964206172626974726174696f6e2073746174757360301b604482015290519081900360640190fd5b805460ff191660031781556040805160248101859052600019860160448083018290528351808403909101815260649092018352602080830180516306bad43760e51b6001600160e01b039091168117909152600054855163e5789d0360e01b8152955193959194937f00000000000000000000000000000000000000000000000000000000000000006001600160a01b039081169463dc8601b39491909316928692869263e5789d03926004808301939192829003018186803b15801561071c57600080fd5b505afa158015610730573d6000803e3d6000fd5b505050506040513d602081101561074657600080fd5b50516040516001600160e01b031960e086901b1681526001600160a01b038416600482019081526044820183905260606024830190815284516064840152845191929091608490910190602086019080838360005b838110156107b357818101518382015260200161079b565b50505050905090810190601f1680156107e05780820380516001836020036101000a031916815260200191505b50945050505050602060405180830381600087803b15801561080157600080fd5b505af1158015610815573d6000803e3d6000fd5b505050506040513d602081101561082b57600080fd5b505060408051888152905189916001600160a01b037f000000000000000000000000000000000000000000000000000000000000000016917f394027a5fa6e098a1191094d1719d6929b9abc535fcc0c8f448d6a4e756222769181900360200190a35050505050505050565b6000546001600160a01b031681565b600560205281600052604060002081600281106108c257600080fd5b01549150829050565b600081565b60066020526000908152604090205460ff1681565b60046020908152600092835260408084209091529082529020805460019091015460ff82169161010090046001600160a01b03169083565b7f000000000000000000000000000000000000000000000000000000000000000081565b60405163f7434ea960e01b8152602060048201908152600280546000196101006001831615020116819004602484018190526000936001600160a01b037f0000000000000000000000000000000000000000000000000000000000000000169363f7434ea993929091829160449091019084908015610a015780601f106109d657610100808354040283529160200191610a01565b820191906000526020600020905b8154815290600101906020018083116109e457829003601f168201915b50509250505060206040518083038186803b158015610a1f57600080fd5b505afa158015610a33573d6000803e3d6000fd5b505050506040513d6020811015610a4957600080fd5b505192915050565b600082815260046020818152604080842085855290915290912090815460ff166004811115610a7c57fe5b14610acb576040805162461bcd60e51b815260206004820152601a602482015279496e76616c6964206172626974726174696f6e2073746174757360301b604482015290519081900360640190fd5b805460018201546040516101009092046001600160a01b0316916108fc82150291906000818181858888f15050506000858152600460208181526040808420888552825280842080546001600160a81b03191681556001018490558051602481018a905260448082018a905282518083039091018152606490910182528083018051635751347760e11b6001600160e01b0390911681179091529454825163e5789d0360e01b815292519597509095506001600160a01b037f000000000000000000000000000000000000000000000000000000000000000081169563dc8601b39591909216938793879363e5789d03938281019392829003018186803b158015610bd557600080fd5b505afa158015610be9573d6000803e3d6000fd5b505050506040513d6020811015610bff57600080fd5b50516040516001600160e01b031960e086901b1681526001600160a01b038416600482019081526044820183905260606024830190815284516064840152845191929091608490910190602086019080838360005b83811015610c6c578181015183820152602001610c54565b50505050905090810190601f168015610c995780820380516001836020036101000a031916815260200191505b50945050505050602060405180830381600087803b158015610cba57600080fd5b505af1158015610cce573d6000803e3d6000fd5b505050506040513d6020811015610ce457600080fd5b5050604051849086907fdb31f770642beceea115e6305d4960a8a71454d26a7b070a84dd7f43a86b62a990600090a35050505050565b60008281526006602052604090205460ff1615610d77576040805162461bcd60e51b81526020600482015260166024820152754469737075746520616c72656164792065786973747360501b604482015290519081900360640190fd5b6000828152600460209081526040808320848452909152812090815460ff166004811115610da157fe5b14610df3576040805162461bcd60e51b815260206004820152601d60248201527f4172626974726174696f6e20616c726561647920726571756573746564000000604482015290519081900360640190fd5b60405163f7434ea960e01b8152602060048201908152600280546000196101006001831615020116819004602484018190526000936001600160a01b037f0000000000000000000000000000000000000000000000000000000000000000169363f7434ea993929091829160449091019084908015610eb35780601f10610e8857610100808354040283529160200191610eb3565b820191906000526020600020905b815481529060010190602001808311610e9657829003601f168201915b50509250505060206040518083038186803b158015610ed157600080fd5b505afa158015610ee5573d6000803e3d6000fd5b505050506040513d6020811015610efb57600080fd5b5051905034811115610f4c576040805162461bcd60e51b81526020600482015260156024820152744465706f7369742076616c756520746f6f206c6f7760581b604482015290519081900360640190fd5b815461010033908102600160ff199093168317610100600160a81b0319161784553491840191909155604080516024810187905260448101869052606480820193909352815180820390930183526084018152602080830180516001600160e01b0316632693a57760e11b908117909152600054835163e5789d0360e01b815293519194937f00000000000000000000000000000000000000000000000000000000000000006001600160a01b039081169463dc8601b39491909316928692869263e5789d0392600480840193919291829003018186803b15801561103057600080fd5b505afa158015611044573d6000803e3d6000fd5b505050506040513d602081101561105a57600080fd5b50516040516001600160e01b031960e086901b1681526001600160a01b038416600482019081526044820183905260606024830190815284516064840152845191929091608490910190602086019080838360005b838110156110c75781810151838201526020016110af565b50505050905090810190601f1680156110f45780820380516001836020036101000a031916815260200191505b50945050505050602060405180830381600087803b15801561111557600080fd5b505af1158015611129573d6000803e3d6000fd5b505050506040513d602081101561113f57600080fd5b50506040513390869088907fdf57d4b6855c24699cf6fb10842c48802b96f0d752747f559fbade8c75d937c890600090a4505050505050565b336001600160a01b037f000000000000000000000000000000000000000000000000000000000000000016146111e8576040805162461bcd60e51b815260206004820152601060248201526f13db9b1e4810535088185b1b1bddd95960821b604482015290519081900360640190fd5b60015460001b7f00000000000000000000000000000000000000000000000000000000000000006001600160a01b0316639e307dff6040518163ffffffff1660e01b815260040160206040518083038186803b15801561124757600080fd5b505afa15801561125b573d6000803e3d6000fd5b505050506040513d602081101561127157600080fd5b5051146112bf576040805162461bcd60e51b815260206004820152601760248201527613db9b1e481a1bdb594818da185a5b88185b1b1bddd959604a1b604482015290519081900360640190fd5b60008054906101000a90046001600160a01b03166001600160a01b03167f00000000000000000000000000000000000000000000000000000000000000006001600160a01b031663d67bdd256040518163ffffffff1660e01b815260040160206040518083038186803b15801561133557600080fd5b505afa158015611349573d6000803e3d6000fd5b505050506040513d602081101561135f57600080fd5b50516001600160a01b0316146113b6576040805162461bcd60e51b815260206004820152601760248201527613db9b1e481a1bdb59481c1c9bde1e48185b1b1bddd959604a1b604482015290519081900360640190fd5b600082815260046020908152604080832084845290915290206001815460ff1660048111156113e157fe5b14611430576040805162461bcd60e51b815260206004820152601a602482015279496e76616c6964206172626974726174696f6e2073746174757360301b604482015290519081900360640190fd5b805460018201546040516101009092046001600160a01b0316916108fc82150291906000818181858888f1505050600085815260046020908152604080832087845290915280822080546001600160a81b0319168155600101829055518593508692507fdb31f770642beceea115e6305d4960a8a71454d26a7b070a84dd7f43a86b62a99190a3505050565b60015481565b336001600160a01b037f00000000000000000000000000000000000000000000000000000000000000001614611532576040805162461bcd60e51b815260206004820152601060248201526f13db9b1e4810535088185b1b1bddd95960821b604482015290519081900360640190fd5b60015460001b7f00000000000000000000000000000000000000000000000000000000000000006001600160a01b0316639e307dff6040518163ffffffff1660e01b815260040160206040518083038186803b15801561159157600080fd5b505afa1580156115a5573d6000803e3d6000fd5b505050506040513d60208110156115bb57600080fd5b505114611609576040805162461bcd60e51b815260206004820152601760248201527613db9b1e481a1bdb594818da185a5b88185b1b1bddd959604a1b604482015290519081900360640190fd5b60008054906101000a90046001600160a01b03166001600160a01b03167f00000000000000000000000000000000000000000000000000000000000000006001600160a01b031663d67bdd256040518163ffffffff1660e01b815260040160206040518083038186803b15801561167f57600080fd5b505afa158015611693573d6000803e3d6000fd5b505050506040513d60208110156116a957600080fd5b50516001600160a01b031614611700576040805162461bcd60e51b815260206004820152601760248201527613db9b1e481a1bdb59481c1c9bde1e48185b1b1bddd959604a1b604482015290519081900360640190fd5b600082815260046020908152604080832084845290915290206001815460ff16600481111561172b57fe5b1461177a576040805162461bcd60e51b815260206004820152601a602482015279496e76616c6964206172626974726174696f6e2073746174757360301b604482015290519081900360640190fd5b60405163f7434ea960e01b8152602060048201908152600280546000196101006001831615020116819004602484018190526000936001600160a01b037f0000000000000000000000000000000000000000000000000000000000000000169363f7434ea99392909182916044909101908490801561183a5780601f1061180f5761010080835404028352916020019161183a565b820191906000526020600020905b81548152906001019060200180831161181d57829003601f168201915b50509250505060206040518083038186803b15801561185857600080fd5b505afa15801561186c573d6000803e3d6000fd5b505050506040513d602081101561188257600080fd5b505160018301549091508111611afa576040805163c13517e160e01b81526001196004820181815260248301938452600280546000196101006001831615020116819004604485018190526001600160a01b037f0000000000000000000000000000000000000000000000000000000000000000169563c13517e19588959492606490910190849080156119575780601f1061192c57610100808354040283529160200191611957565b820191906000526020600020905b81548152906001019060200180831161193a57829003601f168201915b505093505050506020604051808303818588803b15801561197757600080fd5b505af19350505050801561199d57506040513d602081101561199857600080fd5b505160015b6119de57815460ff19166004178255604051839085907ffc1cc9a0676bd1afbd872786f0b40d6beada8f67b97b31214746a0a2f335719c90600090a3611af5565b6000818152600560209081526040808320888155600190810188905588845260069092528220805460ff199081168317909155908501805486549092166002178655919091558290038015611a5a5783546040516101009091046001600160a01b0316906108fc8315029083906000818181858888f150505050505b8185877f64fb7f45c94af7dac8bd4d1255b40cf74e4bb5373a61b5b07bb19d600864e40360405160405180910390a4604080516000815260208101889052815184926001600160a01b037f000000000000000000000000000000000000000000000000000000000000000016927f74baab670a4015ab2f1b467c5252a96141a2573f2908e58a92081e80d3cfde3d929081900390910190a350505b611b33565b815460ff19166004178255604051839085907ffc1cc9a0676bd1afbd872786f0b40d6beada8f67b97b31214746a0a2f335719c90600090a35b5050505056fea26469706673582212201815f92afb5c9bed6423f3d1212b7df69d87800d7b794f0be8bcdb28cb55fae864736f6c63430007040033",
  "devdoc": {
    "details": "This contract is meant to be deployed to the Ethereum chains where Kleros is deployed.",
    "kind": "dev",
    "methods": {
      "acknowledgeArbitration(bytes32,bytes32)": {
        "details": "Acknowledges the arbitration request for the given question and contested answer. TRUSTED.",
        "params": {
          "_contestedAnswer": "The answer the requester deems to be incorrect.",
          "_questionID": "The ID of the question."
        }
      },
      "cancelArbitration(bytes32,bytes32)": {
        "details": "Cancels the arbitration request. TRUSTED.",
        "params": {
          "_contestedAnswer": "The answer the requester deems to be incorrect.",
          "_questionID": "The ID of the question."
        }
      },
      "constructor": {
        "details": "Contract will still require initialization before being usable.",
        "params": {
          "_amb": "ArbitraryMessageBridge contract address.",
          "_arbitrator": "Arbitrator contract address.",
          "_arbitratorExtraData": "The extra data used to raise a dispute in the arbitrator.",
          "_metaEvidence": "The URI of the meta evidence file.",
          "_termsOfService": "The path for the Terms of Service for Kleros as an arbitrator for Realitio."
        }
      },
      "getDisputeFee(bytes32)": {
        "returns": {
          "_0": "The fee to create a dispute."
        }
      },
      "handleFailedDisputeCreation(bytes32,bytes32)": {
        "params": {
          "_contestedAnswer": "The answer the requester deems to be incorrect.",
          "_questionID": "The ID of the question."
        }
      },
      "requestArbitration(bytes32,bytes32)": {
        "details": "Can be executed only if the contract has been initialized.",
        "params": {
          "_contestedAnswer": "The answer the requester deems to be incorrect.",
          "_questionID": "The ID of the question."
        }
      },
      "rule(uint256,uint256)": {
        "details": "Note that 0 is reserved for \"Unable/refused to arbitrate\" and we map it to `bytes32(-1)` which has a similar connotation in Realitio.",
        "params": {
          "_disputeID": "The ID of the dispute in the ERC792 arbitrator.",
          "_ruling": "The ruling given by the arbitrator."
        }
      }
    },
    "stateVariables": {
      "META_EVIDENCE_ID": {
        "details": "The ID of the MetaEvidence for disputes."
      },
      "NUMBER_OF_CHOICES_FOR_ARBITRATOR": {
        "details": "The number of choices for the arbitrator."
      },
      "amb": {
        "details": "ArbitraryMessageBridge contract address. TRUSTED."
      },
      "arbitrationRequests": {
        "details": "Tracks arbitration requests for question ID."
      },
      "arbitrator": {
        "details": "The address of the arbitrator. TRUSTED."
      },
      "arbitratorExtraData": {
        "details": "The extra data used to raise a dispute in the arbitrator."
      },
      "disputeIDToQuestionAndAnswer": {
        "details": "Associates dispute ID to question ID and the contested answer."
      },
      "homeChainId": {
        "details": "The chain ID where the home proxy is deployed."
      },
      "homeProxy": {
        "details": "Address of the counter-party proxy on the Home Chain. TRUSTED."
      },
      "questionIDToDisputeExists": {
        "details": "Whether a dispute has already been created for the given question ID or not."
      },
      "termsOfService": {
        "details": "The path for the Terms of Service for Kleros as an arbitrator for Realitio."
      }
    },
    "title": "Arbitration proxy for Realitio on Ethereum side (A.K.A. the Foreign Chain).",
    "version": 1
  },
  "userdoc": {
    "events": {
      "ArbitrationCanceled(bytes32,bytes32)": {
        "notice": "Should be emitted when the arbitration is canceled by the Home Chain."
      },
      "ArbitrationCreated(bytes32,bytes32,uint256)": {
        "notice": "Should be emitted when the dispute is created."
      },
      "ArbitrationFailed(bytes32,bytes32)": {
        "notice": "Should be emitted when the dispute could not be created."
      },
      "ArbitrationRequested(bytes32,bytes32,address)": {
        "notice": "Should be emitted when the arbitration is requested."
      }
    },
    "kind": "user",
    "methods": {
      "constructor": {
        "notice": "Creates an arbitration proxy on the foreign chain."
      },
      "getDisputeFee(bytes32)": {
        "notice": "Gets the fee to create a dispute."
      },
      "handleFailedDisputeCreation(bytes32,bytes32)": {
        "notice": "Cancels the arbitration in case the dispute could not be created."
      },
      "requestArbitration(bytes32,bytes32)": {
        "notice": "Requests arbitration for given the question and contested answer."
      },
      "rule(uint256,uint256)": {
        "notice": "Rules a specified dispute."
      }
    },
    "version": 1
  },
  "storageLayout": {
    "storage": [
      {
        "astId": 559,
        "contract": "src/RealitioForeignArbitrationProxy.sol:RealitioForeignArbitrationProxy",
        "label": "homeProxy",
        "offset": 0,
        "slot": "0",
        "type": "t_address"
      },
      {
        "astId": 562,
        "contract": "src/RealitioForeignArbitrationProxy.sol:RealitioForeignArbitrationProxy",
        "label": "homeChainId",
        "offset": 0,
        "slot": "1",
        "type": "t_uint256"
      },
      {
        "astId": 568,
        "contract": "src/RealitioForeignArbitrationProxy.sol:RealitioForeignArbitrationProxy",
        "label": "arbitratorExtraData",
        "offset": 0,
        "slot": "2",
        "type": "t_bytes_storage"
      },
      {
        "astId": 584,
        "contract": "src/RealitioForeignArbitrationProxy.sol:RealitioForeignArbitrationProxy",
        "label": "termsOfService",
        "offset": 0,
        "slot": "3",
        "type": "t_string_storage"
      },
      {
        "astId": 604,
        "contract": "src/RealitioForeignArbitrationProxy.sol:RealitioForeignArbitrationProxy",
        "label": "arbitrationRequests",
        "offset": 0,
        "slot": "4",
        "type": "t_mapping(t_bytes32,t_mapping(t_bytes32,t_struct(ArbitrationRequest)597_storage))"
      },
      {
        "astId": 611,
        "contract": "src/RealitioForeignArbitrationProxy.sol:RealitioForeignArbitrationProxy",
        "label": "disputeIDToQuestionAndAnswer",
        "offset": 0,
        "slot": "5",
        "type": "t_mapping(t_uint256,t_array(t_bytes32)2_storage)"
      },
      {
        "astId": 616,
        "contract": "src/RealitioForeignArbitrationProxy.sol:RealitioForeignArbitrationProxy",
        "label": "questionIDToDisputeExists",
        "offset": 0,
        "slot": "6",
        "type": "t_mapping(t_bytes32,t_bool)"
      }
    ],
    "types": {
      "t_address": {
        "encoding": "inplace",
        "label": "address",
        "numberOfBytes": "20"
      },
      "t_address_payable": {
        "encoding": "inplace",
        "label": "address payable",
        "numberOfBytes": "20"
      },
      "t_array(t_bytes32)2_storage": {
        "base": "t_bytes32",
        "encoding": "inplace",
        "label": "bytes32[2]",
        "numberOfBytes": "64"
      },
      "t_bool": {
        "encoding": "inplace",
        "label": "bool",
        "numberOfBytes": "1"
      },
      "t_bytes32": {
        "encoding": "inplace",
        "label": "bytes32",
        "numberOfBytes": "32"
      },
      "t_bytes_storage": {
        "encoding": "bytes",
        "label": "bytes",
        "numberOfBytes": "32"
      },
      "t_enum(Status)590": {
        "encoding": "inplace",
        "label": "enum RealitioForeignArbitrationProxy.Status",
        "numberOfBytes": "1"
      },
      "t_mapping(t_bytes32,t_bool)": {
        "encoding": "mapping",
        "key": "t_bytes32",
        "label": "mapping(bytes32 => bool)",
        "numberOfBytes": "32",
        "value": "t_bool"
      },
      "t_mapping(t_bytes32,t_mapping(t_bytes32,t_struct(ArbitrationRequest)597_storage))": {
        "encoding": "mapping",
        "key": "t_bytes32",
        "label": "mapping(bytes32 => mapping(bytes32 => struct RealitioForeignArbitrationProxy.ArbitrationRequest))",
        "numberOfBytes": "32",
        "value": "t_mapping(t_bytes32,t_struct(ArbitrationRequest)597_storage)"
      },
      "t_mapping(t_bytes32,t_struct(ArbitrationRequest)597_storage)": {
        "encoding": "mapping",
        "key": "t_bytes32",
        "label": "mapping(bytes32 => struct RealitioForeignArbitrationProxy.ArbitrationRequest)",
        "numberOfBytes": "32",
        "value": "t_struct(ArbitrationRequest)597_storage"
      },
      "t_mapping(t_uint256,t_array(t_bytes32)2_storage)": {
        "encoding": "mapping",
        "key": "t_uint256",
        "label": "mapping(uint256 => bytes32[2])",
        "numberOfBytes": "32",
        "value": "t_array(t_bytes32)2_storage"
      },
      "t_string_storage": {
        "encoding": "bytes",
        "label": "string",
        "numberOfBytes": "32"
      },
      "t_struct(ArbitrationRequest)597_storage": {
        "encoding": "inplace",
        "label": "struct RealitioForeignArbitrationProxy.ArbitrationRequest",
        "members": [
          {
            "astId": 592,
            "contract": "src/RealitioForeignArbitrationProxy.sol:RealitioForeignArbitrationProxy",
            "label": "status",
            "offset": 0,
            "slot": "0",
            "type": "t_enum(Status)590"
          },
          {
            "astId": 594,
            "contract": "src/RealitioForeignArbitrationProxy.sol:RealitioForeignArbitrationProxy",
            "label": "requester",
            "offset": 1,
            "slot": "0",
            "type": "t_address_payable"
          },
          {
            "astId": 596,
            "contract": "src/RealitioForeignArbitrationProxy.sol:RealitioForeignArbitrationProxy",
            "label": "deposit",
            "offset": 0,
            "slot": "1",
            "type": "t_uint256"
          }
        ],
        "numberOfBytes": "64"
      },
      "t_uint256": {
        "encoding": "inplace",
        "label": "uint256",
        "numberOfBytes": "32"
      }
    }
  }
}