{
  "address": "0x18c8a7ec7897177E4529065a7E7B0878358B3BfF",
  "abi": [
    {
      "inputs": [
        {
          "internalType": "address",
          "name": "_fxChild",
          "type": "address"
        },
        {
          "internalType": "address",
          "name": "_foreignProxy",
          "type": "address"
        },
        {
          "internalType": "contract RealitioInterface",
          "name": "_realitio",
          "type": "address"
        }
      ],
      "stateMutability": "nonpayable",
      "type": "constructor"
    },
    {
      "anonymous": false,
      "inputs": [
        {
          "indexed": true,
          "internalType": "bytes32",
          "name": "_questionID",
          "type": "bytes32"
        },
        {
          "indexed": true,
          "internalType": "address",
          "name": "_requester",
          "type": "address"
        }
      ],
      "name": "ArbitrationFailed",
      "type": "event"
    },
    {
      "anonymous": false,
      "inputs": [
        {
          "indexed": true,
          "internalType": "bytes32",
          "name": "_questionID",
          "type": "bytes32"
        }
      ],
      "name": "ArbitrationFinished",
      "type": "event"
    },
    {
      "anonymous": false,
      "inputs": [
        {
          "indexed": true,
          "internalType": "bytes32",
          "name": "_questionID",
          "type": "bytes32"
        },
        {
          "indexed": false,
          "internalType": "bytes32",
          "name": "_answer",
          "type": "bytes32"
        }
      ],
      "name": "ArbitratorAnswered",
      "type": "event"
    },
    {
      "anonymous": false,
      "inputs": [
        {
          "indexed": false,
          "internalType": "bytes",
          "name": "message",
          "type": "bytes"
        }
      ],
      "name": "MessageSent",
      "type": "event"
    },
    {
      "anonymous": false,
      "inputs": [
        {
          "indexed": true,
          "internalType": "bytes32",
          "name": "_questionID",
          "type": "bytes32"
        },
        {
          "indexed": true,
          "internalType": "address",
          "name": "_requester",
          "type": "address"
        }
      ],
      "name": "RequestAcknowledged",
      "type": "event"
    },
    {
      "anonymous": false,
      "inputs": [
        {
          "indexed": true,
          "internalType": "bytes32",
          "name": "_questionID",
          "type": "bytes32"
        },
        {
          "indexed": true,
          "internalType": "address",
          "name": "_requester",
          "type": "address"
        }
      ],
      "name": "RequestCanceled",
      "type": "event"
    },
    {
      "anonymous": false,
      "inputs": [
        {
          "indexed": true,
          "internalType": "bytes32",
          "name": "_questionID",
          "type": "bytes32"
        },
        {
          "indexed": true,
          "internalType": "address",
          "name": "_requester",
          "type": "address"
        },
        {
          "indexed": false,
          "internalType": "uint256",
          "name": "_maxPrevious",
          "type": "uint256"
        }
      ],
      "name": "RequestNotified",
      "type": "event"
    },
    {
      "anonymous": false,
      "inputs": [
        {
          "indexed": true,
          "internalType": "bytes32",
          "name": "_questionID",
          "type": "bytes32"
        },
        {
          "indexed": true,
          "internalType": "address",
          "name": "_requester",
          "type": "address"
        },
        {
          "indexed": false,
          "internalType": "uint256",
          "name": "_maxPrevious",
          "type": "uint256"
        },
        {
          "indexed": false,
          "internalType": "string",
          "name": "_reason",
          "type": "string"
        }
      ],
      "name": "RequestRejected",
      "type": "event"
    },
    {
      "inputs": [],
      "name": "fxChild",
      "outputs": [
        {
          "internalType": "address",
          "name": "",
          "type": "address"
        }
      ],
      "stateMutability": "view",
      "type": "function"
    },
    {
      "inputs": [],
      "name": "fxRootTunnel",
      "outputs": [
        {
          "internalType": "address",
          "name": "",
          "type": "address"
        }
      ],
      "stateMutability": "view",
      "type": "function"
    },
    {
      "inputs": [
        {
          "internalType": "bytes32",
          "name": "_questionID",
          "type": "bytes32"
        },
        {
          "internalType": "address",
          "name": "_requester",
          "type": "address"
        }
      ],
      "name": "handleNotifiedRequest",
      "outputs": [],
      "stateMutability": "nonpayable",
      "type": "function"
    },
    {
      "inputs": [
        {
          "internalType": "bytes32",
          "name": "_questionID",
          "type": "bytes32"
        },
        {
          "internalType": "address",
          "name": "_requester",
          "type": "address"
        }
      ],
      "name": "handleRejectedRequest",
      "outputs": [],
      "stateMutability": "nonpayable",
      "type": "function"
    },
    {
      "inputs": [],
      "name": "metadata",
      "outputs": [
        {
          "internalType": "string",
          "name": "",
          "type": "string"
        }
      ],
      "stateMutability": "view",
      "type": "function"
    },
    {
      "inputs": [
        {
          "internalType": "uint256",
          "name": "stateId",
          "type": "uint256"
        },
        {
          "internalType": "address",
          "name": "rootMessageSender",
          "type": "address"
        },
        {
          "internalType": "bytes",
          "name": "data",
          "type": "bytes"
        }
      ],
      "name": "processMessageFromRoot",
      "outputs": [],
      "stateMutability": "nonpayable",
      "type": "function"
    },
    {
      "inputs": [
        {
          "internalType": "bytes32",
          "name": "",
          "type": "bytes32"
        }
      ],
      "name": "questionIDToRequester",
      "outputs": [
        {
          "internalType": "address",
          "name": "",
          "type": "address"
        }
      ],
      "stateMutability": "view",
      "type": "function"
    },
    {
      "inputs": [],
      "name": "realitio",
      "outputs": [
        {
          "internalType": "contract RealitioInterface",
          "name": "",
          "type": "address"
        }
      ],
      "stateMutability": "view",
      "type": "function"
    },
    {
      "inputs": [
        {
          "internalType": "bytes32",
          "name": "_questionID",
          "type": "bytes32"
        },
        {
          "internalType": "bytes32",
          "name": "_answer",
          "type": "bytes32"
        }
      ],
      "name": "receiveArbitrationAnswer",
      "outputs": [],
      "stateMutability": "nonpayable",
      "type": "function"
    },
    {
      "inputs": [
        {
          "internalType": "bytes32",
          "name": "_questionID",
          "type": "bytes32"
        },
        {
          "internalType": "address",
          "name": "_requester",
          "type": "address"
        }
      ],
      "name": "receiveArbitrationFailure",
      "outputs": [],
      "stateMutability": "nonpayable",
      "type": "function"
    },
    {
      "inputs": [
        {
          "internalType": "bytes32",
          "name": "_questionID",
          "type": "bytes32"
        },
        {
          "internalType": "address",
          "name": "_requester",
          "type": "address"
        },
        {
          "internalType": "uint256",
          "name": "_maxPrevious",
          "type": "uint256"
        }
      ],
      "name": "receiveArbitrationRequest",
      "outputs": [],
      "stateMutability": "nonpayable",
      "type": "function"
    },
    {
      "inputs": [
        {
          "internalType": "bytes32",
          "name": "_questionID",
          "type": "bytes32"
        },
        {
          "internalType": "bytes32",
          "name": "_lastHistoryHash",
          "type": "bytes32"
        },
        {
          "internalType": "bytes32",
          "name": "_lastAnswerOrCommitmentID",
          "type": "bytes32"
        },
        {
          "internalType": "address",
          "name": "_lastAnswerer",
          "type": "address"
        }
      ],
      "name": "reportArbitrationAnswer",
      "outputs": [],
      "stateMutability": "nonpayable",
      "type": "function"
    },
    {
      "inputs": [
        {
          "internalType": "bytes32",
          "name": "",
          "type": "bytes32"
        },
        {
          "internalType": "address",
          "name": "",
          "type": "address"
        }
      ],
      "name": "requests",
      "outputs": [
        {
          "internalType": "enum RealitioHomeArbitrationProxy.Status",
          "name": "status",
          "type": "uint8"
        },
        {
          "internalType": "bytes32",
          "name": "arbitratorAnswer",
          "type": "bytes32"
        }
      ],
      "stateMutability": "view",
      "type": "function"
    }
  ],
  "transactionHash": "0xdb53809fe6c119031e7bb2493489a4f52b26368288d73672e6b3466baefdc6ff",
  "args": [
    "0xCf73231F28B7331BBe3124B907840A94851f9f11",
    "0xCE4f321dF13a11EF1B8A2Fa9dE9F94b93F2f4d5f",
    "0x044860C6884A65368081964E676FD505c37d26b5"
  ],
  "solcInputHash": "25f18a1f52f617770f1f41441056a606",
  "bytecode": "0x60a060405234801561001057600080fd5b5060405161122b38038061122b8339818101604052606081101561003357600080fd5b5080516020820151604090920151600080546001600160a01b03199081166001600160a01b039485161782556001805490911694841694909417909355606081901b6001600160601b0319166080521690611181906100aa90398061043b528061073352806108515280610b0452506111816000f3fe608060405234801561001057600080fd5b50600436106100cf5760003560e01c80639a7c4b711161008c578063c510faf711610066578063c510faf7146102b9578063c77cccc91461030d578063ccd6e8d214610339578063d75a86e01461036b576100cf565b80639a7c4b7114610200578063bc8802a214610285578063bf6569e01461028d576100cf565b80631865fed1146100d4578063241a9f821461010d578063392f37e914610147578063450d11f0146101c45780637f1e9cb0146101cc57806391602fd7146101d4575b600080fd5b6100f1600480360360208110156100ea57600080fd5b503561038e565b604080516001600160a01b039092168252519081900360200190f35b6101456004803603608081101561012357600080fd5b50803590602081013590604081013590606001356001600160a01b03166103a9565b005b61014f610533565b6040805160208082528351818301528351919283929083019185019080838360005b83811015610189578181015183820152602001610171565b50505050905090810190601f1680156101b65780820380516001836020036101000a031916815260200191505b509250505060405180910390f35b6100f1610564565b6100f1610573565b610145600480360360408110156101ea57600080fd5b50803590602001356001600160a01b0316610582565b6101456004803603606081101561021657600080fd5b8135916001600160a01b036020820135169181019060608101604082013564010000000081111561024657600080fd5b82018360208201111561025857600080fd5b8035906020019184600183028401116401000000008311171561027a57600080fd5b5090925090506106a1565b6100f1610731565b610145600480360360408110156102a357600080fd5b50803590602001356001600160a01b0316610755565b6102e5600480360360408110156102cf57600080fd5b50803590602001356001600160a01b03166108eb565b604051808360058111156102f557fe5b81526020018281526020019250505060405180910390f35b6101456004803603604081101561032357600080fd5b50803590602001356001600160a01b0316610915565b6101456004803603606081101561034f57600080fd5b508035906001600160a01b036020820135169060400135610a30565b6101456004803603604081101561038157600080fd5b5080359060200135610d3d565b6003602052600090815260409020546001600160a01b031681565b600084815260036020908152604080832054600283528184206001600160a01b0390911680855292529091206004815460ff1660058111156103e757fe5b14610439576040805162461bcd60e51b815260206004820152601c60248201527f41726269747261746f7220686173206e6f742072756c65642079657400000000604482015290519081900360640190fd5b7f00000000000000000000000000000000000000000000000000000000000000006001600160a01b031663d44e293c878360010154858989896040518763ffffffff1660e01b815260040180878152602001868152602001856001600160a01b03168152602001848152602001838152602001826001600160a01b031681526020019650505050505050600060405180830381600087803b1580156104dd57600080fd5b505af11580156104f1573d6000803e3d6000fd5b5050825460ff19166005178355505060405186907f2abf2fd86256e4607561adae782a4853682b6c0b976995a9a45c5fc3a175738690600090a2505050505050565b604051806040016040528060158152602001747b22666f726569676e50726f7879223a747275657d60581b81525081565b6000546001600160a01b031681565b6001546001600160a01b031681565b60008281526002602081815260408084206001600160a01b038616855290915290912090815460ff1660058111156105b657fe5b14610601576040805162461bcd60e51b8152602060048201526016602482015275496e76616c696420726571756573742073746174757360501b604482015290519081900360640190fd5b805460ff1916600317815560408051602481018590526001600160a01b03841660448083019190915282518083039091018152606490910190915260208101805163e742e2ed60e01b6001600160e01b0390911681179091529061066481610e69565b6040516001600160a01b0385169086907fff09615c531ab8799ea1c67a0952ddbef1c864ef91d390995d0dc07656f4210f90600090a35050505050565b6000546001600160a01b031633146106ea5760405162461bcd60e51b81526004018080602001828103825260218152602001806111006021913960400191505060405180910390fd5b61072b848484848080601f016020809104026020016040519081016040528093929190818152602001838380828437600092019190915250610f0592505050565b50505050565b7f000000000000000000000000000000000000000000000000000000000000000081565b3330146107a9576040805162461bcd60e51b815260206004820152601d60248201527f43616e206f6e6c792062652063616c6c65642076696120627269646765000000604482015290519081900360640190fd5b60008281526002602090815260408083206001600160a01b038516845290915290206003815460ff1660058111156107dd57fe5b14610828576040805162461bcd60e51b8152602060048201526016602482015275496e76616c696420726571756573742073746174757360501b604482015290519081900360640190fd5b805460ff1916815560408051630ebbdd2b60e41b81526004810185905290516001600160a01b037f0000000000000000000000000000000000000000000000000000000000000000169163ebbdd2b091602480830192600092919082900301818387803b15801561089857600080fd5b505af11580156108ac573d6000803e3d6000fd5b50506040516001600160a01b03851692508591507f9beda0c81abc1c65da7685f113195974dfddb781dfde6263e5a1b13a5356ffad90600090a3505050565b60026020908152600092835260408084209091529082529020805460019091015460ff9091169082565b60008281526002602090815260408083206001600160a01b038516845290915290206001815460ff16600581111561094957fe5b14610994576040805162461bcd60e51b8152602060048201526016602482015275496e76616c696420726571756573742073746174757360501b604482015290519081900360640190fd5b805460ff1916815560408051602481018590526001600160a01b0384166044808301919091528251808303909101815260649091019091526020810180516001600160e01b03166317c4df9160e31b908117909152906109f381610e69565b6040516001600160a01b0385169086907ff313a768599b60b7f8aedb7757d867d09463365b79b55b86ed3c961e6da5a24990600090a35050505050565b333014610a84576040805162461bcd60e51b815260206004820152601d60248201527f43616e206f6e6c792062652063616c6c65642076696120627269646765000000604482015290519081900360640190fd5b60008381526002602090815260408083206001600160a01b0386168452909152812090815460ff166005811115610ab757fe5b14610b02576040805162461bcd60e51b81526020600482015260166024820152755265717565737420616c72656164792065786973747360501b604482015290519081900360640190fd5b7f00000000000000000000000000000000000000000000000000000000000000006001600160a01b031663f6a94ecb8585856040518463ffffffff1660e01b815260040180848152602001836001600160a01b031681526020018281526020019350505050600060405180830381600087803b158015610b8157600080fd5b505af1925050508015610b92575060015b610cc957610b9e611059565b80610ba95750610c6a565b815460ff1916600117825560408051848152602080820183815284519383019390935283516001600160a01b0388169389937ff677e762f2ddc710deec335dd0cfa8a65cc9c9c351b268243be8629f2e8d1b5f93899388939160608401919085019080838360005b83811015610c29578181015183820152602001610c11565b50505050905090810190601f168015610c565780820380516001836020036101000a031916815260200191505b50935050505060405180910390a350610cc4565b805460ff19166001178155604080518381526020810182905260008183015290516001600160a01b0385169186917ff677e762f2ddc710deec335dd0cfa8a65cc9c9c351b268243be8629f2e8d1b5f916060908290030190a35b61072b565b805460ff1916600217815560008481526003602090815260409182902080546001600160a01b0387166001600160a01b0319909116811790915582518581529251909287927ff56e18fc84dbd66db78337b5bd0973943fa70c9b52243a540bdac79274f6682d92918290030190a350505050565b333014610d91576040805162461bcd60e51b815260206004820152601d60248201527f43616e206f6e6c792062652063616c6c65642076696120627269646765000000604482015290519081900360640190fd5b600082815260036020818152604080842054600283528185206001600160a01b03909116808652925290922090815460ff166005811115610dce57fe5b14610e19576040805162461bcd60e51b8152602060048201526016602482015275496e76616c696420726571756573742073746174757360501b604482015290519081900360640190fd5b8054600460ff199091161781556001810183905560408051848152905185917f1813d15d8cef51cff8bbd419a8e13e0655c1babea320dea4174d5e7bc40c4294919081900360200190a250505050565b7f8c5261668696ce22758910d05bab8f186d6eb247ceac2af2e82c7dc17669b036816040518080602001828103825283818151815260200191508051906020019080838360005b83811015610ec8578181015183820152602001610eb0565b50505050905090810190601f168015610ef55780820380516001836020036101000a031916815260200191505b509250505060405180910390a150565b60015482906001600160a01b03808316911614610f535760405162461bcd60e51b815260040180806020018281038252602b815260200180611121602b913960400191505060405180910390fd5b6000306001600160a01b0316836040518082805190602001908083835b60208310610f8f5780518252601f199092019160209182019101610f70565b6001836020036101000a0380198251168184511680821785525050505050509050019150506000604051808303816000865af19150503d8060008114610ff1576040519150601f19603f3d011682016040523d82523d6000602084013e610ff6565b606091505b505090508061104c576040805162461bcd60e51b815260206004820152601760248201527f4661696c656420746f2063616c6c20636f6e7472616374000000000000000000604482015290519081900360640190fd5b5050505050565b60e01c90565b600060443d1015611069576110fc565b600481823e6308c379a061107d8251611053565b14611087576110fc565b6040513d600319016004823e80513d67ffffffffffffffff81602484011181841117156110b757505050506110fc565b828401925082519150808211156110d157505050506110fc565b503d830160208284010111156110e9575050506110fc565b601f01601f191681016020016040529150505b9056fe4678426173654368696c6454756e6e656c3a20494e56414c49445f53454e4445524678426173654368696c6454756e6e656c3a20494e56414c49445f53454e4445525f46524f4d5f524f4f54a2646970667358221220d955890523d82503e8c7ecd05521ab0f9e26361ef400d4c727995fd85d43cf8f64736f6c63430007060033",
  "devdoc": {
    "details": "This contract is meant to be deployed to side-chains (i.e.: xDAI) in which Reality.eth is deployed.",
    "kind": "dev",
    "methods": {
      "constructor": {
        "params": {
          "_foreignProxy": "The address of the proxy.",
          "_fxChild": "Address of the FxChild contract of the Polygon bridge",
          "_realitio": "Realitio contract address."
        }
      },
      "handleNotifiedRequest(bytes32,address)": {
        "details": "This method exists because `receiveArbitrationRequest` is called by the AMB and cannot send messages back to it.",
        "params": {
          "_questionID": "The ID of the question.",
          "_requester": "The address of the user that requested arbitration."
        }
      },
      "handleRejectedRequest(bytes32,address)": {
        "details": "This method exists because `receiveArbitrationRequest` is called by the AMB and cannot send messages back to it. Reasons why the request might be rejected:  - The question does not exist  - The question was not answered yet  - The quesiton bond value changed while the arbitration was being requested  - Another request was already accepted",
        "params": {
          "_questionID": "The ID of the question.",
          "_requester": "The address of the user that requested arbitration."
        }
      },
      "receiveArbitrationAnswer(bytes32,bytes32)": {
        "params": {
          "_answer": "The answer from the arbitrator.",
          "_questionID": "The ID of the question."
        }
      },
      "receiveArbitrationFailure(bytes32,address)": {
        "details": "Currently this can happen only if the arbitration cost increased.",
        "params": {
          "_questionID": "The ID of the question.",
          "_requester": "The address of the user that requested arbitration."
        }
      },
      "receiveArbitrationRequest(bytes32,address,uint256)": {
        "details": "Receives the requested arbitration for a question. TRUSTED.",
        "params": {
          "_maxPrevious": "The maximum value of the previous bond for the question.",
          "_questionID": "The ID of the question.",
          "_requester": "The address of the user that requested arbitration."
        }
      },
      "reportArbitrationAnswer(bytes32,bytes32,bytes32,address)": {
        "details": "The Realitio contract validates the input parameters passed to this method, so making this publicly accessible is safe.",
        "params": {
          "_lastAnswerOrCommitmentID": "The last answer given, or its commitment ID if it was a commitment, to the question in the Realitio contract.",
          "_lastAnswerer": "The last answerer to the question in the Realitio contract.",
          "_lastHistoryHash": "The history hash given with the last answer to the question in the Realitio contract.",
          "_questionID": "The ID of the question."
        }
      }
    },
    "stateVariables": {
      "metadata": {
        "details": "Metadata for Realitio interface."
      },
      "questionIDToRequester": {
        "details": "Associates a question ID with the requester who succeeded in requesting arbitration. questionIDToRequester[questionID]"
      },
      "realitio": {
        "details": "The address of the Realitio contract (v2.1+ required). TRUSTED."
      },
      "requests": {
        "details": "Associates an arbitration request with a question ID and a requester address. requests[questionID][requester]"
      }
    },
    "title": "Arbitration proxy for Realitio on the side-chain side (A.K.A. the Home Chain).",
    "version": 1
  },
  "userdoc": {
    "events": {
      "ArbitrationFailed(bytes32,address)": {
        "notice": "To be emitted when the dispute could not be created on the Foreign Chain."
      },
      "ArbitrationFinished(bytes32)": {
        "notice": "To be emitted when reporting the arbitrator answer to Realitio."
      },
      "ArbitratorAnswered(bytes32,bytes32)": {
        "notice": "To be emitted when receiving the answer from the arbitrator."
      },
      "RequestAcknowledged(bytes32,address)": {
        "notice": "To be emitted when the arbitration request acknowledgement is sent to the Foreign Chain."
      },
      "RequestCanceled(bytes32,address)": {
        "notice": "To be emitted when the arbitration request is canceled."
      },
      "RequestNotified(bytes32,address,uint256)": {
        "notice": "To be emitted when the Realitio contract has been notified of an arbitration request."
      },
      "RequestRejected(bytes32,address,uint256,string)": {
        "notice": "To be emitted when arbitration request is rejected."
      }
    },
    "kind": "user",
    "methods": {
      "constructor": {
        "notice": "Creates an arbitration proxy on the home chain."
      },
      "handleNotifiedRequest(bytes32,address)": {
        "notice": "Handles arbitration request after it has been notified to Realitio for a given question."
      },
      "handleRejectedRequest(bytes32,address)": {
        "notice": "Handles arbitration request after it has been rejected."
      },
      "receiveArbitrationAnswer(bytes32,bytes32)": {
        "notice": "Receives the answer to a specified question. TRUSTED."
      },
      "receiveArbitrationFailure(bytes32,address)": {
        "notice": "Receives a failed attempt to request arbitration. TRUSTED."
      },
      "reportArbitrationAnswer(bytes32,bytes32,bytes32,address)": {
        "notice": "Reports the answer provided by the arbitrator to a specified question."
      }
    },
    "version": 1
  },
  "storageLayout": {
    "storage": [
      {
        "astId": 3486,
        "contract": "src/RealitioHomeArbitrationProxy.sol:RealitioHomeArbitrationProxy",
        "label": "fxChild",
        "offset": 0,
        "slot": "0",
        "type": "t_address"
      },
      {
        "astId": 3488,
        "contract": "src/RealitioHomeArbitrationProxy.sol:RealitioHomeArbitrationProxy",
        "label": "fxRootTunnel",
        "offset": 0,
        "slot": "1",
        "type": "t_address"
      },
      {
        "astId": 3011,
        "contract": "src/RealitioHomeArbitrationProxy.sol:RealitioHomeArbitrationProxy",
        "label": "requests",
        "offset": 0,
        "slot": "2",
        "type": "t_mapping(t_bytes32,t_mapping(t_address,t_struct(Request)3004_storage))"
      },
      {
        "astId": 3016,
        "contract": "src/RealitioHomeArbitrationProxy.sol:RealitioHomeArbitrationProxy",
        "label": "questionIDToRequester",
        "offset": 0,
        "slot": "3",
        "type": "t_mapping(t_bytes32,t_address)"
      }
    ],
    "types": {
      "t_address": {
        "encoding": "inplace",
        "label": "address",
        "numberOfBytes": "20"
      },
      "t_bytes32": {
        "encoding": "inplace",
        "label": "bytes32",
        "numberOfBytes": "32"
      },
      "t_enum(Status)2999": {
        "encoding": "inplace",
        "label": "enum RealitioHomeArbitrationProxy.Status",
        "numberOfBytes": "1"
      },
      "t_mapping(t_address,t_struct(Request)3004_storage)": {
        "encoding": "mapping",
        "key": "t_address",
        "label": "mapping(address => struct RealitioHomeArbitrationProxy.Request)",
        "numberOfBytes": "32",
        "value": "t_struct(Request)3004_storage"
      },
      "t_mapping(t_bytes32,t_address)": {
        "encoding": "mapping",
        "key": "t_bytes32",
        "label": "mapping(bytes32 => address)",
        "numberOfBytes": "32",
        "value": "t_address"
      },
      "t_mapping(t_bytes32,t_mapping(t_address,t_struct(Request)3004_storage))": {
        "encoding": "mapping",
        "key": "t_bytes32",
        "label": "mapping(bytes32 => mapping(address => struct RealitioHomeArbitrationProxy.Request))",
        "numberOfBytes": "32",
        "value": "t_mapping(t_address,t_struct(Request)3004_storage)"
      },
      "t_struct(Request)3004_storage": {
        "encoding": "inplace",
        "label": "struct RealitioHomeArbitrationProxy.Request",
        "members": [
          {
            "astId": 3001,
            "contract": "src/RealitioHomeArbitrationProxy.sol:RealitioHomeArbitrationProxy",
            "label": "status",
            "offset": 0,
            "slot": "0",
            "type": "t_enum(Status)2999"
          },
          {
            "astId": 3003,
            "contract": "src/RealitioHomeArbitrationProxy.sol:RealitioHomeArbitrationProxy",
            "label": "arbitratorAnswer",
            "offset": 0,
            "slot": "1",
            "type": "t_bytes32"
          }
        ],
        "numberOfBytes": "64"
      }
    }
  }
}