{
  "address": "0xEF2689DB6A7b3AB383Fb14Ff7d9C2254C248103f",
  "abi": [
    {
      "inputs": [
        {
          "internalType": "address",
          "name": "_fxChild",
          "type": "address"
        },
        {
          "internalType": "address",
          "name": "_foreignProxy",
          "type": "address"
        },
        {
          "internalType": "contract RealitioInterface",
          "name": "_realitio",
          "type": "address"
        }
      ],
      "stateMutability": "nonpayable",
      "type": "constructor"
    },
    {
      "anonymous": false,
      "inputs": [
        {
          "indexed": true,
          "internalType": "bytes32",
          "name": "_questionID",
          "type": "bytes32"
        },
        {
          "indexed": true,
          "internalType": "address",
          "name": "_requester",
          "type": "address"
        }
      ],
      "name": "ArbitrationFailed",
      "type": "event"
    },
    {
      "anonymous": false,
      "inputs": [
        {
          "indexed": true,
          "internalType": "bytes32",
          "name": "_questionID",
          "type": "bytes32"
        }
      ],
      "name": "ArbitrationFinished",
      "type": "event"
    },
    {
      "anonymous": false,
      "inputs": [
        {
          "indexed": true,
          "internalType": "bytes32",
          "name": "_questionID",
          "type": "bytes32"
        },
        {
          "indexed": false,
          "internalType": "bytes32",
          "name": "_answer",
          "type": "bytes32"
        }
      ],
      "name": "ArbitratorAnswered",
      "type": "event"
    },
    {
      "anonymous": false,
      "inputs": [
        {
          "indexed": false,
          "internalType": "bytes",
          "name": "message",
          "type": "bytes"
        }
      ],
      "name": "MessageSent",
      "type": "event"
    },
    {
      "anonymous": false,
      "inputs": [
        {
          "indexed": true,
          "internalType": "bytes32",
          "name": "_questionID",
          "type": "bytes32"
        },
        {
          "indexed": true,
          "internalType": "address",
          "name": "_requester",
          "type": "address"
        }
      ],
      "name": "RequestAcknowledged",
      "type": "event"
    },
    {
      "anonymous": false,
      "inputs": [
        {
          "indexed": true,
          "internalType": "bytes32",
          "name": "_questionID",
          "type": "bytes32"
        },
        {
          "indexed": true,
          "internalType": "address",
          "name": "_requester",
          "type": "address"
        }
      ],
      "name": "RequestCanceled",
      "type": "event"
    },
    {
      "anonymous": false,
      "inputs": [
        {
          "indexed": true,
          "internalType": "bytes32",
          "name": "_questionID",
          "type": "bytes32"
        },
        {
          "indexed": true,
          "internalType": "address",
          "name": "_requester",
          "type": "address"
        },
        {
          "indexed": false,
          "internalType": "uint256",
          "name": "_maxPrevious",
          "type": "uint256"
        }
      ],
      "name": "RequestNotified",
      "type": "event"
    },
    {
      "anonymous": false,
      "inputs": [
        {
          "indexed": true,
          "internalType": "bytes32",
          "name": "_questionID",
          "type": "bytes32"
        },
        {
          "indexed": true,
          "internalType": "address",
          "name": "_requester",
          "type": "address"
        },
        {
          "indexed": false,
          "internalType": "uint256",
          "name": "_maxPrevious",
          "type": "uint256"
        },
        {
          "indexed": false,
          "internalType": "string",
          "name": "_reason",
          "type": "string"
        }
      ],
      "name": "RequestRejected",
      "type": "event"
    },
    {
      "inputs": [],
      "name": "fxChild",
      "outputs": [
        {
          "internalType": "address",
          "name": "",
          "type": "address"
        }
      ],
      "stateMutability": "view",
      "type": "function"
    },
    {
      "inputs": [],
      "name": "fxRootTunnel",
      "outputs": [
        {
          "internalType": "address",
          "name": "",
          "type": "address"
        }
      ],
      "stateMutability": "view",
      "type": "function"
    },
    {
      "inputs": [
        {
          "internalType": "bytes32",
          "name": "_questionID",
          "type": "bytes32"
        },
        {
          "internalType": "address",
          "name": "_requester",
          "type": "address"
        }
      ],
      "name": "handleNotifiedRequest",
      "outputs": [],
      "stateMutability": "nonpayable",
      "type": "function"
    },
    {
      "inputs": [
        {
          "internalType": "bytes32",
          "name": "_questionID",
          "type": "bytes32"
        },
        {
          "internalType": "address",
          "name": "_requester",
          "type": "address"
        }
      ],
      "name": "handleRejectedRequest",
      "outputs": [],
      "stateMutability": "nonpayable",
      "type": "function"
    },
    {
      "inputs": [],
      "name": "metadata",
      "outputs": [
        {
          "internalType": "string",
          "name": "",
          "type": "string"
        }
      ],
      "stateMutability": "view",
      "type": "function"
    },
    {
      "inputs": [
        {
          "internalType": "uint256",
          "name": "stateId",
          "type": "uint256"
        },
        {
          "internalType": "address",
          "name": "rootMessageSender",
          "type": "address"
        },
        {
          "internalType": "bytes",
          "name": "data",
          "type": "bytes"
        }
      ],
      "name": "processMessageFromRoot",
      "outputs": [],
      "stateMutability": "nonpayable",
      "type": "function"
    },
    {
      "inputs": [
        {
          "internalType": "bytes32",
          "name": "",
          "type": "bytes32"
        }
      ],
      "name": "questionIDToRequester",
      "outputs": [
        {
          "internalType": "address",
          "name": "",
          "type": "address"
        }
      ],
      "stateMutability": "view",
      "type": "function"
    },
    {
      "inputs": [],
      "name": "realitio",
      "outputs": [
        {
          "internalType": "contract RealitioInterface",
          "name": "",
          "type": "address"
        }
      ],
      "stateMutability": "view",
      "type": "function"
    },
    {
      "inputs": [
        {
          "internalType": "bytes32",
          "name": "_questionID",
          "type": "bytes32"
        },
        {
          "internalType": "bytes32",
          "name": "_answer",
          "type": "bytes32"
        }
      ],
      "name": "receiveArbitrationAnswer",
      "outputs": [],
      "stateMutability": "nonpayable",
      "type": "function"
    },
    {
      "inputs": [
        {
          "internalType": "bytes32",
          "name": "_questionID",
          "type": "bytes32"
        },
        {
          "internalType": "address",
          "name": "_requester",
          "type": "address"
        }
      ],
      "name": "receiveArbitrationFailure",
      "outputs": [],
      "stateMutability": "nonpayable",
      "type": "function"
    },
    {
      "inputs": [
        {
          "internalType": "bytes32",
          "name": "_questionID",
          "type": "bytes32"
        },
        {
          "internalType": "address",
          "name": "_requester",
          "type": "address"
        },
        {
          "internalType": "uint256",
          "name": "_maxPrevious",
          "type": "uint256"
        }
      ],
      "name": "receiveArbitrationRequest",
      "outputs": [],
      "stateMutability": "nonpayable",
      "type": "function"
    },
    {
      "inputs": [
        {
          "internalType": "bytes32",
          "name": "_questionID",
          "type": "bytes32"
        },
        {
          "internalType": "bytes32",
          "name": "_lastHistoryHash",
          "type": "bytes32"
        },
        {
          "internalType": "bytes32",
          "name": "_lastAnswerOrCommitmentID",
          "type": "bytes32"
        },
        {
          "internalType": "address",
          "name": "_lastAnswerer",
          "type": "address"
        }
      ],
      "name": "reportArbitrationAnswer",
      "outputs": [],
      "stateMutability": "nonpayable",
      "type": "function"
    },
    {
      "inputs": [
        {
          "internalType": "bytes32",
          "name": "",
          "type": "bytes32"
        },
        {
          "internalType": "address",
          "name": "",
          "type": "address"
        }
      ],
      "name": "requests",
      "outputs": [
        {
          "internalType": "enum RealitioHomeArbitrationProxy.Status",
          "name": "status",
          "type": "uint8"
        },
        {
          "internalType": "bytes32",
          "name": "arbitratorAnswer",
          "type": "bytes32"
        }
      ],
      "stateMutability": "view",
      "type": "function"
    },
    {
      "inputs": [
        {
          "internalType": "bytes",
          "name": "_message",
          "type": "bytes"
        }
      ],
      "name": "sendMessageToRoot",
      "outputs": [],
      "stateMutability": "nonpayable",
      "type": "function"
    }
  ],
  "transactionHash": "0xe907f434d9a41bc81e354500216d4d7e2f21c891bed8515219c6d4a7439e557f",
  "args": [
    "0xCf73231F28B7331BBe3124B907840A94851f9f11",
    "0x18c8a7ec7897177E4529065a7E7B0878358B3BfF",
    "0xA75AE6D61Dd9d55e8153A393E2fc859c6a0FC716"
  ],
  "solcInputHash": "ffc83a681735d3bff9ec1316d280ab34",
  "bytecode": "0x60a060405234801561001057600080fd5b506040516111fc3803806111fc8339818101604052606081101561003357600080fd5b5080516020820151604090920151600080546001600160a01b03199081166001600160a01b039485161782556001805490911694841694909417909355606081901b6001600160601b0319166080521690611152906100aa9039806104fc528061080052806108ca5280610b2952506111526000f3fe608060405234801561001057600080fd5b50600436106100ea5760003560e01c80639a7c4b711161008c578063c510faf711610066578063c510faf71461037a578063c77cccc9146103ce578063ccd6e8d2146103fa578063d75a86e01461042c576100ea565b80639a7c4b71146102c1578063bc8802a214610346578063bf6569e01461034e576100ea565b8063450d11f0116100c8578063450d11f0146101df5780637f1e9cb0146101e757806391602fd7146101ef5780639a113ee21461021b576100ea565b80631865fed1146100ef578063241a9f8214610128578063392f37e914610162575b600080fd5b61010c6004803603602081101561010557600080fd5b503561044f565b604080516001600160a01b039092168252519081900360200190f35b6101606004803603608081101561013e57600080fd5b50803590602081013590604081013590606001356001600160a01b031661046a565b005b61016a6105f4565b6040805160208082528351818301528351919283929083019185019080838360005b838110156101a457818101518382015260200161018c565b50505050905090810190601f1680156101d15780820380516001836020036101000a031916815260200191505b509250505060405180910390f35b61010c610625565b61010c610634565b6101606004803603604081101561020557600080fd5b50803590602001356001600160a01b0316610643565b6101606004803603602081101561023157600080fd5b81019060208101813564010000000081111561024c57600080fd5b82018360208201111561025e57600080fd5b8035906020019184600183028401116401000000008311171561028057600080fd5b91908080601f016020809104026020016040519081016040528093929190818152602001838380828437600092019190915250929550610762945050505050565b610160600480360360608110156102d757600080fd5b8135916001600160a01b036020820135169181019060608101604082013564010000000081111561030757600080fd5b82018360208201111561031957600080fd5b8035906020019184600183028401116401000000008311171561033b57600080fd5b50909250905061076e565b61010c6107fe565b6101606004803603604081101561036457600080fd5b50803590602001356001600160a01b0316610822565b6103a66004803603604081101561039057600080fd5b50803590602001356001600160a01b0316610964565b604051808360058111156103b657fe5b81526020018281526020019250505060405180910390f35b610160600480360360408110156103e457600080fd5b50803590602001356001600160a01b031661098e565b6101606004803603606081101561041057600080fd5b508035906001600160a01b036020820135169060400135610aa9565b6101606004803603604081101561044257600080fd5b5080359060200135610d62565b6003602052600090815260409020546001600160a01b031681565b600084815260036020908152604080832054600283528184206001600160a01b0390911680855292529091206004815460ff1660058111156104a857fe5b146104fa576040805162461bcd60e51b815260206004820152601c60248201527f41726269747261746f7220686173206e6f742072756c65642079657400000000604482015290519081900360640190fd5b7f00000000000000000000000000000000000000000000000000000000000000006001600160a01b031663d44e293c878360010154858989896040518763ffffffff1660e01b815260040180878152602001868152602001856001600160a01b03168152602001848152602001838152602001826001600160a01b031681526020019650505050505050600060405180830381600087803b15801561059e57600080fd5b505af11580156105b2573d6000803e3d6000fd5b5050825460ff19166005178355505060405186907f2abf2fd86256e4607561adae782a4853682b6c0b976995a9a45c5fc3a175738690600090a2505050505050565b604051806040016040528060158152602001747b22666f726569676e50726f7879223a747275657d60581b81525081565b6000546001600160a01b031681565b6001546001600160a01b031681565b60008281526002602081815260408084206001600160a01b038616855290915290912090815460ff16600581111561067757fe5b146106c2576040805162461bcd60e51b8152602060048201526016602482015275496e76616c696420726571756573742073746174757360501b604482015290519081900360640190fd5b805460ff1916600317815560408051602481018590526001600160a01b03841660448083019190915282518083039091018152606490910190915260208101805163e742e2ed60e01b6001600160e01b0390911681179091529061072581610762565b6040516001600160a01b0385169086907fff09615c531ab8799ea1c67a0952ddbef1c864ef91d390995d0dc07656f4210f90600090a35050505050565b61076b81610e3a565b50565b6000546001600160a01b031633146107b75760405162461bcd60e51b81526004018080602001828103825260218152602001806110d16021913960400191505060405180910390fd5b6107f8848484848080601f016020809104026020016040519081016040528093929190818152602001838380828437600092019190915250610ed692505050565b50505050565b7f000000000000000000000000000000000000000000000000000000000000000081565b60008281526002602090815260408083206001600160a01b038516845290915290206003815460ff16600581111561085657fe5b146108a1576040805162461bcd60e51b8152602060048201526016602482015275496e76616c696420726571756573742073746174757360501b604482015290519081900360640190fd5b805460ff1916815560408051630ebbdd2b60e41b81526004810185905290516001600160a01b037f0000000000000000000000000000000000000000000000000000000000000000169163ebbdd2b091602480830192600092919082900301818387803b15801561091157600080fd5b505af1158015610925573d6000803e3d6000fd5b50506040516001600160a01b03851692508591507f9beda0c81abc1c65da7685f113195974dfddb781dfde6263e5a1b13a5356ffad90600090a3505050565b60026020908152600092835260408084209091529082529020805460019091015460ff9091169082565b60008281526002602090815260408083206001600160a01b038516845290915290206001815460ff1660058111156109c257fe5b14610a0d576040805162461bcd60e51b8152602060048201526016602482015275496e76616c696420726571756573742073746174757360501b604482015290519081900360640190fd5b805460ff1916815560408051602481018590526001600160a01b0384166044808301919091528251808303909101815260649091019091526020810180516001600160e01b03166317c4df9160e31b90811790915290610a6c81610762565b6040516001600160a01b0385169086907ff313a768599b60b7f8aedb7757d867d09463365b79b55b86ed3c961e6da5a24990600090a35050505050565b60008381526002602090815260408083206001600160a01b0386168452909152812090815460ff166005811115610adc57fe5b14610b27576040805162461bcd60e51b81526020600482015260166024820152755265717565737420616c72656164792065786973747360501b604482015290519081900360640190fd5b7f00000000000000000000000000000000000000000000000000000000000000006001600160a01b031663f6a94ecb8585856040518463ffffffff1660e01b815260040180848152602001836001600160a01b031681526020018281526020019350505050600060405180830381600087803b158015610ba657600080fd5b505af1925050508015610bb7575060015b610cee57610bc361102a565b80610bce5750610c8f565b815460ff1916600117825560408051848152602080820183815284519383019390935283516001600160a01b0388169389937ff677e762f2ddc710deec335dd0cfa8a65cc9c9c351b268243be8629f2e8d1b5f93899388939160608401919085019080838360005b83811015610c4e578181015183820152602001610c36565b50505050905090810190601f168015610c7b5780820380516001836020036101000a031916815260200191505b50935050505060405180910390a350610ce9565b805460ff19166001178155604080518381526020810182905260008183015290516001600160a01b0385169186917ff677e762f2ddc710deec335dd0cfa8a65cc9c9c351b268243be8629f2e8d1b5f916060908290030190a35b6107f8565b805460ff1916600217815560008481526003602090815260409182902080546001600160a01b0387166001600160a01b0319909116811790915582518581529251909287927ff56e18fc84dbd66db78337b5bd0973943fa70c9b52243a540bdac79274f6682d92918290030190a350505050565b600082815260036020818152604080842054600283528185206001600160a01b03909116808652925290922090815460ff166005811115610d9f57fe5b14610dea576040805162461bcd60e51b8152602060048201526016602482015275496e76616c696420726571756573742073746174757360501b604482015290519081900360640190fd5b8054600460ff199091161781556001810183905560408051848152905185917f1813d15d8cef51cff8bbd419a8e13e0655c1babea320dea4174d5e7bc40c4294919081900360200190a250505050565b7f8c5261668696ce22758910d05bab8f186d6eb247ceac2af2e82c7dc17669b036816040518080602001828103825283818151815260200191508051906020019080838360005b83811015610e99578181015183820152602001610e81565b50505050905090810190601f168015610ec65780820380516001836020036101000a031916815260200191505b509250505060405180910390a150565b60015482906001600160a01b03808316911614610f245760405162461bcd60e51b815260040180806020018281038252602b8152602001806110f2602b913960400191505060405180910390fd5b6000306001600160a01b0316836040518082805190602001908083835b60208310610f605780518252601f199092019160209182019101610f41565b6001836020036101000a0380198251168184511680821785525050505050509050019150506000604051808303816000865af19150503d8060008114610fc2576040519150601f19603f3d011682016040523d82523d6000602084013e610fc7565b606091505b505090508061101d576040805162461bcd60e51b815260206004820152601760248201527f4661696c656420746f2063616c6c20636f6e7472616374000000000000000000604482015290519081900360640190fd5b5050505050565b60e01c90565b600060443d101561103a576110cd565b600481823e6308c379a061104e8251611024565b14611058576110cd565b6040513d600319016004823e80513d67ffffffffffffffff816024840111818411171561108857505050506110cd565b828401925082519150808211156110a257505050506110cd565b503d830160208284010111156110ba575050506110cd565b601f01601f191681016020016040529150505b9056fe4678426173654368696c6454756e6e656c3a20494e56414c49445f53454e4445524678426173654368696c6454756e6e656c3a20494e56414c49445f53454e4445525f46524f4d5f524f4f54a264697066735822122011f5e4536e960364ed48fab4214f633219fb1c4a3be238d053471d9a4ad9726964736f6c63430007060033",
  "devdoc": {
    "details": "This contract is meant to be deployed to side-chains (i.e.: xDAI) in which Reality.eth is deployed.",
    "kind": "dev",
    "methods": {
      "constructor": {
        "params": {
          "_foreignProxy": "The address of the proxy.",
          "_fxChild": "Address of the FxChild contract of the Polygon bridge",
          "_realitio": "Realitio contract address."
        }
      },
      "handleNotifiedRequest(bytes32,address)": {
        "details": "This method exists because `receiveArbitrationRequest` is called by the AMB and cannot send messages back to it.",
        "params": {
          "_questionID": "The ID of the question.",
          "_requester": "The address of the user that requested arbitration."
        }
      },
      "handleRejectedRequest(bytes32,address)": {
        "details": "This method exists because `receiveArbitrationRequest` is called by the AMB and cannot send messages back to it. Reasons why the request might be rejected:  - The question does not exist  - The question was not answered yet  - The quesiton bond value changed while the arbitration was being requested  - Another request was already accepted",
        "params": {
          "_questionID": "The ID of the question.",
          "_requester": "The address of the user that requested arbitration."
        }
      },
      "receiveArbitrationAnswer(bytes32,bytes32)": {
        "params": {
          "_answer": "The answer from the arbitrator.",
          "_questionID": "The ID of the question."
        }
      },
      "receiveArbitrationFailure(bytes32,address)": {
        "details": "Currently this can happen only if the arbitration cost increased.",
        "params": {
          "_questionID": "The ID of the question.",
          "_requester": "The address of the user that requested arbitration."
        }
      },
      "receiveArbitrationRequest(bytes32,address,uint256)": {
        "details": "Receives the requested arbitration for a question. TRUSTED.",
        "params": {
          "_maxPrevious": "The maximum value of the previous bond for the question.",
          "_questionID": "The ID of the question.",
          "_requester": "The address of the user that requested arbitration."
        }
      },
      "reportArbitrationAnswer(bytes32,bytes32,bytes32,address)": {
        "details": "The Realitio contract validates the input parameters passed to this method, so making this publicly accessible is safe.",
        "params": {
          "_lastAnswerOrCommitmentID": "The last answer given, or its commitment ID if it was a commitment, to the question in the Realitio contract.",
          "_lastAnswerer": "The last answerer to the question in the Realitio contract.",
          "_lastHistoryHash": "The history hash given with the last answer to the question in the Realitio contract.",
          "_questionID": "The ID of the question."
        }
      }
    },
    "stateVariables": {
      "metadata": {
        "details": "Metadata for Realitio interface."
      },
      "questionIDToRequester": {
        "details": "Associates a question ID with the requester who succeeded in requesting arbitration. questionIDToRequester[questionID]"
      },
      "realitio": {
        "details": "The address of the Realitio contract (v2.1+ required). TRUSTED."
      },
      "requests": {
        "details": "Associates an arbitration request with a question ID and a requester address. requests[questionID][requester]"
      }
    },
    "title": "Arbitration proxy for Realitio on the side-chain side (A.K.A. the Home Chain).",
    "version": 1
  },
  "userdoc": {
    "events": {
      "ArbitrationFailed(bytes32,address)": {
        "notice": "To be emitted when the dispute could not be created on the Foreign Chain."
      },
      "ArbitrationFinished(bytes32)": {
        "notice": "To be emitted when reporting the arbitrator answer to Realitio."
      },
      "ArbitratorAnswered(bytes32,bytes32)": {
        "notice": "To be emitted when receiving the answer from the arbitrator."
      },
      "RequestAcknowledged(bytes32,address)": {
        "notice": "To be emitted when the arbitration request acknowledgement is sent to the Foreign Chain."
      },
      "RequestCanceled(bytes32,address)": {
        "notice": "To be emitted when the arbitration request is canceled."
      },
      "RequestNotified(bytes32,address,uint256)": {
        "notice": "To be emitted when the Realitio contract has been notified of an arbitration request."
      },
      "RequestRejected(bytes32,address,uint256,string)": {
        "notice": "To be emitted when arbitration request is rejected."
      }
    },
    "kind": "user",
    "methods": {
      "constructor": {
        "notice": "Creates an arbitration proxy on the home chain."
      },
      "handleNotifiedRequest(bytes32,address)": {
        "notice": "Handles arbitration request after it has been notified to Realitio for a given question."
      },
      "handleRejectedRequest(bytes32,address)": {
        "notice": "Handles arbitration request after it has been rejected."
      },
      "receiveArbitrationAnswer(bytes32,bytes32)": {
        "notice": "Receives the answer to a specified question. TRUSTED."
      },
      "receiveArbitrationFailure(bytes32,address)": {
        "notice": "Receives a failed attempt to request arbitration. TRUSTED."
      },
      "reportArbitrationAnswer(bytes32,bytes32,bytes32,address)": {
        "notice": "Reports the answer provided by the arbitrator to a specified question."
      }
    },
    "version": 1
  },
  "storageLayout": {
    "storage": [
      {
        "astId": 3439,
        "contract": "src/RealitioHomeArbitrationProxy.sol:RealitioHomeArbitrationProxy",
        "label": "fxChild",
        "offset": 0,
        "slot": "0",
        "type": "t_address"
      },
      {
        "astId": 3441,
        "contract": "src/RealitioHomeArbitrationProxy.sol:RealitioHomeArbitrationProxy",
        "label": "fxRootTunnel",
        "offset": 0,
        "slot": "1",
        "type": "t_address"
      },
      {
        "astId": 2987,
        "contract": "src/RealitioHomeArbitrationProxy.sol:RealitioHomeArbitrationProxy",
        "label": "requests",
        "offset": 0,
        "slot": "2",
        "type": "t_mapping(t_bytes32,t_mapping(t_address,t_struct(Request)2980_storage))"
      },
      {
        "astId": 2992,
        "contract": "src/RealitioHomeArbitrationProxy.sol:RealitioHomeArbitrationProxy",
        "label": "questionIDToRequester",
        "offset": 0,
        "slot": "3",
        "type": "t_mapping(t_bytes32,t_address)"
      }
    ],
    "types": {
      "t_address": {
        "encoding": "inplace",
        "label": "address",
        "numberOfBytes": "20"
      },
      "t_bytes32": {
        "encoding": "inplace",
        "label": "bytes32",
        "numberOfBytes": "32"
      },
      "t_enum(Status)2975": {
        "encoding": "inplace",
        "label": "enum RealitioHomeArbitrationProxy.Status",
        "numberOfBytes": "1"
      },
      "t_mapping(t_address,t_struct(Request)2980_storage)": {
        "encoding": "mapping",
        "key": "t_address",
        "label": "mapping(address => struct RealitioHomeArbitrationProxy.Request)",
        "numberOfBytes": "32",
        "value": "t_struct(Request)2980_storage"
      },
      "t_mapping(t_bytes32,t_address)": {
        "encoding": "mapping",
        "key": "t_bytes32",
        "label": "mapping(bytes32 => address)",
        "numberOfBytes": "32",
        "value": "t_address"
      },
      "t_mapping(t_bytes32,t_mapping(t_address,t_struct(Request)2980_storage))": {
        "encoding": "mapping",
        "key": "t_bytes32",
        "label": "mapping(bytes32 => mapping(address => struct RealitioHomeArbitrationProxy.Request))",
        "numberOfBytes": "32",
        "value": "t_mapping(t_address,t_struct(Request)2980_storage)"
      },
      "t_struct(Request)2980_storage": {
        "encoding": "inplace",
        "label": "struct RealitioHomeArbitrationProxy.Request",
        "members": [
          {
            "astId": 2977,
            "contract": "src/RealitioHomeArbitrationProxy.sol:RealitioHomeArbitrationProxy",
            "label": "status",
            "offset": 0,
            "slot": "0",
            "type": "t_enum(Status)2975"
          },
          {
            "astId": 2979,
            "contract": "src/RealitioHomeArbitrationProxy.sol:RealitioHomeArbitrationProxy",
            "label": "arbitratorAnswer",
            "offset": 0,
            "slot": "1",
            "type": "t_bytes32"
          }
        ],
        "numberOfBytes": "64"
      }
    }
  }
}