{
  "address": "0xE69a359f5fb27C12E6Cf4E75e326329d13E0d7F6",
  "abi": [
    {
      "inputs": [
        {
          "internalType": "contract IRealitio",
          "name": "_realitio",
          "type": "address"
        },
        {
          "internalType": "string",
          "name": "_metadata",
          "type": "string"
        },
        {
          "internalType": "uint256",
          "name": "_foreignChainId",
          "type": "uint256"
        },
        {
          "internalType": "address",
          "name": "_fxChild",
          "type": "address"
        }
      ],
      "stateMutability": "nonpayable",
      "type": "constructor"
    },
    {
      "anonymous": false,
      "inputs": [
        {
          "indexed": true,
          "internalType": "bytes32",
          "name": "_questionID",
          "type": "bytes32"
        },
        {
          "indexed": true,
          "internalType": "address",
          "name": "_requester",
          "type": "address"
        }
      ],
      "name": "ArbitrationFailed",
      "type": "event"
    },
    {
      "anonymous": false,
      "inputs": [
        {
          "indexed": true,
          "internalType": "bytes32",
          "name": "_questionID",
          "type": "bytes32"
        }
      ],
      "name": "ArbitrationFinished",
      "type": "event"
    },
    {
      "anonymous": false,
      "inputs": [
        {
          "indexed": true,
          "internalType": "bytes32",
          "name": "_questionID",
          "type": "bytes32"
        },
        {
          "indexed": false,
          "internalType": "bytes32",
          "name": "_answer",
          "type": "bytes32"
        }
      ],
      "name": "ArbitratorAnswered",
      "type": "event"
    },
    {
      "anonymous": false,
      "inputs": [
        {
          "indexed": false,
          "internalType": "bytes",
          "name": "message",
          "type": "bytes"
        }
      ],
      "name": "MessageSent",
      "type": "event"
    },
    {
      "anonymous": false,
      "inputs": [
        {
          "indexed": true,
          "internalType": "bytes32",
          "name": "_questionID",
          "type": "bytes32"
        },
        {
          "indexed": true,
          "internalType": "address",
          "name": "_requester",
          "type": "address"
        }
      ],
      "name": "RequestAcknowledged",
      "type": "event"
    },
    {
      "anonymous": false,
      "inputs": [
        {
          "indexed": true,
          "internalType": "bytes32",
          "name": "_questionID",
          "type": "bytes32"
        },
        {
          "indexed": true,
          "internalType": "address",
          "name": "_requester",
          "type": "address"
        }
      ],
      "name": "RequestCanceled",
      "type": "event"
    },
    {
      "anonymous": false,
      "inputs": [
        {
          "indexed": true,
          "internalType": "bytes32",
          "name": "_questionID",
          "type": "bytes32"
        },
        {
          "indexed": true,
          "internalType": "address",
          "name": "_requester",
          "type": "address"
        },
        {
          "indexed": false,
          "internalType": "uint256",
          "name": "_maxPrevious",
          "type": "uint256"
        }
      ],
      "name": "RequestNotified",
      "type": "event"
    },
    {
      "anonymous": false,
      "inputs": [
        {
          "indexed": true,
          "internalType": "bytes32",
          "name": "_questionID",
          "type": "bytes32"
        },
        {
          "indexed": true,
          "internalType": "address",
          "name": "_requester",
          "type": "address"
        },
        {
          "indexed": false,
          "internalType": "uint256",
          "name": "_maxPrevious",
          "type": "uint256"
        },
        {
          "indexed": false,
          "internalType": "string",
          "name": "_reason",
          "type": "string"
        }
      ],
      "name": "RequestRejected",
      "type": "event"
    },
    {
      "inputs": [],
      "name": "foreignChainId",
      "outputs": [
        {
          "internalType": "bytes32",
          "name": "",
          "type": "bytes32"
        }
      ],
      "stateMutability": "view",
      "type": "function"
    },
    {
      "inputs": [],
      "name": "foreignProxy",
      "outputs": [
        {
          "internalType": "address",
          "name": "",
          "type": "address"
        }
      ],
      "stateMutability": "view",
      "type": "function"
    },
    {
      "inputs": [],
      "name": "fxChild",
      "outputs": [
        {
          "internalType": "address",
          "name": "",
          "type": "address"
        }
      ],
      "stateMutability": "view",
      "type": "function"
    },
    {
      "inputs": [],
      "name": "fxRootTunnel",
      "outputs": [
        {
          "internalType": "address",
          "name": "",
          "type": "address"
        }
      ],
      "stateMutability": "view",
      "type": "function"
    },
    {
      "inputs": [
        {
          "internalType": "bytes32",
          "name": "_questionID",
          "type": "bytes32"
        },
        {
          "internalType": "address",
          "name": "_requester",
          "type": "address"
        }
      ],
      "name": "handleNotifiedRequest",
      "outputs": [],
      "stateMutability": "nonpayable",
      "type": "function"
    },
    {
      "inputs": [
        {
          "internalType": "bytes32",
          "name": "_questionID",
          "type": "bytes32"
        },
        {
          "internalType": "address",
          "name": "_requester",
          "type": "address"
        }
      ],
      "name": "handleRejectedRequest",
      "outputs": [],
      "stateMutability": "nonpayable",
      "type": "function"
    },
    {
      "inputs": [],
      "name": "metadata",
      "outputs": [
        {
          "internalType": "string",
          "name": "",
          "type": "string"
        }
      ],
      "stateMutability": "view",
      "type": "function"
    },
    {
      "inputs": [
        {
          "internalType": "uint256",
          "name": "stateId",
          "type": "uint256"
        },
        {
          "internalType": "address",
          "name": "rootMessageSender",
          "type": "address"
        },
        {
          "internalType": "bytes",
          "name": "data",
          "type": "bytes"
        }
      ],
      "name": "processMessageFromRoot",
      "outputs": [],
      "stateMutability": "nonpayable",
      "type": "function"
    },
    {
      "inputs": [
        {
          "internalType": "bytes32",
          "name": "",
          "type": "bytes32"
        }
      ],
      "name": "questionIDToRequester",
      "outputs": [
        {
          "internalType": "address",
          "name": "",
          "type": "address"
        }
      ],
      "stateMutability": "view",
      "type": "function"
    },
    {
      "inputs": [],
      "name": "realitio",
      "outputs": [
        {
          "internalType": "contract IRealitio",
          "name": "",
          "type": "address"
        }
      ],
      "stateMutability": "view",
      "type": "function"
    },
    {
      "inputs": [
        {
          "internalType": "bytes32",
          "name": "_questionID",
          "type": "bytes32"
        },
        {
          "internalType": "bytes32",
          "name": "_answer",
          "type": "bytes32"
        }
      ],
      "name": "receiveArbitrationAnswer",
      "outputs": [],
      "stateMutability": "nonpayable",
      "type": "function"
    },
    {
      "inputs": [
        {
          "internalType": "bytes32",
          "name": "_questionID",
          "type": "bytes32"
        },
        {
          "internalType": "address",
          "name": "_requester",
          "type": "address"
        }
      ],
      "name": "receiveArbitrationFailure",
      "outputs": [],
      "stateMutability": "nonpayable",
      "type": "function"
    },
    {
      "inputs": [
        {
          "internalType": "bytes32",
          "name": "_questionID",
          "type": "bytes32"
        },
        {
          "internalType": "address",
          "name": "_requester",
          "type": "address"
        },
        {
          "internalType": "uint256",
          "name": "_maxPrevious",
          "type": "uint256"
        }
      ],
      "name": "receiveArbitrationRequest",
      "outputs": [],
      "stateMutability": "nonpayable",
      "type": "function"
    },
    {
      "inputs": [
        {
          "internalType": "bytes32",
          "name": "_questionID",
          "type": "bytes32"
        },
        {
          "internalType": "bytes32",
          "name": "_lastHistoryHash",
          "type": "bytes32"
        },
        {
          "internalType": "bytes32",
          "name": "_lastAnswerOrCommitmentID",
          "type": "bytes32"
        },
        {
          "internalType": "address",
          "name": "_lastAnswerer",
          "type": "address"
        }
      ],
      "name": "reportArbitrationAnswer",
      "outputs": [],
      "stateMutability": "nonpayable",
      "type": "function"
    },
    {
      "inputs": [
        {
          "internalType": "bytes32",
          "name": "",
          "type": "bytes32"
        },
        {
          "internalType": "address",
          "name": "",
          "type": "address"
        }
      ],
      "name": "requests",
      "outputs": [
        {
          "internalType": "enum RealitioHomeProxyPolygon.Status",
          "name": "status",
          "type": "uint8"
        },
        {
          "internalType": "bytes32",
          "name": "arbitratorAnswer",
          "type": "bytes32"
        }
      ],
      "stateMutability": "view",
      "type": "function"
    },
    {
      "inputs": [
        {
          "internalType": "address",
          "name": "_fxRootTunnel",
          "type": "address"
        }
      ],
      "name": "setFxRootTunnel",
      "outputs": [],
      "stateMutability": "nonpayable",
      "type": "function"
    }
  ],
  "transactionHash": "0xc7ce090cad2a37e195b688b2ad8bc7f67e0b5bf82fc5f7dd4d453bab317401ac",
  "args": [
    "0x3155836D28C0845c37791808287FaFC811742C5a",
    "{\"tos\":\"ipfs://QmUuTf2JmA8S48zgVxjLmaaky6fLiePuwKsumxEYumEj4U\", \"foreignProxy\":true}",
    1,
    "0x8397259c983751DAf40400790063935a11afa28a"
  ],
  "numDeployments": 2,
  "solcInputHash": "d03747498659548a8094a28fceb9d367",
  "bytecode": "0x60c060405234801561001057600080fd5b5060405161153338038061153383398101604081905261002f916100ab565b600080546001600160a01b0319166001600160a01b038381169190911790915584166080526002610060848261022d565b505060a052506102ec9050565b6001600160a01b038116811461008257600080fd5b50565b634e487b7160e01b600052604160045260246000fd5b80516100a68161006d565b919050565b600080600080608085870312156100c157600080fd5b84516100cc8161006d565b602086810151919550906001600160401b03808211156100eb57600080fd5b818801915088601f8301126100ff57600080fd5b81518181111561011157610111610085565b604051601f8201601f19908116603f0116810190838211818310171561013957610139610085565b816040528281528b8684870101111561015157600080fd5b600093505b828410156101735784840186015181850187015292850192610156565b6000868483010152809850505050505050604085015191506101976060860161009b565b905092959194509250565b600181811c908216806101b657607f821691505b6020821081036101d657634e487b7160e01b600052602260045260246000fd5b50919050565b601f821115610228576000816000526020600020601f850160051c810160208610156102055750805b601f850160051c820191505b8181101561022457828155600101610211565b5050505b505050565b81516001600160401b0381111561024657610246610085565b61025a8161025484546101a2565b846101dc565b602080601f83116001811461028f57600084156102775750858301515b600019600386901b1c1916600185901b178555610224565b600085815260208120601f198616915b828110156102be5788860151825594840194600190910190840161029f565b50858210156102dc5787850151600019600388901b60f8161c191681555b5050505050600190811b01905550565b60805160a05161120d61032660003960006101d701526000818161021f015281816103bc015281816107a501526109fa015261120d6000f3fe608060405234801561001057600080fd5b50600436106101005760003560e01c806395e088fc11610097578063c510faf711610066578063c510faf714610254578063c77cccc91461029a578063ccd6e8d2146102ad578063d75a86e0146102c057600080fd5b806395e088fc146101d25780639a7c4b7114610207578063bc8802a21461021a578063bf6569e01461024157600080fd5b80636e190f17116100d35780636e190f17146101885780637f1e9cb01461019957806388837094146101ac57806391602fd7146101bf57600080fd5b80631865fed114610105578063241a9f821461014b578063392f37e914610160578063450d11f014610175575b600080fd5b61012e610113366004610dd3565b6004602052600090815260409020546001600160a01b031681565b6040516001600160a01b0390911681526020015b60405180910390f35b61015e610159366004610e08565b6102d3565b005b61016861044b565b6040516101429190610e97565b60005461012e906001600160a01b031681565b6001546001600160a01b031661012e565b60015461012e906001600160a01b031681565b61015e6101ba366004610eb1565b6104d9565b61015e6101cd366004610ecc565b610567565b6101f97f000000000000000000000000000000000000000000000000000000000000000081565b604051908152602001610142565b61015e610215366004610ef8565b61065e565b61012e7f000000000000000000000000000000000000000000000000000000000000000081565b61015e61024f366004610ecc565b610709565b61028c610262366004610ecc565b60036020908152600092835260408084209091529082529020805460019091015460ff9091169082565b604051610142929190610f95565b61015e6102a8366004610ecc565b61083c565b61015e6102bb366004610fc1565b61092f565b61015e6102ce366004610ff6565b610ba4565b600084815260046020818152604080842054600383528185206001600160a01b03909116808652925290922090815460ff16600581111561031657610316610f7f565b146103685760405162461bcd60e51b815260206004820152601c60248201527f41726269747261746f7220686173206e6f742072756c6564207965740000000060448201526064015b60405180910390fd5b805460ff1916600517815560018101546040516335138a4f60e21b81526004810188905260248101919091526001600160a01b038381166044830152606482018790526084820186905284811660a48301527f0000000000000000000000000000000000000000000000000000000000000000169063d44e293c9060c401600060405180830381600087803b15801561040057600080fd5b505af1158015610414573d6000803e3d6000fd5b50506040518892507f2abf2fd86256e4607561adae782a4853682b6c0b976995a9a45c5fc3a17573869150600090a2505050505050565b6002805461045890611018565b80601f016020809104026020016040519081016040528092919081815260200182805461048490611018565b80156104d15780601f106104a6576101008083540402835291602001916104d1565b820191906000526020600020905b8154815290600101906020018083116104b457829003601f168201915b505050505081565b6001546001600160a01b0316156105455760405162461bcd60e51b815260206004820152602a60248201527f4678426173654368696c6454756e6e656c3a20524f4f545f54554e4e454c5f4160448201526913149150511657d4d15560b21b606482015260840161035f565b600180546001600160a01b0319166001600160a01b0392909216919091179055565b60008281526003602090815260408083206001600160a01b038516845290915290206002815460ff1660058111156105a1576105a1610f7f565b146105be5760405162461bcd60e51b815260040161035f90611052565b805460ff1916600317815560408051602481018590526001600160a01b03841660448083019190915282518083039091018152606490910190915260208101805163e742e2ed60e01b6001600160e01b0390911681179091529061062181610c72565b6040516001600160a01b0385169086907fff09615c531ab8799ea1c67a0952ddbef1c864ef91d390995d0dc07656f4210f90600090a35050505050565b6000546001600160a01b031633146106c25760405162461bcd60e51b815260206004820152602160248201527f4678426173654368696c6454756e6e656c3a20494e56414c49445f53454e44456044820152602960f91b606482015260840161035f565b610703848484848080601f016020809104026020016040519081016040528093929190818152602001838380828437600092019190915250610cac92505050565b50505050565b3330146107285760405162461bcd60e51b815260040161035f90611082565b60008281526003602081815260408084206001600160a01b038616855290915290912090815460ff16600581111561076257610762610f7f565b1461077f5760405162461bcd60e51b815260040161035f90611052565b805460ff19168155604051630ebbdd2b60e41b8152600481018490526001600160a01b037f0000000000000000000000000000000000000000000000000000000000000000169063ebbdd2b090602401600060405180830381600087803b1580156107e957600080fd5b505af11580156107fd573d6000803e3d6000fd5b50506040516001600160a01b03851692508591507f9beda0c81abc1c65da7685f113195974dfddb781dfde6263e5a1b13a5356ffad90600090a3505050565b60008281526003602090815260408083206001600160a01b038516845290915290206001815460ff16600581111561087657610876610f7f565b146108935760405162461bcd60e51b815260040161035f90611052565b805460ff1916815560408051602481018590526001600160a01b0384166044808301919091528251808303909101815260649091019091526020810180516001600160e01b03166317c4df9160e31b908117909152906108f281610c72565b6040516001600160a01b0385169086907ff313a768599b60b7f8aedb7757d867d09463365b79b55b86ed3c961e6da5a24990600090a35050505050565b33301461094e5760405162461bcd60e51b815260040161035f90611082565b60008381526003602090815260408083206001600160a01b0386168452909152812090815460ff16600581111561098757610987610f7f565b146109cd5760405162461bcd60e51b81526020600482015260166024820152755265717565737420616c72656164792065786973747360501b604482015260640161035f565b60405163f6a94ecb60e01b8152600481018590526001600160a01b038481166024830152604482018490527f0000000000000000000000000000000000000000000000000000000000000000169063f6a94ecb90606401600060405180830381600087803b158015610a3e57600080fd5b505af1925050508015610a4f575060015b610b3257610a5b6110b9565b806308c379a003610ad25750610a6f611110565b80610a7a5750610ad4565b815460ff191660011782556040516001600160a01b0385169086907ff677e762f2ddc710deec335dd0cfa8a65cc9c9c351b268243be8629f2e8d1b5f90610ac4908790869061119a565b60405180910390a350610703565b505b805460ff19166001178155604080518381526020810182905260008183015290516001600160a01b0385169186917ff677e762f2ddc710deec335dd0cfa8a65cc9c9c351b268243be8629f2e8d1b5f916060908290030190a3610703565b805460ff1916600217815560008481526004602090815260409182902080546001600160a01b0387166001600160a01b03199091168117909155915184815286917ff56e18fc84dbd66db78337b5bd0973943fa70c9b52243a540bdac79274f6682d910160405180910390a350505050565b333014610bc35760405162461bcd60e51b815260040161035f90611082565b60008281526004602090815260408083205460038084528285206001600160a01b0390921680865291909352922090815460ff166005811115610c0857610c08610f7f565b14610c255760405162461bcd60e51b815260040161035f90611052565b805460ff191660041781556001810183905560405183815284907f1813d15d8cef51cff8bbd419a8e13e0655c1babea320dea4174d5e7bc40c42949060200160405180910390a250505050565b7f8c5261668696ce22758910d05bab8f186d6eb247ceac2af2e82c7dc17669b03681604051610ca19190610e97565b60405180910390a150565b60015482906001600160a01b03808316911614610d1f5760405162461bcd60e51b815260206004820152602b60248201527f4678426173654368696c6454756e6e656c3a20494e56414c49445f53454e444560448201526a1497d19493d357d493d3d560aa1b606482015260840161035f565b6000306001600160a01b031683604051610d3991906111bb565b6000604051808303816000865af19150503d8060008114610d76576040519150601f19603f3d011682016040523d82523d6000602084013e610d7b565b606091505b5050905080610dcc5760405162461bcd60e51b815260206004820152601760248201527f4661696c656420746f2063616c6c20636f6e7472616374000000000000000000604482015260640161035f565b5050505050565b600060208284031215610de557600080fd5b5035919050565b80356001600160a01b0381168114610e0357600080fd5b919050565b60008060008060808587031215610e1e57600080fd5b843593506020850135925060408501359150610e3c60608601610dec565b905092959194509250565b60005b83811015610e62578181015183820152602001610e4a565b50506000910152565b60008151808452610e83816020860160208601610e47565b601f01601f19169290920160200192915050565b602081526000610eaa6020830184610e6b565b9392505050565b600060208284031215610ec357600080fd5b610eaa82610dec565b60008060408385031215610edf57600080fd5b82359150610eef60208401610dec565b90509250929050565b60008060008060608587031215610f0e57600080fd5b84359350610f1e60208601610dec565b9250604085013567ffffffffffffffff80821115610f3b57600080fd5b818701915087601f830112610f4f57600080fd5b813581811115610f5e57600080fd5b886020828501011115610f7057600080fd5b95989497505060200194505050565b634e487b7160e01b600052602160045260246000fd5b6040810160068410610fb757634e487b7160e01b600052602160045260246000fd5b9281526020015290565b600080600060608486031215610fd657600080fd5b83359250610fe660208501610dec565b9150604084013590509250925092565b6000806040838503121561100957600080fd5b50508035926020909101359150565b600181811c9082168061102c57607f821691505b60208210810361104c57634e487b7160e01b600052602260045260246000fd5b50919050565b602080825260169082015275496e76616c696420726571756573742073746174757360501b604082015260600190565b6020808252601d908201527f43616e206f6e6c792062652063616c6c65642076696120627269646765000000604082015260600190565b600060033d11156110d25760046000803e5060005160e01c5b90565b601f8201601f1916810167ffffffffffffffff8111828210171561110957634e487b7160e01b600052604160045260246000fd5b6040525050565b600060443d101561111e5790565b6040516003193d81016004833e81513d67ffffffffffffffff816024840111818411171561114e57505050505090565b82850191508151818111156111665750505050505090565b843d87010160208285010111156111805750505050505090565b61118f602082860101876110d5565b509095945050505050565b8281526040602082015260006111b36040830184610e6b565b949350505050565b600082516111cd818460208701610e47565b919091019291505056fea26469706673582212208415a48c224094557b6db7d82ed515422ea931a4f33a33e1403ab1336cf2de2d64736f6c63430008190033",
  "devdoc": {
    "details": "This contract is meant to be deployed to side-chains in which Reality.eth is deployed.",
    "events": {
      "ArbitrationFailed(bytes32,address)": {
        "details": "This will happen if the arbitration fee increases in between the arbitration request and acknowledgement.",
        "params": {
          "_questionID": "The ID of the question.",
          "_requester": "The address of the arbitration requester."
        }
      },
      "ArbitrationFinished(bytes32)": {
        "params": {
          "_questionID": "The ID of the question."
        }
      },
      "ArbitratorAnswered(bytes32,bytes32)": {
        "params": {
          "_answer": "The answer from the arbitrator.",
          "_questionID": "The ID of the question."
        }
      },
      "RequestAcknowledged(bytes32,address)": {
        "params": {
          "_questionID": "The ID of the question.",
          "_requester": "The address of the arbitration requester."
        }
      },
      "RequestCanceled(bytes32,address)": {
        "params": {
          "_questionID": "The ID of the question.",
          "_requester": "The address of the arbitration requester."
        }
      },
      "RequestNotified(bytes32,address,uint256)": {
        "params": {
          "_maxPrevious": "The maximum value of the previous bond for the question.",
          "_questionID": "The ID of the question.",
          "_requester": "The address of the arbitration requester."
        }
      },
      "RequestRejected(bytes32,address,uint256,string)": {
        "details": "This can happen if the current bond for the question is higher than maxPrevious or if the question is already finalized.",
        "params": {
          "_maxPrevious": "The maximum value of the current bond for the question.",
          "_questionID": "The ID of the question.",
          "_reason": "The reason why the request was rejected.",
          "_requester": "The address of the arbitration requester."
        }
      }
    },
    "kind": "dev",
    "methods": {
      "constructor": {
        "params": {
          "_foreignChainId": "The ID of foreign chain (Sepolia/Mainnet).",
          "_fxChild": "Address of the FxChild contract of the Polygon bridge",
          "_metadata": "Metadata for Realitio",
          "_realitio": "Realitio contract address."
        }
      },
      "handleNotifiedRequest(bytes32,address)": {
        "details": "This method exists because `receiveArbitrationRequest` is called by the Polygon Bridge and cannot send messages back to it.",
        "params": {
          "_questionID": "The ID of the question.",
          "_requester": "The address of the user that requested arbitration."
        }
      },
      "handleRejectedRequest(bytes32,address)": {
        "details": "This method exists because `receiveArbitrationRequest` is called by the Polygon Bridge and cannot send messages back to it. Reasons why the request might be rejected:  - The question does not exist  - The question was not answered yet  - The question bond value changed while the arbitration was being requested  - Another request was already accepted",
        "params": {
          "_questionID": "The ID of the question.",
          "_requester": "The address of the user that requested arbitration."
        }
      },
      "receiveArbitrationAnswer(bytes32,bytes32)": {
        "params": {
          "_answer": "The answer from the arbitrator.",
          "_questionID": "The ID of the question."
        }
      },
      "receiveArbitrationFailure(bytes32,address)": {
        "details": "Currently this can happen only if the arbitration cost increased.",
        "params": {
          "_questionID": "The ID of the question.",
          "_requester": "The address of the user that requested arbitration."
        }
      },
      "receiveArbitrationRequest(bytes32,address,uint256)": {
        "details": "Receives the requested arbitration for a question. TRUSTED.",
        "params": {
          "_maxPrevious": "The maximum value of the previous bond for the question.",
          "_questionID": "The ID of the question.",
          "_requester": "The address of the user that requested arbitration."
        }
      },
      "reportArbitrationAnswer(bytes32,bytes32,bytes32,address)": {
        "details": "The Realitio contract validates the input parameters passed to this method, so making this publicly accessible is safe.",
        "params": {
          "_lastAnswerOrCommitmentID": "The last answer given, or its commitment ID if it was a commitment, to the question in the Realitio contract.",
          "_lastAnswerer": "The last answerer to the question in the Realitio contract.",
          "_lastHistoryHash": "The history hash given with the last answer to the question in the Realitio contract.",
          "_questionID": "The ID of the question."
        }
      }
    },
    "stateVariables": {
      "foreignChainId": {
        "details": "ID of the foreign chain, required for Realitio."
      },
      "metadata": {
        "details": "Metadata for Realitio interface."
      },
      "questionIDToRequester": {
        "details": "Associates a question ID with the requester who succeeded in requesting arbitration. questionIDToRequester[questionID]"
      },
      "realitio": {
        "details": "The address of the Realitio contract (v3.0 required). TRUSTED."
      },
      "requests": {
        "details": "Associates an arbitration request with a question ID and a requester address. requests[questionID][requester]"
      }
    },
    "title": "Arbitration proxy for Realitio on the side-chain side (A.K.A. the Home Chain).",
    "version": 1
  },
  "userdoc": {
    "events": {
      "ArbitrationFailed(bytes32,address)": {
        "notice": "To be emitted when the dispute could not be created on the Foreign Chain."
      },
      "ArbitrationFinished(bytes32)": {
        "notice": "To be emitted when reporting the arbitrator answer to Realitio."
      },
      "ArbitratorAnswered(bytes32,bytes32)": {
        "notice": "To be emitted when receiving the answer from the arbitrator."
      },
      "RequestAcknowledged(bytes32,address)": {
        "notice": "To be emitted when the arbitration request acknowledgement is sent to the Foreign Chain."
      },
      "RequestCanceled(bytes32,address)": {
        "notice": "To be emitted when the arbitration request is canceled."
      },
      "RequestNotified(bytes32,address,uint256)": {
        "notice": "To be emitted when the Realitio contract has been notified of an arbitration request."
      },
      "RequestRejected(bytes32,address,uint256,string)": {
        "notice": "To be emitted when arbitration request is rejected."
      }
    },
    "kind": "user",
    "methods": {
      "constructor": {
        "notice": "Creates an arbitration proxy on the home chain."
      },
      "foreignProxy()": {
        "notice": "Realitio interface requires home proxy to return foreign proxy."
      },
      "handleNotifiedRequest(bytes32,address)": {
        "notice": "Handles arbitration request after it has been notified to Realitio for a given question."
      },
      "handleRejectedRequest(bytes32,address)": {
        "notice": "Handles arbitration request after it has been rejected."
      },
      "receiveArbitrationAnswer(bytes32,bytes32)": {
        "notice": "Receives the answer to a specified question. TRUSTED."
      },
      "receiveArbitrationFailure(bytes32,address)": {
        "notice": "Receives a failed attempt to request arbitration. TRUSTED."
      },
      "reportArbitrationAnswer(bytes32,bytes32,bytes32,address)": {
        "notice": "Reports the answer provided by the arbitrator to a specified question."
      }
    },
    "version": 1
  },
  "storageLayout": {
    "storage": [
      {
        "astId": 23528,
        "contract": "src/0.8/RealitioHomeProxyPolygon.sol:RealitioHomeProxyPolygon",
        "label": "fxChild",
        "offset": 0,
        "slot": "0",
        "type": "t_address"
      },
      {
        "astId": 23530,
        "contract": "src/0.8/RealitioHomeProxyPolygon.sol:RealitioHomeProxyPolygon",
        "label": "fxRootTunnel",
        "offset": 0,
        "slot": "1",
        "type": "t_address"
      },
      {
        "astId": 22135,
        "contract": "src/0.8/RealitioHomeProxyPolygon.sol:RealitioHomeProxyPolygon",
        "label": "metadata",
        "offset": 0,
        "slot": "2",
        "type": "t_string_storage"
      },
      {
        "astId": 22156,
        "contract": "src/0.8/RealitioHomeProxyPolygon.sol:RealitioHomeProxyPolygon",
        "label": "requests",
        "offset": 0,
        "slot": "3",
        "type": "t_mapping(t_bytes32,t_mapping(t_address,t_struct(Request)22148_storage))"
      },
      {
        "astId": 22161,
        "contract": "src/0.8/RealitioHomeProxyPolygon.sol:RealitioHomeProxyPolygon",
        "label": "questionIDToRequester",
        "offset": 0,
        "slot": "4",
        "type": "t_mapping(t_bytes32,t_address)"
      }
    ],
    "types": {
      "t_address": {
        "encoding": "inplace",
        "label": "address",
        "numberOfBytes": "20"
      },
      "t_bytes32": {
        "encoding": "inplace",
        "label": "bytes32",
        "numberOfBytes": "32"
      },
      "t_enum(Status)22142": {
        "encoding": "inplace",
        "label": "enum RealitioHomeProxyPolygon.Status",
        "numberOfBytes": "1"
      },
      "t_mapping(t_address,t_struct(Request)22148_storage)": {
        "encoding": "mapping",
        "key": "t_address",
        "label": "mapping(address => struct RealitioHomeProxyPolygon.Request)",
        "numberOfBytes": "32",
        "value": "t_struct(Request)22148_storage"
      },
      "t_mapping(t_bytes32,t_address)": {
        "encoding": "mapping",
        "key": "t_bytes32",
        "label": "mapping(bytes32 => address)",
        "numberOfBytes": "32",
        "value": "t_address"
      },
      "t_mapping(t_bytes32,t_mapping(t_address,t_struct(Request)22148_storage))": {
        "encoding": "mapping",
        "key": "t_bytes32",
        "label": "mapping(bytes32 => mapping(address => struct RealitioHomeProxyPolygon.Request))",
        "numberOfBytes": "32",
        "value": "t_mapping(t_address,t_struct(Request)22148_storage)"
      },
      "t_string_storage": {
        "encoding": "bytes",
        "label": "string",
        "numberOfBytes": "32"
      },
      "t_struct(Request)22148_storage": {
        "encoding": "inplace",
        "label": "struct RealitioHomeProxyPolygon.Request",
        "members": [
          {
            "astId": 22145,
            "contract": "src/0.8/RealitioHomeProxyPolygon.sol:RealitioHomeProxyPolygon",
            "label": "status",
            "offset": 0,
            "slot": "0",
            "type": "t_enum(Status)22142"
          },
          {
            "astId": 22147,
            "contract": "src/0.8/RealitioHomeProxyPolygon.sol:RealitioHomeProxyPolygon",
            "label": "arbitratorAnswer",
            "offset": 0,
            "slot": "1",
            "type": "t_bytes32"
          }
        ],
        "numberOfBytes": "64"
      }
    }
  }
}