{
  "address": "0xcB4B48d2A7a44247A00048963F169d2b4Ab045a6",
  "abi": [
    {
      "inputs": [
        {
          "internalType": "contract IRealitio",
          "name": "_realitio",
          "type": "address"
        },
        {
          "internalType": "string",
          "name": "_metadata",
          "type": "string"
        },
        {
          "internalType": "address",
          "name": "_foreignProxy",
          "type": "address"
        },
        {
          "internalType": "uint256",
          "name": "_foreignChainId",
          "type": "uint256"
        }
      ],
      "stateMutability": "nonpayable",
      "type": "constructor"
    },
    {
      "anonymous": false,
      "inputs": [
        {
          "indexed": true,
          "internalType": "bytes32",
          "name": "_questionID",
          "type": "bytes32"
        },
        {
          "indexed": true,
          "internalType": "address",
          "name": "_requester",
          "type": "address"
        }
      ],
      "name": "ArbitrationFailed",
      "type": "event"
    },
    {
      "anonymous": false,
      "inputs": [
        {
          "indexed": true,
          "internalType": "bytes32",
          "name": "_questionID",
          "type": "bytes32"
        }
      ],
      "name": "ArbitrationFinished",
      "type": "event"
    },
    {
      "anonymous": false,
      "inputs": [
        {
          "indexed": true,
          "internalType": "bytes32",
          "name": "_questionID",
          "type": "bytes32"
        },
        {
          "indexed": false,
          "internalType": "bytes32",
          "name": "_answer",
          "type": "bytes32"
        }
      ],
      "name": "ArbitratorAnswered",
      "type": "event"
    },
    {
      "anonymous": false,
      "inputs": [
        {
          "indexed": true,
          "internalType": "bytes32",
          "name": "_questionID",
          "type": "bytes32"
        },
        {
          "indexed": true,
          "internalType": "address",
          "name": "_requester",
          "type": "address"
        }
      ],
      "name": "RequestAcknowledged",
      "type": "event"
    },
    {
      "anonymous": false,
      "inputs": [
        {
          "indexed": true,
          "internalType": "bytes32",
          "name": "_questionID",
          "type": "bytes32"
        },
        {
          "indexed": true,
          "internalType": "address",
          "name": "_requester",
          "type": "address"
        }
      ],
      "name": "RequestCanceled",
      "type": "event"
    },
    {
      "anonymous": false,
      "inputs": [
        {
          "indexed": true,
          "internalType": "bytes32",
          "name": "_questionID",
          "type": "bytes32"
        },
        {
          "indexed": true,
          "internalType": "address",
          "name": "_requester",
          "type": "address"
        },
        {
          "indexed": false,
          "internalType": "uint256",
          "name": "_maxPrevious",
          "type": "uint256"
        }
      ],
      "name": "RequestNotified",
      "type": "event"
    },
    {
      "anonymous": false,
      "inputs": [
        {
          "indexed": true,
          "internalType": "bytes32",
          "name": "_questionID",
          "type": "bytes32"
        },
        {
          "indexed": true,
          "internalType": "address",
          "name": "_requester",
          "type": "address"
        },
        {
          "indexed": false,
          "internalType": "uint256",
          "name": "_maxPrevious",
          "type": "uint256"
        },
        {
          "indexed": false,
          "internalType": "string",
          "name": "_reason",
          "type": "string"
        }
      ],
      "name": "RequestRejected",
      "type": "event"
    },
    {
      "inputs": [],
      "name": "MIN_GAS_LIMIT",
      "outputs": [
        {
          "internalType": "uint32",
          "name": "",
          "type": "uint32"
        }
      ],
      "stateMutability": "view",
      "type": "function"
    },
    {
      "inputs": [],
      "name": "foreignChainId",
      "outputs": [
        {
          "internalType": "bytes32",
          "name": "",
          "type": "bytes32"
        }
      ],
      "stateMutability": "view",
      "type": "function"
    },
    {
      "inputs": [],
      "name": "foreignProxy",
      "outputs": [
        {
          "internalType": "address",
          "name": "",
          "type": "address"
        }
      ],
      "stateMutability": "view",
      "type": "function"
    },
    {
      "inputs": [
        {
          "internalType": "bytes32",
          "name": "_questionID",
          "type": "bytes32"
        },
        {
          "internalType": "address",
          "name": "_requester",
          "type": "address"
        }
      ],
      "name": "handleNotifiedRequest",
      "outputs": [],
      "stateMutability": "nonpayable",
      "type": "function"
    },
    {
      "inputs": [
        {
          "internalType": "bytes32",
          "name": "_questionID",
          "type": "bytes32"
        },
        {
          "internalType": "address",
          "name": "_requester",
          "type": "address"
        }
      ],
      "name": "handleRejectedRequest",
      "outputs": [],
      "stateMutability": "nonpayable",
      "type": "function"
    },
    {
      "inputs": [],
      "name": "messenger",
      "outputs": [
        {
          "internalType": "contract ICrossDomainMessenger",
          "name": "",
          "type": "address"
        }
      ],
      "stateMutability": "view",
      "type": "function"
    },
    {
      "inputs": [],
      "name": "metadata",
      "outputs": [
        {
          "internalType": "string",
          "name": "",
          "type": "string"
        }
      ],
      "stateMutability": "view",
      "type": "function"
    },
    {
      "inputs": [
        {
          "internalType": "bytes32",
          "name": "",
          "type": "bytes32"
        }
      ],
      "name": "questionIDToRequester",
      "outputs": [
        {
          "internalType": "address",
          "name": "",
          "type": "address"
        }
      ],
      "stateMutability": "view",
      "type": "function"
    },
    {
      "inputs": [],
      "name": "realitio",
      "outputs": [
        {
          "internalType": "contract IRealitio",
          "name": "",
          "type": "address"
        }
      ],
      "stateMutability": "view",
      "type": "function"
    },
    {
      "inputs": [
        {
          "internalType": "bytes32",
          "name": "_questionID",
          "type": "bytes32"
        },
        {
          "internalType": "bytes32",
          "name": "_answer",
          "type": "bytes32"
        }
      ],
      "name": "receiveArbitrationAnswer",
      "outputs": [],
      "stateMutability": "nonpayable",
      "type": "function"
    },
    {
      "inputs": [
        {
          "internalType": "bytes32",
          "name": "_questionID",
          "type": "bytes32"
        },
        {
          "internalType": "address",
          "name": "_requester",
          "type": "address"
        }
      ],
      "name": "receiveArbitrationFailure",
      "outputs": [],
      "stateMutability": "nonpayable",
      "type": "function"
    },
    {
      "inputs": [
        {
          "internalType": "bytes32",
          "name": "_questionID",
          "type": "bytes32"
        },
        {
          "internalType": "address",
          "name": "_requester",
          "type": "address"
        },
        {
          "internalType": "uint256",
          "name": "_maxPrevious",
          "type": "uint256"
        }
      ],
      "name": "receiveArbitrationRequest",
      "outputs": [],
      "stateMutability": "nonpayable",
      "type": "function"
    },
    {
      "inputs": [
        {
          "internalType": "bytes32",
          "name": "_questionID",
          "type": "bytes32"
        },
        {
          "internalType": "bytes32",
          "name": "_lastHistoryHash",
          "type": "bytes32"
        },
        {
          "internalType": "bytes32",
          "name": "_lastAnswerOrCommitmentID",
          "type": "bytes32"
        },
        {
          "internalType": "address",
          "name": "_lastAnswerer",
          "type": "address"
        }
      ],
      "name": "reportArbitrationAnswer",
      "outputs": [],
      "stateMutability": "nonpayable",
      "type": "function"
    },
    {
      "inputs": [
        {
          "internalType": "bytes32",
          "name": "",
          "type": "bytes32"
        },
        {
          "internalType": "address",
          "name": "",
          "type": "address"
        }
      ],
      "name": "requests",
      "outputs": [
        {
          "internalType": "enum RealitioHomeProxyOptimism.Status",
          "name": "status",
          "type": "uint8"
        },
        {
          "internalType": "bytes32",
          "name": "arbitratorAnswer",
          "type": "bytes32"
        }
      ],
      "stateMutability": "view",
      "type": "function"
    }
  ],
  "transactionHash": "0x47431a79e14eeae4a20f1a48353ebaa8a1595b2581af9ace36e5b301b2c86e3d",
  "args": [
    "0xB920dBedE88B42aA77eE55ebcE3671132ee856fC",
    "{\"tos\":\"ipfs://QmNV5NWwCudYKfiHuhdWxccrPyxs4DnbLGQace2oMKHkZv/Question_Resolution_Policy.pdf\", \"foreignProxy\":true}",
    "0x122D6B4197531bF4e9314fD00259b1dc1Db7954D",
    1
  ],
  "numDeployments": 1,
  "solcInputHash": "df6967adfff140ad55877edd79fe5918",
  "bytecode": "0x60e060405234801561001057600080fd5b5060405161158f38038061158f83398101604081905261002f916100a0565b6001600160a01b03841660805260006100488482610220565b506001600160a01b0390911660a05260c052506102df9050565b6001600160a01b038116811461007757600080fd5b50565b634e487b7160e01b600052604160045260246000fd5b805161009b81610062565b919050565b600080600080608085870312156100b657600080fd5b84516100c181610062565b602086810151919550906001600160401b03808211156100e057600080fd5b818801915088601f8301126100f457600080fd5b8151818111156101065761010661007a565b604051601f8201601f19908116603f0116810190838211818310171561012e5761012e61007a565b816040528281528b8684870101111561014657600080fd5b600093505b82841015610168578484018601518185018701529285019261014b565b600086848301015280985050505050505061018560408601610090565b6060959095015193969295505050565b600181811c908216806101a957607f821691505b6020821081036101c957634e487b7160e01b600052602260045260246000fd5b50919050565b601f82111561021b576000816000526020600020601f850160051c810160208610156101f85750805b601f850160051c820191505b8181101561021757828155600101610204565b5050505b505050565b81516001600160401b038111156102395761023961007a565b61024d816102478454610195565b846101cf565b602080601f831160018114610282576000841561026a5750858301515b600019600386901b1c1916600185901b178555610217565b600085815260208120601f198616915b828110156102b157888601518255948401946001909101908401610292565b50858210156102cf5787850151600019600388901b60f8161c191681555b5050505050600190811b01905550565b60805160a05160c05161124961034660003960006101cb015260008181610172015281816105880152818161064e015281816108e5015281816109ab0152610ce301526000818161020001528181610390015281816107820152610b0e01526112496000f3fe608060405234801561001057600080fd5b50600436106100ea5760003560e01c806395e088fc1161008c578063c510faf711610066578063c510faf714610235578063c77cccc914610278578063ccd6e8d21461028b578063d75a86e01461029e57600080fd5b806395e088fc146101c6578063bc8802a2146101fb578063bf6569e01461022257600080fd5b80633cb747bf116100c85780633cb747bf1461015f5780636e190f171461016d5780637ce1ffeb1461019457806391602fd7146101b357600080fd5b80631865fed1146100ef578063241a9f8214610135578063392f37e91461014a575b600080fd5b6101186100fd366004610e48565b6002602052600090815260409020546001600160a01b031681565b6040516001600160a01b0390911681526020015b60405180910390f35b610148610143366004610e79565b6102b1565b005b61015261042a565b60405161012c9190610f00565b6101186007602160991b0181565b6101187f000000000000000000000000000000000000000000000000000000000000000081565b61019e6216e36081565b60405163ffffffff909116815260200161012c565b6101486101c1366004610f1a565b6104b8565b6101ed7f000000000000000000000000000000000000000000000000000000000000000081565b60405190815260200161012c565b6101187f000000000000000000000000000000000000000000000000000000000000000081565b610148610230366004610f1a565b610626565b61026a610243366004610f1a565b60016020818152600093845260408085209091529183529120805491015460ff9091169082565b60405161012c929190610f60565b610148610286366004610f1a565b610819565b610148610299366004610f8c565b610983565b6101486102ac366004610fc4565b610cbb565b600084815260026020908152604080832054600183528184206001600160a01b0390911680855292529091206004815460ff1660058111156102f5576102f5610f4a565b146103475760405162461bcd60e51b815260206004820152601c60248201527f41726269747261746f7220686173206e6f742072756c6564207965740000000060448201526064015b60405180910390fd5b60018101546040516335138a4f60e21b81526004810188905260248101919091526001600160a01b038381166044830152606482018790526084820186905284811660a48301527f0000000000000000000000000000000000000000000000000000000000000000169063d44e293c9060c401600060405180830381600087803b1580156103d457600080fd5b505af11580156103e8573d6000803e3d6000fd5b5050825460ff19166005178355505060405186907f2abf2fd86256e4607561adae782a4853682b6c0b976995a9a45c5fc3a175738690600090a2505050505050565b6000805461043790610fe6565b80601f016020809104026020016040519081016040528092919081815260200182805461046390610fe6565b80156104b05780601f10610485576101008083540402835291602001916104b0565b820191906000526020600020905b81548152906001019060200180831161049357829003601f168201915b505050505081565b60008281526001602090815260408083206001600160a01b038516845290915290206002815460ff1660058111156104f2576104f2610f4a565b1461050f5760405162461bcd60e51b815260040161033e90611020565b805460ff1916600317815560408051602481018590526001600160a01b038416604480830191909152825180830390910181526064909101825260208101805163e742e2ed60e01b6001600160e01b0390911681179091529151633dbb202b60e01b81526007602160991b0190633dbb202b906105b7907f00000000000000000000000000000000000000000000000000000000000000009085906216e36090600401611050565b600060405180830381600087803b1580156105d157600080fd5b505af11580156105e5573d6000803e3d6000fd5b50506040516001600160a01b03871692508791507fff09615c531ab8799ea1c67a0952ddbef1c864ef91d390995d0dc07656f4210f90600090a35050505050565b336007602160991b011461064c5760405162461bcd60e51b815260040161033e9061108a565b7f00000000000000000000000000000000000000000000000000000000000000006001600160a01b03166007602160991b016001600160a01b0316636e296e456040518163ffffffff1660e01b8152600401602060405180830381865afa1580156106bb573d6000803e3d6000fd5b505050506040513d601f19601f820116820180604052508101906106df91906110b1565b6001600160a01b0316146107055760405162461bcd60e51b815260040161033e906110ce565b60008281526001602090815260408083206001600160a01b038516845290915290206003815460ff16600581111561073f5761073f610f4a565b1461075c5760405162461bcd60e51b815260040161033e90611020565b805460ff19168155604051630ebbdd2b60e41b8152600481018490526001600160a01b037f0000000000000000000000000000000000000000000000000000000000000000169063ebbdd2b090602401600060405180830381600087803b1580156107c657600080fd5b505af11580156107da573d6000803e3d6000fd5b50506040516001600160a01b03851692508591507f9beda0c81abc1c65da7685f113195974dfddb781dfde6263e5a1b13a5356ffad90600090a3505050565b60008281526001602081815260408084206001600160a01b038616855290915290912090815460ff16600581111561085357610853610f4a565b146108705760405162461bcd60e51b815260040161033e90611020565b805460ff1916815560408051602481018590526001600160a01b03841660448083019190915282518083039091018152606490910182526020810180516001600160e01b03166317c4df9160e31b9081179091529151633dbb202b60e01b81526007602160991b0190633dbb202b90610914907f00000000000000000000000000000000000000000000000000000000000000009085906216e36090600401611050565b600060405180830381600087803b15801561092e57600080fd5b505af1158015610942573d6000803e3d6000fd5b50506040516001600160a01b03871692508791507ff313a768599b60b7f8aedb7757d867d09463365b79b55b86ed3c961e6da5a24990600090a35050505050565b336007602160991b01146109a95760405162461bcd60e51b815260040161033e9061108a565b7f00000000000000000000000000000000000000000000000000000000000000006001600160a01b03166007602160991b016001600160a01b0316636e296e456040518163ffffffff1660e01b8152600401602060405180830381865afa158015610a18573d6000803e3d6000fd5b505050506040513d601f19601f82011682018060405250810190610a3c91906110b1565b6001600160a01b031614610a625760405162461bcd60e51b815260040161033e906110ce565b60008381526001602090815260408083206001600160a01b0386168452909152812090815460ff166005811115610a9b57610a9b610f4a565b14610ae15760405162461bcd60e51b81526020600482015260166024820152755265717565737420616c72656164792065786973747360501b604482015260640161033e565b60405163f6a94ecb60e01b8152600481018590526001600160a01b038481166024830152604482018490527f0000000000000000000000000000000000000000000000000000000000000000169063f6a94ecb90606401600060405180830381600087803b158015610b5257600080fd5b505af1925050508015610b63575060015b610c4657610b6f611111565b806308c379a003610be65750610b83611168565b80610b8e5750610be8565b815460ff191660011782556040516001600160a01b0385169086907ff677e762f2ddc710deec335dd0cfa8a65cc9c9c351b268243be8629f2e8d1b5f90610bd890879086906111f2565b60405180910390a350610cb5565b505b805460ff19166001178155604080518381526020810182905260008183015290516001600160a01b0385169186917ff677e762f2ddc710deec335dd0cfa8a65cc9c9c351b268243be8629f2e8d1b5f916060908290030190a3610cb5565b805460ff1916600290811782556000858152602091825260409081902080546001600160a01b0387166001600160a01b031990911681179091559051848152909186917ff56e18fc84dbd66db78337b5bd0973943fa70c9b52243a540bdac79274f6682d910160405180910390a35b50505050565b336007602160991b0114610ce15760405162461bcd60e51b815260040161033e9061108a565b7f00000000000000000000000000000000000000000000000000000000000000006001600160a01b03166007602160991b016001600160a01b0316636e296e456040518163ffffffff1660e01b8152600401602060405180830381865afa158015610d50573d6000803e3d6000fd5b505050506040513d601f19601f82011682018060405250810190610d7491906110b1565b6001600160a01b031614610d9a5760405162461bcd60e51b815260040161033e906110ce565b600082815260026020908152604080832054600183528184206001600160a01b0390911680855292529091206003815460ff166005811115610dde57610dde610f4a565b14610dfb5760405162461bcd60e51b815260040161033e90611020565b805460ff191660041781556001810183905560405183815284907f1813d15d8cef51cff8bbd419a8e13e0655c1babea320dea4174d5e7bc40c42949060200160405180910390a250505050565b600060208284031215610e5a57600080fd5b5035919050565b6001600160a01b0381168114610e7657600080fd5b50565b60008060008060808587031215610e8f57600080fd5b8435935060208501359250604085013591506060850135610eaf81610e61565b939692955090935050565b6000815180845260005b81811015610ee057602081850181015186830182015201610ec4565b506000602082860101526020601f19601f83011685010191505092915050565b602081526000610f136020830184610eba565b9392505050565b60008060408385031215610f2d57600080fd5b823591506020830135610f3f81610e61565b809150509250929050565b634e487b7160e01b600052602160045260246000fd5b6040810160068410610f8257634e487b7160e01b600052602160045260246000fd5b9281526020015290565b600080600060608486031215610fa157600080fd5b833592506020840135610fb381610e61565b929592945050506040919091013590565b60008060408385031215610fd757600080fd5b50508035926020909101359150565b600181811c90821680610ffa57607f821691505b60208210810361101a57634e487b7160e01b600052602260045260246000fd5b50919050565b602080825260169082015275496e76616c696420726571756573742073746174757360501b604082015260600190565b6001600160a01b038416815260606020820181905260009061107490830185610eba565b905063ffffffff83166040830152949350505050565b6020808252600d908201526c2727aa2fa6a2a9a9a2a723a2a960991b604082015260600190565b6000602082840312156110c357600080fd5b8151610f1381610e61565b60208082526023908201527f43616e206f6e6c792062652063616c6c656420627920466f726569676e2050726040820152626f787960e81b606082015260800190565b600060033d111561112a5760046000803e5060005160e01c5b90565b601f8201601f1916810167ffffffffffffffff8111828210171561116157634e487b7160e01b600052604160045260246000fd5b6040525050565b600060443d10156111765790565b6040516003193d81016004833e81513d67ffffffffffffffff81602484011181841117156111a657505050505090565b82850191508151818111156111be5750505050505090565b843d87010160208285010111156111d85750505050505090565b6111e76020828601018761112d565b509095945050505050565b82815260406020820152600061120b6040830184610eba565b94935050505056fea264697066735822122035a8b905750a3b408ffe72ef58943b2a9a61bb8704353ea72f864b45ccbfa78064736f6c63430008190033",
  "devdoc": {
    "details": "https://docs.optimism.io/builders/app-developers/bridging/messaging",
    "events": {
      "ArbitrationFailed(bytes32,address)": {
        "details": "This will happen if the arbitration fee increases in between the arbitration request and acknowledgement.",
        "params": {
          "_questionID": "The ID of the question.",
          "_requester": "The address of the arbitration requester."
        }
      },
      "ArbitrationFinished(bytes32)": {
        "params": {
          "_questionID": "The ID of the question."
        }
      },
      "ArbitratorAnswered(bytes32,bytes32)": {
        "params": {
          "_answer": "The answer from the arbitrator.",
          "_questionID": "The ID of the question."
        }
      },
      "RequestAcknowledged(bytes32,address)": {
        "params": {
          "_questionID": "The ID of the question.",
          "_requester": "The address of the arbitration requester."
        }
      },
      "RequestCanceled(bytes32,address)": {
        "params": {
          "_questionID": "The ID of the question.",
          "_requester": "The address of the arbitration requester."
        }
      },
      "RequestNotified(bytes32,address,uint256)": {
        "params": {
          "_maxPrevious": "The maximum value of the previous bond for the question.",
          "_questionID": "The ID of the question.",
          "_requester": "The address of the arbitration requester."
        }
      },
      "RequestRejected(bytes32,address,uint256,string)": {
        "details": "This can happen if the current bond for the question is higher than maxPrevious or if the question is already finalized.",
        "params": {
          "_maxPrevious": "The maximum value of the current bond for the question.",
          "_questionID": "The ID of the question.",
          "_reason": "The reason why the request was rejected.",
          "_requester": "The address of the arbitration requester."
        }
      }
    },
    "kind": "dev",
    "methods": {
      "constructor": {
        "params": {
          "_foreignChainId": "The ID of foreign chain (Sepolia/Mainnet).",
          "_foreignProxy": "Address of the proxy on L1. Note that it needs to be precomputed before deployment by using deployer's address and tx nonce.",
          "_metadata": "Metadata for Realitio.",
          "_realitio": "Realitio contract address."
        }
      },
      "handleNotifiedRequest(bytes32,address)": {
        "details": "Relays arbitration request back to L1 after it has been notified by Realitio for a given question.",
        "params": {
          "_questionID": "The ID of the question.",
          "_requester": "The address of the user that requested arbitration."
        }
      },
      "handleRejectedRequest(bytes32,address)": {
        "details": "Relays arbitration request back to L1 after it has been rejected. Reasons why the request might be rejected:  - The question does not exist  - The question was not answered yet  - The quesiton bond value changed while the arbitration was being requested  - Another request was already accepted",
        "params": {
          "_questionID": "The ID of the question.",
          "_requester": "The address of the user that requested arbitration."
        }
      },
      "receiveArbitrationAnswer(bytes32,bytes32)": {
        "params": {
          "_answer": "The answer from the arbitrator.",
          "_questionID": "The ID of the question."
        }
      },
      "receiveArbitrationFailure(bytes32,address)": {
        "details": "Currently this can happen only if the arbitration cost increased.",
        "params": {
          "_questionID": "The ID of the question.",
          "_requester": "The address of the user that requested arbitration."
        }
      },
      "receiveArbitrationRequest(bytes32,address,uint256)": {
        "details": "Receives the requested arbitration for a question. TRUSTED.",
        "params": {
          "_maxPrevious": "The maximum value of the previous bond for the question.",
          "_questionID": "The ID of the question.",
          "_requester": "The address of the user that requested arbitration."
        }
      },
      "reportArbitrationAnswer(bytes32,bytes32,bytes32,address)": {
        "details": "The Realitio contract validates the input parameters passed to this method, so making this publicly accessible is safe.",
        "params": {
          "_lastAnswerOrCommitmentID": "The last answer given, or its commitment ID if it was a commitment, to the question in the Realitio contract.",
          "_lastAnswerer": "The last answerer to the question in the Realitio contract.",
          "_lastHistoryHash": "The history hash given with the last answer to the question in the Realitio contract.",
          "_questionID": "The ID of the question."
        }
      }
    },
    "stateVariables": {
      "foreignChainId": {
        "details": "ID of the foreign chain, required for Realitio."
      },
      "foreignProxy": {
        "details": "Address of the proxy on L1. Note that it needs to be precomputed before deployment by using deployer's address and tx nonce."
      },
      "metadata": {
        "details": "Metadata for Realitio interface."
      },
      "questionIDToRequester": {
        "details": "Associates a question ID with the requester who succeeded in requesting arbitration. questionIDToRequester[questionID]"
      },
      "realitio": {
        "details": "The address of the Realitio contract (v3.0 required). TRUSTED."
      },
      "requests": {
        "details": "Associates an arbitration request with a question ID and a requester address. requests[questionID][requester]"
      }
    },
    "title": "Arbitration proxy for Realitio on home chain (eg. Optimism, Unichain, Redstone etc).",
    "version": 1
  },
  "userdoc": {
    "events": {
      "ArbitrationFailed(bytes32,address)": {
        "notice": "To be emitted when the dispute could not be created on the Foreign Chain."
      },
      "ArbitrationFinished(bytes32)": {
        "notice": "To be emitted when reporting the arbitrator answer to Realitio."
      },
      "ArbitratorAnswered(bytes32,bytes32)": {
        "notice": "To be emitted when receiving the answer from the arbitrator."
      },
      "RequestAcknowledged(bytes32,address)": {
        "notice": "To be emitted when the arbitration request acknowledgement is sent to the Foreign Chain."
      },
      "RequestCanceled(bytes32,address)": {
        "notice": "To be emitted when the arbitration request is canceled."
      },
      "RequestNotified(bytes32,address,uint256)": {
        "notice": "To be emitted when the Realitio contract has been notified of an arbitration request."
      },
      "RequestRejected(bytes32,address,uint256,string)": {
        "notice": "To be emitted when arbitration request is rejected."
      }
    },
    "kind": "user",
    "methods": {
      "constructor": {
        "notice": "Creates an arbitration proxy on the home chain."
      },
      "receiveArbitrationAnswer(bytes32,bytes32)": {
        "notice": "Receives an answer to a specified question. TRUSTED."
      },
      "receiveArbitrationFailure(bytes32,address)": {
        "notice": "Receives a failed attempt to request arbitration. TRUSTED."
      },
      "reportArbitrationAnswer(bytes32,bytes32,bytes32,address)": {
        "notice": "Reports the answer provided by the arbitrator to a specified question."
      }
    },
    "version": 1
  },
  "storageLayout": {
    "storage": [
      {
        "astId": 20689,
        "contract": "src/0.8/RealitioHomeProxyOptimism.sol:RealitioHomeProxyOptimism",
        "label": "metadata",
        "offset": 0,
        "slot": "0",
        "type": "t_string_storage"
      },
      {
        "astId": 20710,
        "contract": "src/0.8/RealitioHomeProxyOptimism.sol:RealitioHomeProxyOptimism",
        "label": "requests",
        "offset": 0,
        "slot": "1",
        "type": "t_mapping(t_bytes32,t_mapping(t_address,t_struct(Request)20702_storage))"
      },
      {
        "astId": 20715,
        "contract": "src/0.8/RealitioHomeProxyOptimism.sol:RealitioHomeProxyOptimism",
        "label": "questionIDToRequester",
        "offset": 0,
        "slot": "2",
        "type": "t_mapping(t_bytes32,t_address)"
      }
    ],
    "types": {
      "t_address": {
        "encoding": "inplace",
        "label": "address",
        "numberOfBytes": "20"
      },
      "t_bytes32": {
        "encoding": "inplace",
        "label": "bytes32",
        "numberOfBytes": "32"
      },
      "t_enum(Status)20696": {
        "encoding": "inplace",
        "label": "enum RealitioHomeProxyOptimism.Status",
        "numberOfBytes": "1"
      },
      "t_mapping(t_address,t_struct(Request)20702_storage)": {
        "encoding": "mapping",
        "key": "t_address",
        "label": "mapping(address => struct RealitioHomeProxyOptimism.Request)",
        "numberOfBytes": "32",
        "value": "t_struct(Request)20702_storage"
      },
      "t_mapping(t_bytes32,t_address)": {
        "encoding": "mapping",
        "key": "t_bytes32",
        "label": "mapping(bytes32 => address)",
        "numberOfBytes": "32",
        "value": "t_address"
      },
      "t_mapping(t_bytes32,t_mapping(t_address,t_struct(Request)20702_storage))": {
        "encoding": "mapping",
        "key": "t_bytes32",
        "label": "mapping(bytes32 => mapping(address => struct RealitioHomeProxyOptimism.Request))",
        "numberOfBytes": "32",
        "value": "t_mapping(t_address,t_struct(Request)20702_storage)"
      },
      "t_string_storage": {
        "encoding": "bytes",
        "label": "string",
        "numberOfBytes": "32"
      },
      "t_struct(Request)20702_storage": {
        "encoding": "inplace",
        "label": "struct RealitioHomeProxyOptimism.Request",
        "members": [
          {
            "astId": 20699,
            "contract": "src/0.8/RealitioHomeProxyOptimism.sol:RealitioHomeProxyOptimism",
            "label": "status",
            "offset": 0,
            "slot": "0",
            "type": "t_enum(Status)20696"
          },
          {
            "astId": 20701,
            "contract": "src/0.8/RealitioHomeProxyOptimism.sol:RealitioHomeProxyOptimism",
            "label": "arbitratorAnswer",
            "offset": 0,
            "slot": "1",
            "type": "t_bytes32"
          }
        ],
        "numberOfBytes": "64"
      }
    }
  }
}