{
  "address": "0x13ccA7276d429691f7be5A151D528401AB8BF43d",
  "abi": [
    {
      "inputs": [
        {
          "internalType": "contract IAMB",
          "name": "_amb",
          "type": "address"
        },
        {
          "internalType": "contract RealitioInterface",
          "name": "_realitio",
          "type": "address"
        }
      ],
      "stateMutability": "nonpayable",
      "type": "constructor"
    },
    {
      "anonymous": false,
      "inputs": [
        {
          "indexed": true,
          "internalType": "bytes32",
          "name": "_questionID",
          "type": "bytes32"
        }
      ],
      "name": "ArbitrationCompleted",
      "type": "event"
    },
    {
      "anonymous": false,
      "inputs": [
        {
          "indexed": true,
          "internalType": "bytes32",
          "name": "_questionID",
          "type": "bytes32"
        }
      ],
      "name": "ArbitrationFailed",
      "type": "event"
    },
    {
      "anonymous": false,
      "inputs": [
        {
          "indexed": true,
          "internalType": "bytes32",
          "name": "_questionID",
          "type": "bytes32"
        },
        {
          "indexed": false,
          "internalType": "bytes32",
          "name": "_answer",
          "type": "bytes32"
        }
      ],
      "name": "ArbitratorAnswered",
      "type": "event"
    },
    {
      "anonymous": false,
      "inputs": [
        {
          "indexed": true,
          "internalType": "bytes32",
          "name": "_questionID",
          "type": "bytes32"
        }
      ],
      "name": "RequestAcknowledged",
      "type": "event"
    },
    {
      "anonymous": false,
      "inputs": [
        {
          "indexed": true,
          "internalType": "bytes32",
          "name": "_questionID",
          "type": "bytes32"
        }
      ],
      "name": "RequestCanceled",
      "type": "event"
    },
    {
      "anonymous": false,
      "inputs": [
        {
          "indexed": true,
          "internalType": "bytes32",
          "name": "_questionID",
          "type": "bytes32"
        },
        {
          "indexed": false,
          "internalType": "bytes32",
          "name": "_contestedAnswer",
          "type": "bytes32"
        },
        {
          "indexed": true,
          "internalType": "address",
          "name": "_requester",
          "type": "address"
        }
      ],
      "name": "RequestNotified",
      "type": "event"
    },
    {
      "anonymous": false,
      "inputs": [
        {
          "indexed": true,
          "internalType": "bytes32",
          "name": "_questionID",
          "type": "bytes32"
        },
        {
          "indexed": false,
          "internalType": "bytes32",
          "name": "_contestedAnswer",
          "type": "bytes32"
        },
        {
          "indexed": true,
          "internalType": "address",
          "name": "_requester",
          "type": "address"
        }
      ],
      "name": "RequestRejected",
      "type": "event"
    },
    {
      "inputs": [],
      "name": "amb",
      "outputs": [
        {
          "internalType": "contract IAMB",
          "name": "",
          "type": "address"
        }
      ],
      "stateMutability": "view",
      "type": "function"
    },
    {
      "inputs": [],
      "name": "foreignChainId",
      "outputs": [
        {
          "internalType": "uint256",
          "name": "",
          "type": "uint256"
        }
      ],
      "stateMutability": "view",
      "type": "function"
    },
    {
      "inputs": [],
      "name": "foreignProxy",
      "outputs": [
        {
          "internalType": "address",
          "name": "",
          "type": "address"
        }
      ],
      "stateMutability": "view",
      "type": "function"
    },
    {
      "inputs": [],
      "name": "governor",
      "outputs": [
        {
          "internalType": "address",
          "name": "",
          "type": "address"
        }
      ],
      "stateMutability": "view",
      "type": "function"
    },
    {
      "inputs": [
        {
          "internalType": "bytes32",
          "name": "_questionID",
          "type": "bytes32"
        }
      ],
      "name": "handleNotifiedRequest",
      "outputs": [],
      "stateMutability": "nonpayable",
      "type": "function"
    },
    {
      "inputs": [
        {
          "internalType": "bytes32",
          "name": "_questionID",
          "type": "bytes32"
        }
      ],
      "name": "handleRejectedRequest",
      "outputs": [],
      "stateMutability": "nonpayable",
      "type": "function"
    },
    {
      "inputs": [],
      "name": "metadata",
      "outputs": [
        {
          "internalType": "string",
          "name": "",
          "type": "string"
        }
      ],
      "stateMutability": "view",
      "type": "function"
    },
    {
      "inputs": [
        {
          "internalType": "bytes32",
          "name": "",
          "type": "bytes32"
        }
      ],
      "name": "questionIDToRequest",
      "outputs": [
        {
          "internalType": "enum RealitioHomeArbitrationProxy.Status",
          "name": "status",
          "type": "uint8"
        },
        {
          "internalType": "address",
          "name": "requester",
          "type": "address"
        },
        {
          "internalType": "bytes32",
          "name": "requesterAnswer",
          "type": "bytes32"
        },
        {
          "internalType": "bytes32",
          "name": "arbitratorAnswer",
          "type": "bytes32"
        }
      ],
      "stateMutability": "view",
      "type": "function"
    },
    {
      "inputs": [],
      "name": "realitio",
      "outputs": [
        {
          "internalType": "contract RealitioInterface",
          "name": "",
          "type": "address"
        }
      ],
      "stateMutability": "view",
      "type": "function"
    },
    {
      "inputs": [
        {
          "internalType": "bytes32",
          "name": "_questionID",
          "type": "bytes32"
        },
        {
          "internalType": "bytes32",
          "name": "_answer",
          "type": "bytes32"
        }
      ],
      "name": "receiveArbitrationAnswer",
      "outputs": [],
      "stateMutability": "nonpayable",
      "type": "function"
    },
    {
      "inputs": [
        {
          "internalType": "bytes32",
          "name": "_questionID",
          "type": "bytes32"
        }
      ],
      "name": "receiveArbitrationFailure",
      "outputs": [],
      "stateMutability": "nonpayable",
      "type": "function"
    },
    {
      "inputs": [
        {
          "internalType": "bytes32",
          "name": "_questionID",
          "type": "bytes32"
        },
        {
          "internalType": "bytes32",
          "name": "_contestedAnswer",
          "type": "bytes32"
        },
        {
          "internalType": "address",
          "name": "_requester",
          "type": "address"
        }
      ],
      "name": "receiveArbitrationRequest",
      "outputs": [],
      "stateMutability": "nonpayable",
      "type": "function"
    },
    {
      "inputs": [
        {
          "internalType": "bytes32",
          "name": "_questionID",
          "type": "bytes32"
        },
        {
          "internalType": "bytes32",
          "name": "_lastHistoryHash",
          "type": "bytes32"
        },
        {
          "internalType": "bytes32",
          "name": "_lastAnswerOrCommitmentID",
          "type": "bytes32"
        },
        {
          "internalType": "address",
          "name": "_lastAnswerer",
          "type": "address"
        }
      ],
      "name": "reportArbitrationAnswer",
      "outputs": [],
      "stateMutability": "nonpayable",
      "type": "function"
    },
    {
      "inputs": [
        {
          "internalType": "address",
          "name": "_foreignProxy",
          "type": "address"
        },
        {
          "internalType": "uint256",
          "name": "_foreignChainId",
          "type": "uint256"
        }
      ],
      "name": "setForeignProxy",
      "outputs": [],
      "stateMutability": "nonpayable",
      "type": "function"
    },
    {
      "inputs": [
        {
          "internalType": "address",
          "name": "_governor",
          "type": "address"
        }
      ],
      "name": "setGovernor",
      "outputs": [],
      "stateMutability": "nonpayable",
      "type": "function"
    }
  ],
  "transactionHash": "0xc137d45eb0f88b7ef7f806160fe0489b256729dca275468907dae9f41ac89691",
  "args": [
    "0xFe446bEF1DbF7AFE24E81e05BC8B271C1BA9a560",
    "0x63975d9e7CF434dCd04bD808d8c79d03EF69100B"
  ],
  "solcInputHash": "0b72b022efda440fa884fe9c33f73a41",
  "bytecode": "0x60c0604052600080546001600160a01b0319163317905534801561002257600080fd5b506040516115983803806115988339818101604052604081101561004557600080fd5b5080516020909101516001600160601b0319606092831b811660a052911b1660805260805160601c60a05160601c6114c76100d160003980610370528061057f52806106055280610a8e5280610d225280610f6d5280610ff35280611184528061120a52508061048a528061073d52806107f252806109215280610ec7528061138252506114c76000f3fe608060405234801561001057600080fd5b50600436106100f55760003560e01c80636e190f1711610097578063c42cf53511610066578063c42cf535146102cd578063d75a86e0146102f3578063e6e1b3b614610316578063e84f00e914610333576100f5565b80636e190f17146102865780638b046ca71461028e57806395e088fc146102ab578063bc8802a2146102c5576100f5565b8063241a9f82116100d3578063241a9f8214610180578063392f37e9146101ba5780634d274aee1461023757806350101ed314610269576100f5565b80630c340a24146100fa5780631062b39a1461011e57806322d8abf314610126575b600080fd5b61010261035f565b604080516001600160a01b039092168252519081900360200190f35b61010261036e565b6101436004803603602081101561013c57600080fd5b5035610392565b6040518085600481111561015357fe5b81526001600160a01b03909416602085015250604080840192909252606083015251908190036080019150f35b6101b86004803603608081101561019657600080fd5b50803590602081013590604081013590606001356001600160a01b03166103c6565b005b6101c2610543565b6040805160208082528351818301528351919283929083019185019080838360005b838110156101fc5781810151838201526020016101e4565b50505050905090810190601f1680156102295780820380516001836020036101000a031916815260200191505b509250505060405180910390f35b6101b86004803603606081101561024d57600080fd5b50803590602081013590604001356001600160a01b0316610574565b6101b86004803603602081101561027f57600080fd5b50356109c7565b610102610c2d565b6101b8600480360360208110156102a457600080fd5b5035610c3c565b6102b3610ebf565b60408051918252519081900360200190f35b610102610ec5565b6101b8600480360360208110156102e357600080fd5b50356001600160a01b0316610ee9565b6101b86004803603604081101561030957600080fd5b5080359060200135610f62565b6101b86004803603602081101561032c57600080fd5b5035611179565b6101b86004803603604081101561034957600080fd5b506001600160a01b038135169060200135611414565b6000546001600160a01b031681565b7f000000000000000000000000000000000000000000000000000000000000000081565b60036020526000908152604090208054600182015460029092015460ff8216926101009092046001600160a01b0316919084565b60008481526003602052604090206004815460ff1660048111156103e657fe5b14610438576040805162461bcd60e51b815260206004820152601c60248201527f41726269747261746f7220686173206e6f742072756c65642079657400000000604482015290519081900360640190fd5b60028101548154604080516335138a4f60e21b81526004810189905260248101939093526001600160a01b0361010090920482166044840152606483018790526084830186905284821660a4840152517f00000000000000000000000000000000000000000000000000000000000000009091169163d44e293c9160c480830192600092919082900301818387803b1580156104d357600080fd5b505af11580156104e7573d6000803e3d6000fd5b50505060008681526003602052604080822080546001600160a81b031916815560018101839055600201829055518792507fed3e4b5eff9493ac70f063ff7964ab6eb3619cafe41506857741b2e48e924c3b9190a25050505050565b604051806040016040528060158152602001747b22666f726569676e50726f7879223a747275657d60581b81525081565b336001600160a01b037f000000000000000000000000000000000000000000000000000000000000000016146105e4576040805162461bcd60e51b815260206004820152601060248201526f13db9b1e4810535088185b1b1bddd95960821b604482015290519081900360640190fd5b6001546040805163d67bdd2560e01b815290516001600160a01b03928316927f0000000000000000000000000000000000000000000000000000000000000000169163d67bdd25916004808301926020929190829003018186803b15801561064b57600080fd5b505afa15801561065f573d6000803e3d6000fd5b505050506040513d602081101561067557600080fd5b50516001600160a01b0316146106cf576040805162461bcd60e51b815260206004820152601a60248201527913db9b1e48199bdc995a59db881c1c9bde1e48185b1b1bddd95960321b604482015290519081900360640190fd5b600083815260036020526040812090815460ff1660048111156106ee57fe5b14610739576040805162461bcd60e51b81526020600482015260166024820152755265717565737420616c72656164792065786973747360501b604482015290519081900360640190fd5b60007f00000000000000000000000000000000000000000000000000000000000000006001600160a01b0316637f8d429e866040518263ffffffff1660e01b81526004018082815260200191505060206040518083038186803b15801561079f57600080fd5b505afa1580156107b3573d6000803e3d6000fd5b505050506040513d60208110156107c957600080fd5b5051604080516346aa96a360e11b81526004810188905290519192506000916001600160a01b037f00000000000000000000000000000000000000000000000000000000000000001691638d552d46916024808301926020929190829003018186803b15801561083857600080fd5b505afa15801561084c573d6000803e3d6000fd5b505050506040513d602081101561086257600080fd5b5051905081806108725750848114155b156108c857825460ff191660011783556040805186815290516001600160a01b0386169188917f505c6b33937ba1c7bcfdcc208ea84cd66a66bac1e59de92b7ff784d722741e42916020908290030190a36109bf565b825460ff196001600160a01b038681166101008102610100600160a81b0319909416939093179190911660021785556040805163f6a94ecb60e01b8152600481018a9052602481019390935260006044840181905290517f00000000000000000000000000000000000000000000000000000000000000009092169263f6a94ecb926064808301939282900301818387803b15801561096657600080fd5b505af115801561097a573d6000803e3d6000fd5b50506040805188815290516001600160a01b03881693508992507f6f066f0a8c7c11806be5f3b5b04dd89e76a1b67a44fd8762a27916c3742fecd49181900360200190a35b505050505050565b60008181526003602052604090206002815460ff1660048111156109e757fe5b14610a32576040805162461bcd60e51b8152602060048201526016602482015275496e76616c696420726571756573742073746174757360501b604482015290519081900360640190fd5b805460ff19166003178155604080516024808201859052825180830390910181526044909101825260208082018051633e58db4560e21b6001600160e01b039091168117909152600154845163e5789d0360e01b8152945191947f00000000000000000000000000000000000000000000000000000000000000006001600160a01b039081169463dc8601b39491909316928692869263e5789d0392600480840193919291829003018186803b158015610aeb57600080fd5b505afa158015610aff573d6000803e3d6000fd5b505050506040513d6020811015610b1557600080fd5b50516040516001600160e01b031960e086901b1681526001600160a01b038416600482019081526044820183905260606024830190815284516064840152845191929091608490910190602086019080838360005b83811015610b82578181015183820152602001610b6a565b50505050905090810190601f168015610baf5780820380516001836020036101000a031916815260200191505b50945050505050602060405180830381600087803b158015610bd057600080fd5b505af1158015610be4573d6000803e3d6000fd5b505050506040513d6020811015610bfa57600080fd5b505060405184907fdc27e462533b1501e51699f0029f54dc934b0c4afdc1d3dfdaab131a8de5288e90600090a250505050565b6001546001600160a01b031681565b60008181526003602052604090206001815460ff166004811115610c5c57fe5b14610ca7576040805162461bcd60e51b8152602060048201526016602482015275496e76616c696420726571756573742073746174757360501b604482015290519081900360640190fd5b600082815260036020908152604080832080546001600160a81b0319168155600180820185905560029091019390935580516024808201879052825180830390910181526044909101825280830180516001600160e01b0316630ebbdd2b60e41b9081179091529354825163e5789d0360e01b8152925191937f00000000000000000000000000000000000000000000000000000000000000006001600160a01b039081169463dc8601b39493909116928692869263e5789d039260048083019392829003018186803b158015610d7d57600080fd5b505afa158015610d91573d6000803e3d6000fd5b505050506040513d6020811015610da757600080fd5b50516040516001600160e01b031960e086901b1681526001600160a01b038416600482019081526044820183905260606024830190815284516064840152845191929091608490910190602086019080838360005b83811015610e14578181015183820152602001610dfc565b50505050905090810190601f168015610e415780820380516001836020036101000a031916815260200191505b50945050505050602060405180830381600087803b158015610e6257600080fd5b505af1158015610e76573d6000803e3d6000fd5b505050506040513d6020811015610e8c57600080fd5b505060405184907f7efba54574fc3f1379813d6e09d06b5e9913bd264f1468a34879d577d2110f5490600090a250505050565b60025481565b7f000000000000000000000000000000000000000000000000000000000000000081565b6000546001600160a01b03163314610f40576040805162461bcd60e51b815260206004820152601560248201527413db9b1e4819dbdd995c9b9bdc88185b1b1bddd959605a1b604482015290519081900360640190fd5b600080546001600160a01b0319166001600160a01b0392909216919091179055565b336001600160a01b037f00000000000000000000000000000000000000000000000000000000000000001614610fd2576040805162461bcd60e51b815260206004820152601060248201526f13db9b1e4810535088185b1b1bddd95960821b604482015290519081900360640190fd5b6001546040805163d67bdd2560e01b815290516001600160a01b03928316927f0000000000000000000000000000000000000000000000000000000000000000169163d67bdd25916004808301926020929190829003018186803b15801561103957600080fd5b505afa15801561104d573d6000803e3d6000fd5b505050506040513d602081101561106357600080fd5b50516001600160a01b0316146110bd576040805162461bcd60e51b815260206004820152601a60248201527913db9b1e48199bdc995a59db881c1c9bde1e48185b1b1bddd95960321b604482015290519081900360640190fd5b600082815260036020819052604090912090815460ff1660048111156110df57fe5b1461112a576040805162461bcd60e51b8152602060048201526016602482015275496e76616c696420726571756573742073746174757360501b604482015290519081900360640190fd5b8054600460ff199091161781556002810182905560408051838152905184917f1813d15d8cef51cff8bbd419a8e13e0655c1babea320dea4174d5e7bc40c4294919081900360200190a2505050565b336001600160a01b037f000000000000000000000000000000000000000000000000000000000000000016146111e9576040805162461bcd60e51b815260206004820152601060248201526f13db9b1e4810535088185b1b1bddd95960821b604482015290519081900360640190fd5b6001546040805163d67bdd2560e01b815290516001600160a01b03928316927f0000000000000000000000000000000000000000000000000000000000000000169163d67bdd25916004808301926020929190829003018186803b15801561125057600080fd5b505afa158015611264573d6000803e3d6000fd5b505050506040513d602081101561127a57600080fd5b50516001600160a01b0316146112d4576040805162461bcd60e51b815260206004820152601a60248201527913db9b1e48199bdc995a59db881c1c9bde1e48185b1b1bddd95960321b604482015290519081900360640190fd5b600081815260036020819052604090912090815460ff1660048111156112f657fe5b14611341576040805162461bcd60e51b8152602060048201526016602482015275496e76616c696420726571756573742073746174757360501b604482015290519081900360640190fd5b60008281526003602052604080822080546001600160a81b0319168155600181018390556002018290558051630ebbdd2b60e41b81526004810185905290517f00000000000000000000000000000000000000000000000000000000000000006001600160a01b03169263ebbdd2b0926024808201939182900301818387803b1580156113cd57600080fd5b505af11580156113e1573d6000803e3d6000fd5b50506040518492507f771bd0f0f064339da626238870be0bd3b8729b56b36a969926004c77065c95879150600090a25050565b6000546001600160a01b0316331461146b576040805162461bcd60e51b815260206004820152601560248201527413db9b1e4819dbdd995c9b9bdc88185b1b1bddd959605a1b604482015290519081900360640190fd5b600180546001600160a01b0319166001600160a01b03939093169290921790915560025556fea2646970667358221220e23892971750775025862b1ac18fcfb75a39d48b5ce752ac6e6416fdef08ef5164736f6c63430007040033",
  "devdoc": {
    "events": {
      "ArbitrationCompleted(bytes32)": {
        "details": "To be emitted when reporting the arbitrator answer to Realitio.",
        "params": {
          "_questionID": "The ID of the question."
        }
      },
      "ArbitrationFailed(bytes32)": {
        "details": "To be emitted when the dispute could not be created on the Foreign Chain.",
        "params": {
          "_questionID": "The ID of the question."
        }
      },
      "ArbitratorAnswered(bytes32,bytes32)": {
        "details": "To be emitted when receiving the answer from the arbitrator.",
        "params": {
          "_answer": "The answer from the arbitrator.",
          "_questionID": "The ID of the question."
        }
      },
      "RequestAcknowledged(bytes32)": {
        "details": "To be emitted when there arbitration request acknowledgement is sent to the Foreign Chain.",
        "params": {
          "_questionID": "The ID of the question."
        }
      },
      "RequestCanceled(bytes32)": {
        "details": "To be emitted when there arbitration request is canceled.",
        "params": {
          "_questionID": "The ID of the question."
        }
      },
      "RequestNotified(bytes32,bytes32,address)": {
        "details": "To be emitted when the Realitio contract has been notified of an arbitration request.",
        "params": {
          "_contestedAnswer": "The answer the requester deem to be correct.",
          "_questionID": "The ID of the question.",
          "_requester": "The address of the user that requested arbitration."
        }
      },
      "RequestRejected(bytes32,bytes32,address)": {
        "details": "To be emitted when arbitration request is received but remained pending.",
        "params": {
          "_contestedAnswer": "The answer the requester deem to be correct.",
          "_questionID": "The ID of the question.",
          "_requester": "The address of the user that requested arbitration."
        }
      }
    },
    "kind": "dev",
    "methods": {
      "constructor": {
        "params": {
          "_amb": "ArbitraryMessageBridge contract address.",
          "_realitio": "Realitio contract address."
        }
      },
      "handleNotifiedRequest(bytes32)": {
        "details": "Handles arbitration request after it has been notified to Realitio for a given question.",
        "params": {
          "_questionID": "The ID of the question."
        }
      },
      "handleRejectedRequest(bytes32)": {
        "details": "Handles arbitration request after it has been rejected due to the quesiton being finalized or the contested answer being different from the current one.",
        "params": {
          "_questionID": "The ID of the question."
        }
      },
      "receiveArbitrationAnswer(bytes32,bytes32)": {
        "details": "Recieves the answer to a specified question.",
        "params": {
          "_answer": "The answer from the arbitratior.",
          "_questionID": "The ID of the question."
        }
      },
      "receiveArbitrationFailure(bytes32)": {
        "details": "Recieves a failed attempt to request arbitration.",
        "params": {
          "_questionID": "The ID of the question."
        }
      },
      "receiveArbitrationRequest(bytes32,bytes32,address)": {
        "params": {
          "_contestedAnswer": "The answer the requester deem to be correct.",
          "_questionID": "The ID of the question.",
          "_requester": "The address of the user that requested arbitration."
        }
      },
      "reportArbitrationAnswer(bytes32,bytes32,bytes32,address)": {
        "details": "Report the answer provided by the arbitrator to a specified question.",
        "params": {
          "_lastAnswerOrCommitmentID": "The last answer given, or its commitment ID if it was a commitment, to the question in the Realitio contract.",
          "_lastAnswerer": "The last answerer to the question in the Realitio contract.",
          "_lastHistoryHash": "The history hash given with the last answer to the question in the Realitio contract.",
          "_questionID": "The ID of the question."
        }
      },
      "setForeignProxy(address,uint256)": {
        "params": {
          "_foreignChainId": "The ID of the chain where the foreign proxy is deployed.",
          "_foreignProxy": "The address of the proxy."
        }
      },
      "setGovernor(address)": {
        "params": {
          "_governor": "The address of the new governor."
        }
      }
    },
    "stateVariables": {
      "amb": {
        "details": "ArbitraryMessageBridge contract address. TRUSTED."
      },
      "foreignChainId": {
        "details": "The chain ID where the foreign proxy is deployed."
      },
      "foreignProxy": {
        "details": "Address of the counter-party proxy on the Foreign Chain. TRUSTED."
      },
      "governor": {
        "details": "The contract governor. TRUSTED."
      },
      "metadata": {
        "details": "Metadata for Realitio interface."
      },
      "questionIDToRequest": {
        "details": "Associates an arbitration request with a question ID."
      },
      "realitio": {
        "details": "The address of the Realitio contract. TRUSTED."
      }
    },
    "version": 1
  },
  "userdoc": {
    "events": {
      "ArbitrationFailed(bytes32)": {
        "notice": "This will happen if there is a remaining arbitration fee users fail to pay."
      },
      "RequestNotified(bytes32,bytes32,address)": {
        "notice": "This will happen if the best answer for a given question changes between the arbitration is requested on the Foreign Chain and the cross-chain message reaches the home chain and becomes the same answer as the one from requester."
      },
      "RequestRejected(bytes32,bytes32,address)": {
        "notice": "This will happen if the best answer for a given question changes between the arbitration is requested on the Foreign Chain and the cross-chain message reaches the home chain and becomes the same answer as the one from requester."
      }
    },
    "kind": "user",
    "methods": {
      "constructor": {
        "notice": "Creates an arbitration proxy on the home chain."
      },
      "handleNotifiedRequest(bytes32)": {
        "notice": "Sends the arbitration acknowledgement to the Foreign Chain."
      },
      "handleRejectedRequest(bytes32)": {
        "notice": "Sends the arbitration rejection to the Foreign Chain."
      },
      "receiveArbitrationRequest(bytes32,bytes32,address)": {
        "notice": "Recieves the requested arbitration for a question."
      },
      "setForeignProxy(address,uint256)": {
        "notice": "Sets the address of the arbitration proxy on the Foreign Chain."
      },
      "setGovernor(address)": {
        "notice": "Sets the address of a new governor."
      }
    },
    "version": 1
  },
  "storageLayout": {
    "storage": [
      {
        "astId": 871,
        "contract": "src/RealitioHomeArbitrationProxy.sol:RealitioHomeArbitrationProxy",
        "label": "governor",
        "offset": 0,
        "slot": "0",
        "type": "t_address"
      },
      {
        "astId": 880,
        "contract": "src/RealitioHomeArbitrationProxy.sol:RealitioHomeArbitrationProxy",
        "label": "foreignProxy",
        "offset": 0,
        "slot": "1",
        "type": "t_address"
      },
      {
        "astId": 883,
        "contract": "src/RealitioHomeArbitrationProxy.sol:RealitioHomeArbitrationProxy",
        "label": "foreignChainId",
        "offset": 0,
        "slot": "2",
        "type": "t_uint256"
      },
      {
        "astId": 907,
        "contract": "src/RealitioHomeArbitrationProxy.sol:RealitioHomeArbitrationProxy",
        "label": "questionIDToRequest",
        "offset": 0,
        "slot": "3",
        "type": "t_mapping(t_bytes32,t_struct(Request)902_storage)"
      }
    ],
    "types": {
      "t_address": {
        "encoding": "inplace",
        "label": "address",
        "numberOfBytes": "20"
      },
      "t_bytes32": {
        "encoding": "inplace",
        "label": "bytes32",
        "numberOfBytes": "32"
      },
      "t_enum(Status)893": {
        "encoding": "inplace",
        "label": "enum RealitioHomeArbitrationProxy.Status",
        "numberOfBytes": "1"
      },
      "t_mapping(t_bytes32,t_struct(Request)902_storage)": {
        "encoding": "mapping",
        "key": "t_bytes32",
        "label": "mapping(bytes32 => struct RealitioHomeArbitrationProxy.Request)",
        "numberOfBytes": "32",
        "value": "t_struct(Request)902_storage"
      },
      "t_struct(Request)902_storage": {
        "encoding": "inplace",
        "label": "struct RealitioHomeArbitrationProxy.Request",
        "members": [
          {
            "astId": 895,
            "contract": "src/RealitioHomeArbitrationProxy.sol:RealitioHomeArbitrationProxy",
            "label": "status",
            "offset": 0,
            "slot": "0",
            "type": "t_enum(Status)893"
          },
          {
            "astId": 897,
            "contract": "src/RealitioHomeArbitrationProxy.sol:RealitioHomeArbitrationProxy",
            "label": "requester",
            "offset": 1,
            "slot": "0",
            "type": "t_address"
          },
          {
            "astId": 899,
            "contract": "src/RealitioHomeArbitrationProxy.sol:RealitioHomeArbitrationProxy",
            "label": "requesterAnswer",
            "offset": 0,
            "slot": "1",
            "type": "t_bytes32"
          },
          {
            "astId": 901,
            "contract": "src/RealitioHomeArbitrationProxy.sol:RealitioHomeArbitrationProxy",
            "label": "arbitratorAnswer",
            "offset": 0,
            "slot": "2",
            "type": "t_bytes32"
          }
        ],
        "numberOfBytes": "96"
      },
      "t_uint256": {
        "encoding": "inplace",
        "label": "uint256",
        "numberOfBytes": "32"
      }
    }
  }
}