{
  "address": "0xd5ce9C7905CB1e874DaA83Cb1be02eB536308419",
  "abi": [
    {
      "inputs": [
        {
          "internalType": "contract IAMB",
          "name": "_amb",
          "type": "address"
        },
        {
          "internalType": "address",
          "name": "_foreignProxy",
          "type": "address"
        },
        {
          "internalType": "uint256",
          "name": "_foreignChainId",
          "type": "uint256"
        },
        {
          "internalType": "contract RealitioInterface",
          "name": "_realitio",
          "type": "address"
        }
      ],
      "stateMutability": "nonpayable",
      "type": "constructor"
    },
    {
      "anonymous": false,
      "inputs": [
        {
          "indexed": true,
          "internalType": "bytes32",
          "name": "_questionID",
          "type": "bytes32"
        },
        {
          "indexed": true,
          "internalType": "bytes32",
          "name": "_contestedAnswer",
          "type": "bytes32"
        }
      ],
      "name": "ArbitrationFailed",
      "type": "event"
    },
    {
      "anonymous": false,
      "inputs": [
        {
          "indexed": true,
          "internalType": "bytes32",
          "name": "_questionID",
          "type": "bytes32"
        }
      ],
      "name": "ArbitrationFinished",
      "type": "event"
    },
    {
      "anonymous": false,
      "inputs": [
        {
          "indexed": true,
          "internalType": "bytes32",
          "name": "_questionID",
          "type": "bytes32"
        },
        {
          "indexed": false,
          "internalType": "bytes32",
          "name": "_answer",
          "type": "bytes32"
        }
      ],
      "name": "ArbitratorAnswered",
      "type": "event"
    },
    {
      "anonymous": false,
      "inputs": [
        {
          "indexed": true,
          "internalType": "bytes32",
          "name": "_questionID",
          "type": "bytes32"
        },
        {
          "indexed": true,
          "internalType": "bytes32",
          "name": "_contestedAnswer",
          "type": "bytes32"
        }
      ],
      "name": "RequestAcknowledged",
      "type": "event"
    },
    {
      "anonymous": false,
      "inputs": [
        {
          "indexed": true,
          "internalType": "bytes32",
          "name": "_questionID",
          "type": "bytes32"
        },
        {
          "indexed": true,
          "internalType": "bytes32",
          "name": "_contestedAnswer",
          "type": "bytes32"
        }
      ],
      "name": "RequestCanceled",
      "type": "event"
    },
    {
      "anonymous": false,
      "inputs": [
        {
          "indexed": true,
          "internalType": "bytes32",
          "name": "_questionID",
          "type": "bytes32"
        },
        {
          "indexed": true,
          "internalType": "bytes32",
          "name": "_contestedAnswer",
          "type": "bytes32"
        },
        {
          "indexed": true,
          "internalType": "address",
          "name": "_requester",
          "type": "address"
        }
      ],
      "name": "RequestNotified",
      "type": "event"
    },
    {
      "anonymous": false,
      "inputs": [
        {
          "indexed": true,
          "internalType": "bytes32",
          "name": "_questionID",
          "type": "bytes32"
        },
        {
          "indexed": true,
          "internalType": "bytes32",
          "name": "_contestedAnswer",
          "type": "bytes32"
        },
        {
          "indexed": true,
          "internalType": "address",
          "name": "_requester",
          "type": "address"
        }
      ],
      "name": "RequestRejected",
      "type": "event"
    },
    {
      "inputs": [],
      "name": "amb",
      "outputs": [
        {
          "internalType": "contract IAMB",
          "name": "",
          "type": "address"
        }
      ],
      "stateMutability": "view",
      "type": "function"
    },
    {
      "inputs": [],
      "name": "foreignChainId",
      "outputs": [
        {
          "internalType": "uint256",
          "name": "",
          "type": "uint256"
        }
      ],
      "stateMutability": "view",
      "type": "function"
    },
    {
      "inputs": [],
      "name": "foreignProxy",
      "outputs": [
        {
          "internalType": "address",
          "name": "",
          "type": "address"
        }
      ],
      "stateMutability": "view",
      "type": "function"
    },
    {
      "inputs": [],
      "name": "governor",
      "outputs": [
        {
          "internalType": "address",
          "name": "",
          "type": "address"
        }
      ],
      "stateMutability": "view",
      "type": "function"
    },
    {
      "inputs": [
        {
          "internalType": "bytes32",
          "name": "_questionID",
          "type": "bytes32"
        },
        {
          "internalType": "bytes32",
          "name": "_contestedAnswer",
          "type": "bytes32"
        }
      ],
      "name": "handleNotifiedRequest",
      "outputs": [],
      "stateMutability": "nonpayable",
      "type": "function"
    },
    {
      "inputs": [
        {
          "internalType": "bytes32",
          "name": "_questionID",
          "type": "bytes32"
        },
        {
          "internalType": "bytes32",
          "name": "_contestedAnswer",
          "type": "bytes32"
        }
      ],
      "name": "handleRejectedRequest",
      "outputs": [],
      "stateMutability": "nonpayable",
      "type": "function"
    },
    {
      "inputs": [],
      "name": "metadata",
      "outputs": [
        {
          "internalType": "string",
          "name": "",
          "type": "string"
        }
      ],
      "stateMutability": "view",
      "type": "function"
    },
    {
      "inputs": [
        {
          "internalType": "bytes32",
          "name": "",
          "type": "bytes32"
        }
      ],
      "name": "questionIDToContestedAnswer",
      "outputs": [
        {
          "internalType": "bytes32",
          "name": "",
          "type": "bytes32"
        }
      ],
      "stateMutability": "view",
      "type": "function"
    },
    {
      "inputs": [],
      "name": "realitio",
      "outputs": [
        {
          "internalType": "contract RealitioInterface",
          "name": "",
          "type": "address"
        }
      ],
      "stateMutability": "view",
      "type": "function"
    },
    {
      "inputs": [
        {
          "internalType": "bytes32",
          "name": "_questionID",
          "type": "bytes32"
        },
        {
          "internalType": "bytes32",
          "name": "_answer",
          "type": "bytes32"
        }
      ],
      "name": "receiveArbitrationAnswer",
      "outputs": [],
      "stateMutability": "nonpayable",
      "type": "function"
    },
    {
      "inputs": [
        {
          "internalType": "bytes32",
          "name": "_questionID",
          "type": "bytes32"
        },
        {
          "internalType": "bytes32",
          "name": "_contestedAnswer",
          "type": "bytes32"
        }
      ],
      "name": "receiveArbitrationFailure",
      "outputs": [],
      "stateMutability": "nonpayable",
      "type": "function"
    },
    {
      "inputs": [
        {
          "internalType": "bytes32",
          "name": "_questionID",
          "type": "bytes32"
        },
        {
          "internalType": "bytes32",
          "name": "_contestedAnswer",
          "type": "bytes32"
        },
        {
          "internalType": "address",
          "name": "_requester",
          "type": "address"
        }
      ],
      "name": "receiveArbitrationRequest",
      "outputs": [],
      "stateMutability": "nonpayable",
      "type": "function"
    },
    {
      "inputs": [
        {
          "internalType": "bytes32",
          "name": "_questionID",
          "type": "bytes32"
        },
        {
          "internalType": "bytes32",
          "name": "_lastHistoryHash",
          "type": "bytes32"
        },
        {
          "internalType": "bytes32",
          "name": "_lastAnswerOrCommitmentID",
          "type": "bytes32"
        },
        {
          "internalType": "address",
          "name": "_lastAnswerer",
          "type": "address"
        }
      ],
      "name": "reportArbitrationAnswer",
      "outputs": [],
      "stateMutability": "nonpayable",
      "type": "function"
    },
    {
      "inputs": [
        {
          "internalType": "bytes32",
          "name": "",
          "type": "bytes32"
        },
        {
          "internalType": "bytes32",
          "name": "",
          "type": "bytes32"
        }
      ],
      "name": "requests",
      "outputs": [
        {
          "internalType": "enum RealitioHomeArbitrationProxy.Status",
          "name": "status",
          "type": "uint8"
        },
        {
          "internalType": "address",
          "name": "requester",
          "type": "address"
        },
        {
          "internalType": "bytes32",
          "name": "arbitratorAnswer",
          "type": "bytes32"
        }
      ],
      "stateMutability": "view",
      "type": "function"
    }
  ],
  "transactionHash": "0xb816efc32d6dc49af32beadae502742cfa2710e4e3df80c93ae99d3d0189731c",
  "args": [
    "0xFe446bEF1DbF7AFE24E81e05BC8B271C1BA9a560",
    "0x503fA35b1072e9b5Ff12E037959A23c08a231C6F",
    "42",
    "0x90a617ed516ab7fAaBA56CcEDA0C5D952f294d03"
  ],
  "solcInputHash": "a0146f372add13a9d9266a7602b32447",
  "bytecode": "0x60c0604052600080546001600160a01b0319163317905534801561002257600080fd5b506040516117143803806117148339818101604052608081101561004557600080fd5b5080516020820151604083015160609384015183851b6001600160601b031990811660a052600180546001600160a01b0319166001600160a01b039586161790556002929092559384901b166080529182169116611613610101600039806103435280610517528061058452806106775280610ae15280610c8e5280610cfb5280610dee528061103752806110a45280611197528061144452508061043c52806107b9528061084f5280610f73528061100a52506116136000f3fe608060405234801561001057600080fd5b50600436106100ea5760003560e01c806395e088fc1161008c578063bc8802a211610066578063bc8802a214610289578063d75a86e014610291578063e0598333146102b4578063edc8d0901461030f576100ea565b806395e088fc1461023b578063a16b9bb114610243578063aea268ee14610266576100ea565b8063392f37e9116100c8578063392f37e9146101555780634d274aee146101d25780636e190f1714610204578063785d7cb41461020c576100ea565b80630c340a24146100ef5780631062b39a14610113578063241a9f821461011b575b600080fd5b6100f7610332565b604080516001600160a01b039092168252519081900360200190f35b6100f7610341565b6101536004803603608081101561013157600080fd5b50803590602081013590604081013590606001356001600160a01b0316610365565b005b61015d6104db565b6040805160208082528351818301528351919283929083019185019080838360005b8381101561019757818101518382015260200161017f565b50505050905090810190601f1680156101c45780820380516001836020036101000a031916815260200191505b509250505060405180910390f35b610153600480360360608110156101e857600080fd5b50803590602081013590604001356001600160a01b031661050c565b6100f76109e1565b6102296004803603602081101561022257600080fd5b50356109f0565b60408051918252519081900360200190f35b610229610a02565b6101536004803603604081101561025957600080fd5b5080359060200135610a08565b6101536004803603604081101561027c57600080fd5b5080359060200135610c83565b6100f7611008565b610153600480360360408110156102a757600080fd5b508035906020013561102c565b6102d7600480360360408110156102ca57600080fd5b508035906020013561132f565b604051808460058111156102e757fe5b8152602001836001600160a01b03168152602001828152602001935050505060405180910390f35b6101536004803603604081101561032557600080fd5b5080359060200135611367565b6000546001600160a01b031681565b7f000000000000000000000000000000000000000000000000000000000000000081565b6000848152600460208181526040808420546003835281852081865290925290922090815460ff16600581111561039857fe5b146103ea576040805162461bcd60e51b815260206004820152601c60248201527f41726269747261746f7220686173206e6f742072756c65642079657400000000604482015290519081900360640190fd5b60018101548154604080516335138a4f60e21b8152600481018a905260248101939093526001600160a01b0361010090920482166044840152606483018890526084830187905285821660a4840152517f00000000000000000000000000000000000000000000000000000000000000009091169163d44e293c9160c480830192600092919082900301818387803b15801561048557600080fd5b505af1158015610499573d6000803e3d6000fd5b5050825460ff19166005178355505060405186907f2abf2fd86256e4607561adae782a4853682b6c0b976995a9a45c5fc3a175738690600090a2505050505050565b604051806040016040528060158152602001747b22666f726569676e50726f7879223a747275657d60581b81525081565b336001600160a01b037f0000000000000000000000000000000000000000000000000000000000000000161461057c576040805162461bcd60e51b815260206004820152601060248201526f13db9b1e4810535088185b1b1bddd95960821b604482015290519081900360640190fd5b60025460001b7f00000000000000000000000000000000000000000000000000000000000000006001600160a01b0316639e307dff6040518163ffffffff1660e01b815260040160206040518083038186803b1580156105db57600080fd5b505afa1580156105ef573d6000803e3d6000fd5b505050506040513d602081101561060557600080fd5b505114610656576040805162461bcd60e51b815260206004820152601a60248201527913db9b1e48199bdc995a59db8818da185a5b88185b1b1bddd95960321b604482015290519081900360640190fd5b6001546040805163d67bdd2560e01b815290516001600160a01b03928316927f0000000000000000000000000000000000000000000000000000000000000000169163d67bdd25916004808301926020929190829003018186803b1580156106bd57600080fd5b505afa1580156106d1573d6000803e3d6000fd5b505050506040513d60208110156106e757600080fd5b50516001600160a01b031614610741576040805162461bcd60e51b815260206004820152601a60248201527913db9b1e48199bdc995a59db881c1c9bde1e48185b1b1bddd95960321b604482015290519081900360640190fd5b6000838152600360209081526040808320858452909152812090815460ff16600581111561076b57fe5b146107b6576040805162461bcd60e51b81526020600482015260166024820152755265717565737420616c72656164792065786973747360501b604482015290519081900360640190fd5b827f00000000000000000000000000000000000000000000000000000000000000006001600160a01b0316638d552d46866040518263ffffffff1660e01b81526004018082815260200191505060206040518083038186803b15801561081b57600080fd5b505afa15801561082f573d6000803e3d6000fd5b505050506040513d602081101561084557600080fd5b50511415610997577f00000000000000000000000000000000000000000000000000000000000000006001600160a01b031663f6a94ecb858460006040518463ffffffff1660e01b815260040180848152602001836001600160a01b031681526020018281526020019350505050600060405180830381600087803b1580156108cd57600080fd5b505af19250505080156108de575060015b61092a57805460ff191660011781556040516001600160a01b03831690849086907f505c6b33937ba1c7bcfdcc208ea84cd66a66bac1e59de92b7ff784d722741e4290600090a4610992565b8054600260ff1990911617610100600160a81b0319166101006001600160a01b03841690810291909117825560008581526004602052604080822086905551859187917f6f066f0a8c7c11806be5f3b5b04dd89e76a1b67a44fd8762a27916c3742fecd49190a45b6109db565b805460ff191660011781556040516001600160a01b03831690849086907f505c6b33937ba1c7bcfdcc208ea84cd66a66bac1e59de92b7ff784d722741e4290600090a45b50505050565b6001546001600160a01b031681565b60046020526000908152604090205481565b60025481565b600082815260036020908152604080832084845290915290206002815460ff166005811115610a3357fe5b14610a7e576040805162461bcd60e51b8152602060048201526016602482015275496e76616c696420726571756573742073746174757360501b604482015290519081900360640190fd5b805460ff191660031781556040805160248101859052604480820185905282518083039091018152606490910182526020808201805163ef4f931560e01b6001600160e01b039091168117909152600154845163e5789d0360e01b8152945191947f00000000000000000000000000000000000000000000000000000000000000006001600160a01b039081169463dc8601b39491909316928692869263e5789d0392600480840193919291829003018186803b158015610b3e57600080fd5b505afa158015610b52573d6000803e3d6000fd5b505050506040513d6020811015610b6857600080fd5b50516040516001600160e01b031960e086901b1681526001600160a01b038416600482019081526044820183905260606024830190815284516064840152845191929091608490910190602086019080838360005b83811015610bd5578181015183820152602001610bbd565b50505050905090810190601f168015610c025780820380516001836020036101000a031916815260200191505b50945050505050602060405180830381600087803b158015610c2357600080fd5b505af1158015610c37573d6000803e3d6000fd5b505050506040513d6020811015610c4d57600080fd5b5050604051849086907f63200225d1321c11d517f1149bde11b3355f6ff97c717c4e4d114ee85b7b6f5b90600090a35050505050565b336001600160a01b037f00000000000000000000000000000000000000000000000000000000000000001614610cf3576040805162461bcd60e51b815260206004820152601060248201526f13db9b1e4810535088185b1b1bddd95960821b604482015290519081900360640190fd5b60025460001b7f00000000000000000000000000000000000000000000000000000000000000006001600160a01b0316639e307dff6040518163ffffffff1660e01b815260040160206040518083038186803b158015610d5257600080fd5b505afa158015610d66573d6000803e3d6000fd5b505050506040513d6020811015610d7c57600080fd5b505114610dcd576040805162461bcd60e51b815260206004820152601a60248201527913db9b1e48199bdc995a59db8818da185a5b88185b1b1bddd95960321b604482015290519081900360640190fd5b6001546040805163d67bdd2560e01b815290516001600160a01b03928316927f0000000000000000000000000000000000000000000000000000000000000000169163d67bdd25916004808301926020929190829003018186803b158015610e3457600080fd5b505afa158015610e48573d6000803e3d6000fd5b505050506040513d6020811015610e5e57600080fd5b50516001600160a01b031614610eb8576040805162461bcd60e51b815260206004820152601a60248201527913db9b1e48199bdc995a59db881c1c9bde1e48185b1b1bddd95960321b604482015290519081900360640190fd5b600082815260036020818152604080842085855290915290912090815460ff166005811115610ee357fe5b14610f2e576040805162461bcd60e51b8152602060048201526016602482015275496e76616c696420726571756573742073746174757360501b604482015290519081900360640190fd5b600083815260036020908152604080832085845290915280822080546001600160a81b03191681556001018290558051630ebbdd2b60e41b81526004810186905290517f00000000000000000000000000000000000000000000000000000000000000006001600160a01b03169263ebbdd2b0926024808201939182900301818387803b158015610fbe57600080fd5b505af1158015610fd2573d6000803e3d6000fd5b50506040518492508591507ffc1cc9a0676bd1afbd872786f0b40d6beada8f67b97b31214746a0a2f335719c90600090a3505050565b7f000000000000000000000000000000000000000000000000000000000000000081565b336001600160a01b037f0000000000000000000000000000000000000000000000000000000000000000161461109c576040805162461bcd60e51b815260206004820152601060248201526f13db9b1e4810535088185b1b1bddd95960821b604482015290519081900360640190fd5b60025460001b7f00000000000000000000000000000000000000000000000000000000000000006001600160a01b0316639e307dff6040518163ffffffff1660e01b815260040160206040518083038186803b1580156110fb57600080fd5b505afa15801561110f573d6000803e3d6000fd5b505050506040513d602081101561112557600080fd5b505114611176576040805162461bcd60e51b815260206004820152601a60248201527913db9b1e48199bdc995a59db8818da185a5b88185b1b1bddd95960321b604482015290519081900360640190fd5b6001546040805163d67bdd2560e01b815290516001600160a01b03928316927f0000000000000000000000000000000000000000000000000000000000000000169163d67bdd25916004808301926020929190829003018186803b1580156111dd57600080fd5b505afa1580156111f1573d6000803e3d6000fd5b505050506040513d602081101561120757600080fd5b50516001600160a01b031614611261576040805162461bcd60e51b815260206004820152601a60248201527913db9b1e48199bdc995a59db881c1c9bde1e48185b1b1bddd95960321b604482015290519081900360640190fd5b6000828152600460209081526040808320546003808452828520828652909352922090815460ff16600581111561129457fe5b146112df576040805162461bcd60e51b8152602060048201526016602482015275496e76616c696420726571756573742073746174757360501b604482015290519081900360640190fd5b8054600460ff199091161781556001810183905560408051848152905185917f1813d15d8cef51cff8bbd419a8e13e0655c1babea320dea4174d5e7bc40c4294919081900360200190a250505050565b60036020908152600092835260408084209091529082529020805460019091015460ff82169161010090046001600160a01b03169083565b600082815260036020908152604080832084845290915290206001815460ff16600581111561139257fe5b146113dd576040805162461bcd60e51b8152602060048201526016602482015275496e76616c696420726571756573742073746174757360501b604482015290519081900360640190fd5b805460ff19168155604080516024810185905260448082018590528251808303909101815260649091018252602080820180516001600160e01b031663dfb0070760e01b908117909152600154845163e5789d0360e01b8152945191946001600160a01b037f000000000000000000000000000000000000000000000000000000000000000081169463dc8601b39491909316928692869263e5789d0392600480840193919291829003018186803b15801561149857600080fd5b505afa1580156114ac573d6000803e3d6000fd5b505050506040513d60208110156114c257600080fd5b50516040516001600160e01b031960e086901b1681526001600160a01b038416600482019081526044820183905260606024830190815284516064840152845191929091608490910190602086019080838360005b8381101561152f578181015183820152602001611517565b50505050905090810190601f16801561155c5780820380516001836020036101000a031916815260200191505b50945050505050602060405180830381600087803b15801561157d57600080fd5b505af1158015611591573d6000803e3d6000fd5b505050506040513d60208110156115a757600080fd5b5050604051849086907fa1d9dcb2196ff2e29a92d6f345a3bfef05f8c23666c25c8099e65508808d75c290600090a3505050505056fea26469706673582212205b295cbb1a35ed2315a8a6981e4566f1c4a0ec684d7bbc502d7300d4c872199664736f6c63430007040033",
  "devdoc": {
    "details": "This contract is meant to be deployed to side-chains (i.e.: xDAI) in which Reality.eth is been deployed.",
    "kind": "dev",
    "methods": {
      "constructor": {
        "params": {
          "_amb": "ArbitraryMessageBridge contract address.",
          "_foreignChainId": "The ID of the chain where the foreign proxy is deployed.",
          "_foreignProxy": "The address of the proxy.",
          "_realitio": "Realitio contract address."
        }
      },
      "handleNotifiedRequest(bytes32,bytes32)": {
        "details": "This method exists because `receiveArbitrationRequest` is called by the AMB and cannot send messages back to it.",
        "params": {
          "_contestedAnswer": "The answer the requester deems to be incorrect.",
          "_questionID": "The ID of the question."
        }
      },
      "handleRejectedRequest(bytes32,bytes32)": {
        "details": "This method exists because `receiveArbitrationRequest` is called by the AMB and cannot send messages back to it. Reasons why the request might be rejected:  - The question does not exist  - The question was not answered yet  - The contested answer is different from the current best answer  - Another request was already accepted",
        "params": {
          "_contestedAnswer": "The answer the requester deems to be incorrect.",
          "_questionID": "The ID of the question."
        }
      },
      "receiveArbitrationAnswer(bytes32,bytes32)": {
        "params": {
          "_answer": "The answer from the arbitrator.",
          "_questionID": "The ID of the question."
        }
      },
      "receiveArbitrationFailure(bytes32,bytes32)": {
        "details": "Currently this can happen only if the arbitration cost increased in between the arbitration request and its acknowledgement.",
        "params": {
          "_contestedAnswer": "The answer the requester deems to be incorrect.",
          "_questionID": "The ID of the question."
        }
      },
      "receiveArbitrationRequest(bytes32,bytes32,address)": {
        "params": {
          "_contestedAnswer": "The answer the requester deems to be incorrect.",
          "_questionID": "The ID of the question.",
          "_requester": "The address of the user that requested arbitration."
        }
      },
      "reportArbitrationAnswer(bytes32,bytes32,bytes32,address)": {
        "details": "The Realitio contract validates the input parameters passed to this method, so it is safe to publicly accessible.",
        "params": {
          "_lastAnswerOrCommitmentID": "The last answer given, or its commitment ID if it was a commitment, to the question in the Realitio contract.",
          "_lastAnswerer": "The last answerer to the question in the Realitio contract.",
          "_lastHistoryHash": "The history hash given with the last answer to the question in the Realitio contract.",
          "_questionID": "The ID of the question."
        }
      }
    },
    "stateVariables": {
      "amb": {
        "details": "ArbitraryMessageBridge contract address. TRUSTED."
      },
      "foreignChainId": {
        "details": "The chain ID where the foreign proxy is deployed."
      },
      "foreignProxy": {
        "details": "Address of the counter-party proxy on the Foreign Chain. TRUSTED."
      },
      "governor": {
        "details": "The contract governor. TRUSTED."
      },
      "metadata": {
        "details": "Metadata for Realitio interface."
      },
      "questionIDToContestedAnswer": {
        "details": "Associates a question ID with the contested answer that led to the arbitration be requested."
      },
      "realitio": {
        "details": "The address of the Realitio contract (v2.1+ required). TRUSTED."
      },
      "requests": {
        "details": "Associates an arbitration request with a question ID and a contested answer."
      }
    },
    "title": "Arbitration proxy for Realitio on the side-chain side (A.K.A. the Home Chain).",
    "version": 1
  },
  "userdoc": {
    "events": {
      "ArbitrationFailed(bytes32,bytes32)": {
        "notice": "To be emitted when the dispute could not be created on the Foreign Chain."
      },
      "ArbitrationFinished(bytes32)": {
        "notice": "To be emitted when reporting the arbitrator answer to Realitio."
      },
      "ArbitratorAnswered(bytes32,bytes32)": {
        "notice": "To be emitted when receiving the answer from the arbitrator."
      },
      "RequestAcknowledged(bytes32,bytes32)": {
        "notice": "To be emitted when the arbitration request acknowledgement is sent to the Foreign Chain."
      },
      "RequestCanceled(bytes32,bytes32)": {
        "notice": "To be emitted when the arbitration request is canceled."
      },
      "RequestNotified(bytes32,bytes32,address)": {
        "notice": "To be emitted when the Realitio contract has been notified of an arbitration request."
      },
      "RequestRejected(bytes32,bytes32,address)": {
        "notice": "To be emitted when arbitration request is rejected."
      }
    },
    "kind": "user",
    "methods": {
      "constructor": {
        "notice": "Creates an arbitration proxy on the home chain."
      },
      "handleNotifiedRequest(bytes32,bytes32)": {
        "notice": "Handles arbitration request after it has been notified to Realitio for a given question."
      },
      "handleRejectedRequest(bytes32,bytes32)": {
        "notice": "Handles arbitration request after it has been rejected."
      },
      "receiveArbitrationAnswer(bytes32,bytes32)": {
        "notice": "Receives the answer to a specified question."
      },
      "receiveArbitrationFailure(bytes32,bytes32)": {
        "notice": "Receives a failed attempt to request arbitration."
      },
      "receiveArbitrationRequest(bytes32,bytes32,address)": {
        "notice": "Receives the requested arbitration for a question."
      },
      "reportArbitrationAnswer(bytes32,bytes32,bytes32,address)": {
        "notice": "Report the answer provided by the arbitrator to a specified question."
      }
    },
    "version": 1
  },
  "storageLayout": {
    "storage": [
      {
        "astId": 3002,
        "contract": "src/RealitioHomeArbitrationProxy.sol:RealitioHomeArbitrationProxy",
        "label": "governor",
        "offset": 0,
        "slot": "0",
        "type": "t_address"
      },
      {
        "astId": 3011,
        "contract": "src/RealitioHomeArbitrationProxy.sol:RealitioHomeArbitrationProxy",
        "label": "foreignProxy",
        "offset": 0,
        "slot": "1",
        "type": "t_address"
      },
      {
        "astId": 3014,
        "contract": "src/RealitioHomeArbitrationProxy.sol:RealitioHomeArbitrationProxy",
        "label": "foreignChainId",
        "offset": 0,
        "slot": "2",
        "type": "t_uint256"
      },
      {
        "astId": 3039,
        "contract": "src/RealitioHomeArbitrationProxy.sol:RealitioHomeArbitrationProxy",
        "label": "requests",
        "offset": 0,
        "slot": "3",
        "type": "t_mapping(t_bytes32,t_mapping(t_bytes32,t_struct(Request)3032_storage))"
      },
      {
        "astId": 3044,
        "contract": "src/RealitioHomeArbitrationProxy.sol:RealitioHomeArbitrationProxy",
        "label": "questionIDToContestedAnswer",
        "offset": 0,
        "slot": "4",
        "type": "t_mapping(t_bytes32,t_bytes32)"
      }
    ],
    "types": {
      "t_address": {
        "encoding": "inplace",
        "label": "address",
        "numberOfBytes": "20"
      },
      "t_bytes32": {
        "encoding": "inplace",
        "label": "bytes32",
        "numberOfBytes": "32"
      },
      "t_enum(Status)3025": {
        "encoding": "inplace",
        "label": "enum RealitioHomeArbitrationProxy.Status",
        "numberOfBytes": "1"
      },
      "t_mapping(t_bytes32,t_bytes32)": {
        "encoding": "mapping",
        "key": "t_bytes32",
        "label": "mapping(bytes32 => bytes32)",
        "numberOfBytes": "32",
        "value": "t_bytes32"
      },
      "t_mapping(t_bytes32,t_mapping(t_bytes32,t_struct(Request)3032_storage))": {
        "encoding": "mapping",
        "key": "t_bytes32",
        "label": "mapping(bytes32 => mapping(bytes32 => struct RealitioHomeArbitrationProxy.Request))",
        "numberOfBytes": "32",
        "value": "t_mapping(t_bytes32,t_struct(Request)3032_storage)"
      },
      "t_mapping(t_bytes32,t_struct(Request)3032_storage)": {
        "encoding": "mapping",
        "key": "t_bytes32",
        "label": "mapping(bytes32 => struct RealitioHomeArbitrationProxy.Request)",
        "numberOfBytes": "32",
        "value": "t_struct(Request)3032_storage"
      },
      "t_struct(Request)3032_storage": {
        "encoding": "inplace",
        "label": "struct RealitioHomeArbitrationProxy.Request",
        "members": [
          {
            "astId": 3027,
            "contract": "src/RealitioHomeArbitrationProxy.sol:RealitioHomeArbitrationProxy",
            "label": "status",
            "offset": 0,
            "slot": "0",
            "type": "t_enum(Status)3025"
          },
          {
            "astId": 3029,
            "contract": "src/RealitioHomeArbitrationProxy.sol:RealitioHomeArbitrationProxy",
            "label": "requester",
            "offset": 1,
            "slot": "0",
            "type": "t_address"
          },
          {
            "astId": 3031,
            "contract": "src/RealitioHomeArbitrationProxy.sol:RealitioHomeArbitrationProxy",
            "label": "arbitratorAnswer",
            "offset": 0,
            "slot": "1",
            "type": "t_bytes32"
          }
        ],
        "numberOfBytes": "64"
      },
      "t_uint256": {
        "encoding": "inplace",
        "label": "uint256",
        "numberOfBytes": "32"
      }
    }
  }
}