{
  "address": "0xcB4B48d2A7a44247A00048963F169d2b4Ab045a6",
  "abi": [
    {
      "inputs": [
        {
          "internalType": "contract IArbitrator",
          "name": "_arbitrator",
          "type": "address"
        },
        {
          "internalType": "bytes",
          "name": "_arbitratorExtraData",
          "type": "bytes"
        },
        {
          "internalType": "string",
          "name": "_metaEvidence",
          "type": "string"
        },
        {
          "internalType": "uint256",
          "name": "_winnerMultiplier",
          "type": "uint256"
        },
        {
          "internalType": "uint256",
          "name": "_loserMultiplier",
          "type": "uint256"
        },
        {
          "internalType": "uint256",
          "name": "_loserAppealPeriodMultiplier",
          "type": "uint256"
        },
        {
          "internalType": "address",
          "name": "_homeProxy",
          "type": "address"
        },
        {
          "internalType": "address",
          "name": "_inbox",
          "type": "address"
        },
        {
          "internalType": "uint256",
          "name": "_surplusAmount",
          "type": "uint256"
        },
        {
          "internalType": "uint256",
          "name": "_l2GasLimit",
          "type": "uint256"
        },
        {
          "internalType": "uint256",
          "name": "_gasPriceBid",
          "type": "uint256"
        }
      ],
      "stateMutability": "nonpayable",
      "type": "constructor"
    },
    {
      "anonymous": false,
      "inputs": [
        {
          "indexed": true,
          "internalType": "bytes32",
          "name": "_questionID",
          "type": "bytes32"
        },
        {
          "indexed": true,
          "internalType": "address",
          "name": "_requester",
          "type": "address"
        }
      ],
      "name": "ArbitrationCanceled",
      "type": "event"
    },
    {
      "anonymous": false,
      "inputs": [
        {
          "indexed": true,
          "internalType": "bytes32",
          "name": "_questionID",
          "type": "bytes32"
        },
        {
          "indexed": true,
          "internalType": "address",
          "name": "_requester",
          "type": "address"
        },
        {
          "indexed": true,
          "internalType": "uint256",
          "name": "_disputeID",
          "type": "uint256"
        }
      ],
      "name": "ArbitrationCreated",
      "type": "event"
    },
    {
      "anonymous": false,
      "inputs": [
        {
          "indexed": true,
          "internalType": "bytes32",
          "name": "_questionID",
          "type": "bytes32"
        },
        {
          "indexed": true,
          "internalType": "address",
          "name": "_requester",
          "type": "address"
        }
      ],
      "name": "ArbitrationFailed",
      "type": "event"
    },
    {
      "anonymous": false,
      "inputs": [
        {
          "indexed": true,
          "internalType": "bytes32",
          "name": "_questionID",
          "type": "bytes32"
        },
        {
          "indexed": true,
          "internalType": "address",
          "name": "_requester",
          "type": "address"
        },
        {
          "indexed": false,
          "internalType": "uint256",
          "name": "_maxPrevious",
          "type": "uint256"
        }
      ],
      "name": "ArbitrationRequested",
      "type": "event"
    },
    {
      "anonymous": false,
      "inputs": [
        {
          "indexed": true,
          "internalType": "uint256",
          "name": "_localDisputeID",
          "type": "uint256"
        },
        {
          "indexed": true,
          "internalType": "uint256",
          "name": "_round",
          "type": "uint256"
        },
        {
          "indexed": false,
          "internalType": "uint256",
          "name": "ruling",
          "type": "uint256"
        },
        {
          "indexed": true,
          "internalType": "address",
          "name": "_contributor",
          "type": "address"
        },
        {
          "indexed": false,
          "internalType": "uint256",
          "name": "_amount",
          "type": "uint256"
        }
      ],
      "name": "Contribution",
      "type": "event"
    },
    {
      "anonymous": false,
      "inputs": [
        {
          "indexed": true,
          "internalType": "contract IArbitrator",
          "name": "_arbitrator",
          "type": "address"
        },
        {
          "indexed": true,
          "internalType": "uint256",
          "name": "_disputeID",
          "type": "uint256"
        },
        {
          "indexed": false,
          "internalType": "uint256",
          "name": "_metaEvidenceID",
          "type": "uint256"
        },
        {
          "indexed": false,
          "internalType": "uint256",
          "name": "_evidenceGroupID",
          "type": "uint256"
        }
      ],
      "name": "Dispute",
      "type": "event"
    },
    {
      "anonymous": false,
      "inputs": [
        {
          "indexed": true,
          "internalType": "contract IArbitrator",
          "name": "_arbitrator",
          "type": "address"
        },
        {
          "indexed": true,
          "internalType": "uint256",
          "name": "_evidenceGroupID",
          "type": "uint256"
        },
        {
          "indexed": true,
          "internalType": "address",
          "name": "_party",
          "type": "address"
        },
        {
          "indexed": false,
          "internalType": "string",
          "name": "_evidence",
          "type": "string"
        }
      ],
      "name": "Evidence",
      "type": "event"
    },
    {
      "anonymous": false,
      "inputs": [
        {
          "indexed": true,
          "internalType": "uint256",
          "name": "_metaEvidenceID",
          "type": "uint256"
        },
        {
          "indexed": false,
          "internalType": "string",
          "name": "_evidence",
          "type": "string"
        }
      ],
      "name": "MetaEvidence",
      "type": "event"
    },
    {
      "anonymous": false,
      "inputs": [
        {
          "indexed": true,
          "internalType": "uint256",
          "name": "ticketId",
          "type": "uint256"
        }
      ],
      "name": "RetryableTicketCreated",
      "type": "event"
    },
    {
      "anonymous": false,
      "inputs": [
        {
          "indexed": true,
          "internalType": "contract IArbitrator",
          "name": "_arbitrator",
          "type": "address"
        },
        {
          "indexed": true,
          "internalType": "uint256",
          "name": "_disputeID",
          "type": "uint256"
        },
        {
          "indexed": false,
          "internalType": "uint256",
          "name": "_ruling",
          "type": "uint256"
        }
      ],
      "name": "Ruling",
      "type": "event"
    },
    {
      "anonymous": false,
      "inputs": [
        {
          "indexed": true,
          "internalType": "uint256",
          "name": "_localDisputeID",
          "type": "uint256"
        },
        {
          "indexed": true,
          "internalType": "uint256",
          "name": "_round",
          "type": "uint256"
        },
        {
          "indexed": true,
          "internalType": "uint256",
          "name": "_ruling",
          "type": "uint256"
        }
      ],
      "name": "RulingFunded",
      "type": "event"
    },
    {
      "anonymous": false,
      "inputs": [
        {
          "indexed": false,
          "internalType": "bytes32",
          "name": "_questionID",
          "type": "bytes32"
        },
        {
          "indexed": false,
          "internalType": "bytes32",
          "name": "_ruling",
          "type": "bytes32"
        }
      ],
      "name": "RulingRelayed",
      "type": "event"
    },
    {
      "anonymous": false,
      "inputs": [
        {
          "indexed": true,
          "internalType": "uint256",
          "name": "_localDisputeID",
          "type": "uint256"
        },
        {
          "indexed": true,
          "internalType": "uint256",
          "name": "_round",
          "type": "uint256"
        },
        {
          "indexed": false,
          "internalType": "uint256",
          "name": "_ruling",
          "type": "uint256"
        },
        {
          "indexed": true,
          "internalType": "address",
          "name": "_contributor",
          "type": "address"
        },
        {
          "indexed": false,
          "internalType": "uint256",
          "name": "_reward",
          "type": "uint256"
        }
      ],
      "name": "Withdrawal",
      "type": "event"
    },
    {
      "inputs": [],
      "name": "META_EVIDENCE_ID",
      "outputs": [
        {
          "internalType": "uint256",
          "name": "",
          "type": "uint256"
        }
      ],
      "stateMutability": "view",
      "type": "function"
    },
    {
      "inputs": [],
      "name": "MULTIPLIER_DIVISOR",
      "outputs": [
        {
          "internalType": "uint256",
          "name": "",
          "type": "uint256"
        }
      ],
      "stateMutability": "view",
      "type": "function"
    },
    {
      "inputs": [],
      "name": "NUMBER_OF_CHOICES_FOR_ARBITRATOR",
      "outputs": [
        {
          "internalType": "uint256",
          "name": "",
          "type": "uint256"
        }
      ],
      "stateMutability": "view",
      "type": "function"
    },
    {
      "inputs": [],
      "name": "REFUSE_TO_ARBITRATE_REALITIO",
      "outputs": [
        {
          "internalType": "uint256",
          "name": "",
          "type": "uint256"
        }
      ],
      "stateMutability": "view",
      "type": "function"
    },
    {
      "inputs": [],
      "name": "VERSION",
      "outputs": [
        {
          "internalType": "string",
          "name": "",
          "type": "string"
        }
      ],
      "stateMutability": "view",
      "type": "function"
    },
    {
      "inputs": [
        {
          "internalType": "uint256",
          "name": "",
          "type": "uint256"
        }
      ],
      "name": "arbitrationCreatedBlock",
      "outputs": [
        {
          "internalType": "uint256",
          "name": "",
          "type": "uint256"
        }
      ],
      "stateMutability": "view",
      "type": "function"
    },
    {
      "inputs": [
        {
          "internalType": "uint256",
          "name": "",
          "type": "uint256"
        }
      ],
      "name": "arbitrationIDToDisputeExists",
      "outputs": [
        {
          "internalType": "bool",
          "name": "",
          "type": "bool"
        }
      ],
      "stateMutability": "view",
      "type": "function"
    },
    {
      "inputs": [
        {
          "internalType": "uint256",
          "name": "",
          "type": "uint256"
        }
      ],
      "name": "arbitrationIDToRequester",
      "outputs": [
        {
          "internalType": "address",
          "name": "",
          "type": "address"
        }
      ],
      "stateMutability": "view",
      "type": "function"
    },
    {
      "inputs": [
        {
          "internalType": "uint256",
          "name": "",
          "type": "uint256"
        },
        {
          "internalType": "address",
          "name": "",
          "type": "address"
        }
      ],
      "name": "arbitrationRequests",
      "outputs": [
        {
          "internalType": "enum RealitioForeignProxyArbitrum.Status",
          "name": "status",
          "type": "uint8"
        },
        {
          "internalType": "uint248",
          "name": "deposit",
          "type": "uint248"
        },
        {
          "internalType": "uint256",
          "name": "disputeID",
          "type": "uint256"
        },
        {
          "internalType": "uint256",
          "name": "answer",
          "type": "uint256"
        }
      ],
      "stateMutability": "view",
      "type": "function"
    },
    {
      "inputs": [],
      "name": "arbitrator",
      "outputs": [
        {
          "internalType": "contract IArbitrator",
          "name": "",
          "type": "address"
        }
      ],
      "stateMutability": "view",
      "type": "function"
    },
    {
      "inputs": [],
      "name": "arbitratorExtraData",
      "outputs": [
        {
          "internalType": "bytes",
          "name": "",
          "type": "bytes"
        }
      ],
      "stateMutability": "view",
      "type": "function"
    },
    {
      "inputs": [
        {
          "internalType": "uint256",
          "name": "",
          "type": "uint256"
        }
      ],
      "name": "disputeIDToDisputeDetails",
      "outputs": [
        {
          "internalType": "uint256",
          "name": "arbitrationID",
          "type": "uint256"
        },
        {
          "internalType": "address",
          "name": "requester",
          "type": "address"
        }
      ],
      "stateMutability": "view",
      "type": "function"
    },
    {
      "inputs": [
        {
          "internalType": "uint256",
          "name": "_externalDisputeID",
          "type": "uint256"
        }
      ],
      "name": "externalIDtoLocalID",
      "outputs": [
        {
          "internalType": "uint256",
          "name": "",
          "type": "uint256"
        }
      ],
      "stateMutability": "view",
      "type": "function"
    },
    {
      "inputs": [
        {
          "internalType": "uint256",
          "name": "_arbitrationID",
          "type": "uint256"
        },
        {
          "internalType": "uint256",
          "name": "_answer",
          "type": "uint256"
        }
      ],
      "name": "fundAppeal",
      "outputs": [
        {
          "internalType": "bool",
          "name": "",
          "type": "bool"
        }
      ],
      "stateMutability": "payable",
      "type": "function"
    },
    {
      "inputs": [],
      "name": "gasPriceBid",
      "outputs": [
        {
          "internalType": "uint256",
          "name": "",
          "type": "uint256"
        }
      ],
      "stateMutability": "view",
      "type": "function"
    },
    {
      "inputs": [
        {
          "internalType": "uint256",
          "name": "_arbitrationID",
          "type": "uint256"
        },
        {
          "internalType": "uint256",
          "name": "_round",
          "type": "uint256"
        },
        {
          "internalType": "address",
          "name": "_contributor",
          "type": "address"
        }
      ],
      "name": "getContributionsToSuccessfulFundings",
      "outputs": [
        {
          "internalType": "uint256[]",
          "name": "fundedAnswers",
          "type": "uint256[]"
        },
        {
          "internalType": "uint256[]",
          "name": "contributions",
          "type": "uint256[]"
        }
      ],
      "stateMutability": "view",
      "type": "function"
    },
    {
      "inputs": [
        {
          "internalType": "bytes32",
          "name": "",
          "type": "bytes32"
        }
      ],
      "name": "getDisputeFee",
      "outputs": [
        {
          "internalType": "uint256",
          "name": "",
          "type": "uint256"
        }
      ],
      "stateMutability": "view",
      "type": "function"
    },
    {
      "inputs": [
        {
          "internalType": "uint256",
          "name": "_arbitrationID",
          "type": "uint256"
        },
        {
          "internalType": "uint256",
          "name": "_round",
          "type": "uint256"
        },
        {
          "internalType": "uint256",
          "name": "_answer",
          "type": "uint256"
        }
      ],
      "name": "getFundingStatus",
      "outputs": [
        {
          "internalType": "uint256",
          "name": "raised",
          "type": "uint256"
        },
        {
          "internalType": "bool",
          "name": "fullyFunded",
          "type": "bool"
        }
      ],
      "stateMutability": "view",
      "type": "function"
    },
    {
      "inputs": [],
      "name": "getMultipliers",
      "outputs": [
        {
          "internalType": "uint256",
          "name": "winner",
          "type": "uint256"
        },
        {
          "internalType": "uint256",
          "name": "loser",
          "type": "uint256"
        },
        {
          "internalType": "uint256",
          "name": "loserAppealPeriod",
          "type": "uint256"
        },
        {
          "internalType": "uint256",
          "name": "divisor",
          "type": "uint256"
        }
      ],
      "stateMutability": "view",
      "type": "function"
    },
    {
      "inputs": [
        {
          "internalType": "uint256",
          "name": "_arbitrationID",
          "type": "uint256"
        }
      ],
      "name": "getNumberOfRounds",
      "outputs": [
        {
          "internalType": "uint256",
          "name": "",
          "type": "uint256"
        }
      ],
      "stateMutability": "view",
      "type": "function"
    },
    {
      "inputs": [
        {
          "internalType": "uint256",
          "name": "_arbitrationID",
          "type": "uint256"
        },
        {
          "internalType": "uint256",
          "name": "_round",
          "type": "uint256"
        }
      ],
      "name": "getRoundInfo",
      "outputs": [
        {
          "internalType": "uint256[]",
          "name": "paidFees",
          "type": "uint256[]"
        },
        {
          "internalType": "uint256",
          "name": "feeRewards",
          "type": "uint256"
        },
        {
          "internalType": "uint256[]",
          "name": "fundedAnswers",
          "type": "uint256[]"
        }
      ],
      "stateMutability": "view",
      "type": "function"
    },
    {
      "inputs": [
        {
          "internalType": "uint256",
          "name": "_arbitrationID",
          "type": "uint256"
        },
        {
          "internalType": "address payable",
          "name": "_beneficiary",
          "type": "address"
        },
        {
          "internalType": "uint256",
          "name": "_contributedTo",
          "type": "uint256"
        }
      ],
      "name": "getTotalWithdrawableAmount",
      "outputs": [
        {
          "internalType": "uint256",
          "name": "sum",
          "type": "uint256"
        }
      ],
      "stateMutability": "view",
      "type": "function"
    },
    {
      "inputs": [
        {
          "internalType": "bytes32",
          "name": "_questionID",
          "type": "bytes32"
        },
        {
          "internalType": "address",
          "name": "_requester",
          "type": "address"
        }
      ],
      "name": "handleFailedDisputeCreation",
      "outputs": [],
      "stateMutability": "payable",
      "type": "function"
    },
    {
      "inputs": [],
      "name": "homeProxy",
      "outputs": [
        {
          "internalType": "address",
          "name": "",
          "type": "address"
        }
      ],
      "stateMutability": "view",
      "type": "function"
    },
    {
      "inputs": [],
      "name": "inbox",
      "outputs": [
        {
          "internalType": "contract IInbox",
          "name": "",
          "type": "address"
        }
      ],
      "stateMutability": "view",
      "type": "function"
    },
    {
      "inputs": [],
      "name": "l2GasLimit",
      "outputs": [
        {
          "internalType": "uint256",
          "name": "",
          "type": "uint256"
        }
      ],
      "stateMutability": "view",
      "type": "function"
    },
    {
      "inputs": [],
      "name": "loserAppealPeriodMultiplier",
      "outputs": [
        {
          "internalType": "uint256",
          "name": "",
          "type": "uint256"
        }
      ],
      "stateMutability": "view",
      "type": "function"
    },
    {
      "inputs": [],
      "name": "loserMultiplier",
      "outputs": [
        {
          "internalType": "uint256",
          "name": "",
          "type": "uint256"
        }
      ],
      "stateMutability": "view",
      "type": "function"
    },
    {
      "inputs": [
        {
          "internalType": "uint256",
          "name": "",
          "type": "uint256"
        }
      ],
      "name": "numberOfRulingOptions",
      "outputs": [
        {
          "internalType": "uint256",
          "name": "",
          "type": "uint256"
        }
      ],
      "stateMutability": "pure",
      "type": "function"
    },
    {
      "inputs": [
        {
          "internalType": "bytes32",
          "name": "_questionID",
          "type": "bytes32"
        }
      ],
      "name": "questionIDToArbitrationID",
      "outputs": [
        {
          "internalType": "uint256",
          "name": "",
          "type": "uint256"
        }
      ],
      "stateMutability": "pure",
      "type": "function"
    },
    {
      "inputs": [
        {
          "internalType": "bytes32",
          "name": "_questionID",
          "type": "bytes32"
        },
        {
          "internalType": "address",
          "name": "_requester",
          "type": "address"
        }
      ],
      "name": "receiveArbitrationAcknowledgement",
      "outputs": [],
      "stateMutability": "nonpayable",
      "type": "function"
    },
    {
      "inputs": [
        {
          "internalType": "bytes32",
          "name": "_questionID",
          "type": "bytes32"
        },
        {
          "internalType": "address",
          "name": "_requester",
          "type": "address"
        }
      ],
      "name": "receiveArbitrationCancelation",
      "outputs": [],
      "stateMutability": "nonpayable",
      "type": "function"
    },
    {
      "inputs": [
        {
          "internalType": "bytes32",
          "name": "_questionID",
          "type": "bytes32"
        },
        {
          "internalType": "address",
          "name": "_requester",
          "type": "address"
        }
      ],
      "name": "relayRule",
      "outputs": [],
      "stateMutability": "payable",
      "type": "function"
    },
    {
      "inputs": [
        {
          "internalType": "bytes32",
          "name": "_questionID",
          "type": "bytes32"
        },
        {
          "internalType": "uint256",
          "name": "_maxPrevious",
          "type": "uint256"
        }
      ],
      "name": "requestArbitration",
      "outputs": [],
      "stateMutability": "payable",
      "type": "function"
    },
    {
      "inputs": [
        {
          "internalType": "uint256",
          "name": "_disputeID",
          "type": "uint256"
        },
        {
          "internalType": "uint256",
          "name": "_ruling",
          "type": "uint256"
        }
      ],
      "name": "rule",
      "outputs": [],
      "stateMutability": "nonpayable",
      "type": "function"
    },
    {
      "inputs": [
        {
          "internalType": "uint256",
          "name": "_arbitrationID",
          "type": "uint256"
        },
        {
          "internalType": "string",
          "name": "_evidenceURI",
          "type": "string"
        }
      ],
      "name": "submitEvidence",
      "outputs": [],
      "stateMutability": "nonpayable",
      "type": "function"
    },
    {
      "inputs": [],
      "name": "surplusAmount",
      "outputs": [
        {
          "internalType": "uint256",
          "name": "",
          "type": "uint256"
        }
      ],
      "stateMutability": "view",
      "type": "function"
    },
    {
      "inputs": [],
      "name": "winnerMultiplier",
      "outputs": [
        {
          "internalType": "uint256",
          "name": "",
          "type": "uint256"
        }
      ],
      "stateMutability": "view",
      "type": "function"
    },
    {
      "inputs": [
        {
          "internalType": "uint256",
          "name": "_arbitrationID",
          "type": "uint256"
        },
        {
          "internalType": "address payable",
          "name": "_beneficiary",
          "type": "address"
        },
        {
          "internalType": "uint256",
          "name": "_round",
          "type": "uint256"
        },
        {
          "internalType": "uint256",
          "name": "_answer",
          "type": "uint256"
        }
      ],
      "name": "withdrawFeesAndRewards",
      "outputs": [
        {
          "internalType": "uint256",
          "name": "reward",
          "type": "uint256"
        }
      ],
      "stateMutability": "nonpayable",
      "type": "function"
    },
    {
      "inputs": [
        {
          "internalType": "uint256",
          "name": "_arbitrationID",
          "type": "uint256"
        },
        {
          "internalType": "address payable",
          "name": "_beneficiary",
          "type": "address"
        },
        {
          "internalType": "uint256",
          "name": "_contributedTo",
          "type": "uint256"
        }
      ],
      "name": "withdrawFeesAndRewardsForAllRounds",
      "outputs": [],
      "stateMutability": "nonpayable",
      "type": "function"
    }
  ],
  "transactionHash": "0xc7b5230c89a117c781cd4ec53ac8b788a97e3e078883d7853fb426fa6ca5a085",
  "args": [
    "0x988b3a538b618c7a603e1c11ab82cd16dbe28069",
    "0x0000000000000000000000000000000000000000000000000000000000000018000000000000000000000000000000000000000000000000000000000000000f",
    "/ipfs/QmVNnQ9XXemFzVopUwK1Y6MBnzwvoLKE8eFuarfwpLxayB",
    3000,
    7000,
    5000,
    "0xcB4B48d2A7a44247A00048963F169d2b4Ab045a6",
    "0x4Dbd4fc535Ac27206064B68FfCf827b0A60BAB3f",
    "30000000000000000",
    1500000,
    1000000000
  ],
  "numDeployments": 1,
  "solcInputHash": "010d7b29ac8da32664f0881f8401ccf6",
  "bytecode": "0x6101a060405234801561001157600080fd5b50604051613df9380380613df9833981016040819052610030916101a8565b6001600160a01b038b1660a05260006100498b8261030c565b506101408890526101608790526101808690526001600160a01b03808616608052841660c05261012083905260e08290526101008190526040516000907f61606860eb6c87306811e2695215385101daab53bd6ab4e9f9049aead9363c7d906100b3908c906103cb565b60405180910390a250505050505050505050506103fe565b80516001600160a01b03811681146100e257600080fd5b919050565b634e487b7160e01b600052604160045260246000fd5b60005b83811015610118578181015183820152602001610100565b50506000910152565b600082601f83011261013257600080fd5b81516001600160401b038082111561014c5761014c6100e7565b604051601f8301601f19908116603f01168101908282118183101715610174576101746100e7565b8160405283815286602085880101111561018d57600080fd5b61019e8460208301602089016100fd565b9695505050505050565b60008060008060008060008060008060006101608c8e0312156101ca57600080fd5b6101d38c6100cb565b60208d0151909b506001600160401b038111156101ef57600080fd5b6101fb8e828f01610121565b60408e0151909b5090506001600160401b0381111561021957600080fd5b6102258e828f01610121565b99505060608c0151975060808c0151965060a08c0151955061024960c08d016100cb565b945061025760e08d016100cb565b93506101008c015192506101208c015191506101408c015190509295989b509295989b9093969950565b600181811c9082168061029557607f821691505b6020821081036102b557634e487b7160e01b600052602260045260246000fd5b50919050565b601f821115610307576000816000526020600020601f850160051c810160208610156102e45750805b601f850160051c820191505b81811015610303578281556001016102f0565b5050505b505050565b81516001600160401b03811115610325576103256100e7565b610339816103338454610281565b846102bb565b602080601f83116001811461036e57600084156103565750858301515b600019600386901b1c1916600185901b178555610303565b600085815260208120601f198616915b8281101561039d5788860151825594840194600190910190840161037e565b50858210156103bb5787850151600019600388901b60f8161c191681555b5050505050600190811b01905550565b60208152600082518060208401526103ea8160408501602087016100fd565b601f01601f19169190910160400192915050565b60805160a05160c05160e05161010051610120516101405161016051610180516138736105866000396000818161025201528181610509015261147c0152600081816104e3015281816105a201526115120152600081816104c0015281816105d601526114510152600081816102bb0152611e650152600081816103f10152818161115101528181611bb8015281816122f301526131770152600081816107b20152818161113001528181611b97015281816122d201526131980152600081816108a401528181610f6a015281816110da01528181611a5e01528181611b41015281816120d80152818161227c01528181612471015261291801526000818161045501528181610a2e01528181610b64015281816112ee015281816113db015281816115ef0152818161188301528181611e8601528181611f290152818161215c01528181612b9e01528181612c440152612e270152600081816103470152818161110a01528181611b71015281816122ac015281816126060152612aad01526138736000f3fe60806040526004361061023b5760003560e01c80639b3ac9981161012e578063c599c66f116100ab578063edabc4741161006f578063edabc4741461082a578063fb0e722b14610892578063fc6f8f16146108c6578063fe2dddeb14610913578063ffa1ad741461093357600080fd5b8063c599c66f14610772578063cf6e65b7146107a0578063d661dd31146107d4578063e742e2ed146107ea578063ec85635b1461080a57600080fd5b8063bb163782116100f2578063bb16378214610678578063bb2fe65f14610696578063bde80ca7146106cb578063be26fc8814610725578063c21ae0611461074557600080fd5b80639b3ac998146105c4578063a22352e2146105f8578063a6a7f0eb14610618578063a829c3d114610638578063aba980eb1461064b57600080fd5b806354dba90f116101bc57806379873f8a1161018057806379873f8a146104ad5780637a710491146102dd5780638a9bb02a1461053f5780638d8b2d7e1461056e578063965394ab1461059057600080fd5b806354dba90f146103ca5780635d942ac1146103df57806368cb30f5146104135780636cc6cde114610443578063756804c01461047757600080fd5b8063362c347911610203578063362c34791461031557806348f37857146103355780634aa6a1e4146103815780634b2f0ea0146103945780635082a799146103b757600080fd5b80630c139eb4146102405780630c7ac7b6146102875780630dff24d5146102a95780630fa8c7ce146102dd578063311a6c56146102f3575b600080fd5b34801561024c57600080fd5b506102747f000000000000000000000000000000000000000000000000000000000000000081565b6040519081526020015b60405180910390f35b34801561029357600080fd5b5061029c610964565b60405161027e919061328a565b3480156102b557600080fd5b506102747f000000000000000000000000000000000000000000000000000000000000000081565b3480156102e957600080fd5b5061027460001981565b3480156102ff57600080fd5b5061031361030e36600461329d565b6109f2565b005b34801561032157600080fd5b506102746103303660046132d4565b610bbc565b34801561034157600080fd5b506103697f000000000000000000000000000000000000000000000000000000000000000081565b6040516001600160a01b03909116815260200161027e565b61031361038f366004613311565b610ea3565b6103a76103a236600461329d565b611248565b604051901515815260200161027e565b6103136103c5366004613311565b61194f565b3480156103d657600080fd5b50610274600081565b3480156103eb57600080fd5b506102747f000000000000000000000000000000000000000000000000000000000000000081565b34801561041f57600080fd5b506103a761042e366004613341565b60036020526000908152604090205460ff1681565b34801561044f57600080fd5b506103697f000000000000000000000000000000000000000000000000000000000000000081565b34801561048357600080fd5b50610369610492366004613341565b6004602052600090815260409020546001600160a01b031681565b3480156104b957600080fd5b50604080517f000000000000000000000000000000000000000000000000000000000000000081527f000000000000000000000000000000000000000000000000000000000000000060208201527f000000000000000000000000000000000000000000000000000000000000000091810191909152612710606082015260800161027e565b34801561054b57600080fd5b5061055f61055a36600461329d565b611ce9565b60405161027e93929190613396565b34801561057a57600080fd5b50610274610589366004613341565b5060001990565b34801561059c57600080fd5b506102747f000000000000000000000000000000000000000000000000000000000000000081565b3480156105d057600080fd5b506102747f000000000000000000000000000000000000000000000000000000000000000081565b34801561060457600080fd5b50610274610613366004613341565b611e61565b34801561062457600080fd5b506103136106333660046133cb565b611f1c565b61031361064636600461329d565b611f8f565b34801561065757600080fd5b50610274610666366004613341565b60056020526000908152604090205481565b34801561068457600080fd5b50610274610693366004613341565b90565b3480156106a257600080fd5b506106b66106b1366004613447565b6123e9565b6040805192835290151560208301520161027e565b3480156106d757600080fd5b506107086106e6366004613341565b600260205260009081526040902080546001909101546001600160a01b031682565b604080519283526001600160a01b0390911660208301520161027e565b34801561073157600080fd5b50610313610740366004613311565b61246d565b34801561075157600080fd5b50610274610760366004613341565b60009081526002602052604090205490565b34801561077e57600080fd5b5061079261078d366004613473565b612796565b60405161027e9291906134ac565b3480156107ac57600080fd5b506102747f000000000000000000000000000000000000000000000000000000000000000081565b3480156107e057600080fd5b5061027461271081565b3480156107f657600080fd5b50610313610805366004613311565b612914565b34801561081657600080fd5b506102746108253660046134da565b612ec7565b34801561083657600080fd5b50610882610845366004613311565b6001602081815260009384526040808520909152918352912080549181015460029091015460ff83169261010090046001600160f81b0316919084565b60405161027e9493929190613528565b34801561089e57600080fd5b506103697f000000000000000000000000000000000000000000000000000000000000000081565b3480156108d257600080fd5b506102746108e1366004613341565b600090815260046020908152604080832054600183528184206001600160a01b03909116845290915290206003015490565b34801561091f57600080fd5b5061031361092e3660046134da565b613114565b34801561093f57600080fd5b5061029c604051806040016040528060058152602001640322e302e360dc1b81525081565b600080546109719061356f565b80601f016020809104026020016040519081016040528092919081815260200182805461099d9061356f565b80156109ea5780601f106109bf576101008083540402835291602001916109ea565b820191906000526020600020905b8154815290600101906020018083116109cd57829003601f168201915b505050505081565b600082815260026020908152604080832080546001808301548287529085528386206001600160a01b03918216808852955292909420909392917f0000000000000000000000000000000000000000000000000000000000000000163314610aa15760405162461bcd60e51b815260206004820152601760248201527f4f6e6c792061726269747261746f7220616c6c6f77656400000000000000000060448201526064015b60405180910390fd5b6002815460ff166005811115610ab957610ab9613512565b14610ad65760405162461bcd60e51b8152600401610a98906135a9565b6003810180548691600091610aed906001906135f6565b81548110610afd57610afd613609565b906000526020600020906005020190508060040180549050600103610b405780600401600081548110610b3257610b32613609565b906000526020600020015491505b60028301829055825460ff1916600317835560405182815288906001600160a01b037f000000000000000000000000000000000000000000000000000000000000000016907f394027a5fa6e098a1191094d1719d6929b9abc535fcc0c8f448d6a4e756222769060200160405180910390a35050505050505050565b600084815260046020908152604080832054600183528184206001600160a01b039091168085529252822060038101805484919087908110610c0057610c00613609565b6000918252602090912060059091020190506003825460ff166005811115610c2a57610c2a613512565b14610c6e5760405162461bcd60e51b8152602060048201526014602482015273111a5cdc1d5d19481b9bdd081c995cdbdb1d995960621b6044820152606401610a98565b600085815260018201602052604090205460ff16610cb3576001600160a01b038716600090815260028201602090815260408083208884529091529020549350610e09565b6002820154600090815260018201602052604090205460ff16610d9f576004810154600110610ce3576000610d98565b80600001600082600401600181548110610cff57610cff613609565b906000526020600020015481526020019081526020016000205481600001600083600401600081548110610d3557610d35613609565b9060005260206000200154815260200190815260200160002054610d59919061361f565b60038201546001600160a01b038916600090815260028401602090815260408083208a8452909152902054610d8e9190613632565b610d989190613649565b9350610e09565b84826002015403610e095760008581526020829052604090205480610dc5576000610e05565b60038201546001600160a01b038916600090815260028401602090815260408083208a84529091529020548291610dfb91613632565b610e059190613649565b9450505b8315610e98576001600160a01b038716600081815260028301602090815260408083208984529091528082208290555186156108fc0291879190818181858888f1505060408051898152602081018990526001600160a01b038c1694508a93508c92507f54b3cab3cb5c4aca3209db1151caff092e878011202e43a36782d4ebe0b963ae910160405180910390a45b505050949350505050565b60008281526001602090815260408083206001600160a01b0385168452909152902082906005815460ff166005811115610edf57610edf613512565b14610efc5760405162461bcd60e51b8152600401610a98906135a9565b6040805160248082018790526001600160a01b03868116604480850191909152845180850382018152606490940185526020840180516001600160e01b03166305fb2b4f60e51b9081179091528451955163a66b327d60e01b815260048101969096526000938601849052947f00000000000000000000000000000000000000000000000000000000000000009092169163a66b327d9101602060405180830381865afa158015610fb1573d6000803e3d6000fd5b505050506040513d601f19601f82011682018060405250810190610fd5919061366b565b90506000610fe282613170565b9050803410156110305760405162461bcd60e51b815260206004820152601960248201527853686f756c6420636f76657220617262697472756d2066656560381b6044820152606401610a98565b845460008781526001602081815260408084206001600160a01b038d1685529091528220828155908101829055600281018290556101009092046001600160f81b0316919061108260038301826131c7565b506000905061109183346135f6565b604051909150339082156108fc029083906000818181858888f150506040516001600160a01b038d16935085156108fc0292508591506000818181858888f193505050505060007f00000000000000000000000000000000000000000000000000000000000000006001600160a01b031663679b6ded857f000000000000000000000000000000000000000000000000000000000000000060008933337f00000000000000000000000000000000000000000000000000000000000000007f00000000000000000000000000000000000000000000000000000000000000008f6040518a63ffffffff1660e01b8152600401611194989796959493929190613684565b60206040518083038185885af11580156111b2573d6000803e3d6000fd5b50505050506040513d601f19601f820116820180604052508101906111d7919061366b565b60405190915081907fde92b5b7839f4a2c640f5e3bbb66d415458dadc57a487b0c7fa562ed7c9c896f90600090a26040516001600160a01b038b16908c907fe7700735be0b02f71ef1d623678daf36cd936af4c349a22ad9d5a8b217df0dd990600090a35050505050505050505050565b600082815260016020908152604080832060048352818420546001600160a01b0316845290915281206002815460ff16600581111561128957611289613512565b146112ce5760405162461bcd60e51b81526020600482015260156024820152742737903234b9b83aba32903a379030b83832b0b61760591b6044820152606401610a98565b600181015460405163afe15cfb60e01b81526004810182905260009081907f00000000000000000000000000000000000000000000000000000000000000006001600160a01b03169063afe15cfb906024016040805180830381865afa15801561133c573d6000803e3d6000fd5b505050506040513d601f19601f8201168201806040525081019061136091906136df565b9150915081421015801561137357508042105b6113b85760405162461bcd60e51b815260206004820152601660248201527520b83832b0b6103832b934b7b21034b99037bb32b91760511b6044820152606401610a98565b604051631c3db16d60e01b81526004810184905260009081906001600160a01b037f00000000000000000000000000000000000000000000000000000000000000001690631c3db16d90602401602060405180830381865afa158015611422573d6000803e3d6000fd5b505050506040513d601f19601f82011682018060405250810190611446919061366b565b9050878103611477577f00000000000000000000000000000000000000000000000000000000000000009150611534565b6127107f00000000000000000000000000000000000000000000000000000000000000006114a586866135f6565b6114af9190613632565b6114b99190613649565b6114c385426135f6565b106115105760405162461bcd60e51b815260206004820152601f60248201527f41707065616c20706572696f64206973206f76657220666f72206c6f736572006044820152606401610a98565b7f000000000000000000000000000000000000000000000000000000000000000091505b506003850154600090611549906001906135f6565b9050600086600301828154811061156257611562613609565b600091825260208083208c84526001600590930201918201905260409091205490915060ff16156115d55760405162461bcd60e51b815260206004820152601b60248201527f41707065616c2066656520697320616c726561647920706169642e00000000006044820152606401610a98565b60405163791f8b7360e11b81526000906001600160a01b037f0000000000000000000000000000000000000000000000000000000000000000169063f23f16e690611626908a9085906004016137a7565b602060405180830381865afa158015611643573d6000803e3d6000fd5b505050506040513d601f19601f82011682018060405250810190611667919061366b565b905060006127106116788684613632565b6116829190613649565b61168c908361361f565b60008c8152602085905260408120549192509034906116ab90846135f6565b116116ce5760008c8152602085905260409020546116c990836135f6565b6116d0565b345b9050336001600160a01b0316858e7fcae597f39a3ad75c2e10d46b031f023c5c2babcd58ca0491b122acda3968d4c08f85604051611718929190918252602082015260400190565b60405180910390a433600090815260028501602090815260408083208f84529091528120805483929061174c90849061361f565b909155505060008c8152602085905260408120805483929061176f90849061361f565b909155505060008c815260208590526040902054821161183d5760008c815260208590526040812054600386018054919290916117ad90849061361f565b92505081905550836004018c908060018154018082558091505060019003906000526020600020016000909190919091505560018460010160008e815260200190815260200160002060006101000a81548160ff0219169083151502179055508b858e7f39493c1b78d9a13bcc9e1d532fc7faed3889248d93affa811416ce3c6bcb1a6860405160405180910390a45b6004840154600110156118f0576003808b01805460010181556000528401546118679084906135f6565b600385015560405163093225f160e31b81526001600160a01b037f000000000000000000000000000000000000000000000000000000000000000016906349912f889085906118bd908d906000906004016137a7565b6000604051808303818588803b1580156118d657600080fd5b505af11580156118ea573d6000803e3d6000fd5b50505050505b60006118fc82346135f6565b111561192857336108fc61191083346135f6565b6040518115909202916000818181858888f150505050505b50505060008981526001909101602052604090205460ff1696505050505050505b92915050565b60008281526001602090815260408083206001600160a01b0385168452909152902082906003815460ff16600581111561198b5761198b613512565b146119cf5760405162461bcd60e51b8152602060048201526014602482015273111a5cdc1d5d19481b9bdd081c995cdbdb1d995960621b6044820152606401610a98565b600081600201546000036119e5576000196119f6565b600182600201546119f691906135f6565b6040805160248082018990526044808301859052835180840382018152606490930184526020830180516001600160e01b03166306bad43760e51b9081179091528351945163a66b327d60e01b815260048101959095526000928501839052949550919290917f00000000000000000000000000000000000000000000000000000000000000006001600160a01b03169163a66b327d9101602060405180830381865afa158015611aab573d6000803e3d6000fd5b505050506040513d601f19601f82011682018060405250810190611acf919061366b565b90506000611adc82613170565b905080341015611b2a5760405162461bcd60e51b815260206004820152601960248201527853686f756c6420636f76657220617262697472756d2066656560381b6044820152606401610a98565b8554600490879060ff1916600183021790555060007f00000000000000000000000000000000000000000000000000000000000000006001600160a01b031663679b6ded837f000000000000000000000000000000000000000000000000000000000000000060008733337f00000000000000000000000000000000000000000000000000000000000000007f00000000000000000000000000000000000000000000000000000000000000008d6040518a63ffffffff1660e01b8152600401611bfb989796959493929190613684565b60206040518083038185885af1158015611c19573d6000803e3d6000fd5b50505050506040513d601f19601f82011682018060405250810190611c3e919061366b565b60405190915081907fde92b5b7839f4a2c640f5e3bbb66d415458dadc57a487b0c7fa562ed7c9c896f90600090a2604080518b8152602081018890527fba07eb273dd4b62b682a13480e2838bfbd6afab07919d6bcad9156af107f8c41910160405180910390a16000611cb183346135f6565b1115611cdd57336108fc611cc584346135f6565b6040518115909202916000818181858888f150505050505b50505050505050505050565b600082815260046020908152604080832054600183528184206001600160a01b03909116808552925282206003810180546060949385939092909185919088908110611d3757611d37613609565b9060005260206000209060050201905080600401805480602002602001604051908101604052809291908181526020018280548015611d9557602002820191906000526020600020905b815481526020019060010190808311611d81575b5050506004840154929650505067ffffffffffffffff811115611dba57611dba6137c8565b604051908082528060200260200182016040528015611de3578160200160208202803683370190505b50955060005b6004820154811015611e4f57816000016000836004018381548110611e1057611e10613609565b9060005260206000200154815260200190815260200160002054878281518110611e3c57611e3c613609565b6020908102919091010152600101611de9565b50806003015494505050509250925092565b60007f00000000000000000000000000000000000000000000000000000000000000007f00000000000000000000000000000000000000000000000000000000000000006001600160a01b031663f7434ea960006040518263ffffffff1660e01b8152600401611ed191906137de565b602060405180830381865afa158015611eee573d6000803e3d6000fd5b505050506040513d601f19601f82011682018060405250810190611f12919061366b565b611949919061361f565b336001600160a01b0316837f00000000000000000000000000000000000000000000000000000000000000006001600160a01b03167fdccf2f8b2cc26eafcd61905cba744cff4b81d14740725f6376390dc6298a6a3c8585604051611f829291906137f1565b60405180910390a4505050565b60008281526003602052604090205460ff1615611fee5760405162461bcd60e51b815260206004820152601760248201527f4469737075746520616c726561647920637265617465640000000000000000006044820152606401610a98565b6000828152600160209081526040808320338452909152812090815460ff16600581111561201e5761201e613512565b1461206b5760405162461bcd60e51b815260206004820152601d60248201527f4172626974726174696f6e20616c7265616479207265717565737465640000006044820152606401610a98565b60408051602480820186905233604480840191909152606480840187905284518085039091018152608490930184526020830180516001600160e01b031663666b746960e11b9081179091528351945163a66b327d60e01b815260048101959095526000928501839052937f00000000000000000000000000000000000000000000000000000000000000006001600160a01b03169163a66b327d9101602060405180830381865afa158015612125573d6000803e3d6000fd5b505050506040513d601f19601f82011682018060405250810190612149919061366b565b9050600061215682613170565b905060007f00000000000000000000000000000000000000000000000000000000000000006001600160a01b031663f7434ea960006040518263ffffffff1660e01b81526004016121a791906137de565b602060405180830381865afa1580156121c4573d6000803e3d6000fd5b505050506040513d601f19601f820116820180604052508101906121e8919061366b565b90506121f4828261361f565b34101561223b5760405162461bcd60e51b81526020600482015260156024820152744465706f7369742076616c756520746f6f206c6f7760581b6044820152606401610a98565b855460ff1916600117865561225082346135f6565b8660000160016101000a8154816001600160f81b0302191690836001600160f81b0316021790555060007f00000000000000000000000000000000000000000000000000000000000000006001600160a01b031663679b6ded847f000000000000000000000000000000000000000000000000000000000000000060008833337f00000000000000000000000000000000000000000000000000000000000000007f00000000000000000000000000000000000000000000000000000000000000008e6040518a63ffffffff1660e01b8152600401612336989796959493929190613684565b60206040518083038185885af1158015612354573d6000803e3d6000fd5b50505050506040513d601f19601f82011682018060405250810190612379919061366b565b60405190915081907fde92b5b7839f4a2c640f5e3bbb66d415458dadc57a487b0c7fa562ed7c9c896f90600090a260405188815233908a907f2067d1b3170fe803dd001b95b04f9d372eb9c3e5a48ed131a62962a7300bdb209060200160405180910390a3505050505050505050565b600083815260046020908152604080832054600183528184206001600160a01b03909116808552925282206003810180548493929184918890811061243057612430613609565b600091825260208083209883526005909102909701808852604080832054600190920190985296902054959860ff90961697509495505050505050565b60007f00000000000000000000000000000000000000000000000000000000000000006001600160a01b031663e78cea926040518163ffffffff1660e01b8152600401602060405180830381865afa1580156124cd573d6000803e3d6000fd5b505050506040513d601f19601f820116820180604052508101906124f19190613820565b9050336001600160a01b038216146125385760405162461bcd60e51b815260206004820152600a6024820152694e4f545f42524944474560b01b6044820152606401610a98565b6000816001600160a01b031663ab5d89436040518163ffffffff1660e01b8152600401602060405180830381865afa158015612578573d6000803e3d6000fd5b505050506040513d601f19601f8201168201806040525081019061259c9190613820565b90506000816001600160a01b03166380648b026040518163ffffffff1660e01b8152600401602060405180830381865afa1580156125de573d6000803e3d6000fd5b505050506040513d601f19601f820116820180604052508101906126029190613820565b90507f00000000000000000000000000000000000000000000000000000000000000006001600160a01b0316816001600160a01b0316146126855760405162461bcd60e51b815260206004820181905260248201527f43616e206f6e6c792062652063616c6c656420627920486f6d652070726f78796044820152606401610a98565b60008581526001602081815260408084206001600160a01b03891685529091529091208691815460ff1660058111156126c0576126c0613512565b146126dd5760405162461bcd60e51b8152600401610a98906135a9565b805460008381526001602081815260408084206001600160a01b038c1685529091528220828155908101829055600281018290556101009092046001600160f81b0316919061272f60038301826131c7565b50506040516001600160a01b0388169082156108fc029083906000818181858888f150506040516001600160a01b038b1693508b92507fe7700735be0b02f71ef1d623678daf36cd936af4c349a22ad9d5a8b217df0dd99150600090a35050505050505050565b600083815260046020908152604080832054600183528184206001600160a01b0390911680855292528220600381018054606094859493929091889081106127e0576127e0613609565b906000526020600020906005020190508060040180548060200260200160405190810160405280929190818152602001828054801561283e57602002820191906000526020600020905b81548152602001906001019080831161282a575b5050506004840154929750505067ffffffffffffffff811115612863576128636137c8565b60405190808252806020026020018201604052801561288c578160200160208202803683370190505b50935060005b8451811015612908576001600160a01b0387166000908152600283016020526040812087519091908890849081106128cc576128cc613609565b60200260200101518152602001908152602001600020548582815181106128f5576128f5613609565b6020908102919091010152600101612892565b50505050935093915050565b60007f00000000000000000000000000000000000000000000000000000000000000006001600160a01b031663e78cea926040518163ffffffff1660e01b8152600401602060405180830381865afa158015612974573d6000803e3d6000fd5b505050506040513d601f19601f820116820180604052508101906129989190613820565b9050336001600160a01b038216146129df5760405162461bcd60e51b815260206004820152600a6024820152694e4f545f42524944474560b01b6044820152606401610a98565b6000816001600160a01b031663ab5d89436040518163ffffffff1660e01b8152600401602060405180830381865afa158015612a1f573d6000803e3d6000fd5b505050506040513d601f19601f82011682018060405250810190612a439190613820565b90506000816001600160a01b03166380648b026040518163ffffffff1660e01b8152600401602060405180830381865afa158015612a85573d6000803e3d6000fd5b505050506040513d601f19601f82011682018060405250810190612aa99190613820565b90507f00000000000000000000000000000000000000000000000000000000000000006001600160a01b0316816001600160a01b031614612b2c5760405162461bcd60e51b815260206004820181905260248201527f43616e206f6e6c792062652063616c6c656420627920486f6d652070726f78796044820152606401610a98565b60008581526001602081815260408084206001600160a01b03891685529091529091208691815460ff166005811115612b6757612b67613512565b14612b845760405162461bcd60e51b8152600401610a98906135a9565b60405163f7434ea960e01b81526000906001600160a01b037f0000000000000000000000000000000000000000000000000000000000000000169063f7434ea990612bd39084906004016137de565b602060405180830381865afa158015612bf0573d6000803e3d6000fd5b505050506040513d601f19601f82011682018060405250810190612c14919061366b565b825490915061010090046001600160f81b03168111612e7b5760405163c13517e160e01b81526001600160a01b037f0000000000000000000000000000000000000000000000000000000000000000169063c13517e1908390612c8090600019906000906004016137a7565b60206040518083038185885af193505050508015612cbb575060408051601f3d908101601f19168201909252612cb89181019061366b565b60015b612d0557815460ff191660051782556040516001600160a01b0388169089907f9beda0c81abc1c65da7685f113195974dfddb781dfde6263e5a1b13a5356ffad90600090a3612ebd565b6000818152600260209081526040808320878155600180820180546001600160a01b038f166001600160a01b031991821681179092558a875260038652848720805460ff1916909317909255600485528386208054909216179055848452600590925282204390558454909190612d8c9085906001600160f81b03610100909104166135f6565b600286556001808701859055600387018054909101815560005290508015612dd4576040516001600160a01b038b169082156108fc029083906000818181858888f150505050505b828a6001600160a01b03168c7fcf9bcbc2efae51060af73ef64119281007f63eada739f19c41c181d8350fa81460405160405180910390a460408051600081526020810188905284916001600160a01b037f000000000000000000000000000000000000000000000000000000000000000016917f74baab670a4015ab2f1b467c5252a96141a2573f2908e58a92081e80d3cfde3d910160405180910390a3505050612ebd565b815460ff191660051782556040516001600160a01b0388169089907f9beda0c81abc1c65da7685f113195974dfddb781dfde6263e5a1b13a5356ffad90600090a35b5050505050505050565b600083815260046020908152604080832054600183528184206001600160a01b03909116808552925282206003815460ff166005811115612f0a57612f0a613512565b1015612f1757505061310d565b6002810154600382015460005b81811015613107576000846003018281548110612f4357612f43613609565b600091825260208083208b84526001600590930201918201905260409091205490915060ff16612fa4576001600160a01b038916600090815260028201602090815260408083208b8452909152902054612f9d908861361f565b96506130fe565b600084815260018201602052604090205460ff1661308e576004810154600110612fcf576000613084565b80600001600082600401600181548110612feb57612feb613609565b90600052602060002001548152602001908152602001600020548160000160008360040160008154811061302157613021613609565b9060005260206000200154815260200190815260200160002054613045919061361f565b60038201546001600160a01b038b16600090815260028401602090815260408083208d845290915290205461307a9190613632565b6130849190613649565b612f9d908861361f565b8784036130fe57600088815260208290526040902054806130b05760006130f0565b60038201546001600160a01b038b16600090815260028401602090815260408083208d845290915290205482916130e691613632565b6130f09190613649565b6130fa908961361f565b9750505b50600101612f24565b50505050505b9392505050565b600083815260046020908152604080832054600183528184206001600160a01b0390911680855292528220600381015491929091905b818110156131675761315e87878388610bbc565b5060010161314a565b50505050505050565b60006131bc7f00000000000000000000000000000000000000000000000000000000000000007f0000000000000000000000000000000000000000000000000000000000000000613632565b611f1260008461361f565b50805460008255600502906000526020600020908101906131e891906131eb565b50565b80821115613212576000600382018190556132096004830182613216565b506005016131eb565b5090565b50805460008255906000526020600020908101906131e891905b808211156132125760008155600101613230565b6000815180845260005b8181101561326a5760208185018101518683018201520161324e565b506000602082860101526020601f19601f83011685010191505092915050565b60208152600061310d6020830184613244565b600080604083850312156132b057600080fd5b50508035926020909101359150565b6001600160a01b03811681146131e857600080fd5b600080600080608085870312156132ea57600080fd5b8435935060208501356132fc816132bf565b93969395505050506040820135916060013590565b6000806040838503121561332457600080fd5b823591506020830135613336816132bf565b809150509250929050565b60006020828403121561335357600080fd5b5035919050565b60008151808452602080850194506020840160005b8381101561338b5781518752958201959082019060010161336f565b509495945050505050565b6060815260006133a9606083018661335a565b84602084015282810360408401526133c1818561335a565b9695505050505050565b6000806000604084860312156133e057600080fd5b83359250602084013567ffffffffffffffff808211156133ff57600080fd5b818601915086601f83011261341357600080fd5b81358181111561342257600080fd5b87602082850101111561343457600080fd5b6020830194508093505050509250925092565b60008060006060848603121561345c57600080fd5b505081359360208301359350604090920135919050565b60008060006060848603121561348857600080fd5b833592506020840135915060408401356134a1816132bf565b809150509250925092565b6040815260006134bf604083018561335a565b82810360208401526134d1818561335a565b95945050505050565b6000806000606084860312156134ef57600080fd5b833592506020840135613501816132bf565b929592945050506040919091013590565b634e487b7160e01b600052602160045260246000fd5b608081016006861061354a57634e487b7160e01b600052602160045260246000fd5b9481526001600160f81b03939093166020840152604083019190915260609091015290565b600181811c9082168061358357607f821691505b6020821081036135a357634e487b7160e01b600052602260045260246000fd5b50919050565b6020808252601a908201527f496e76616c6964206172626974726174696f6e20737461747573000000000000604082015260600190565b634e487b7160e01b600052601160045260246000fd5b81810381811115611949576119496135e0565b634e487b7160e01b600052603260045260246000fd5b80820180821115611949576119496135e0565b8082028115828204841417611949576119496135e0565b60008261366657634e487b7160e01b600052601260045260246000fd5b500490565b60006020828403121561367d57600080fd5b5051919050565b600061010060018060a01b03808c1684528a602085015289604085015280891660608501528088166080850152508560a08401528460c08401528060e08401526136d081840185613244565b9b9a5050505050505050505050565b600080604083850312156136f257600080fd5b505080516020909101519092909150565b8054600090600181811c908083168061371d57607f831692505b6020808410820361373e57634e487b7160e01b600052602260045260246000fd5b83885260208801828015613759576001811461376f5761379a565b60ff198716825285151560051b8201975061379a565b60008981526020902060005b878110156137945781548482015290860190840161377b565b83019850505b5050505050505092915050565b8281526040602082015260006137c06040830184613703565b949350505050565b634e487b7160e01b600052604160045260246000fd5b60208152600061310d6020830184613703565b60208152816020820152818360408301376000818301604090810191909152601f909201601f19160101919050565b60006020828403121561383257600080fd5b815161310d816132bf56fea26469706673582212200a16e50a4ae45b1971cb31ebacd5f37d8c015dfe5db4677be7e94559ba8f818064736f6c63430008190033",
  "devdoc": {
    "details": "This contract is meant to be deployed to the Ethereum chains where Kleros is deployed. Example https://github.com/OffchainLabs/arbitrum-tutorials/blob/2c1b7d2db8f36efa496e35b561864c0f94123a5f/packages/greeter/contracts/ethereum/GreeterL1.sol",
    "events": {
      "ArbitrationCanceled(bytes32,address)": {
        "params": {
          "_questionID": "The ID of the question with the request for arbitration.",
          "_requester": "The address of the arbitration requester."
        }
      },
      "ArbitrationCreated(bytes32,address,uint256)": {
        "params": {
          "_disputeID": "The ID of the dispute.",
          "_questionID": "The ID of the question with the request for arbitration.",
          "_requester": "The address of the arbitration requester."
        }
      },
      "ArbitrationFailed(bytes32,address)": {
        "details": "This will happen if there is an increase in the arbitration fees between the time the arbitration is made and the time it is acknowledged.",
        "params": {
          "_questionID": "The ID of the question with the request for arbitration.",
          "_requester": "The address of the arbitration requester."
        }
      },
      "ArbitrationRequested(bytes32,address,uint256)": {
        "params": {
          "_maxPrevious": "The maximum value of the current bond for the question. The arbitration request will get rejected if the current bond is greater than _maxPrevious. If set to 0, _maxPrevious is ignored.",
          "_questionID": "The ID of the question with the request for arbitration.",
          "_requester": "The address of the arbitration requester."
        }
      },
      "Contribution(uint256,uint256,uint256,address,uint256)": {
        "details": "Raised when a contribution is made, inside fundAppeal function.",
        "params": {
          "_amount": "Contribution amount.",
          "_contributor": "Caller of fundAppeal function.",
          "_localDisputeID": "Identifier of a dispute in scope of arbitrable contract. Arbitrator ids can be translated to local ids via externalIDtoLocalID.",
          "_round": "The round number the contribution was made to.",
          "ruling": "Indicates the ruling option which got the contribution."
        }
      },
      "Dispute(address,uint256,uint256,uint256)": {
        "details": "To be emitted when a dispute is created to link the correct meta-evidence to the disputeID.",
        "params": {
          "_arbitrator": "The arbitrator of the contract.",
          "_disputeID": "ID of the dispute in the Arbitrator contract.",
          "_evidenceGroupID": "Unique identifier of the evidence group that is linked to this dispute.",
          "_metaEvidenceID": "Unique identifier of meta-evidence."
        }
      },
      "Evidence(address,uint256,address,string)": {
        "details": "To be raised when evidence is submitted. Should point to the resource (evidences are not to be stored on chain due to gas considerations).",
        "params": {
          "_arbitrator": "The arbitrator of the contract.",
          "_evidence": "A URI to the evidence JSON file whose name should be its keccak256 hash followed by .json.",
          "_evidenceGroupID": "Unique identifier of the evidence group the evidence belongs to.",
          "_party": "The address of the party submiting the evidence. Note that 0x0 refers to evidence not submitted by any party."
        }
      },
      "MetaEvidence(uint256,string)": {
        "details": "To be emitted when meta-evidence is submitted.",
        "params": {
          "_evidence": "A link to the meta-evidence JSON.",
          "_metaEvidenceID": "Unique identifier of meta-evidence."
        }
      },
      "Ruling(address,uint256,uint256)": {
        "details": "To be raised when a ruling is given.",
        "params": {
          "_arbitrator": "The arbitrator giving the ruling.",
          "_disputeID": "ID of the dispute in the Arbitrator contract.",
          "_ruling": "The ruling which was given."
        }
      },
      "RulingFunded(uint256,uint256,uint256)": {
        "details": "To be raised when a ruling option is fully funded for appeal.",
        "params": {
          "_localDisputeID": "Identifier of a dispute in scope of arbitrable contract. Arbitrator ids can be translated to local ids via externalIDtoLocalID.",
          "_round": "Number of the round this ruling option was fully funded in.",
          "_ruling": "The ruling option which just got fully funded."
        }
      },
      "RulingRelayed(bytes32,bytes32)": {
        "params": {
          "_questionID": "The ID of the question with the ruling to relay.",
          "_ruling": "Ruling converted into Realitio format."
        }
      },
      "Withdrawal(uint256,uint256,uint256,address,uint256)": {
        "details": "Raised when a contributor withdraws non-zero value.",
        "params": {
          "_contributor": "The beneficiary of withdrawal.",
          "_localDisputeID": "Identifier of a dispute in scope of arbitrable contract. Arbitrator ids can be translated to local ids via externalIDtoLocalID.",
          "_reward": "Total amount of withdrawal, consists of reimbursed deposits plus rewards.",
          "_round": "The round number the withdrawal was made from.",
          "_ruling": "Indicates the ruling option which contributor gets rewards from."
        }
      }
    },
    "kind": "dev",
    "methods": {
      "constructor": {
        "params": {
          "_arbitrator": "Arbitrator contract address.",
          "_arbitratorExtraData": "The extra data used to raise a dispute in the arbitrator.",
          "_gasPriceBid": "Max gas price L2.",
          "_homeProxy": "Proxy on L2.",
          "_inbox": "L2 inbox.",
          "_l2GasLimit": "L2 gas limit",
          "_loserAppealPeriodMultiplier": "Multiplier for calculating the appeal period for the losing answer.",
          "_loserMultiplier": "Multiplier for calculating the appeal cost of the losing answer.",
          "_metaEvidence": "The URI of the meta evidence file.",
          "_surplusAmount": "The surplus amount to cover Arbitrum fees.",
          "_winnerMultiplier": "Multiplier for calculating the appeal cost of the winning answer."
        }
      },
      "externalIDtoLocalID(uint256)": {
        "params": {
          "_externalDisputeID": "Dispute id as in arbitrator side."
        },
        "returns": {
          "_0": "localDisputeID Dispute id as in arbitrable contract."
        }
      },
      "fundAppeal(uint256,uint256)": {
        "params": {
          "_answer": "One of the possible rulings the arbitrator can give that the funder considers to be the correct answer to the question. Note that the answer has Kleros denomination, meaning that it has '+1' offset compared to Realitio format. Also note that '0' answer can be funded.",
          "_arbitrationID": "The ID of the arbitration, which is questionID cast into uint256."
        },
        "returns": {
          "_0": "Whether the answer was fully funded or not."
        }
      },
      "getContributionsToSuccessfulFundings(uint256,uint256,address)": {
        "params": {
          "_arbitrationID": "The ID of the arbitration.",
          "_contributor": "The address whose contributions to query.",
          "_round": "The round to query."
        },
        "returns": {
          "contributions": "The amount contributed to each funded answer by the contributor.",
          "fundedAnswers": "IDs of the answers that are fully funded."
        }
      },
      "getDisputeFee(bytes32)": {
        "returns": {
          "_0": "The fee to create a dispute."
        }
      },
      "getFundingStatus(uint256,uint256,uint256)": {
        "params": {
          "_answer": "The answer choice to get funding status for.",
          "_arbitrationID": "The ID of the arbitration.",
          "_round": "The round to query."
        },
        "returns": {
          "fullyFunded": "Whether the answer is fully funded or not.",
          "raised": "The amount paid for this answer."
        }
      },
      "getMultipliers()": {
        "returns": {
          "divisor": "Multiplier divisor.",
          "loser": "Losers stake multiplier.",
          "loserAppealPeriod": "Multiplier for calculating an appeal period duration for the losing side.",
          "winner": "Winners stake multiplier."
        }
      },
      "getNumberOfRounds(uint256)": {
        "params": {
          "_arbitrationID": "The ID of the arbitration related to the question."
        },
        "returns": {
          "_0": "The number of rounds."
        }
      },
      "getRoundInfo(uint256,uint256)": {
        "params": {
          "_arbitrationID": "The ID of the arbitration.",
          "_round": "The round to query."
        },
        "returns": {
          "feeRewards": "The amount of fees that will be used as rewards.",
          "fundedAnswers": "IDs of fully funded answers.",
          "paidFees": "The amount of fees paid for each fully funded answer."
        }
      },
      "getTotalWithdrawableAmount(uint256,address,uint256)": {
        "details": "This function is O(n) where n is the total number of rounds.This could exceed the gas limit, therefore this function should be used only as a utility and not be relied upon by other contracts.",
        "params": {
          "_arbitrationID": "The ID of the arbitration.",
          "_beneficiary": "The contributor for which to query.",
          "_contributedTo": "Answer that received contributions from contributor."
        },
        "returns": {
          "sum": "The total amount available to withdraw."
        }
      },
      "handleFailedDisputeCreation(bytes32,address)": {
        "params": {
          "_questionID": "The ID of the question.",
          "_requester": "The address of the arbitration requester."
        }
      },
      "numberOfRulingOptions(uint256)": {
        "returns": {
          "_0": "count The number of ruling options."
        }
      },
      "questionIDToArbitrationID(bytes32)": {
        "params": {
          "_questionID": "The ID of the question."
        },
        "returns": {
          "_0": "The ID of the arbitration."
        }
      },
      "receiveArbitrationAcknowledgement(bytes32,address)": {
        "params": {
          "_questionID": "The ID of the question.",
          "_requester": "The requester."
        }
      },
      "receiveArbitrationCancelation(bytes32,address)": {
        "params": {
          "_questionID": "The ID of the question.",
          "_requester": "The requester."
        }
      },
      "relayRule(bytes32,address)": {
        "params": {
          "_questionID": "The ID of the question.",
          "_requester": "The address of the arbitration requester."
        }
      },
      "requestArbitration(bytes32,uint256)": {
        "params": {
          "_maxPrevious": "The maximum value of the current bond for the question. The arbitration request will get rejected if the current bond is greater than _maxPrevious. If set to 0, _maxPrevious is ignored.",
          "_questionID": "The ID of the question."
        }
      },
      "rule(uint256,uint256)": {
        "details": "Accounts for the situation where the winner loses a case due to paying less appeal fees than expected.",
        "params": {
          "_disputeID": "The ID of the dispute in the ERC792 arbitrator.",
          "_ruling": "The ruling given by the arbitrator."
        }
      },
      "submitEvidence(uint256,string)": {
        "params": {
          "_arbitrationID": "The ID of the arbitration related to the question.",
          "_evidenceURI": "Link to evidence."
        }
      },
      "withdrawFeesAndRewards(uint256,address,uint256,uint256)": {
        "params": {
          "_answer": "The answer to query the reward from.",
          "_arbitrationID": "The ID of the arbitration.",
          "_beneficiary": "The address to send reward to.",
          "_round": "The round from which to withdraw."
        },
        "returns": {
          "reward": "The withdrawn amount."
        }
      },
      "withdrawFeesAndRewardsForAllRounds(uint256,address,uint256)": {
        "details": "This function is O(n) where n is the total number of rounds. Arbitration cost of subsequent rounds is `A(n) = 2A(n-1) + 1`.      So because of this exponential growth of costs, you can assume n is less than 10 at all times.",
        "params": {
          "_arbitrationID": "The ID of the arbitration.",
          "_beneficiary": "The address that made contributions.",
          "_contributedTo": "Answer that received contributions from contributor."
        }
      }
    },
    "title": "Arbitration proxy for Realitio on Ethereum side (A.K.A. the Foreign Chain).",
    "version": 1
  },
  "userdoc": {
    "events": {
      "ArbitrationCanceled(bytes32,address)": {
        "notice": "Should be emitted when the arbitration is canceled by the Home Chain."
      },
      "ArbitrationCreated(bytes32,address,uint256)": {
        "notice": "Should be emitted when the dispute is created."
      },
      "ArbitrationFailed(bytes32,address)": {
        "notice": "Should be emitted when the dispute could not be created."
      },
      "ArbitrationRequested(bytes32,address,uint256)": {
        "notice": "Should be emitted when the arbitration is requested."
      },
      "RulingRelayed(bytes32,bytes32)": {
        "notice": "Should be emitted when the ruling is relayed to home proxy manually. Some implementations may not emit this event."
      }
    },
    "kind": "user",
    "methods": {
      "constructor": {
        "notice": "Creates an arbitration proxy on the foreign chain (L1)."
      },
      "externalIDtoLocalID(uint256)": {
        "notice": "Maps external (arbitrator side) dispute id to local (arbitrable) dispute id."
      },
      "fundAppeal(uint256,uint256)": {
        "notice": "Takes up to the total amount required to fund an answer. Reimburses the rest. Creates an appeal if at least two answers are funded."
      },
      "getContributionsToSuccessfulFundings(uint256,uint256,address)": {
        "notice": "Gets contributions to the answers that are fully funded."
      },
      "getDisputeFee(bytes32)": {
        "notice": "Gets the fee to create a dispute."
      },
      "getFundingStatus(uint256,uint256,uint256)": {
        "notice": "Gets the information of a round of a question for a specific answer choice."
      },
      "getMultipliers()": {
        "notice": "Returns stake multipliers."
      },
      "getNumberOfRounds(uint256)": {
        "notice": "Gets the number of rounds of the specific question."
      },
      "getRoundInfo(uint256,uint256)": {
        "notice": "Gets the information of a round of a question."
      },
      "getTotalWithdrawableAmount(uint256,address,uint256)": {
        "notice": "Returns the sum of withdrawable amount."
      },
      "handleFailedDisputeCreation(bytes32,address)": {
        "notice": "Cancels the arbitration in case the dispute could not be created. Requires a small deposit to cover arbitrum fees."
      },
      "numberOfRulingOptions(uint256)": {
        "notice": "Returns number of possible ruling options. Valid rulings are [0, return value]."
      },
      "questionIDToArbitrationID(bytes32)": {
        "notice": "Casts question ID into uint256 thus returning the related arbitration ID."
      },
      "receiveArbitrationAcknowledgement(bytes32,address)": {
        "notice": "Receives the acknowledgement of the arbitration request for the given question and requester. TRUSTED."
      },
      "receiveArbitrationCancelation(bytes32,address)": {
        "notice": "Receives the cancelation of the arbitration request for the given question and requester. TRUSTED."
      },
      "relayRule(bytes32,address)": {
        "notice": "Relays the ruling to home proxy. Requires a small deposit to cover arbitrum fees."
      },
      "requestArbitration(bytes32,uint256)": {
        "notice": "Requests arbitration for the given question and contested answer."
      },
      "rule(uint256,uint256)": {
        "notice": "Rules a specified dispute. Can only be called by the arbitrator."
      },
      "submitEvidence(uint256,string)": {
        "notice": "Allows to submit evidence for a particular question."
      },
      "withdrawFeesAndRewards(uint256,address,uint256,uint256)": {
        "notice": "Sends the fee stake rewards and reimbursements proportional to the contributions made to the winner of a dispute. Reimburses contributions if there is no winner."
      },
      "withdrawFeesAndRewardsForAllRounds(uint256,address,uint256)": {
        "notice": "Allows to withdraw any rewards or reimbursable fees for all rounds at once."
      }
    },
    "version": 1
  },
  "storageLayout": {
    "storage": [
      {
        "astId": 10129,
        "contract": "src/0.8/RealitioForeignProxyArbitrum.sol:RealitioForeignProxyArbitrum",
        "label": "arbitratorExtraData",
        "offset": 0,
        "slot": "0",
        "type": "t_bytes_storage"
      },
      {
        "astId": 10151,
        "contract": "src/0.8/RealitioForeignProxyArbitrum.sol:RealitioForeignProxyArbitrum",
        "label": "arbitrationRequests",
        "offset": 0,
        "slot": "1",
        "type": "t_mapping(t_uint256,t_mapping(t_address,t_struct(ArbitrationRequest)10097_storage))"
      },
      {
        "astId": 10156,
        "contract": "src/0.8/RealitioForeignProxyArbitrum.sol:RealitioForeignProxyArbitrum",
        "label": "disputeIDToDisputeDetails",
        "offset": 0,
        "slot": "2",
        "type": "t_mapping(t_uint256,t_struct(DisputeDetails)10102_storage)"
      },
      {
        "astId": 10160,
        "contract": "src/0.8/RealitioForeignProxyArbitrum.sol:RealitioForeignProxyArbitrum",
        "label": "arbitrationIDToDisputeExists",
        "offset": 0,
        "slot": "3",
        "type": "t_mapping(t_uint256,t_bool)"
      },
      {
        "astId": 10164,
        "contract": "src/0.8/RealitioForeignProxyArbitrum.sol:RealitioForeignProxyArbitrum",
        "label": "arbitrationIDToRequester",
        "offset": 0,
        "slot": "4",
        "type": "t_mapping(t_uint256,t_address)"
      },
      {
        "astId": 10168,
        "contract": "src/0.8/RealitioForeignProxyArbitrum.sol:RealitioForeignProxyArbitrum",
        "label": "arbitrationCreatedBlock",
        "offset": 0,
        "slot": "5",
        "type": "t_mapping(t_uint256,t_uint256)"
      }
    ],
    "types": {
      "t_address": {
        "encoding": "inplace",
        "label": "address",
        "numberOfBytes": "20"
      },
      "t_array(t_struct(Round)10122_storage)dyn_storage": {
        "base": "t_struct(Round)10122_storage",
        "encoding": "dynamic_array",
        "label": "struct RealitioForeignProxyArbitrum.Round[]",
        "numberOfBytes": "32"
      },
      "t_array(t_uint256)dyn_storage": {
        "base": "t_uint256",
        "encoding": "dynamic_array",
        "label": "uint256[]",
        "numberOfBytes": "32"
      },
      "t_bool": {
        "encoding": "inplace",
        "label": "bool",
        "numberOfBytes": "1"
      },
      "t_bytes_storage": {
        "encoding": "bytes",
        "label": "bytes",
        "numberOfBytes": "32"
      },
      "t_enum(Status)10083": {
        "encoding": "inplace",
        "label": "enum RealitioForeignProxyArbitrum.Status",
        "numberOfBytes": "1"
      },
      "t_mapping(t_address,t_mapping(t_uint256,t_uint256))": {
        "encoding": "mapping",
        "key": "t_address",
        "label": "mapping(address => mapping(uint256 => uint256))",
        "numberOfBytes": "32",
        "value": "t_mapping(t_uint256,t_uint256)"
      },
      "t_mapping(t_address,t_struct(ArbitrationRequest)10097_storage)": {
        "encoding": "mapping",
        "key": "t_address",
        "label": "mapping(address => struct RealitioForeignProxyArbitrum.ArbitrationRequest)",
        "numberOfBytes": "32",
        "value": "t_struct(ArbitrationRequest)10097_storage"
      },
      "t_mapping(t_uint256,t_address)": {
        "encoding": "mapping",
        "key": "t_uint256",
        "label": "mapping(uint256 => address)",
        "numberOfBytes": "32",
        "value": "t_address"
      },
      "t_mapping(t_uint256,t_bool)": {
        "encoding": "mapping",
        "key": "t_uint256",
        "label": "mapping(uint256 => bool)",
        "numberOfBytes": "32",
        "value": "t_bool"
      },
      "t_mapping(t_uint256,t_mapping(t_address,t_struct(ArbitrationRequest)10097_storage))": {
        "encoding": "mapping",
        "key": "t_uint256",
        "label": "mapping(uint256 => mapping(address => struct RealitioForeignProxyArbitrum.ArbitrationRequest))",
        "numberOfBytes": "32",
        "value": "t_mapping(t_address,t_struct(ArbitrationRequest)10097_storage)"
      },
      "t_mapping(t_uint256,t_struct(DisputeDetails)10102_storage)": {
        "encoding": "mapping",
        "key": "t_uint256",
        "label": "mapping(uint256 => struct RealitioForeignProxyArbitrum.DisputeDetails)",
        "numberOfBytes": "32",
        "value": "t_struct(DisputeDetails)10102_storage"
      },
      "t_mapping(t_uint256,t_uint256)": {
        "encoding": "mapping",
        "key": "t_uint256",
        "label": "mapping(uint256 => uint256)",
        "numberOfBytes": "32",
        "value": "t_uint256"
      },
      "t_struct(ArbitrationRequest)10097_storage": {
        "encoding": "inplace",
        "label": "struct RealitioForeignProxyArbitrum.ArbitrationRequest",
        "members": [
          {
            "astId": 10086,
            "contract": "src/0.8/RealitioForeignProxyArbitrum.sol:RealitioForeignProxyArbitrum",
            "label": "status",
            "offset": 0,
            "slot": "0",
            "type": "t_enum(Status)10083"
          },
          {
            "astId": 10088,
            "contract": "src/0.8/RealitioForeignProxyArbitrum.sol:RealitioForeignProxyArbitrum",
            "label": "deposit",
            "offset": 1,
            "slot": "0",
            "type": "t_uint248"
          },
          {
            "astId": 10090,
            "contract": "src/0.8/RealitioForeignProxyArbitrum.sol:RealitioForeignProxyArbitrum",
            "label": "disputeID",
            "offset": 0,
            "slot": "1",
            "type": "t_uint256"
          },
          {
            "astId": 10092,
            "contract": "src/0.8/RealitioForeignProxyArbitrum.sol:RealitioForeignProxyArbitrum",
            "label": "answer",
            "offset": 0,
            "slot": "2",
            "type": "t_uint256"
          },
          {
            "astId": 10096,
            "contract": "src/0.8/RealitioForeignProxyArbitrum.sol:RealitioForeignProxyArbitrum",
            "label": "rounds",
            "offset": 0,
            "slot": "3",
            "type": "t_array(t_struct(Round)10122_storage)dyn_storage"
          }
        ],
        "numberOfBytes": "128"
      },
      "t_struct(DisputeDetails)10102_storage": {
        "encoding": "inplace",
        "label": "struct RealitioForeignProxyArbitrum.DisputeDetails",
        "members": [
          {
            "astId": 10099,
            "contract": "src/0.8/RealitioForeignProxyArbitrum.sol:RealitioForeignProxyArbitrum",
            "label": "arbitrationID",
            "offset": 0,
            "slot": "0",
            "type": "t_uint256"
          },
          {
            "astId": 10101,
            "contract": "src/0.8/RealitioForeignProxyArbitrum.sol:RealitioForeignProxyArbitrum",
            "label": "requester",
            "offset": 0,
            "slot": "1",
            "type": "t_address"
          }
        ],
        "numberOfBytes": "64"
      },
      "t_struct(Round)10122_storage": {
        "encoding": "inplace",
        "label": "struct RealitioForeignProxyArbitrum.Round",
        "members": [
          {
            "astId": 10106,
            "contract": "src/0.8/RealitioForeignProxyArbitrum.sol:RealitioForeignProxyArbitrum",
            "label": "paidFees",
            "offset": 0,
            "slot": "0",
            "type": "t_mapping(t_uint256,t_uint256)"
          },
          {
            "astId": 10110,
            "contract": "src/0.8/RealitioForeignProxyArbitrum.sol:RealitioForeignProxyArbitrum",
            "label": "hasPaid",
            "offset": 0,
            "slot": "1",
            "type": "t_mapping(t_uint256,t_bool)"
          },
          {
            "astId": 10116,
            "contract": "src/0.8/RealitioForeignProxyArbitrum.sol:RealitioForeignProxyArbitrum",
            "label": "contributions",
            "offset": 0,
            "slot": "2",
            "type": "t_mapping(t_address,t_mapping(t_uint256,t_uint256))"
          },
          {
            "astId": 10118,
            "contract": "src/0.8/RealitioForeignProxyArbitrum.sol:RealitioForeignProxyArbitrum",
            "label": "feeRewards",
            "offset": 0,
            "slot": "3",
            "type": "t_uint256"
          },
          {
            "astId": 10121,
            "contract": "src/0.8/RealitioForeignProxyArbitrum.sol:RealitioForeignProxyArbitrum",
            "label": "fundedAnswers",
            "offset": 0,
            "slot": "4",
            "type": "t_array(t_uint256)dyn_storage"
          }
        ],
        "numberOfBytes": "160"
      },
      "t_uint248": {
        "encoding": "inplace",
        "label": "uint248",
        "numberOfBytes": "31"
      },
      "t_uint256": {
        "encoding": "inplace",
        "label": "uint256",
        "numberOfBytes": "32"
      }
    }
  }
}