{
  "address": "0xaFffbEA35c395e4BD246B4834071D01498151B16",
  "abi": [
    {
      "inputs": [
        {
          "internalType": "contract IAMB",
          "name": "_amb",
          "type": "address"
        },
        {
          "internalType": "address",
          "name": "_homeProxy",
          "type": "address"
        },
        {
          "internalType": "bytes32",
          "name": "_homeChainId",
          "type": "bytes32"
        },
        {
          "internalType": "contract IArbitrator",
          "name": "_arbitrator",
          "type": "address"
        },
        {
          "internalType": "bytes",
          "name": "_arbitratorExtraData",
          "type": "bytes"
        },
        {
          "internalType": "string",
          "name": "_metaEvidence",
          "type": "string"
        },
        {
          "internalType": "string",
          "name": "_termsOfService",
          "type": "string"
        }
      ],
      "stateMutability": "nonpayable",
      "type": "constructor"
    },
    {
      "anonymous": false,
      "inputs": [
        {
          "indexed": true,
          "internalType": "bytes32",
          "name": "_questionID",
          "type": "bytes32"
        },
        {
          "indexed": true,
          "internalType": "bytes32",
          "name": "_contestedAnswer",
          "type": "bytes32"
        }
      ],
      "name": "ArbitrationCanceled",
      "type": "event"
    },
    {
      "anonymous": false,
      "inputs": [
        {
          "indexed": true,
          "internalType": "bytes32",
          "name": "_questionID",
          "type": "bytes32"
        },
        {
          "indexed": true,
          "internalType": "bytes32",
          "name": "_contestedAnswer",
          "type": "bytes32"
        },
        {
          "indexed": true,
          "internalType": "uint256",
          "name": "_disputeID",
          "type": "uint256"
        }
      ],
      "name": "ArbitrationCreated",
      "type": "event"
    },
    {
      "anonymous": false,
      "inputs": [
        {
          "indexed": true,
          "internalType": "bytes32",
          "name": "_questionID",
          "type": "bytes32"
        },
        {
          "indexed": true,
          "internalType": "bytes32",
          "name": "_contestedAnswer",
          "type": "bytes32"
        }
      ],
      "name": "ArbitrationFailed",
      "type": "event"
    },
    {
      "anonymous": false,
      "inputs": [
        {
          "indexed": true,
          "internalType": "bytes32",
          "name": "_questionID",
          "type": "bytes32"
        },
        {
          "indexed": true,
          "internalType": "bytes32",
          "name": "_contestedAnswer",
          "type": "bytes32"
        },
        {
          "indexed": true,
          "internalType": "address",
          "name": "_requester",
          "type": "address"
        }
      ],
      "name": "ArbitrationRequested",
      "type": "event"
    },
    {
      "anonymous": false,
      "inputs": [
        {
          "indexed": true,
          "internalType": "contract IArbitrator",
          "name": "_arbitrator",
          "type": "address"
        },
        {
          "indexed": true,
          "internalType": "uint256",
          "name": "_disputeID",
          "type": "uint256"
        },
        {
          "indexed": false,
          "internalType": "uint256",
          "name": "_metaEvidenceID",
          "type": "uint256"
        },
        {
          "indexed": false,
          "internalType": "uint256",
          "name": "_evidenceGroupID",
          "type": "uint256"
        }
      ],
      "name": "Dispute",
      "type": "event"
    },
    {
      "anonymous": false,
      "inputs": [
        {
          "indexed": true,
          "internalType": "contract IArbitrator",
          "name": "_arbitrator",
          "type": "address"
        },
        {
          "indexed": true,
          "internalType": "uint256",
          "name": "_evidenceGroupID",
          "type": "uint256"
        },
        {
          "indexed": true,
          "internalType": "address",
          "name": "_party",
          "type": "address"
        },
        {
          "indexed": false,
          "internalType": "string",
          "name": "_evidence",
          "type": "string"
        }
      ],
      "name": "Evidence",
      "type": "event"
    },
    {
      "anonymous": false,
      "inputs": [
        {
          "indexed": true,
          "internalType": "uint256",
          "name": "_metaEvidenceID",
          "type": "uint256"
        },
        {
          "indexed": false,
          "internalType": "string",
          "name": "_evidence",
          "type": "string"
        }
      ],
      "name": "MetaEvidence",
      "type": "event"
    },
    {
      "anonymous": false,
      "inputs": [
        {
          "indexed": true,
          "internalType": "contract IArbitrator",
          "name": "_arbitrator",
          "type": "address"
        },
        {
          "indexed": true,
          "internalType": "uint256",
          "name": "_disputeID",
          "type": "uint256"
        },
        {
          "indexed": false,
          "internalType": "uint256",
          "name": "_ruling",
          "type": "uint256"
        }
      ],
      "name": "Ruling",
      "type": "event"
    },
    {
      "inputs": [],
      "name": "META_EVIDENCE_ID",
      "outputs": [
        {
          "internalType": "uint256",
          "name": "",
          "type": "uint256"
        }
      ],
      "stateMutability": "view",
      "type": "function"
    },
    {
      "inputs": [],
      "name": "NUMBER_OF_CHOICES_FOR_ARBITRATOR",
      "outputs": [
        {
          "internalType": "uint256",
          "name": "",
          "type": "uint256"
        }
      ],
      "stateMutability": "view",
      "type": "function"
    },
    {
      "inputs": [
        {
          "internalType": "bytes32",
          "name": "_questionID",
          "type": "bytes32"
        },
        {
          "internalType": "bytes32",
          "name": "_contestedAnswer",
          "type": "bytes32"
        }
      ],
      "name": "acknowledgeArbitration",
      "outputs": [],
      "stateMutability": "nonpayable",
      "type": "function"
    },
    {
      "inputs": [],
      "name": "amb",
      "outputs": [
        {
          "internalType": "contract IAMB",
          "name": "",
          "type": "address"
        }
      ],
      "stateMutability": "view",
      "type": "function"
    },
    {
      "inputs": [
        {
          "internalType": "bytes32",
          "name": "",
          "type": "bytes32"
        },
        {
          "internalType": "bytes32",
          "name": "",
          "type": "bytes32"
        }
      ],
      "name": "arbitrationRequests",
      "outputs": [
        {
          "internalType": "enum RealitioForeignArbitrationProxy.Status",
          "name": "status",
          "type": "uint8"
        },
        {
          "internalType": "address payable",
          "name": "requester",
          "type": "address"
        },
        {
          "internalType": "uint256",
          "name": "deposit",
          "type": "uint256"
        }
      ],
      "stateMutability": "view",
      "type": "function"
    },
    {
      "inputs": [],
      "name": "arbitrator",
      "outputs": [
        {
          "internalType": "contract IArbitrator",
          "name": "",
          "type": "address"
        }
      ],
      "stateMutability": "view",
      "type": "function"
    },
    {
      "inputs": [],
      "name": "arbitratorExtraData",
      "outputs": [
        {
          "internalType": "bytes",
          "name": "",
          "type": "bytes"
        }
      ],
      "stateMutability": "view",
      "type": "function"
    },
    {
      "inputs": [
        {
          "internalType": "bytes32",
          "name": "_questionID",
          "type": "bytes32"
        },
        {
          "internalType": "bytes32",
          "name": "_contestedAnswer",
          "type": "bytes32"
        }
      ],
      "name": "cancelArbitration",
      "outputs": [],
      "stateMutability": "nonpayable",
      "type": "function"
    },
    {
      "inputs": [
        {
          "internalType": "uint256",
          "name": "",
          "type": "uint256"
        },
        {
          "internalType": "uint256",
          "name": "",
          "type": "uint256"
        }
      ],
      "name": "disputeIDToQuestionAndAnswer",
      "outputs": [
        {
          "internalType": "bytes32",
          "name": "",
          "type": "bytes32"
        }
      ],
      "stateMutability": "view",
      "type": "function"
    },
    {
      "inputs": [
        {
          "internalType": "bytes32",
          "name": "_questionID",
          "type": "bytes32"
        }
      ],
      "name": "getDisputeFee",
      "outputs": [
        {
          "internalType": "uint256",
          "name": "",
          "type": "uint256"
        }
      ],
      "stateMutability": "view",
      "type": "function"
    },
    {
      "inputs": [
        {
          "internalType": "bytes32",
          "name": "_questionID",
          "type": "bytes32"
        },
        {
          "internalType": "bytes32",
          "name": "_contestedAnswer",
          "type": "bytes32"
        }
      ],
      "name": "handleFailedDisputeCreation",
      "outputs": [],
      "stateMutability": "nonpayable",
      "type": "function"
    },
    {
      "inputs": [],
      "name": "homeChainId",
      "outputs": [
        {
          "internalType": "bytes32",
          "name": "",
          "type": "bytes32"
        }
      ],
      "stateMutability": "view",
      "type": "function"
    },
    {
      "inputs": [],
      "name": "homeProxy",
      "outputs": [
        {
          "internalType": "address",
          "name": "",
          "type": "address"
        }
      ],
      "stateMutability": "view",
      "type": "function"
    },
    {
      "inputs": [
        {
          "internalType": "bytes32",
          "name": "",
          "type": "bytes32"
        }
      ],
      "name": "questionIDToDisputeExists",
      "outputs": [
        {
          "internalType": "bool",
          "name": "",
          "type": "bool"
        }
      ],
      "stateMutability": "view",
      "type": "function"
    },
    {
      "inputs": [
        {
          "internalType": "bytes32",
          "name": "_questionID",
          "type": "bytes32"
        },
        {
          "internalType": "bytes32",
          "name": "_contestedAnswer",
          "type": "bytes32"
        }
      ],
      "name": "requestArbitration",
      "outputs": [],
      "stateMutability": "payable",
      "type": "function"
    },
    {
      "inputs": [
        {
          "internalType": "uint256",
          "name": "_disputeID",
          "type": "uint256"
        },
        {
          "internalType": "uint256",
          "name": "_ruling",
          "type": "uint256"
        }
      ],
      "name": "rule",
      "outputs": [],
      "stateMutability": "nonpayable",
      "type": "function"
    },
    {
      "inputs": [],
      "name": "termsOfService",
      "outputs": [
        {
          "internalType": "string",
          "name": "",
          "type": "string"
        }
      ],
      "stateMutability": "view",
      "type": "function"
    }
  ],
  "transactionHash": "0xcca7d3779b8915d4fb743a74fa165247d5571669b4d1b22a2b638a657ab08fc9",
  "args": [
    "0x4C36d2919e407f0Cc2Ee3c993ccF8ac26d9CE64e",
    "0x7761D33924bb90129EF56480FC1bD8Da79C8069B",
    "0x0000000000000000000000000000000000000000000000000000000000000064",
    "0x988b3a538b618c7a603e1c11ab82cd16dbe28069",
    "0x000000000000000000000000000000000000000000000000000000000000000000000000000000000000000000000000000000000000000000000000000001f4",
    "/ipfs/Qmc6bWTzPMFeRx9VWHwnDpDXfimwNsvnEgJo3gymg37rRd/realitio.json",
    "/ipfs/QmZM12kkguXFk2C94ykrKpambt4iUVKsVsxGxDEdLS68ws/omen-rules.pdf"
  ],
  "solcInputHash": "4a4afd01e09ee9d4a71bc972d92cf4f9",
  "bytecode": "0x6101006040523480156200001257600080fd5b506040516200210738038062002107833981810160405260e08110156200003857600080fd5b81516020830151604080850151606086015160808701805193519597949692959194919392820192846401000000008211156200007457600080fd5b9083019060208201858111156200008a57600080fd5b8251640100000000811182820188101715620000a557600080fd5b82525081516020918201929091019080838360005b83811015620000d4578181015183820152602001620000ba565b50505050905090810190601f168015620001025780820380516001836020036101000a031916815260200191505b50604052602001805160405193929190846401000000008211156200012657600080fd5b9083019060208201858111156200013c57600080fd5b82516401000000008111828201881017156200015757600080fd5b82525081516020918201929091019080838360005b83811015620001865781810151838201526020016200016c565b50505050905090810190601f168015620001b45780820380516001836020036101000a031916815260200191505b5060405260200180516040519392919084640100000000821115620001d857600080fd5b908301906020820185811115620001ee57600080fd5b82516401000000008111828201881017156200020957600080fd5b82525081516020918201929091019080838360005b83811015620002385781810151838201526020016200021e565b50505050905090810190601f168015620002665780820380516001836020036101000a031916815260200191505b506040525050506001600160601b0319606088811b821660805287811b821660a05260c087905285901b1660e0528251620002a99060009060208601906200036b565b508051620002bf9060019060208401906200036b565b5060007f61606860eb6c87306811e2695215385101daab53bd6ab4e9f9049aead9363c7d836040518080602001828103825283818151815260200191508051906020019080838360005b838110156200032357818101518382015260200162000309565b50505050905090810190601f168015620003515780820380516001836020036101000a031916815260200191505b509250505060405180910390a25050505050505062000417565b828054600181600116156101000203166002900490600052602060002090601f016020900481019282620003a35760008555620003ee565b82601f10620003be57805160ff1916838001178555620003ee565b82800160010185558215620003ee579182015b82811115620003ee578251825591602001919060010190620003d1565b50620003fc92915062000400565b5090565b5b80821115620003fc576000815560010162000401565b60805160601c60a05160601c60c05160e05160601c611c3e620004c9600039806105505280610857528061094952806109ab5280610e78528061188752806119a65280611b75525080611249528061154552806115d95250806106ec52806108ae5280610bd65280611049528061133b52806116cb5250806104c952806106bb5280610ba5528061102052806111e2528061126a5280611365528061157252806115fa52806116f55250611c3e6000f3fe6080604052600436106100fe5760003560e01c8063576dc28911610095578063bacc007811610064578063bacc00781461036b578063cdc10a8a1461039b578063dfb00707146103be578063ef126967146103ee578063ef4f931514610403576100fe565b8063576dc2891461028657806369a87a12146102c45780636cc6cde11461032c578063a22352e214610341576100fe565b8063311a6c56116100d1578063311a6c56146101fa57806348f378571461022c57806349b4af961461024157806354dba90f14610271576100fe565b80630c7ac7b6146101035780630fa8c7ce1461018d5780631062b39a146101b45780631e117f49146101e5575b600080fd5b34801561010f57600080fd5b50610118610433565b6040805160208082528351818301528351919283929083019185019080838360005b8381101561015257818101518382015260200161013a565b50505050905090810190601f16801561017f5780820380516001836020036101000a031916815260200191505b509250505060405180910390f35b34801561019957600080fd5b506101a26104c1565b60408051918252519081900360200190f35b3480156101c057600080fd5b506101c96104c7565b604080516001600160a01b039092168252519081900360200190f35b3480156101f157600080fd5b506101186104eb565b34801561020657600080fd5b5061022a6004803603604081101561021d57600080fd5b5080359060200135610545565b005b34801561023857600080fd5b506101c96108ac565b34801561024d57600080fd5b506101a26004803603604081101561026457600080fd5b50803590602001356108d0565b34801561027d57600080fd5b506101a26108f5565b34801561029257600080fd5b506102b0600480360360208110156102a957600080fd5b50356108fa565b604080519115158252519081900360200190f35b3480156102d057600080fd5b506102f4600480360360408110156102e757600080fd5b508035906020013561090f565b6040518084600481111561030457fe5b8152602001836001600160a01b03168152602001828152602001935050505060405180910390f35b34801561033857600080fd5b506101c9610947565b34801561034d57600080fd5b506101a26004803603602081101561036457600080fd5b503561096b565b34801561037757600080fd5b5061022a6004803603604081101561038e57600080fd5b5080359060200135610a7b565b61022a600480360360408110156103b157600080fd5b5080359060200135610d5f565b3480156103ca57600080fd5b5061022a600480360360408110156103e157600080fd5b50803590602001356111d7565b3480156103fa57600080fd5b506101a2611543565b34801561040f57600080fd5b5061022a6004803603604081101561042657600080fd5b5080359060200135611567565b6000805460408051602060026001851615610100026000190190941693909304601f810184900484028201840190925281815292918301828280156104b95780601f1061048e576101008083540402835291602001916104b9565b820191906000526020600020905b81548152906001019060200180831161049c57829003601f168201915b505050505081565b60011981565b7f000000000000000000000000000000000000000000000000000000000000000081565b60018054604080516020600284861615610100026000190190941693909304601f810184900484028201840190925281815292918301828280156104b95780601f1061048e576101008083540402835291602001916104b9565b336001600160a01b037f000000000000000000000000000000000000000000000000000000000000000016146105c2576040805162461bcd60e51b815260206004820152601760248201527f4f6e6c792061726269747261746f7220616c6c6f776564000000000000000000604482015290519081900360640190fd5b6000828152600360209081526040808320805460019091015481855260028085528386208287529094529190932080549192909160ff16600481111561060457fe5b14610653576040805162461bcd60e51b815260206004820152601a602482015279496e76616c6964206172626974726174696f6e2073746174757360301b604482015290519081900360640190fd5b805460ff191660031781556040805160248101859052600019860160448083018290528351808403909101815260649092018352602080830180516306bad43760e51b6001600160e01b039091168117909152845163e5789d0360e01b8152945192949093927f00000000000000000000000000000000000000000000000000000000000000006001600160a01b03169263dc8601b3927f0000000000000000000000000000000000000000000000000000000000000000928692869263e5789d039260048083019392829003018186803b15801561073157600080fd5b505afa158015610745573d6000803e3d6000fd5b505050506040513d602081101561075b57600080fd5b50516040516001600160e01b031960e086901b1681526001600160a01b038416600482019081526044820183905260606024830190815284516064840152845191929091608490910190602086019080838360005b838110156107c85781810151838201526020016107b0565b50505050905090810190601f1680156107f55780820380516001836020036101000a031916815260200191505b50945050505050602060405180830381600087803b15801561081657600080fd5b505af115801561082a573d6000803e3d6000fd5b505050506040513d602081101561084057600080fd5b505060408051888152905189916001600160a01b037f000000000000000000000000000000000000000000000000000000000000000016917f394027a5fa6e098a1191094d1719d6929b9abc535fcc0c8f448d6a4e756222769181900360200190a35050505050505050565b7f000000000000000000000000000000000000000000000000000000000000000081565b600360205281600052604060002081600281106108ec57600080fd5b01549150829050565b600081565b60046020526000908152604090205460ff1681565b60026020908152600092835260408084209091529082529020805460019091015460ff82169161010090046001600160a01b03169083565b7f000000000000000000000000000000000000000000000000000000000000000081565b60405163f7434ea960e01b815260206004820190815260008054600260001961010060018416150201909116046024840181905290926001600160a01b037f0000000000000000000000000000000000000000000000000000000000000000169263f7434ea9928592829160449091019084908015610a2b5780601f10610a0057610100808354040283529160200191610a2b565b820191906000526020600020905b815481529060010190602001808311610a0e57829003601f168201915b50509250505060206040518083038186803b158015610a4957600080fd5b505afa158015610a5d573d6000803e3d6000fd5b505050506040513d6020811015610a7357600080fd5b505192915050565b600082815260026020908152604080832084845290915290206004815460ff166004811115610aa657fe5b14610af5576040805162461bcd60e51b815260206004820152601a602482015279496e76616c6964206172626974726174696f6e2073746174757360301b604482015290519081900360640190fd5b805460018201546040516101009092046001600160a01b0316916108fc82150291906000818181858888f15050506000858152600260209081526040808320878452825280832080546001600160a81b0319168155600101929092558151602481018890526044808201889052835180830390910181526064909101835280820180516001600160e01b0316635751347760e11b908117909152835163e5789d0360e01b815293519095509093507f00000000000000000000000000000000000000000000000000000000000000006001600160a01b03169263dc8601b3927f0000000000000000000000000000000000000000000000000000000000000000928692869263e5789d0392600480840193829003018186803b158015610c1a57600080fd5b505afa158015610c2e573d6000803e3d6000fd5b505050506040513d6020811015610c4457600080fd5b50516040516001600160e01b031960e086901b1681526001600160a01b038416600482019081526044820183905260606024830190815284516064840152845191929091608490910190602086019080838360005b83811015610cb1578181015183820152602001610c99565b50505050905090810190601f168015610cde5780820380516001836020036101000a031916815260200191505b50945050505050602060405180830381600087803b158015610cff57600080fd5b505af1158015610d13573d6000803e3d6000fd5b505050506040513d6020811015610d2957600080fd5b5050604051849086907fdb31f770642beceea115e6305d4960a8a71454d26a7b070a84dd7f43a86b62a990600090a35050505050565b60008281526004602052604090205460ff1615610dbc576040805162461bcd60e51b81526020600482015260166024820152754469737075746520616c72656164792065786973747360501b604482015290519081900360640190fd5b6000828152600260209081526040808320848452909152812090815460ff166004811115610de657fe5b14610e38576040805162461bcd60e51b815260206004820152601d60248201527f4172626974726174696f6e20616c726561647920726571756573746564000000604482015290519081900360640190fd5b60405163f7434ea960e01b815260206004820190815260008054600260001961010060018416150201909116046024840181905290926001600160a01b037f0000000000000000000000000000000000000000000000000000000000000000169263f7434ea9928592829160449091019084908015610ef85780601f10610ecd57610100808354040283529160200191610ef8565b820191906000526020600020905b815481529060010190602001808311610edb57829003601f168201915b50509250505060206040518083038186803b158015610f1657600080fd5b505afa158015610f2a573d6000803e3d6000fd5b505050506040513d6020811015610f4057600080fd5b5051905034811115610f91576040805162461bcd60e51b81526020600482015260156024820152744465706f7369742076616c756520746f6f206c6f7760581b604482015290519081900360640190fd5b8154600160ff199091168117610100600160a81b031916336101008102919091178455349184019190915560408051602481018790526044810186905260648082019390935281518082039093018352608401815260208083018051632693a57760e11b6001600160e01b039091168117909152825163e5789d0360e01b815292519093926001600160a01b037f0000000000000000000000000000000000000000000000000000000000000000169263dc8601b3927f0000000000000000000000000000000000000000000000000000000000000000928692869263e5789d03926004808201939291829003018186803b15801561108f57600080fd5b505afa1580156110a3573d6000803e3d6000fd5b505050506040513d60208110156110b957600080fd5b50516040516001600160e01b031960e086901b1681526001600160a01b038416600482019081526044820183905260606024830190815284516064840152845191929091608490910190602086019080838360005b8381101561112657818101518382015260200161110e565b50505050905090810190601f1680156111535780820380516001836020036101000a031916815260200191505b50945050505050602060405180830381600087803b15801561117457600080fd5b505af1158015611188573d6000803e3d6000fd5b505050506040513d602081101561119e57600080fd5b50506040513390869088907fdf57d4b6855c24699cf6fb10842c48802b96f0d752747f559fbade8c75d937c890600090a4505050505050565b336001600160a01b037f00000000000000000000000000000000000000000000000000000000000000001614611247576040805162461bcd60e51b815260206004820152601060248201526f13db9b1e4810535088185b1b1bddd95960821b604482015290519081900360640190fd5b7f00000000000000000000000000000000000000000000000000000000000000007f00000000000000000000000000000000000000000000000000000000000000006001600160a01b0316639e307dff6040518163ffffffff1660e01b815260040160206040518083038186803b1580156112c157600080fd5b505afa1580156112d5573d6000803e3d6000fd5b505050506040513d60208110156112eb57600080fd5b505114611339576040805162461bcd60e51b815260206004820152601760248201527613db9b1e481a1bdb594818da185a5b88185b1b1bddd959604a1b604482015290519081900360640190fd5b7f00000000000000000000000000000000000000000000000000000000000000006001600160a01b03167f00000000000000000000000000000000000000000000000000000000000000006001600160a01b031663d67bdd256040518163ffffffff1660e01b815260040160206040518083038186803b1580156113bc57600080fd5b505afa1580156113d0573d6000803e3d6000fd5b505050506040513d60208110156113e657600080fd5b50516001600160a01b03161461143d576040805162461bcd60e51b815260206004820152601760248201527613db9b1e481a1bdb59481c1c9bde1e48185b1b1bddd959604a1b604482015290519081900360640190fd5b600082815260026020908152604080832084845290915290206001815460ff16600481111561146857fe5b146114b7576040805162461bcd60e51b815260206004820152601a602482015279496e76616c6964206172626974726174696f6e2073746174757360301b604482015290519081900360640190fd5b805460018201546040516101009092046001600160a01b0316916108fc82150291906000818181858888f1505050600085815260026020908152604080832087845290915280822080546001600160a81b0319168155600101829055518593508692507fdb31f770642beceea115e6305d4960a8a71454d26a7b070a84dd7f43a86b62a99190a3505050565b7f000000000000000000000000000000000000000000000000000000000000000081565b336001600160a01b037f000000000000000000000000000000000000000000000000000000000000000016146115d7576040805162461bcd60e51b815260206004820152601060248201526f13db9b1e4810535088185b1b1bddd95960821b604482015290519081900360640190fd5b7f00000000000000000000000000000000000000000000000000000000000000007f00000000000000000000000000000000000000000000000000000000000000006001600160a01b0316639e307dff6040518163ffffffff1660e01b815260040160206040518083038186803b15801561165157600080fd5b505afa158015611665573d6000803e3d6000fd5b505050506040513d602081101561167b57600080fd5b5051146116c9576040805162461bcd60e51b815260206004820152601760248201527613db9b1e481a1bdb594818da185a5b88185b1b1bddd959604a1b604482015290519081900360640190fd5b7f00000000000000000000000000000000000000000000000000000000000000006001600160a01b03167f00000000000000000000000000000000000000000000000000000000000000006001600160a01b031663d67bdd256040518163ffffffff1660e01b815260040160206040518083038186803b15801561174c57600080fd5b505afa158015611760573d6000803e3d6000fd5b505050506040513d602081101561177657600080fd5b50516001600160a01b0316146117cd576040805162461bcd60e51b815260206004820152601760248201527613db9b1e481a1bdb59481c1c9bde1e48185b1b1bddd959604a1b604482015290519081900360640190fd5b600082815260026020908152604080832084845290915290206001815460ff1660048111156117f857fe5b14611847576040805162461bcd60e51b815260206004820152601a602482015279496e76616c6964206172626974726174696f6e2073746174757360301b604482015290519081900360640190fd5b60405163f7434ea960e01b815260206004820190815260008054600260001961010060018416150201909116046024840181905290926001600160a01b037f0000000000000000000000000000000000000000000000000000000000000000169263f7434ea99285928291604490910190849080156119075780601f106118dc57610100808354040283529160200191611907565b820191906000526020600020905b8154815290600101906020018083116118ea57829003601f168201915b50509250505060206040518083038186803b15801561192557600080fd5b505afa158015611939573d6000803e3d6000fd5b505050506040513d602081101561194f57600080fd5b505160018301549091508111611bc9576040805163c13517e160e01b815260011960048201818152602483019384526000805460026101006001831615026000190190911604604485018190526001600160a01b037f0000000000000000000000000000000000000000000000000000000000000000169563c13517e1958895949260649091019084908015611a265780601f106119fb57610100808354040283529160200191611a26565b820191906000526020600020905b815481529060010190602001808311611a0957829003601f168201915b505093505050506020604051808303818588803b158015611a4657600080fd5b505af193505050508015611a6c57506040513d6020811015611a6757600080fd5b505160015b611aad57815460ff19166004178255604051839085907ffc1cc9a0676bd1afbd872786f0b40d6beada8f67b97b31214746a0a2f335719c90600090a3611bc4565b6000818152600360209081526040808320888155600190810188905588845260049092528220805460ff199081168317909155908501805486549092166002178655919091558290038015611b295783546040516101009091046001600160a01b0316906108fc8315029083906000818181858888f150505050505b8185877f64fb7f45c94af7dac8bd4d1255b40cf74e4bb5373a61b5b07bb19d600864e40360405160405180910390a4604080516000815260208101889052815184926001600160a01b037f000000000000000000000000000000000000000000000000000000000000000016927f74baab670a4015ab2f1b467c5252a96141a2573f2908e58a92081e80d3cfde3d929081900390910190a350505b611c02565b815460ff19166004178255604051839085907ffc1cc9a0676bd1afbd872786f0b40d6beada8f67b97b31214746a0a2f335719c90600090a35b5050505056fea26469706673582212206bc138043fd6513768037c038018dce416ea73097db2f1e8ea91105f4bfc3dc164736f6c63430007060033",
  "devdoc": {
    "details": "This contract is meant to be deployed to the Ethereum chains where Kleros is deployed.",
    "kind": "dev",
    "methods": {
      "acknowledgeArbitration(bytes32,bytes32)": {
        "details": "Acknowledges the arbitration request for the given question and contested answer. TRUSTED.",
        "params": {
          "_contestedAnswer": "The answer the requester deems to be incorrect.",
          "_questionID": "The ID of the question."
        }
      },
      "cancelArbitration(bytes32,bytes32)": {
        "details": "Cancels the arbitration request. TRUSTED.",
        "params": {
          "_contestedAnswer": "The answer the requester deems to be incorrect.",
          "_questionID": "The ID of the question."
        }
      },
      "constructor": {
        "params": {
          "_amb": "ArbitraryMessageBridge contract address.",
          "_arbitrator": "Arbitrator contract address.",
          "_arbitratorExtraData": "The extra data used to raise a dispute in the arbitrator.",
          "_metaEvidence": "The URI of the meta evidence file.",
          "_termsOfService": "The path for the Terms of Service for Kleros as an arbitrator for Realitio."
        }
      },
      "getDisputeFee(bytes32)": {
        "params": {
          "_questionID": "the ID of the question."
        },
        "returns": {
          "_0": "The fee to create a dispute."
        }
      },
      "handleFailedDisputeCreation(bytes32,bytes32)": {
        "params": {
          "_contestedAnswer": "The answer the requester deems to be incorrect.",
          "_questionID": "The ID of the question."
        }
      },
      "requestArbitration(bytes32,bytes32)": {
        "params": {
          "_contestedAnswer": "The answer the requester deems to be incorrect.",
          "_questionID": "The ID of the question."
        }
      },
      "rule(uint256,uint256)": {
        "details": "Note that 0 is reserved for \"Unable/refused to arbitrate\" and we map it to `bytes32(-1)` which has a similar meaning in Realitio.",
        "params": {
          "_disputeID": "The ID of the dispute in the ERC792 arbitrator.",
          "_ruling": "The ruling given by the arbitrator."
        }
      }
    },
    "stateVariables": {
      "META_EVIDENCE_ID": {
        "details": "The ID of the MetaEvidence for disputes."
      },
      "NUMBER_OF_CHOICES_FOR_ARBITRATOR": {
        "details": "The number of choices for the arbitrator. Kleros is currently able to provide ruling values of up to 2^256 - 2."
      },
      "amb": {
        "details": "ArbitraryMessageBridge contract address. TRUSTED."
      },
      "arbitrationRequests": {
        "details": "Tracks arbitration requests for question ID. arbitrationRequests[questionID][contestedAnswer]"
      },
      "arbitrator": {
        "details": "The address of the arbitrator. TRUSTED."
      },
      "arbitratorExtraData": {
        "details": "The extra data used to raise a dispute in the arbitrator."
      },
      "disputeIDToQuestionAndAnswer": {
        "details": "Associates dispute ID to question ID and the contested answer. disputeIDToQuestionAndAnswer[disputeID] -> [questionID, contestedAnswer]"
      },
      "homeChainId": {
        "details": "The chain ID where the home proxy is deployed."
      },
      "homeProxy": {
        "details": "Address of the counter-party proxy on the Home Chain. TRUSTED."
      },
      "questionIDToDisputeExists": {
        "details": "Whether a dispute has already been created for the given question ID or not. questionIDToDisputeExists[questionID]"
      },
      "termsOfService": {
        "details": "The path for the Terms of Service for Kleros as an arbitrator for Realitio."
      }
    },
    "title": "Arbitration proxy for Realitio on Ethereum side (A.K.A. the Foreign Chain).",
    "version": 1
  },
  "userdoc": {
    "events": {
      "ArbitrationCanceled(bytes32,bytes32)": {
        "notice": "Should be emitted when the arbitration is canceled by the Home Chain."
      },
      "ArbitrationCreated(bytes32,bytes32,uint256)": {
        "notice": "Should be emitted when the dispute is created."
      },
      "ArbitrationFailed(bytes32,bytes32)": {
        "notice": "Should be emitted when the dispute could not be created."
      },
      "ArbitrationRequested(bytes32,bytes32,address)": {
        "notice": "Should be emitted when the arbitration is requested."
      }
    },
    "kind": "user",
    "methods": {
      "constructor": {
        "notice": "Creates an arbitration proxy on the foreign chain."
      },
      "getDisputeFee(bytes32)": {
        "notice": "Gets the fee to create a dispute."
      },
      "handleFailedDisputeCreation(bytes32,bytes32)": {
        "notice": "Cancels the arbitration in case the dispute could not be created."
      },
      "requestArbitration(bytes32,bytes32)": {
        "notice": "Requests arbitration for the given question and contested answer."
      },
      "rule(uint256,uint256)": {
        "notice": "Rules a specified dispute."
      }
    },
    "version": 1
  },
  "storageLayout": {
    "storage": [
      {
        "astId": 572,
        "contract": "src/RealitioForeignArbitrationProxy.sol:RealitioForeignArbitrationProxy",
        "label": "arbitratorExtraData",
        "offset": 0,
        "slot": "0",
        "type": "t_bytes_storage"
      },
      {
        "astId": 575,
        "contract": "src/RealitioForeignArbitrationProxy.sol:RealitioForeignArbitrationProxy",
        "label": "termsOfService",
        "offset": 0,
        "slot": "1",
        "type": "t_string_storage"
      },
      {
        "astId": 609,
        "contract": "src/RealitioForeignArbitrationProxy.sol:RealitioForeignArbitrationProxy",
        "label": "arbitrationRequests",
        "offset": 0,
        "slot": "2",
        "type": "t_mapping(t_bytes32,t_mapping(t_bytes32,t_struct(ArbitrationRequest)602_storage))"
      },
      {
        "astId": 616,
        "contract": "src/RealitioForeignArbitrationProxy.sol:RealitioForeignArbitrationProxy",
        "label": "disputeIDToQuestionAndAnswer",
        "offset": 0,
        "slot": "3",
        "type": "t_mapping(t_uint256,t_array(t_bytes32)2_storage)"
      },
      {
        "astId": 621,
        "contract": "src/RealitioForeignArbitrationProxy.sol:RealitioForeignArbitrationProxy",
        "label": "questionIDToDisputeExists",
        "offset": 0,
        "slot": "4",
        "type": "t_mapping(t_bytes32,t_bool)"
      }
    ],
    "types": {
      "t_address_payable": {
        "encoding": "inplace",
        "label": "address payable",
        "numberOfBytes": "20"
      },
      "t_array(t_bytes32)2_storage": {
        "base": "t_bytes32",
        "encoding": "inplace",
        "label": "bytes32[2]",
        "numberOfBytes": "64"
      },
      "t_bool": {
        "encoding": "inplace",
        "label": "bool",
        "numberOfBytes": "1"
      },
      "t_bytes32": {
        "encoding": "inplace",
        "label": "bytes32",
        "numberOfBytes": "32"
      },
      "t_bytes_storage": {
        "encoding": "bytes",
        "label": "bytes",
        "numberOfBytes": "32"
      },
      "t_enum(Status)595": {
        "encoding": "inplace",
        "label": "enum RealitioForeignArbitrationProxy.Status",
        "numberOfBytes": "1"
      },
      "t_mapping(t_bytes32,t_bool)": {
        "encoding": "mapping",
        "key": "t_bytes32",
        "label": "mapping(bytes32 => bool)",
        "numberOfBytes": "32",
        "value": "t_bool"
      },
      "t_mapping(t_bytes32,t_mapping(t_bytes32,t_struct(ArbitrationRequest)602_storage))": {
        "encoding": "mapping",
        "key": "t_bytes32",
        "label": "mapping(bytes32 => mapping(bytes32 => struct RealitioForeignArbitrationProxy.ArbitrationRequest))",
        "numberOfBytes": "32",
        "value": "t_mapping(t_bytes32,t_struct(ArbitrationRequest)602_storage)"
      },
      "t_mapping(t_bytes32,t_struct(ArbitrationRequest)602_storage)": {
        "encoding": "mapping",
        "key": "t_bytes32",
        "label": "mapping(bytes32 => struct RealitioForeignArbitrationProxy.ArbitrationRequest)",
        "numberOfBytes": "32",
        "value": "t_struct(ArbitrationRequest)602_storage"
      },
      "t_mapping(t_uint256,t_array(t_bytes32)2_storage)": {
        "encoding": "mapping",
        "key": "t_uint256",
        "label": "mapping(uint256 => bytes32[2])",
        "numberOfBytes": "32",
        "value": "t_array(t_bytes32)2_storage"
      },
      "t_string_storage": {
        "encoding": "bytes",
        "label": "string",
        "numberOfBytes": "32"
      },
      "t_struct(ArbitrationRequest)602_storage": {
        "encoding": "inplace",
        "label": "struct RealitioForeignArbitrationProxy.ArbitrationRequest",
        "members": [
          {
            "astId": 597,
            "contract": "src/RealitioForeignArbitrationProxy.sol:RealitioForeignArbitrationProxy",
            "label": "status",
            "offset": 0,
            "slot": "0",
            "type": "t_enum(Status)595"
          },
          {
            "astId": 599,
            "contract": "src/RealitioForeignArbitrationProxy.sol:RealitioForeignArbitrationProxy",
            "label": "requester",
            "offset": 1,
            "slot": "0",
            "type": "t_address_payable"
          },
          {
            "astId": 601,
            "contract": "src/RealitioForeignArbitrationProxy.sol:RealitioForeignArbitrationProxy",
            "label": "deposit",
            "offset": 0,
            "slot": "1",
            "type": "t_uint256"
          }
        ],
        "numberOfBytes": "64"
      },
      "t_uint256": {
        "encoding": "inplace",
        "label": "uint256",
        "numberOfBytes": "32"
      }
    }
  }
}