{
  "address": "0x2F0895732bfacdCF2fdB19962fE609D0dA695F21",
  "abi": [
    {
      "inputs": [
        {
          "internalType": "contract IAMB",
          "name": "_amb",
          "type": "address"
        },
        {
          "internalType": "address",
          "name": "_homeProxy",
          "type": "address"
        },
        {
          "internalType": "bytes32",
          "name": "_homeChainId",
          "type": "bytes32"
        },
        {
          "internalType": "contract IArbitrator",
          "name": "_arbitrator",
          "type": "address"
        },
        {
          "internalType": "bytes",
          "name": "_arbitratorExtraData",
          "type": "bytes"
        },
        {
          "internalType": "string",
          "name": "_metaEvidence",
          "type": "string"
        },
        {
          "internalType": "string",
          "name": "_termsOfService",
          "type": "string"
        },
        {
          "internalType": "uint256",
          "name": "_winnerMultiplier",
          "type": "uint256"
        },
        {
          "internalType": "uint256",
          "name": "_loserMultiplier",
          "type": "uint256"
        },
        {
          "internalType": "uint256",
          "name": "_loserAppealPeriodMultiplier",
          "type": "uint256"
        }
      ],
      "stateMutability": "nonpayable",
      "type": "constructor"
    },
    {
      "anonymous": false,
      "inputs": [
        {
          "indexed": true,
          "internalType": "bytes32",
          "name": "_questionID",
          "type": "bytes32"
        },
        {
          "indexed": true,
          "internalType": "address",
          "name": "_requester",
          "type": "address"
        }
      ],
      "name": "ArbitrationCanceled",
      "type": "event"
    },
    {
      "anonymous": false,
      "inputs": [
        {
          "indexed": true,
          "internalType": "bytes32",
          "name": "_questionID",
          "type": "bytes32"
        },
        {
          "indexed": true,
          "internalType": "address",
          "name": "_requester",
          "type": "address"
        },
        {
          "indexed": true,
          "internalType": "uint256",
          "name": "_disputeID",
          "type": "uint256"
        }
      ],
      "name": "ArbitrationCreated",
      "type": "event"
    },
    {
      "anonymous": false,
      "inputs": [
        {
          "indexed": true,
          "internalType": "bytes32",
          "name": "_questionID",
          "type": "bytes32"
        },
        {
          "indexed": true,
          "internalType": "address",
          "name": "_requester",
          "type": "address"
        }
      ],
      "name": "ArbitrationFailed",
      "type": "event"
    },
    {
      "anonymous": false,
      "inputs": [
        {
          "indexed": true,
          "internalType": "bytes32",
          "name": "_questionID",
          "type": "bytes32"
        },
        {
          "indexed": true,
          "internalType": "address",
          "name": "_requester",
          "type": "address"
        },
        {
          "indexed": false,
          "internalType": "uint256",
          "name": "_maxPrevious",
          "type": "uint256"
        }
      ],
      "name": "ArbitrationRequested",
      "type": "event"
    },
    {
      "anonymous": false,
      "inputs": [
        {
          "indexed": true,
          "internalType": "uint256",
          "name": "_localDisputeID",
          "type": "uint256"
        },
        {
          "indexed": true,
          "internalType": "uint256",
          "name": "_round",
          "type": "uint256"
        },
        {
          "indexed": false,
          "internalType": "uint256",
          "name": "ruling",
          "type": "uint256"
        },
        {
          "indexed": true,
          "internalType": "address",
          "name": "_contributor",
          "type": "address"
        },
        {
          "indexed": false,
          "internalType": "uint256",
          "name": "_amount",
          "type": "uint256"
        }
      ],
      "name": "Contribution",
      "type": "event"
    },
    {
      "anonymous": false,
      "inputs": [
        {
          "indexed": true,
          "internalType": "contract IArbitrator",
          "name": "_arbitrator",
          "type": "address"
        },
        {
          "indexed": true,
          "internalType": "uint256",
          "name": "_disputeID",
          "type": "uint256"
        },
        {
          "indexed": false,
          "internalType": "uint256",
          "name": "_metaEvidenceID",
          "type": "uint256"
        },
        {
          "indexed": false,
          "internalType": "uint256",
          "name": "_evidenceGroupID",
          "type": "uint256"
        }
      ],
      "name": "Dispute",
      "type": "event"
    },
    {
      "anonymous": false,
      "inputs": [
        {
          "indexed": true,
          "internalType": "contract IArbitrator",
          "name": "_arbitrator",
          "type": "address"
        },
        {
          "indexed": true,
          "internalType": "uint256",
          "name": "_evidenceGroupID",
          "type": "uint256"
        },
        {
          "indexed": true,
          "internalType": "address",
          "name": "_party",
          "type": "address"
        },
        {
          "indexed": false,
          "internalType": "string",
          "name": "_evidence",
          "type": "string"
        }
      ],
      "name": "Evidence",
      "type": "event"
    },
    {
      "anonymous": false,
      "inputs": [
        {
          "indexed": true,
          "internalType": "uint256",
          "name": "_metaEvidenceID",
          "type": "uint256"
        },
        {
          "indexed": false,
          "internalType": "string",
          "name": "_evidence",
          "type": "string"
        }
      ],
      "name": "MetaEvidence",
      "type": "event"
    },
    {
      "anonymous": false,
      "inputs": [
        {
          "indexed": true,
          "internalType": "contract IArbitrator",
          "name": "_arbitrator",
          "type": "address"
        },
        {
          "indexed": true,
          "internalType": "uint256",
          "name": "_disputeID",
          "type": "uint256"
        },
        {
          "indexed": false,
          "internalType": "uint256",
          "name": "_ruling",
          "type": "uint256"
        }
      ],
      "name": "Ruling",
      "type": "event"
    },
    {
      "anonymous": false,
      "inputs": [
        {
          "indexed": true,
          "internalType": "uint256",
          "name": "_localDisputeID",
          "type": "uint256"
        },
        {
          "indexed": true,
          "internalType": "uint256",
          "name": "_round",
          "type": "uint256"
        },
        {
          "indexed": true,
          "internalType": "uint256",
          "name": "_ruling",
          "type": "uint256"
        }
      ],
      "name": "RulingFunded",
      "type": "event"
    },
    {
      "anonymous": false,
      "inputs": [
        {
          "indexed": true,
          "internalType": "uint256",
          "name": "_localDisputeID",
          "type": "uint256"
        },
        {
          "indexed": true,
          "internalType": "uint256",
          "name": "_round",
          "type": "uint256"
        },
        {
          "indexed": false,
          "internalType": "uint256",
          "name": "_ruling",
          "type": "uint256"
        },
        {
          "indexed": true,
          "internalType": "address",
          "name": "_contributor",
          "type": "address"
        },
        {
          "indexed": false,
          "internalType": "uint256",
          "name": "_reward",
          "type": "uint256"
        }
      ],
      "name": "Withdrawal",
      "type": "event"
    },
    {
      "inputs": [],
      "name": "META_EVIDENCE_ID",
      "outputs": [
        {
          "internalType": "uint256",
          "name": "",
          "type": "uint256"
        }
      ],
      "stateMutability": "view",
      "type": "function"
    },
    {
      "inputs": [],
      "name": "MULTIPLIER_DIVISOR",
      "outputs": [
        {
          "internalType": "uint256",
          "name": "",
          "type": "uint256"
        }
      ],
      "stateMutability": "view",
      "type": "function"
    },
    {
      "inputs": [],
      "name": "NUMBER_OF_CHOICES_FOR_ARBITRATOR",
      "outputs": [
        {
          "internalType": "uint256",
          "name": "",
          "type": "uint256"
        }
      ],
      "stateMutability": "view",
      "type": "function"
    },
    {
      "inputs": [],
      "name": "VERSION",
      "outputs": [
        {
          "internalType": "string",
          "name": "",
          "type": "string"
        }
      ],
      "stateMutability": "view",
      "type": "function"
    },
    {
      "inputs": [],
      "name": "amb",
      "outputs": [
        {
          "internalType": "contract IAMB",
          "name": "",
          "type": "address"
        }
      ],
      "stateMutability": "view",
      "type": "function"
    },
    {
      "inputs": [
        {
          "internalType": "uint256",
          "name": "",
          "type": "uint256"
        }
      ],
      "name": "arbitrationIDToDisputeExists",
      "outputs": [
        {
          "internalType": "bool",
          "name": "",
          "type": "bool"
        }
      ],
      "stateMutability": "view",
      "type": "function"
    },
    {
      "inputs": [
        {
          "internalType": "uint256",
          "name": "",
          "type": "uint256"
        }
      ],
      "name": "arbitrationIDToRequester",
      "outputs": [
        {
          "internalType": "address",
          "name": "",
          "type": "address"
        }
      ],
      "stateMutability": "view",
      "type": "function"
    },
    {
      "inputs": [
        {
          "internalType": "uint256",
          "name": "",
          "type": "uint256"
        },
        {
          "internalType": "address",
          "name": "",
          "type": "address"
        }
      ],
      "name": "arbitrationRequests",
      "outputs": [
        {
          "internalType": "enum RealitioForeignArbitrationProxyWithAppeals.Status",
          "name": "status",
          "type": "uint8"
        },
        {
          "internalType": "uint248",
          "name": "deposit",
          "type": "uint248"
        },
        {
          "internalType": "uint256",
          "name": "disputeID",
          "type": "uint256"
        },
        {
          "internalType": "uint256",
          "name": "answer",
          "type": "uint256"
        }
      ],
      "stateMutability": "view",
      "type": "function"
    },
    {
      "inputs": [],
      "name": "arbitrator",
      "outputs": [
        {
          "internalType": "contract IArbitrator",
          "name": "",
          "type": "address"
        }
      ],
      "stateMutability": "view",
      "type": "function"
    },
    {
      "inputs": [],
      "name": "arbitratorExtraData",
      "outputs": [
        {
          "internalType": "bytes",
          "name": "",
          "type": "bytes"
        }
      ],
      "stateMutability": "view",
      "type": "function"
    },
    {
      "inputs": [
        {
          "internalType": "uint256",
          "name": "",
          "type": "uint256"
        }
      ],
      "name": "disputeIDToDisputeDetails",
      "outputs": [
        {
          "internalType": "uint256",
          "name": "arbitrationID",
          "type": "uint256"
        },
        {
          "internalType": "address",
          "name": "requester",
          "type": "address"
        }
      ],
      "stateMutability": "view",
      "type": "function"
    },
    {
      "inputs": [
        {
          "internalType": "uint256",
          "name": "_externalDisputeID",
          "type": "uint256"
        }
      ],
      "name": "externalIDtoLocalID",
      "outputs": [
        {
          "internalType": "uint256",
          "name": "",
          "type": "uint256"
        }
      ],
      "stateMutability": "view",
      "type": "function"
    },
    {
      "inputs": [
        {
          "internalType": "uint256",
          "name": "_arbitrationID",
          "type": "uint256"
        },
        {
          "internalType": "uint256",
          "name": "_answer",
          "type": "uint256"
        }
      ],
      "name": "fundAppeal",
      "outputs": [
        {
          "internalType": "bool",
          "name": "",
          "type": "bool"
        }
      ],
      "stateMutability": "payable",
      "type": "function"
    },
    {
      "inputs": [
        {
          "internalType": "uint256",
          "name": "_arbitrationID",
          "type": "uint256"
        },
        {
          "internalType": "uint256",
          "name": "_round",
          "type": "uint256"
        },
        {
          "internalType": "address",
          "name": "_contributor",
          "type": "address"
        }
      ],
      "name": "getContributionsToSuccessfulFundings",
      "outputs": [
        {
          "internalType": "uint256[]",
          "name": "fundedAnswers",
          "type": "uint256[]"
        },
        {
          "internalType": "uint256[]",
          "name": "contributions",
          "type": "uint256[]"
        }
      ],
      "stateMutability": "view",
      "type": "function"
    },
    {
      "inputs": [
        {
          "internalType": "bytes32",
          "name": "",
          "type": "bytes32"
        }
      ],
      "name": "getDisputeFee",
      "outputs": [
        {
          "internalType": "uint256",
          "name": "",
          "type": "uint256"
        }
      ],
      "stateMutability": "view",
      "type": "function"
    },
    {
      "inputs": [
        {
          "internalType": "uint256",
          "name": "_arbitrationID",
          "type": "uint256"
        },
        {
          "internalType": "uint256",
          "name": "_round",
          "type": "uint256"
        },
        {
          "internalType": "uint256",
          "name": "_answer",
          "type": "uint256"
        }
      ],
      "name": "getFundingStatus",
      "outputs": [
        {
          "internalType": "uint256",
          "name": "raised",
          "type": "uint256"
        },
        {
          "internalType": "bool",
          "name": "fullyFunded",
          "type": "bool"
        }
      ],
      "stateMutability": "view",
      "type": "function"
    },
    {
      "inputs": [],
      "name": "getMultipliers",
      "outputs": [
        {
          "internalType": "uint256",
          "name": "winner",
          "type": "uint256"
        },
        {
          "internalType": "uint256",
          "name": "loser",
          "type": "uint256"
        },
        {
          "internalType": "uint256",
          "name": "loserAppealPeriod",
          "type": "uint256"
        },
        {
          "internalType": "uint256",
          "name": "divisor",
          "type": "uint256"
        }
      ],
      "stateMutability": "view",
      "type": "function"
    },
    {
      "inputs": [
        {
          "internalType": "uint256",
          "name": "_arbitrationID",
          "type": "uint256"
        }
      ],
      "name": "getNumberOfRounds",
      "outputs": [
        {
          "internalType": "uint256",
          "name": "",
          "type": "uint256"
        }
      ],
      "stateMutability": "view",
      "type": "function"
    },
    {
      "inputs": [
        {
          "internalType": "uint256",
          "name": "_arbitrationID",
          "type": "uint256"
        },
        {
          "internalType": "uint256",
          "name": "_round",
          "type": "uint256"
        }
      ],
      "name": "getRoundInfo",
      "outputs": [
        {
          "internalType": "uint256[]",
          "name": "paidFees",
          "type": "uint256[]"
        },
        {
          "internalType": "uint256",
          "name": "feeRewards",
          "type": "uint256"
        },
        {
          "internalType": "uint256[]",
          "name": "fundedAnswers",
          "type": "uint256[]"
        }
      ],
      "stateMutability": "view",
      "type": "function"
    },
    {
      "inputs": [
        {
          "internalType": "uint256",
          "name": "_arbitrationID",
          "type": "uint256"
        },
        {
          "internalType": "address payable",
          "name": "_beneficiary",
          "type": "address"
        },
        {
          "internalType": "uint256",
          "name": "_contributedTo",
          "type": "uint256"
        }
      ],
      "name": "getTotalWithdrawableAmount",
      "outputs": [
        {
          "internalType": "uint256",
          "name": "sum",
          "type": "uint256"
        }
      ],
      "stateMutability": "view",
      "type": "function"
    },
    {
      "inputs": [
        {
          "internalType": "bytes32",
          "name": "_questionID",
          "type": "bytes32"
        },
        {
          "internalType": "address",
          "name": "_requester",
          "type": "address"
        }
      ],
      "name": "handleFailedDisputeCreation",
      "outputs": [],
      "stateMutability": "nonpayable",
      "type": "function"
    },
    {
      "inputs": [],
      "name": "homeChainId",
      "outputs": [
        {
          "internalType": "bytes32",
          "name": "",
          "type": "bytes32"
        }
      ],
      "stateMutability": "view",
      "type": "function"
    },
    {
      "inputs": [],
      "name": "homeProxy",
      "outputs": [
        {
          "internalType": "address",
          "name": "",
          "type": "address"
        }
      ],
      "stateMutability": "view",
      "type": "function"
    },
    {
      "inputs": [],
      "name": "loserAppealPeriodMultiplier",
      "outputs": [
        {
          "internalType": "uint256",
          "name": "",
          "type": "uint256"
        }
      ],
      "stateMutability": "view",
      "type": "function"
    },
    {
      "inputs": [],
      "name": "loserMultiplier",
      "outputs": [
        {
          "internalType": "uint256",
          "name": "",
          "type": "uint256"
        }
      ],
      "stateMutability": "view",
      "type": "function"
    },
    {
      "inputs": [
        {
          "internalType": "uint256",
          "name": "",
          "type": "uint256"
        }
      ],
      "name": "numberOfRulingOptions",
      "outputs": [
        {
          "internalType": "uint256",
          "name": "",
          "type": "uint256"
        }
      ],
      "stateMutability": "pure",
      "type": "function"
    },
    {
      "inputs": [
        {
          "internalType": "bytes32",
          "name": "_questionID",
          "type": "bytes32"
        }
      ],
      "name": "questionIDToArbitrationID",
      "outputs": [
        {
          "internalType": "uint256",
          "name": "",
          "type": "uint256"
        }
      ],
      "stateMutability": "pure",
      "type": "function"
    },
    {
      "inputs": [
        {
          "internalType": "bytes32",
          "name": "_questionID",
          "type": "bytes32"
        },
        {
          "internalType": "address",
          "name": "_requester",
          "type": "address"
        }
      ],
      "name": "receiveArbitrationAcknowledgement",
      "outputs": [],
      "stateMutability": "nonpayable",
      "type": "function"
    },
    {
      "inputs": [
        {
          "internalType": "bytes32",
          "name": "_questionID",
          "type": "bytes32"
        },
        {
          "internalType": "address",
          "name": "_requester",
          "type": "address"
        }
      ],
      "name": "receiveArbitrationCancelation",
      "outputs": [],
      "stateMutability": "nonpayable",
      "type": "function"
    },
    {
      "inputs": [
        {
          "internalType": "bytes32",
          "name": "_questionID",
          "type": "bytes32"
        },
        {
          "internalType": "uint256",
          "name": "_maxPrevious",
          "type": "uint256"
        }
      ],
      "name": "requestArbitration",
      "outputs": [],
      "stateMutability": "payable",
      "type": "function"
    },
    {
      "inputs": [
        {
          "internalType": "uint256",
          "name": "_disputeID",
          "type": "uint256"
        },
        {
          "internalType": "uint256",
          "name": "_ruling",
          "type": "uint256"
        }
      ],
      "name": "rule",
      "outputs": [],
      "stateMutability": "nonpayable",
      "type": "function"
    },
    {
      "inputs": [
        {
          "internalType": "uint256",
          "name": "_arbitrationID",
          "type": "uint256"
        },
        {
          "internalType": "string",
          "name": "_evidenceURI",
          "type": "string"
        }
      ],
      "name": "submitEvidence",
      "outputs": [],
      "stateMutability": "nonpayable",
      "type": "function"
    },
    {
      "inputs": [],
      "name": "termsOfService",
      "outputs": [
        {
          "internalType": "string",
          "name": "",
          "type": "string"
        }
      ],
      "stateMutability": "view",
      "type": "function"
    },
    {
      "inputs": [],
      "name": "winnerMultiplier",
      "outputs": [
        {
          "internalType": "uint256",
          "name": "",
          "type": "uint256"
        }
      ],
      "stateMutability": "view",
      "type": "function"
    },
    {
      "inputs": [
        {
          "internalType": "uint256",
          "name": "_arbitrationID",
          "type": "uint256"
        },
        {
          "internalType": "address payable",
          "name": "_beneficiary",
          "type": "address"
        },
        {
          "internalType": "uint256",
          "name": "_round",
          "type": "uint256"
        },
        {
          "internalType": "uint256",
          "name": "_answer",
          "type": "uint256"
        }
      ],
      "name": "withdrawFeesAndRewards",
      "outputs": [
        {
          "internalType": "uint256",
          "name": "reward",
          "type": "uint256"
        }
      ],
      "stateMutability": "nonpayable",
      "type": "function"
    },
    {
      "inputs": [
        {
          "internalType": "uint256",
          "name": "_arbitrationID",
          "type": "uint256"
        },
        {
          "internalType": "address payable",
          "name": "_beneficiary",
          "type": "address"
        },
        {
          "internalType": "uint256",
          "name": "_contributedTo",
          "type": "uint256"
        }
      ],
      "name": "withdrawFeesAndRewardsForAllRounds",
      "outputs": [],
      "stateMutability": "nonpayable",
      "type": "function"
    }
  ],
  "transactionHash": "0xbf984110cf4f817558493e2f452c8a8c49f0bbdc75ca683bde0a563b0aeb3df1",
  "args": [
    "0x4C36d2919e407f0Cc2Ee3c993ccF8ac26d9CE64e",
    "0x29F39dE98D750eb77b5FAfb31B2837f079FcE222",
    "0x0000000000000000000000000000000000000000000000000000000000000064",
    "0x988b3a538b618c7a603e1c11ab82cd16dbe28069",
    "0x0000000000000000000000000000000000000000000000000000000000000000000000000000000000000000000000000000000000000000000000000000001f",
    "/ipfs/QmeWZL2LzVYH6oEDJXcHfeSHYdZmebv3Q9zLuRgsCLSCVg/realitio.json",
    "/ipfs/QmaUr6hnSVxYD899xdcn2GUVtXVjXoSXKZbce3zFtGWw4H/Question_Resolution_Policy.pdf",
    3000,
    7000,
    5000
  ],
  "numDeployments": 1,
  "solcInputHash": "4cb5c476057411cf3787b3e494827bda",
  "bytecode": "0x6101606040523480156200001257600080fd5b5060405162003c2438038062003c2483398181016040526101408110156200003957600080fd5b81516020830151604080850151606086015160808701805193519597949692959194919392820192846401000000008211156200007557600080fd5b9083019060208201858111156200008b57600080fd5b8251640100000000811182820188101715620000a657600080fd5b82525081516020918201929091019080838360005b83811015620000d5578181015183820152602001620000bb565b50505050905090810190601f168015620001035780820380516001836020036101000a031916815260200191505b50604052602001805160405193929190846401000000008211156200012757600080fd5b9083019060208201858111156200013d57600080fd5b82516401000000008111828201881017156200015857600080fd5b82525081516020918201929091019080838360005b83811015620001875781810151838201526020016200016d565b50505050905090810190601f168015620001b55780820380516001836020036101000a031916815260200191505b5060405260200180516040519392919084640100000000821115620001d957600080fd5b908301906020820185811115620001ef57600080fd5b82516401000000008111828201881017156200020a57600080fd5b82525081516020918201929091019080838360005b83811015620002395781810151838201526020016200021f565b50505050905090810190601f168015620002675780820380516001836020036101000a031916815260200191505b506040908152602082810151918301516060938401516001600160601b03198e861b811660a0528d861b811660c05260e08d9052948b901b90941660805288519295509350620002bd9160009189019062000392565b508351620002d390600190602087019062000392565b5061010083905261012082905261014081905260408051602080825287518183015287516000937f61606860eb6c87306811e2695215385101daab53bd6ab4e9f9049aead9363c7d938a93909283928301918501908083838a5b83811015620003475781810151838201526020016200032d565b50505050905090810190601f168015620003755780820380516001836020036101000a031916815260200191505b509250505060405180910390a2505050505050505050506200043e565b828054600181600116156101000203166002900490600052602060002090601f016020900481019282620003ca576000855562000415565b82601f10620003e557805160ff191683800117855562000415565b8280016001018555821562000415579182015b8281111562000415578251825591602001919060010190620003f8565b506200042392915062000427565b5090565b5b8082111562000423576000815560010162000428565b60805160601c60a05160601c60c05160601c60e0516101005161012051610140516136df6200054560003980610a6152806117b25280611dcf5250806118355280611dae5280611f655250806117815280611d8d5280611f895250806126e45280612c0852806134f7525080610d9a528061121c52806113c9528061243952806127d65280612cfa525080610b195280610d69528061139d5280612410528061267d528061270552806128005280612ba15280612c295280612d24525080610bd15280610f0652806115f052806116e7528061192f5280611bca5280611d4e5280611feb52806120c852806122755280612ec15280612fe952806131f452506136df6000f3fe60806040526004361061020f5760003560e01c80639b3ac99811610118578063c599c66f116100a0578063edabc4741161006f578063edabc47414610956578063ef126967146109cc578063fc6f8f16146109e1578063fe2dddeb14610a0b578063ffa1ad7414610a4a5761020f565b8063c599c66f146107f1578063d661dd31146108c9578063e742e2ed146108de578063ec85635b146109175761020f565b8063bb163782116100e7578063bb163782146106ca578063bb2fe65f146106f4578063bde80ca714610743578063be26fc881461078e578063c21ae061146107c75761020f565b80639b3ac998146105e4578063a22352e2146105f9578063a6a7f0eb14610623578063a829c3d1146106a75761020f565b80634b2f0ea01161019b578063756804c01161016a578063756804c01461047057806379873f8a1461049a5780638a9bb02a146104d55780638d8b2d7e146105a5578063965394ab146105cf5761020f565b80634b2f0ea0146103e557806354dba90f1461041c57806368cb30f5146104315780636cc6cde11461045b5761020f565b80631e117f49116101e25780631e117f491461030b578063311a6c5614610320578063362c34791461035257806348f37857146103975780634aa6a1e4146103ac5761020f565b80630c139eb4146102145780630c7ac7b61461023b5780630fa8c7ce146102c55780631062b39a146102da575b600080fd5b34801561022057600080fd5b50610229610a5f565b60408051918252519081900360200190f35b34801561024757600080fd5b50610250610a83565b6040805160208082528351818301528351919283929083019185019080838360005b8381101561028a578181015183820152602001610272565b50505050905090810190601f1680156102b75780820380516001836020036101000a031916815260200191505b509250505060405180910390f35b3480156102d157600080fd5b50610229610b11565b3480156102e657600080fd5b506102ef610b17565b604080516001600160a01b039092168252519081900360200190f35b34801561031757600080fd5b50610250610b3b565b34801561032c57600080fd5b506103506004803603604081101561034357600080fd5b5080359060200135610b95565b005b34801561035e57600080fd5b506102296004803603608081101561037557600080fd5b508035906001600160a01b036020820135169060408101359060600135610f5d565b3480156103a357600080fd5b506102ef61121a565b3480156103b857600080fd5b50610350600480360360408110156103cf57600080fd5b50803590602001356001600160a01b031661123e565b610408600480360360408110156103fb57600080fd5b508035906020013561155e565b604080519115158252519081900360200190f35b34801561042857600080fd5b50610229611d32565b34801561043d57600080fd5b506104086004803603602081101561045457600080fd5b5035611d37565b34801561046757600080fd5b506102ef611d4c565b34801561047c57600080fd5b506102ef6004803603602081101561049357600080fd5b5035611d70565b3480156104a657600080fd5b506104af611d8b565b604080519485526020850193909352838301919091526060830152519081900360800190f35b3480156104e157600080fd5b50610505600480360360408110156104f857600080fd5b5080359060200135611df7565b604051808060200184815260200180602001838103835286818151815260200191508051906020019060200280838360005b8381101561054f578181015183820152602001610537565b50505050905001838103825284818151815260200191508051906020019060200280838360005b8381101561058e578181015183820152602001610576565b505050509050019550505050505060405180910390f35b3480156105b157600080fd5b50610229600480360360208110156105c857600080fd5b5035611f5c565b3480156105db57600080fd5b50610229611f63565b3480156105f057600080fd5b50610229611f87565b34801561060557600080fd5b506102296004803603602081101561061c57600080fd5b5035611fab565b34801561062f57600080fd5b506103506004803603604081101561064657600080fd5b8135919081019060408101602082013564010000000081111561066857600080fd5b82018360208201111561067a57600080fd5b8035906020019184600183028401116401000000008311171561069c57600080fd5b5090925090506120bb565b610350600480360360408110156106bd57600080fd5b5080359060200135612155565b3480156106d657600080fd5b50610229600480360360208110156106ed57600080fd5b50356125cf565b34801561070057600080fd5b5061072a6004803603606081101561071757600080fd5b50803590602081013590604001356125d2565b6040805192835290151560208301528051918290030190f35b34801561074f57600080fd5b5061076d6004803603602081101561076657600080fd5b5035612650565b604080519283526001600160a01b0390911660208301528051918290030190f35b34801561079a57600080fd5b50610350600480360360408110156107b157600080fd5b50803590602001356001600160a01b0316612672565b3480156107d357600080fd5b50610229600480360360208110156107ea57600080fd5b5035612a13565b3480156107fd57600080fd5b506108306004803603606081101561081457600080fd5b50803590602081013590604001356001600160a01b0316612a25565b604051808060200180602001838103835285818151815260200191508051906020019060200280838360005b8381101561087457818101518382015260200161085c565b50505050905001838103825284818151815260200191508051906020019060200280838360005b838110156108b357818101518382015260200161089b565b5050505090500194505050505060405180910390f35b3480156108d557600080fd5b50610229612b90565b3480156108ea57600080fd5b506103506004803603604081101561090157600080fd5b50803590602001356001600160a01b0316612b96565b34801561092357600080fd5b506102296004803603606081101561093a57600080fd5b508035906001600160a01b0360208201351690604001356132ae565b34801561096257600080fd5b5061098f6004803603604081101561097957600080fd5b50803590602001356001600160a01b03166134b8565b6040518085600481111561099f57fe5b81526001600160f81b03909416602085015250604080840192909252606083015251908190036080019150f35b3480156109d857600080fd5b506102296134f5565b3480156109ed57600080fd5b5061022960048036036020811015610a0457600080fd5b5035613519565b348015610a1757600080fd5b5061035060048036036060811015610a2e57600080fd5b508035906001600160a01b03602082013516906040013561354b565b348015610a5657600080fd5b506102506135a7565b7f000000000000000000000000000000000000000000000000000000000000000081565b6000805460408051602060026001851615610100026000190190941693909304601f81018490048402820184019092528181529291830182828015610b095780601f10610ade57610100808354040283529160200191610b09565b820191906000526020600020905b815481529060010190602001808311610aec57829003601f168201915b505050505081565b60001981565b7f000000000000000000000000000000000000000000000000000000000000000081565b60018054604080516020600284861615610100026000190190941693909304601f81018490048402820184019092528181529291830182828015610b095780601f10610ade57610100808354040283529160200191610b09565b600082815260036020908152604080832080546001820154818652600285528386206001600160a01b03918216808852955292909420909392917f0000000000000000000000000000000000000000000000000000000000000000163314610c44576040805162461bcd60e51b815260206004820152601760248201527f4f6e6c792061726269747261746f7220616c6c6f776564000000000000000000604482015290519081900360640190fd5b6002815460ff166004811115610c5657fe5b14610ca5576040805162461bcd60e51b815260206004820152601a602482015279496e76616c6964206172626974726174696f6e2073746174757360301b604482015290519081900360640190fd5b60038101805486916000916000198101908110610cbe57fe5b90600052602060002090600502019050806004018054905060011415610cfc5780600401600081548110610cee57fe5b906000526020600020015491505b60028301829055825460ff19166003178355604080516024810187905260001984016044808301919091528251808303909101815260649091018252602080820180516306bad43760e51b6001600160e01b039091168117909152835163e5789d0360e01b8152935190937f00000000000000000000000000000000000000000000000000000000000000006001600160a01b03169263dc8601b3927f0000000000000000000000000000000000000000000000000000000000000000928692869263e5789d03926004808201939291829003018186803b158015610de057600080fd5b505afa158015610df4573d6000803e3d6000fd5b505050506040513d6020811015610e0a57600080fd5b50516040516001600160e01b031960e086901b1681526001600160a01b038416600482019081526044820183905260606024830190815284516064840152845191929091608490910190602086019080838360005b83811015610e77578181015183820152602001610e5f565b50505050905090810190601f168015610ea45780820380516001836020036101000a031916815260200191505b50945050505050602060405180830381600087803b158015610ec557600080fd5b505af1158015610ed9573d6000803e3d6000fd5b505050506040513d6020811015610eef57600080fd5b50506040805185815290518b916001600160a01b037f000000000000000000000000000000000000000000000000000000000000000016917f394027a5fa6e098a1191094d1719d6929b9abc535fcc0c8f448d6a4e756222769181900360200190a350505050505050505050565b600084815260056020908152604080832054600283528184206001600160a01b039091168085529252822060038101805484919087908110610f9b57fe5b6000918252602090912060059091020190506003825460ff166004811115610fbf57fe5b14611008576040805162461bcd60e51b8152602060048201526014602482015273111a5cdc1d5d19481b9bdd081c995cdbdb1d995960621b604482015290519081900360640190fd5b600085815260018201602052604090205460ff1661104d576001600160a01b03871660009081526002820160209081526040808320888452909152902054935061117c565b6002820154600090815260018201602052604090205460ff1661111a57600481015460011061107d576000611113565b8060000160008260040160018154811061109357fe5b9060005260206000200154815260200190815260200160002054816000016000836004016000815481106110c357fe5b6000918252602080832090910154835282810193909352604091820181205460038601546001600160a01b038d1683526002870185528383208b845290945291902054920191028161111157fe5b045b935061117c565b848260020154141561117c5760008581526020829052604090205480611141576000611178565b60038201546001600160a01b038916600090815260028401602090815260408083208a84529091529020548291028161117657fe5b045b9450505b831561120f576001600160a01b038716600081815260028301602090815260408083208984529091528082208290555186156108fc0291879190818181858888f1935050505050866001600160a01b031686897f54b3cab3cb5c4aca3209db1151caff092e878011202e43a36782d4ebe0b963ae8888604051808381526020018281526020019250505060405180910390a45b505050949350505050565b7f000000000000000000000000000000000000000000000000000000000000000081565b60008281526002602090815260408083206001600160a01b0385168452909152902082906004815460ff16600481111561127457fe5b146112c3576040805162461bcd60e51b815260206004820152601a602482015279496e76616c6964206172626974726174696f6e2073746174757360301b604482015290519081900360640190fd5b805460008381526002602081815260408084206001600160a01b03891685529091528220828155600181018390559081018290556101009092046001600160f81b03169190611315600383018261362c565b50506040516001600160a01b0385169082156108fc029083906000818181858888f1505060408051602481018a90526001600160a01b03808a166044808401919091528351808403909101815260649092018352602082810180516001600160e01b03166305fb2b4f60e51b908117909152845163e5789d0360e01b815294519097509295507f0000000000000000000000000000000000000000000000000000000000000000909116935063dc8601b3927f0000000000000000000000000000000000000000000000000000000000000000928692869263e5789d039260048083019392829003018186803b15801561140e57600080fd5b505afa158015611422573d6000803e3d6000fd5b505050506040513d602081101561143857600080fd5b50516040516001600160e01b031960e086901b1681526001600160a01b038416600482019081526044820183905260606024830190815284516064840152845191929091608490910190602086019080838360005b838110156114a557818101518382015260200161148d565b50505050905090810190601f1680156114d25780820380516001836020036101000a031916815260200191505b50945050505050602060405180830381600087803b1580156114f357600080fd5b505af1158015611507573d6000803e3d6000fd5b505050506040513d602081101561151d57600080fd5b50506040516001600160a01b0387169088907fe7700735be0b02f71ef1d623678daf36cd936af4c349a22ad9d5a8b217df0dd990600090a350505050505050565b600082815260026020818152604080842060058352818520546001600160a01b03168552909152822090815460ff16600481111561159857fe5b146115e2576040805162461bcd60e51b81526020600482015260156024820152742737903234b9b83aba32903a379030b83832b0b61760591b604482015290519081900360640190fd5b6000816001015490506000807f00000000000000000000000000000000000000000000000000000000000000006001600160a01b031663afe15cfb846040518263ffffffff1660e01b815260040180828152602001915050604080518083038186803b15801561165157600080fd5b505afa158015611665573d6000803e3d6000fd5b505050506040513d604081101561167b57600080fd5b508051602090910151909250905042821180159061169857508042105b6116e2576040805162461bcd60e51b815260206004820152601660248201527520b83832b0b6103832b934b7b21034b99037bb32b91760511b604482015290519081900360640190fd5b6000807f00000000000000000000000000000000000000000000000000000000000000006001600160a01b0316631c3db16d866040518263ffffffff1660e01b81526004018082815260200191505060206040518083038186803b15801561174957600080fd5b505afa15801561175d573d6000803e3d6000fd5b505050506040513d602081101561177357600080fd5b50519050878114156117a7577f00000000000000000000000000000000000000000000000000000000000000009150611857565b6127106117d68585037f00000000000000000000000000000000000000000000000000000000000000006135c8565b816117dd57fe5b0484420310611833576040805162461bcd60e51b815260206004820152601f60248201527f41707065616c20706572696f64206973206f76657220666f72206c6f73657200604482015290519081900360640190fd5b7f000000000000000000000000000000000000000000000000000000000000000091505b506003850180546000198101916000918390811061187157fe5b600091825260208083208c84526001600590930201918201905260409091205490915060ff16156118e9576040805162461bcd60e51b815260206004820152601b60248201527f41707065616c2066656520697320616c726561647920706169642e0000000000604482015290519081900360640190fd5b6040805163791f8b7360e11b8152600481018881526024820192835260008054600260001961010060018416150201909116046044840181905290936001600160a01b037f0000000000000000000000000000000000000000000000000000000000000000169363f23f16e6938c938793919260640190849080156119af5780601f10611984576101008083540402835291602001916119af565b820191906000526020600020905b81548152906001019060200180831161199257829003601f168201915b5050935050505060206040518083038186803b1580156119ce57600080fd5b505afa1580156119e2573d6000803e3d6000fd5b505050506040513d60208110156119f857600080fd5b505190506000611a1e612710611a0e84886135c8565b81611a1557fe5b849190046135fc565b60008c815260208590526040812054919250903490611a3e908490613611565b11611a625760008c815260208590526040902054611a5d908390613611565b611a64565b345b9050336001600160a01b0316858e7fcae597f39a3ad75c2e10d46b031f023c5c2babcd58ca0491b122acda3968d4c08f85604051808381526020018281526020019250505060405180910390a433600090815260028501602090815260408083208f8452825280832080548501905590869052902080548201908190558211611b97578360000160008d8152602001908152602001600020548460030160008282540192505081905550836004018c908060018154018082558091505060019003906000526020600020016000909190919091505560018460010160008e815260200190815260200160002060006101000a81548160ff0219169083151502179055508b858e7f39493c1b78d9a13bcc9e1d532fc7faed3889248d93affa811416ce3c6bcb1a6860405160405180910390a45b600484015460011015611cd3576003808b0180546001018155600052840154611bc09084613611565b84600301819055507f00000000000000000000000000000000000000000000000000000000000000006001600160a01b03166349912f88848b60006040518463ffffffff1660e01b81526004018083815260200180602001828103825283818154600181600116156101000203166002900481526020019150805460018160011615610100020316600290048015611c995780601f10611c6e57610100808354040283529160200191611c99565b820191906000526020600020905b815481529060010190602001808311611c7c57829003601f168201915b505093505050506000604051808303818588803b158015611cb957600080fd5b505af1158015611ccd573d6000803e3d6000fd5b50505050505b6000611cdf3483613611565b1115611d0b57336108fc611cf33484613611565b6040518115909202916000818181858888f150505050505b50505060008981526001909101602052604090205460ff1696505050505050505b92915050565b600081565b60046020526000908152604090205460ff1681565b7f000000000000000000000000000000000000000000000000000000000000000081565b6005602052600090815260409020546001600160a01b031681565b7f00000000000000000000000000000000000000000000000000000000000000007f00000000000000000000000000000000000000000000000000000000000000007f000000000000000000000000000000000000000000000000000000000000000061271090919293565b600082815260056020908152604080832054600283528184206001600160a01b03909116808552925282206003810180546060949385939092909185919088908110611e3f57fe5b9060005260206000209060050201905080600401805480602002602001604051908101604052809291908181526020018280548015611e9d57602002820191906000526020600020905b815481526020019060010190808311611e89575b5050505060048301549195505067ffffffffffffffff81118015611ec057600080fd5b50604051908082528060200260200182016040528015611eea578160200160208202803683370190505b50955060005b6004820154811015611f4a57816000016000836004018381548110611f1157fe5b9060005260206000200154815260200190815260200160002054878281518110611f3757fe5b6020908102919091010152600101611ef0565b50806003015494505050509250925092565b5060001990565b7f000000000000000000000000000000000000000000000000000000000000000081565b7f000000000000000000000000000000000000000000000000000000000000000081565b60405163f7434ea960e01b815260206004820190815260008054600260001961010060018416150201909116046024840181905290926001600160a01b037f0000000000000000000000000000000000000000000000000000000000000000169263f7434ea992859282916044909101908490801561206b5780601f106120405761010080835404028352916020019161206b565b820191906000526020600020905b81548152906001019060200180831161204e57829003601f168201915b50509250505060206040518083038186803b15801561208957600080fd5b505afa15801561209d573d6000803e3d6000fd5b505050506040513d60208110156120b357600080fd5b505192915050565b336001600160a01b0316837f00000000000000000000000000000000000000000000000000000000000000006001600160a01b03167fdccf2f8b2cc26eafcd61905cba744cff4b81d14740725f6376390dc6298a6a3c858560405180806020018281038252848482818152602001925080828437600083820152604051601f909101601f19169092018290039550909350505050a4505050565b60008281526004602052604090205460ff16156121b9576040805162461bcd60e51b815260206004820152601760248201527f4469737075746520616c72656164792063726561746564000000000000000000604482015290519081900360640190fd5b6000828152600260209081526040808320338452909152812090815460ff1660048111156121e357fe5b14612235576040805162461bcd60e51b815260206004820152601d60248201527f4172626974726174696f6e20616c726561647920726571756573746564000000604482015290519081900360640190fd5b60405163f7434ea960e01b815260206004820190815260008054600260001961010060018416150201909116046024840181905290926001600160a01b037f0000000000000000000000000000000000000000000000000000000000000000169263f7434ea99285928291604490910190849080156122f55780601f106122ca576101008083540402835291602001916122f5565b820191906000526020600020905b8154815290600101906020018083116122d857829003601f168201915b50509250505060206040518083038186803b15801561231357600080fd5b505afa158015612327573d6000803e3d6000fd5b505050506040513d602081101561233d57600080fd5b505190503481111561238e576040805162461bcd60e51b81526020600482015260156024820152744465706f7369742076616c756520746f6f206c6f7760581b604482015290519081900360640190fd5b8154600160ff199091161760ff16610100346001600160f81b0316021782556040805160248101869052336044820152606480820186905282518083039091018152608490910182526020808201805163666b746960e11b6001600160e01b039091168117909152835163e5789d0360e01b8152935190936001600160a01b037f0000000000000000000000000000000000000000000000000000000000000000169263dc8601b3927f0000000000000000000000000000000000000000000000000000000000000000928692869263e5789d03926004808201939291829003018186803b15801561247f57600080fd5b505afa158015612493573d6000803e3d6000fd5b505050506040513d60208110156124a957600080fd5b50516040516001600160e01b031960e086901b1681526001600160a01b038416600482019081526044820183905260606024830190815284516064840152845191929091608490910190602086019080838360005b838110156125165781810151838201526020016124fe565b50505050905090810190601f1680156125435780820380516001836020036101000a031916815260200191505b50945050505050602060405180830381600087803b15801561256457600080fd5b505af1158015612578573d6000803e3d6000fd5b505050506040513d602081101561258e57600080fd5b5050604080518681529051339188917f2067d1b3170fe803dd001b95b04f9d372eb9c3e5a48ed131a62962a7300bdb209181900360200190a3505050505050565b90565b600083815260056020908152604080832054600283528184206001600160a01b03909116808552925282206003810180548493929184918890811061261357fe5b600091825260208083209883526005909102909701808852604080832054600190920190985296902054959860ff90961697509495505050505050565b600360205260009081526040902080546001909101546001600160a01b031682565b336001600160a01b037f000000000000000000000000000000000000000000000000000000000000000016146126e2576040805162461bcd60e51b815260206004820152601060248201526f13db9b1e4810535088185b1b1bddd95960821b604482015290519081900360640190fd5b7f00000000000000000000000000000000000000000000000000000000000000007f00000000000000000000000000000000000000000000000000000000000000006001600160a01b0316639e307dff6040518163ffffffff1660e01b815260040160206040518083038186803b15801561275c57600080fd5b505afa158015612770573d6000803e3d6000fd5b505050506040513d602081101561278657600080fd5b5051146127d4576040805162461bcd60e51b815260206004820152601760248201527613db9b1e481a1bdb594818da185a5b88185b1b1bddd959604a1b604482015290519081900360640190fd5b7f00000000000000000000000000000000000000000000000000000000000000006001600160a01b03167f00000000000000000000000000000000000000000000000000000000000000006001600160a01b031663d67bdd256040518163ffffffff1660e01b815260040160206040518083038186803b15801561285757600080fd5b505afa15801561286b573d6000803e3d6000fd5b505050506040513d602081101561288157600080fd5b50516001600160a01b0316146128d8576040805162461bcd60e51b815260206004820152601760248201527613db9b1e481a1bdb59481c1c9bde1e48185b1b1bddd959604a1b604482015290519081900360640190fd5b60008281526002602090815260408083206001600160a01b0385168452909152902082906001815460ff16600481111561290e57fe5b1461295d576040805162461bcd60e51b815260206004820152601a602482015279496e76616c6964206172626974726174696f6e2073746174757360301b604482015290519081900360640190fd5b805460008381526002602081815260408084206001600160a01b03891685529091528220828155600181018390559081018290556101009092046001600160f81b031691906129af600383018261362c565b50506040516001600160a01b0385169082156108fc029083906000818181858888f150506040516001600160a01b03881693508892507fe7700735be0b02f71ef1d623678daf36cd936af4c349a22ad9d5a8b217df0dd99150600090a35050505050565b60009081526003602052604090205490565b600083815260056020908152604080832054600283528184206001600160a01b039091168085529252822060038101805460609485949392909188908110612a6957fe5b9060005260206000209060050201905080600401805480602002602001604051908101604052809291908181526020018280548015612ac757602002820191906000526020600020905b815481526020019060010190808311612ab3575b5050505060048301549196505067ffffffffffffffff81118015612aea57600080fd5b50604051908082528060200260200182016040528015612b14578160200160208202803683370190505b50935060005b8451811015612b84576001600160a01b038716600090815260028301602052604081208751909190889084908110612b4e57fe5b6020026020010151815260200190815260200160002054858281518110612b7157fe5b6020908102919091010152600101612b1a565b50505050935093915050565b61271081565b336001600160a01b037f00000000000000000000000000000000000000000000000000000000000000001614612c06576040805162461bcd60e51b815260206004820152601060248201526f13db9b1e4810535088185b1b1bddd95960821b604482015290519081900360640190fd5b7f00000000000000000000000000000000000000000000000000000000000000007f00000000000000000000000000000000000000000000000000000000000000006001600160a01b0316639e307dff6040518163ffffffff1660e01b815260040160206040518083038186803b158015612c8057600080fd5b505afa158015612c94573d6000803e3d6000fd5b505050506040513d6020811015612caa57600080fd5b505114612cf8576040805162461bcd60e51b815260206004820152601760248201527613db9b1e481a1bdb594818da185a5b88185b1b1bddd959604a1b604482015290519081900360640190fd5b7f00000000000000000000000000000000000000000000000000000000000000006001600160a01b03167f00000000000000000000000000000000000000000000000000000000000000006001600160a01b031663d67bdd256040518163ffffffff1660e01b815260040160206040518083038186803b158015612d7b57600080fd5b505afa158015612d8f573d6000803e3d6000fd5b505050506040513d6020811015612da557600080fd5b50516001600160a01b031614612dfc576040805162461bcd60e51b815260206004820152601760248201527613db9b1e481a1bdb59481c1c9bde1e48185b1b1bddd959604a1b604482015290519081900360640190fd5b60008281526002602090815260408083206001600160a01b0385168452909152902082906001815460ff166004811115612e3257fe5b14612e81576040805162461bcd60e51b815260206004820152601a602482015279496e76616c6964206172626974726174696f6e2073746174757360301b604482015290519081900360640190fd5b60405163f7434ea960e01b815260206004820190815260008054600260001961010060018416150201909116046024840181905290926001600160a01b037f0000000000000000000000000000000000000000000000000000000000000000169263f7434ea9928592829160449091019084908015612f415780601f10612f1657610100808354040283529160200191612f41565b820191906000526020600020905b815481529060010190602001808311612f2457829003601f168201915b50509250505060206040518083038186803b158015612f5f57600080fd5b505afa158015612f73573d6000803e3d6000fd5b505050506040513d6020811015612f8957600080fd5b5051825490915061010090046001600160f81b03168111613265576040805163c13517e160e01b81526000196004820181815260248301938452600080546002610100600183161502850190911604604485018190526001600160a01b037f0000000000000000000000000000000000000000000000000000000000000000169563c13517e19588959492606490910190849080156130695780601f1061303e57610100808354040283529160200191613069565b820191906000526020600020905b81548152906001019060200180831161304c57829003601f168201915b505093505050506020604051808303818588803b15801561308957600080fd5b505af1935050505080156130af57506040513d60208110156130aa57600080fd5b505160015b6130f957815460ff191660041782556040516001600160a01b0385169086907f9beda0c81abc1c65da7685f113195974dfddb781dfde6263e5a1b13a5356ffad90600090a3613260565b6000818152600360208181526040808420888155600180820180546001600160a01b03199081166001600160a01b038e169081179092558b885260048652848820805460ff1990811685179091556005909652938720805490941617909255875460ff938116600217939093168855878201869055928701805490910181559092529061010090046001600160f81b031683900380156131b9576040516001600160a01b0388169082156108fc029083906000818181858888f150505050505b82876001600160a01b0316897fcf9bcbc2efae51060af73ef64119281007f63eada739f19c41c181d8350fa81460405160405180910390a4827f00000000000000000000000000000000000000000000000000000000000000006001600160a01b03167f74baab670a4015ab2f1b467c5252a96141a2573f2908e58a92081e80d3cfde3d600089604051808381526020018281526020019250505060405180910390a35050505b6132a7565b815460ff191660041782556040516001600160a01b0385169086907f9beda0c81abc1c65da7685f113195974dfddb781dfde6263e5a1b13a5356ffad90600090a35b5050505050565b600083815260056020908152604080832054600283528184206001600160a01b03909116808552925282206003815460ff1660048111156132eb57fe5b10156132f85750506134b1565b6002810154600382015460005b818110156134ab57600084600301828154811061331e57fe5b600091825260208083208b84526001600590930201918201905260409091205490915060ff16613378576001600160a01b038916600090815260028201602090815260408083208b845290915290205496909601956134a2565b600084815260018201602052604090205460ff166134425760048101546001106133a3576000613439565b806000016000826004016001815481106133b957fe5b9060005260206000200154815260200190815260200160002054816000016000836004016000815481106133e957fe5b6000918252602080832090910154835282810193909352604091820181205460038601546001600160a01b038f1683526002870185528383208e845290945291902054920191028161343757fe5b045b870196506134a2565b878414156134a2576000888152602082905260409020548061346557600061349c565b60038201546001600160a01b038b16600090815260028401602090815260408083208d84529091529020548291028161349a57fe5b045b88019750505b50600101613305565b50505050505b9392505050565b6002602081815260009384526040808520909152918352912080546001820154919092015460ff83169261010090046001600160f81b0316919084565b7f000000000000000000000000000000000000000000000000000000000000000081565b600090815260056020908152604080832054600283528184206001600160a01b03909116845290915290206003015490565b600083815260056020908152604080832054600283528184206001600160a01b0390911680855292528220600381015491929091905b8181101561359e5761359587878388610f5d565b50600101613581565b50505050505050565b604051806040016040528060058152602001640322e302e360dc1b81525081565b6000826135d757506000611d2c565b828202828482816135e457fe5b04146135f2576000196135f4565b805b949350505050565b6000828201838110156135f2576000196135f4565b60008282111561362357506000611d2c565b50808203611d2c565b508054600082556005029060005260206000209081019061364d9190613650565b50565b808211156136775760006003820181905561366e600483018261367b565b50600501613650565b5090565b508054600082559060005260206000209081019061364d91905b80821115613677576000815560010161369556fea2646970667358221220b80c69a71a5738bef6d6792abf6ae655dba91eb450fb7ac0997318e7f2bf1f7164736f6c63430007060033",
  "devdoc": {
    "details": "This contract is meant to be deployed to the Ethereum chains where Kleros is deployed.",
    "kind": "dev",
    "methods": {
      "constructor": {
        "params": {
          "_amb": "ArbitraryMessageBridge contract address.",
          "_arbitrator": "Arbitrator contract address.",
          "_arbitratorExtraData": "The extra data used to raise a dispute in the arbitrator.",
          "_homeChainId": "The chain ID where the home proxy is deployed.",
          "_homeProxy": "The address of the proxy.",
          "_loserAppealPeriodMultiplier": "Multiplier for calculating the appeal period for the losing answer.",
          "_loserMultiplier": "Multiplier for calculation the appeal cost of the losing answer.",
          "_metaEvidence": "The URI of the meta evidence file.",
          "_termsOfService": "The path for the Terms of Service for Kleros as an arbitrator for Realitio.",
          "_winnerMultiplier": "Multiplier for calculating the appeal cost of the winning answer."
        }
      },
      "externalIDtoLocalID(uint256)": {
        "params": {
          "_externalDisputeID": "Dispute id as in arbitrator side."
        },
        "returns": {
          "_0": "localDisputeID Dispute id as in arbitrable contract."
        }
      },
      "fundAppeal(uint256,uint256)": {
        "params": {
          "_answer": "One of the possible rulings the arbitrator can give that the funder considers to be the correct answer to the question. Note that the answer has Kleros denomination, meaning that it has '+1' offset compared to Realitio format. Also note that '0' answer can be funded.",
          "_arbitrationID": "The ID of the arbitration, which is questionID cast into uint256."
        },
        "returns": {
          "_0": "Whether the answer was fully funded or not."
        }
      },
      "getContributionsToSuccessfulFundings(uint256,uint256,address)": {
        "params": {
          "_arbitrationID": "The ID of the arbitration.",
          "_contributor": "The address whose contributions to query.",
          "_round": "The round to query."
        },
        "returns": {
          "contributions": "The amount contributed to each funded answer by the contributor.",
          "fundedAnswers": "IDs of the answers that are fully funded."
        }
      },
      "getDisputeFee(bytes32)": {
        "returns": {
          "_0": "The fee to create a dispute."
        }
      },
      "getFundingStatus(uint256,uint256,uint256)": {
        "params": {
          "_answer": "The answer choice to get funding status for.",
          "_arbitrationID": "The ID of the arbitration.",
          "_round": "The round to query."
        },
        "returns": {
          "fullyFunded": "Whether the answer is fully funded or not.",
          "raised": "The amount paid for this answer."
        }
      },
      "getMultipliers()": {
        "returns": {
          "divisor": "Multiplier divisor.",
          "loser": "Losers stake multiplier.",
          "loserAppealPeriod": "Multiplier for calculating an appeal period duration for the losing side.",
          "winner": "Winners stake multiplier."
        }
      },
      "getNumberOfRounds(uint256)": {
        "params": {
          "_arbitrationID": "The ID of the arbitration related to the question."
        },
        "returns": {
          "_0": "The number of rounds."
        }
      },
      "getRoundInfo(uint256,uint256)": {
        "params": {
          "_arbitrationID": "The ID of the arbitration.",
          "_round": "The round to query."
        },
        "returns": {
          "feeRewards": "The amount of fees that will be used as rewards.",
          "fundedAnswers": "IDs of fully funded answers.",
          "paidFees": "The amount of fees paid for each fully funded answer."
        }
      },
      "getTotalWithdrawableAmount(uint256,address,uint256)": {
        "details": "This function is O(n) where n is the total number of rounds.This could exceed the gas limit, therefore this function should be used only as a utility and not be relied upon by other contracts.",
        "params": {
          "_arbitrationID": "The ID of the arbitration.",
          "_beneficiary": "The contributor for which to query.",
          "_contributedTo": "Answer that received contributions from contributor."
        },
        "returns": {
          "sum": "The total amount available to withdraw."
        }
      },
      "handleFailedDisputeCreation(bytes32,address)": {
        "params": {
          "_questionID": "The ID of the question.",
          "_requester": "The address of the arbitration requester."
        }
      },
      "numberOfRulingOptions(uint256)": {
        "returns": {
          "_0": "count The number of ruling options."
        }
      },
      "questionIDToArbitrationID(bytes32)": {
        "params": {
          "_questionID": "The ID of the question."
        },
        "returns": {
          "_0": "The ID of the arbitration."
        }
      },
      "receiveArbitrationAcknowledgement(bytes32,address)": {
        "params": {
          "_questionID": "The ID of the question.",
          "_requester": "The requester."
        }
      },
      "receiveArbitrationCancelation(bytes32,address)": {
        "params": {
          "_questionID": "The ID of the question.",
          "_requester": "The requester."
        }
      },
      "requestArbitration(bytes32,uint256)": {
        "params": {
          "_maxPrevious": "The maximum value of the current bond for the question. The arbitration request will get rejected if the current bond is greater than _maxPrevious. If set to 0, _maxPrevious is ignored.",
          "_questionID": "The ID of the question."
        }
      },
      "rule(uint256,uint256)": {
        "details": "Accounts for the situation where the winner loses a case due to paying less appeal fees than expected.",
        "params": {
          "_disputeID": "The ID of the dispute in the ERC792 arbitrator.",
          "_ruling": "The ruling given by the arbitrator."
        }
      },
      "submitEvidence(uint256,string)": {
        "params": {
          "_arbitrationID": "The ID of the arbitration related to the question.",
          "_evidenceURI": "Link to evidence."
        }
      },
      "withdrawFeesAndRewards(uint256,address,uint256,uint256)": {
        "params": {
          "_answer": "The answer to query the reward from.",
          "_arbitrationID": "The ID of the arbitration.",
          "_beneficiary": "The address to send reward to.",
          "_round": "The round from which to withdraw."
        },
        "returns": {
          "reward": "The withdrawn amount."
        }
      },
      "withdrawFeesAndRewardsForAllRounds(uint256,address,uint256)": {
        "details": "This function is O(n) where n is the total number of rounds. Arbitration cost of subsequent rounds is `A(n) = 2A(n-1) + 1`.      So because of this exponential growth of costs, you can assume n is less than 10 at all times.",
        "params": {
          "_arbitrationID": "The ID of the arbitration.",
          "_beneficiary": "The address that made contributions.",
          "_contributedTo": "Answer that received contributions from contributor."
        }
      }
    },
    "title": "Arbitration proxy for Realitio on Ethereum side (A.K.A. the Foreign Chain). This version of the contract has an appeal support.",
    "version": 1
  },
  "userdoc": {
    "events": {
      "ArbitrationCanceled(bytes32,address)": {
        "notice": "Should be emitted when the arbitration is canceled by the Home Chain."
      },
      "ArbitrationCreated(bytes32,address,uint256)": {
        "notice": "Should be emitted when the dispute is created."
      },
      "ArbitrationFailed(bytes32,address)": {
        "notice": "Should be emitted when the dispute could not be created."
      },
      "ArbitrationRequested(bytes32,address,uint256)": {
        "notice": "Should be emitted when the arbitration is requested."
      }
    },
    "kind": "user",
    "methods": {
      "constructor": {
        "notice": "Creates an arbitration proxy on the foreign chain."
      },
      "externalIDtoLocalID(uint256)": {
        "notice": "Maps external (arbitrator side) dispute id to local (arbitrable) dispute id."
      },
      "fundAppeal(uint256,uint256)": {
        "notice": "Takes up to the total amount required to fund an answer. Reimburses the rest. Creates an appeal if at least two answers are funded."
      },
      "getContributionsToSuccessfulFundings(uint256,uint256,address)": {
        "notice": "Gets contributions to the answers that are fully funded."
      },
      "getDisputeFee(bytes32)": {
        "notice": "Gets the fee to create a dispute."
      },
      "getFundingStatus(uint256,uint256,uint256)": {
        "notice": "Gets the information of a round of a question for a specific answer choice."
      },
      "getMultipliers()": {
        "notice": "Returns stake multipliers."
      },
      "getNumberOfRounds(uint256)": {
        "notice": "Gets the number of rounds of the specific question."
      },
      "getRoundInfo(uint256,uint256)": {
        "notice": "Gets the information of a round of a question."
      },
      "getTotalWithdrawableAmount(uint256,address,uint256)": {
        "notice": "Returns the sum of withdrawable amount."
      },
      "handleFailedDisputeCreation(bytes32,address)": {
        "notice": "Cancels the arbitration in case the dispute could not be created."
      },
      "numberOfRulingOptions(uint256)": {
        "notice": "Returns number of possible ruling options. Valid rulings are [0, return value]."
      },
      "questionIDToArbitrationID(bytes32)": {
        "notice": "Casts question ID into uint256 thus returning the related arbitration ID."
      },
      "receiveArbitrationAcknowledgement(bytes32,address)": {
        "notice": "Receives the acknowledgement of the arbitration request for the given question and requester. TRUSTED."
      },
      "receiveArbitrationCancelation(bytes32,address)": {
        "notice": "Receives the cancelation of the arbitration request for the given question and requester. TRUSTED."
      },
      "requestArbitration(bytes32,uint256)": {
        "notice": "Requests arbitration for the given question and contested answer."
      },
      "rule(uint256,uint256)": {
        "notice": "Rules a specified dispute. Can only be called by the arbitrator."
      },
      "submitEvidence(uint256,string)": {
        "notice": "Allows to submit evidence for a particular question."
      },
      "withdrawFeesAndRewards(uint256,address,uint256,uint256)": {
        "notice": "Sends the fee stake rewards and reimbursements proportional to the contributions made to the winner of a dispute. Reimburses contributions if there is no winner."
      },
      "withdrawFeesAndRewardsForAllRounds(uint256,address,uint256)": {
        "notice": "Allows to withdraw any rewards or reimbursable fees for all rounds at once."
      }
    },
    "version": 1
  },
  "storageLayout": {
    "storage": [
      {
        "astId": 1300,
        "contract": "src/RealitioForeignArbitrationProxyWithAppeals.sol:RealitioForeignArbitrationProxyWithAppeals",
        "label": "arbitratorExtraData",
        "offset": 0,
        "slot": "0",
        "type": "t_bytes_storage"
      },
      {
        "astId": 1308,
        "contract": "src/RealitioForeignArbitrationProxyWithAppeals.sol:RealitioForeignArbitrationProxyWithAppeals",
        "label": "termsOfService",
        "offset": 0,
        "slot": "1",
        "type": "t_string_storage"
      },
      {
        "astId": 1320,
        "contract": "src/RealitioForeignArbitrationProxyWithAppeals.sol:RealitioForeignArbitrationProxyWithAppeals",
        "label": "arbitrationRequests",
        "offset": 0,
        "slot": "2",
        "type": "t_mapping(t_uint256,t_mapping(t_address,t_struct(ArbitrationRequest)1271_storage))"
      },
      {
        "astId": 1324,
        "contract": "src/RealitioForeignArbitrationProxyWithAppeals.sol:RealitioForeignArbitrationProxyWithAppeals",
        "label": "disputeIDToDisputeDetails",
        "offset": 0,
        "slot": "3",
        "type": "t_mapping(t_uint256,t_struct(DisputeDetails)1276_storage)"
      },
      {
        "astId": 1328,
        "contract": "src/RealitioForeignArbitrationProxyWithAppeals.sol:RealitioForeignArbitrationProxyWithAppeals",
        "label": "arbitrationIDToDisputeExists",
        "offset": 0,
        "slot": "4",
        "type": "t_mapping(t_uint256,t_bool)"
      },
      {
        "astId": 1332,
        "contract": "src/RealitioForeignArbitrationProxyWithAppeals.sol:RealitioForeignArbitrationProxyWithAppeals",
        "label": "arbitrationIDToRequester",
        "offset": 0,
        "slot": "5",
        "type": "t_mapping(t_uint256,t_address)"
      }
    ],
    "types": {
      "t_address": {
        "encoding": "inplace",
        "label": "address",
        "numberOfBytes": "20"
      },
      "t_array(t_struct(Round)1296_storage)dyn_storage": {
        "base": "t_struct(Round)1296_storage",
        "encoding": "dynamic_array",
        "label": "struct RealitioForeignArbitrationProxyWithAppeals.Round[]",
        "numberOfBytes": "32"
      },
      "t_array(t_uint256)dyn_storage": {
        "base": "t_uint256",
        "encoding": "dynamic_array",
        "label": "uint256[]",
        "numberOfBytes": "32"
      },
      "t_bool": {
        "encoding": "inplace",
        "label": "bool",
        "numberOfBytes": "1"
      },
      "t_bytes_storage": {
        "encoding": "bytes",
        "label": "bytes",
        "numberOfBytes": "32"
      },
      "t_enum(Status)1259": {
        "encoding": "inplace",
        "label": "enum RealitioForeignArbitrationProxyWithAppeals.Status",
        "numberOfBytes": "1"
      },
      "t_mapping(t_address,t_mapping(t_uint256,t_uint256))": {
        "encoding": "mapping",
        "key": "t_address",
        "label": "mapping(address => mapping(uint256 => uint256))",
        "numberOfBytes": "32",
        "value": "t_mapping(t_uint256,t_uint256)"
      },
      "t_mapping(t_address,t_struct(ArbitrationRequest)1271_storage)": {
        "encoding": "mapping",
        "key": "t_address",
        "label": "mapping(address => struct RealitioForeignArbitrationProxyWithAppeals.ArbitrationRequest)",
        "numberOfBytes": "32",
        "value": "t_struct(ArbitrationRequest)1271_storage"
      },
      "t_mapping(t_uint256,t_address)": {
        "encoding": "mapping",
        "key": "t_uint256",
        "label": "mapping(uint256 => address)",
        "numberOfBytes": "32",
        "value": "t_address"
      },
      "t_mapping(t_uint256,t_bool)": {
        "encoding": "mapping",
        "key": "t_uint256",
        "label": "mapping(uint256 => bool)",
        "numberOfBytes": "32",
        "value": "t_bool"
      },
      "t_mapping(t_uint256,t_mapping(t_address,t_struct(ArbitrationRequest)1271_storage))": {
        "encoding": "mapping",
        "key": "t_uint256",
        "label": "mapping(uint256 => mapping(address => struct RealitioForeignArbitrationProxyWithAppeals.ArbitrationRequest))",
        "numberOfBytes": "32",
        "value": "t_mapping(t_address,t_struct(ArbitrationRequest)1271_storage)"
      },
      "t_mapping(t_uint256,t_struct(DisputeDetails)1276_storage)": {
        "encoding": "mapping",
        "key": "t_uint256",
        "label": "mapping(uint256 => struct RealitioForeignArbitrationProxyWithAppeals.DisputeDetails)",
        "numberOfBytes": "32",
        "value": "t_struct(DisputeDetails)1276_storage"
      },
      "t_mapping(t_uint256,t_uint256)": {
        "encoding": "mapping",
        "key": "t_uint256",
        "label": "mapping(uint256 => uint256)",
        "numberOfBytes": "32",
        "value": "t_uint256"
      },
      "t_string_storage": {
        "encoding": "bytes",
        "label": "string",
        "numberOfBytes": "32"
      },
      "t_struct(ArbitrationRequest)1271_storage": {
        "encoding": "inplace",
        "label": "struct RealitioForeignArbitrationProxyWithAppeals.ArbitrationRequest",
        "members": [
          {
            "astId": 1261,
            "contract": "src/RealitioForeignArbitrationProxyWithAppeals.sol:RealitioForeignArbitrationProxyWithAppeals",
            "label": "status",
            "offset": 0,
            "slot": "0",
            "type": "t_enum(Status)1259"
          },
          {
            "astId": 1263,
            "contract": "src/RealitioForeignArbitrationProxyWithAppeals.sol:RealitioForeignArbitrationProxyWithAppeals",
            "label": "deposit",
            "offset": 1,
            "slot": "0",
            "type": "t_uint248"
          },
          {
            "astId": 1265,
            "contract": "src/RealitioForeignArbitrationProxyWithAppeals.sol:RealitioForeignArbitrationProxyWithAppeals",
            "label": "disputeID",
            "offset": 0,
            "slot": "1",
            "type": "t_uint256"
          },
          {
            "astId": 1267,
            "contract": "src/RealitioForeignArbitrationProxyWithAppeals.sol:RealitioForeignArbitrationProxyWithAppeals",
            "label": "answer",
            "offset": 0,
            "slot": "2",
            "type": "t_uint256"
          },
          {
            "astId": 1270,
            "contract": "src/RealitioForeignArbitrationProxyWithAppeals.sol:RealitioForeignArbitrationProxyWithAppeals",
            "label": "rounds",
            "offset": 0,
            "slot": "3",
            "type": "t_array(t_struct(Round)1296_storage)dyn_storage"
          }
        ],
        "numberOfBytes": "128"
      },
      "t_struct(DisputeDetails)1276_storage": {
        "encoding": "inplace",
        "label": "struct RealitioForeignArbitrationProxyWithAppeals.DisputeDetails",
        "members": [
          {
            "astId": 1273,
            "contract": "src/RealitioForeignArbitrationProxyWithAppeals.sol:RealitioForeignArbitrationProxyWithAppeals",
            "label": "arbitrationID",
            "offset": 0,
            "slot": "0",
            "type": "t_uint256"
          },
          {
            "astId": 1275,
            "contract": "src/RealitioForeignArbitrationProxyWithAppeals.sol:RealitioForeignArbitrationProxyWithAppeals",
            "label": "requester",
            "offset": 0,
            "slot": "1",
            "type": "t_address"
          }
        ],
        "numberOfBytes": "64"
      },
      "t_struct(Round)1296_storage": {
        "encoding": "inplace",
        "label": "struct RealitioForeignArbitrationProxyWithAppeals.Round",
        "members": [
          {
            "astId": 1280,
            "contract": "src/RealitioForeignArbitrationProxyWithAppeals.sol:RealitioForeignArbitrationProxyWithAppeals",
            "label": "paidFees",
            "offset": 0,
            "slot": "0",
            "type": "t_mapping(t_uint256,t_uint256)"
          },
          {
            "astId": 1284,
            "contract": "src/RealitioForeignArbitrationProxyWithAppeals.sol:RealitioForeignArbitrationProxyWithAppeals",
            "label": "hasPaid",
            "offset": 0,
            "slot": "1",
            "type": "t_mapping(t_uint256,t_bool)"
          },
          {
            "astId": 1290,
            "contract": "src/RealitioForeignArbitrationProxyWithAppeals.sol:RealitioForeignArbitrationProxyWithAppeals",
            "label": "contributions",
            "offset": 0,
            "slot": "2",
            "type": "t_mapping(t_address,t_mapping(t_uint256,t_uint256))"
          },
          {
            "astId": 1292,
            "contract": "src/RealitioForeignArbitrationProxyWithAppeals.sol:RealitioForeignArbitrationProxyWithAppeals",
            "label": "feeRewards",
            "offset": 0,
            "slot": "3",
            "type": "t_uint256"
          },
          {
            "astId": 1295,
            "contract": "src/RealitioForeignArbitrationProxyWithAppeals.sol:RealitioForeignArbitrationProxyWithAppeals",
            "label": "fundedAnswers",
            "offset": 0,
            "slot": "4",
            "type": "t_array(t_uint256)dyn_storage"
          }
        ],
        "numberOfBytes": "160"
      },
      "t_uint248": {
        "encoding": "inplace",
        "label": "uint248",
        "numberOfBytes": "31"
      },
      "t_uint256": {
        "encoding": "inplace",
        "label": "uint256",
        "numberOfBytes": "32"
      }
    }
  }
}