{
  "address": "0x32bcDC9776692679CfBBf8350BAd67Da13FaaA3F",
  "abi": [
    {
      "inputs": [
        {
          "internalType": "contract IAMB",
          "name": "_amb",
          "type": "address"
        },
        {
          "internalType": "address",
          "name": "_homeProxy",
          "type": "address"
        },
        {
          "internalType": "bytes32",
          "name": "_homeChainId",
          "type": "bytes32"
        },
        {
          "internalType": "contract IArbitrator",
          "name": "_arbitrator",
          "type": "address"
        },
        {
          "internalType": "bytes",
          "name": "_arbitratorExtraData",
          "type": "bytes"
        },
        {
          "internalType": "string",
          "name": "_metaEvidence",
          "type": "string"
        },
        {
          "internalType": "string",
          "name": "_termsOfService",
          "type": "string"
        },
        {
          "internalType": "uint256",
          "name": "_winnerMultiplier",
          "type": "uint256"
        },
        {
          "internalType": "uint256",
          "name": "_loserMultiplier",
          "type": "uint256"
        },
        {
          "internalType": "uint256",
          "name": "_loserAppealPeriodMultiplier",
          "type": "uint256"
        }
      ],
      "stateMutability": "nonpayable",
      "type": "constructor"
    },
    {
      "anonymous": false,
      "inputs": [
        {
          "indexed": true,
          "internalType": "bytes32",
          "name": "_questionID",
          "type": "bytes32"
        },
        {
          "indexed": true,
          "internalType": "address",
          "name": "_requester",
          "type": "address"
        }
      ],
      "name": "ArbitrationCanceled",
      "type": "event"
    },
    {
      "anonymous": false,
      "inputs": [
        {
          "indexed": true,
          "internalType": "bytes32",
          "name": "_questionID",
          "type": "bytes32"
        },
        {
          "indexed": true,
          "internalType": "address",
          "name": "_requester",
          "type": "address"
        },
        {
          "indexed": true,
          "internalType": "uint256",
          "name": "_disputeID",
          "type": "uint256"
        }
      ],
      "name": "ArbitrationCreated",
      "type": "event"
    },
    {
      "anonymous": false,
      "inputs": [
        {
          "indexed": true,
          "internalType": "bytes32",
          "name": "_questionID",
          "type": "bytes32"
        },
        {
          "indexed": true,
          "internalType": "address",
          "name": "_requester",
          "type": "address"
        }
      ],
      "name": "ArbitrationFailed",
      "type": "event"
    },
    {
      "anonymous": false,
      "inputs": [
        {
          "indexed": true,
          "internalType": "bytes32",
          "name": "_questionID",
          "type": "bytes32"
        },
        {
          "indexed": true,
          "internalType": "address",
          "name": "_requester",
          "type": "address"
        },
        {
          "indexed": false,
          "internalType": "uint256",
          "name": "_maxPrevious",
          "type": "uint256"
        }
      ],
      "name": "ArbitrationRequested",
      "type": "event"
    },
    {
      "anonymous": false,
      "inputs": [
        {
          "indexed": true,
          "internalType": "uint256",
          "name": "_localDisputeID",
          "type": "uint256"
        },
        {
          "indexed": true,
          "internalType": "uint256",
          "name": "_round",
          "type": "uint256"
        },
        {
          "indexed": false,
          "internalType": "uint256",
          "name": "ruling",
          "type": "uint256"
        },
        {
          "indexed": true,
          "internalType": "address",
          "name": "_contributor",
          "type": "address"
        },
        {
          "indexed": false,
          "internalType": "uint256",
          "name": "_amount",
          "type": "uint256"
        }
      ],
      "name": "Contribution",
      "type": "event"
    },
    {
      "anonymous": false,
      "inputs": [
        {
          "indexed": true,
          "internalType": "contract IArbitrator",
          "name": "_arbitrator",
          "type": "address"
        },
        {
          "indexed": true,
          "internalType": "uint256",
          "name": "_disputeID",
          "type": "uint256"
        },
        {
          "indexed": false,
          "internalType": "uint256",
          "name": "_metaEvidenceID",
          "type": "uint256"
        },
        {
          "indexed": false,
          "internalType": "uint256",
          "name": "_evidenceGroupID",
          "type": "uint256"
        }
      ],
      "name": "Dispute",
      "type": "event"
    },
    {
      "anonymous": false,
      "inputs": [
        {
          "indexed": true,
          "internalType": "contract IArbitrator",
          "name": "_arbitrator",
          "type": "address"
        },
        {
          "indexed": true,
          "internalType": "uint256",
          "name": "_evidenceGroupID",
          "type": "uint256"
        },
        {
          "indexed": true,
          "internalType": "address",
          "name": "_party",
          "type": "address"
        },
        {
          "indexed": false,
          "internalType": "string",
          "name": "_evidence",
          "type": "string"
        }
      ],
      "name": "Evidence",
      "type": "event"
    },
    {
      "anonymous": false,
      "inputs": [
        {
          "indexed": true,
          "internalType": "uint256",
          "name": "_metaEvidenceID",
          "type": "uint256"
        },
        {
          "indexed": false,
          "internalType": "string",
          "name": "_evidence",
          "type": "string"
        }
      ],
      "name": "MetaEvidence",
      "type": "event"
    },
    {
      "anonymous": false,
      "inputs": [
        {
          "indexed": true,
          "internalType": "contract IArbitrator",
          "name": "_arbitrator",
          "type": "address"
        },
        {
          "indexed": true,
          "internalType": "uint256",
          "name": "_disputeID",
          "type": "uint256"
        },
        {
          "indexed": false,
          "internalType": "uint256",
          "name": "_ruling",
          "type": "uint256"
        }
      ],
      "name": "Ruling",
      "type": "event"
    },
    {
      "anonymous": false,
      "inputs": [
        {
          "indexed": true,
          "internalType": "uint256",
          "name": "_localDisputeID",
          "type": "uint256"
        },
        {
          "indexed": true,
          "internalType": "uint256",
          "name": "_round",
          "type": "uint256"
        },
        {
          "indexed": true,
          "internalType": "uint256",
          "name": "_ruling",
          "type": "uint256"
        }
      ],
      "name": "RulingFunded",
      "type": "event"
    },
    {
      "anonymous": false,
      "inputs": [
        {
          "indexed": true,
          "internalType": "uint256",
          "name": "_localDisputeID",
          "type": "uint256"
        },
        {
          "indexed": true,
          "internalType": "uint256",
          "name": "_round",
          "type": "uint256"
        },
        {
          "indexed": false,
          "internalType": "uint256",
          "name": "_ruling",
          "type": "uint256"
        },
        {
          "indexed": true,
          "internalType": "address",
          "name": "_contributor",
          "type": "address"
        },
        {
          "indexed": false,
          "internalType": "uint256",
          "name": "_reward",
          "type": "uint256"
        }
      ],
      "name": "Withdrawal",
      "type": "event"
    },
    {
      "inputs": [],
      "name": "META_EVIDENCE_ID",
      "outputs": [
        {
          "internalType": "uint256",
          "name": "",
          "type": "uint256"
        }
      ],
      "stateMutability": "view",
      "type": "function"
    },
    {
      "inputs": [],
      "name": "MULTIPLIER_DIVISOR",
      "outputs": [
        {
          "internalType": "uint256",
          "name": "",
          "type": "uint256"
        }
      ],
      "stateMutability": "view",
      "type": "function"
    },
    {
      "inputs": [],
      "name": "NUMBER_OF_CHOICES_FOR_ARBITRATOR",
      "outputs": [
        {
          "internalType": "uint256",
          "name": "",
          "type": "uint256"
        }
      ],
      "stateMutability": "view",
      "type": "function"
    },
    {
      "inputs": [],
      "name": "VERSION",
      "outputs": [
        {
          "internalType": "string",
          "name": "",
          "type": "string"
        }
      ],
      "stateMutability": "view",
      "type": "function"
    },
    {
      "inputs": [],
      "name": "amb",
      "outputs": [
        {
          "internalType": "contract IAMB",
          "name": "",
          "type": "address"
        }
      ],
      "stateMutability": "view",
      "type": "function"
    },
    {
      "inputs": [
        {
          "internalType": "uint256",
          "name": "",
          "type": "uint256"
        }
      ],
      "name": "arbitrationCreatedBlock",
      "outputs": [
        {
          "internalType": "uint256",
          "name": "",
          "type": "uint256"
        }
      ],
      "stateMutability": "view",
      "type": "function"
    },
    {
      "inputs": [
        {
          "internalType": "uint256",
          "name": "",
          "type": "uint256"
        }
      ],
      "name": "arbitrationIDToDisputeExists",
      "outputs": [
        {
          "internalType": "bool",
          "name": "",
          "type": "bool"
        }
      ],
      "stateMutability": "view",
      "type": "function"
    },
    {
      "inputs": [
        {
          "internalType": "uint256",
          "name": "",
          "type": "uint256"
        }
      ],
      "name": "arbitrationIDToRequester",
      "outputs": [
        {
          "internalType": "address",
          "name": "",
          "type": "address"
        }
      ],
      "stateMutability": "view",
      "type": "function"
    },
    {
      "inputs": [
        {
          "internalType": "uint256",
          "name": "",
          "type": "uint256"
        },
        {
          "internalType": "address",
          "name": "",
          "type": "address"
        }
      ],
      "name": "arbitrationRequests",
      "outputs": [
        {
          "internalType": "enum RealitioForeignArbitrationProxyWithAppeals.Status",
          "name": "status",
          "type": "uint8"
        },
        {
          "internalType": "uint248",
          "name": "deposit",
          "type": "uint248"
        },
        {
          "internalType": "uint256",
          "name": "disputeID",
          "type": "uint256"
        },
        {
          "internalType": "uint256",
          "name": "answer",
          "type": "uint256"
        }
      ],
      "stateMutability": "view",
      "type": "function"
    },
    {
      "inputs": [],
      "name": "arbitrator",
      "outputs": [
        {
          "internalType": "contract IArbitrator",
          "name": "",
          "type": "address"
        }
      ],
      "stateMutability": "view",
      "type": "function"
    },
    {
      "inputs": [],
      "name": "arbitratorExtraData",
      "outputs": [
        {
          "internalType": "bytes",
          "name": "",
          "type": "bytes"
        }
      ],
      "stateMutability": "view",
      "type": "function"
    },
    {
      "inputs": [
        {
          "internalType": "uint256",
          "name": "",
          "type": "uint256"
        }
      ],
      "name": "disputeIDToDisputeDetails",
      "outputs": [
        {
          "internalType": "uint256",
          "name": "arbitrationID",
          "type": "uint256"
        },
        {
          "internalType": "address",
          "name": "requester",
          "type": "address"
        }
      ],
      "stateMutability": "view",
      "type": "function"
    },
    {
      "inputs": [
        {
          "internalType": "uint256",
          "name": "_externalDisputeID",
          "type": "uint256"
        }
      ],
      "name": "externalIDtoLocalID",
      "outputs": [
        {
          "internalType": "uint256",
          "name": "",
          "type": "uint256"
        }
      ],
      "stateMutability": "view",
      "type": "function"
    },
    {
      "inputs": [
        {
          "internalType": "uint256",
          "name": "_arbitrationID",
          "type": "uint256"
        },
        {
          "internalType": "uint256",
          "name": "_answer",
          "type": "uint256"
        }
      ],
      "name": "fundAppeal",
      "outputs": [
        {
          "internalType": "bool",
          "name": "",
          "type": "bool"
        }
      ],
      "stateMutability": "payable",
      "type": "function"
    },
    {
      "inputs": [
        {
          "internalType": "uint256",
          "name": "_arbitrationID",
          "type": "uint256"
        },
        {
          "internalType": "uint256",
          "name": "_round",
          "type": "uint256"
        },
        {
          "internalType": "address",
          "name": "_contributor",
          "type": "address"
        }
      ],
      "name": "getContributionsToSuccessfulFundings",
      "outputs": [
        {
          "internalType": "uint256[]",
          "name": "fundedAnswers",
          "type": "uint256[]"
        },
        {
          "internalType": "uint256[]",
          "name": "contributions",
          "type": "uint256[]"
        }
      ],
      "stateMutability": "view",
      "type": "function"
    },
    {
      "inputs": [
        {
          "internalType": "bytes32",
          "name": "",
          "type": "bytes32"
        }
      ],
      "name": "getDisputeFee",
      "outputs": [
        {
          "internalType": "uint256",
          "name": "",
          "type": "uint256"
        }
      ],
      "stateMutability": "view",
      "type": "function"
    },
    {
      "inputs": [
        {
          "internalType": "uint256",
          "name": "_arbitrationID",
          "type": "uint256"
        },
        {
          "internalType": "uint256",
          "name": "_round",
          "type": "uint256"
        },
        {
          "internalType": "uint256",
          "name": "_answer",
          "type": "uint256"
        }
      ],
      "name": "getFundingStatus",
      "outputs": [
        {
          "internalType": "uint256",
          "name": "raised",
          "type": "uint256"
        },
        {
          "internalType": "bool",
          "name": "fullyFunded",
          "type": "bool"
        }
      ],
      "stateMutability": "view",
      "type": "function"
    },
    {
      "inputs": [],
      "name": "getMultipliers",
      "outputs": [
        {
          "internalType": "uint256",
          "name": "winner",
          "type": "uint256"
        },
        {
          "internalType": "uint256",
          "name": "loser",
          "type": "uint256"
        },
        {
          "internalType": "uint256",
          "name": "loserAppealPeriod",
          "type": "uint256"
        },
        {
          "internalType": "uint256",
          "name": "divisor",
          "type": "uint256"
        }
      ],
      "stateMutability": "view",
      "type": "function"
    },
    {
      "inputs": [
        {
          "internalType": "uint256",
          "name": "_arbitrationID",
          "type": "uint256"
        }
      ],
      "name": "getNumberOfRounds",
      "outputs": [
        {
          "internalType": "uint256",
          "name": "",
          "type": "uint256"
        }
      ],
      "stateMutability": "view",
      "type": "function"
    },
    {
      "inputs": [
        {
          "internalType": "uint256",
          "name": "_arbitrationID",
          "type": "uint256"
        },
        {
          "internalType": "uint256",
          "name": "_round",
          "type": "uint256"
        }
      ],
      "name": "getRoundInfo",
      "outputs": [
        {
          "internalType": "uint256[]",
          "name": "paidFees",
          "type": "uint256[]"
        },
        {
          "internalType": "uint256",
          "name": "feeRewards",
          "type": "uint256"
        },
        {
          "internalType": "uint256[]",
          "name": "fundedAnswers",
          "type": "uint256[]"
        }
      ],
      "stateMutability": "view",
      "type": "function"
    },
    {
      "inputs": [
        {
          "internalType": "uint256",
          "name": "_arbitrationID",
          "type": "uint256"
        },
        {
          "internalType": "address payable",
          "name": "_beneficiary",
          "type": "address"
        },
        {
          "internalType": "uint256",
          "name": "_contributedTo",
          "type": "uint256"
        }
      ],
      "name": "getTotalWithdrawableAmount",
      "outputs": [
        {
          "internalType": "uint256",
          "name": "sum",
          "type": "uint256"
        }
      ],
      "stateMutability": "view",
      "type": "function"
    },
    {
      "inputs": [
        {
          "internalType": "bytes32",
          "name": "_questionID",
          "type": "bytes32"
        },
        {
          "internalType": "address",
          "name": "_requester",
          "type": "address"
        }
      ],
      "name": "handleFailedDisputeCreation",
      "outputs": [],
      "stateMutability": "nonpayable",
      "type": "function"
    },
    {
      "inputs": [],
      "name": "homeChainId",
      "outputs": [
        {
          "internalType": "bytes32",
          "name": "",
          "type": "bytes32"
        }
      ],
      "stateMutability": "view",
      "type": "function"
    },
    {
      "inputs": [],
      "name": "homeProxy",
      "outputs": [
        {
          "internalType": "address",
          "name": "",
          "type": "address"
        }
      ],
      "stateMutability": "view",
      "type": "function"
    },
    {
      "inputs": [],
      "name": "loserAppealPeriodMultiplier",
      "outputs": [
        {
          "internalType": "uint256",
          "name": "",
          "type": "uint256"
        }
      ],
      "stateMutability": "view",
      "type": "function"
    },
    {
      "inputs": [],
      "name": "loserMultiplier",
      "outputs": [
        {
          "internalType": "uint256",
          "name": "",
          "type": "uint256"
        }
      ],
      "stateMutability": "view",
      "type": "function"
    },
    {
      "inputs": [
        {
          "internalType": "uint256",
          "name": "",
          "type": "uint256"
        }
      ],
      "name": "numberOfRulingOptions",
      "outputs": [
        {
          "internalType": "uint256",
          "name": "",
          "type": "uint256"
        }
      ],
      "stateMutability": "pure",
      "type": "function"
    },
    {
      "inputs": [
        {
          "internalType": "bytes32",
          "name": "_questionID",
          "type": "bytes32"
        }
      ],
      "name": "questionIDToArbitrationID",
      "outputs": [
        {
          "internalType": "uint256",
          "name": "",
          "type": "uint256"
        }
      ],
      "stateMutability": "pure",
      "type": "function"
    },
    {
      "inputs": [
        {
          "internalType": "bytes32",
          "name": "_questionID",
          "type": "bytes32"
        },
        {
          "internalType": "address",
          "name": "_requester",
          "type": "address"
        }
      ],
      "name": "receiveArbitrationAcknowledgement",
      "outputs": [],
      "stateMutability": "nonpayable",
      "type": "function"
    },
    {
      "inputs": [
        {
          "internalType": "bytes32",
          "name": "_questionID",
          "type": "bytes32"
        },
        {
          "internalType": "address",
          "name": "_requester",
          "type": "address"
        }
      ],
      "name": "receiveArbitrationCancelation",
      "outputs": [],
      "stateMutability": "nonpayable",
      "type": "function"
    },
    {
      "inputs": [
        {
          "internalType": "bytes32",
          "name": "_questionID",
          "type": "bytes32"
        },
        {
          "internalType": "uint256",
          "name": "_maxPrevious",
          "type": "uint256"
        }
      ],
      "name": "requestArbitration",
      "outputs": [],
      "stateMutability": "payable",
      "type": "function"
    },
    {
      "inputs": [
        {
          "internalType": "uint256",
          "name": "_disputeID",
          "type": "uint256"
        },
        {
          "internalType": "uint256",
          "name": "_ruling",
          "type": "uint256"
        }
      ],
      "name": "rule",
      "outputs": [],
      "stateMutability": "nonpayable",
      "type": "function"
    },
    {
      "inputs": [
        {
          "internalType": "uint256",
          "name": "_arbitrationID",
          "type": "uint256"
        },
        {
          "internalType": "string",
          "name": "_evidenceURI",
          "type": "string"
        }
      ],
      "name": "submitEvidence",
      "outputs": [],
      "stateMutability": "nonpayable",
      "type": "function"
    },
    {
      "inputs": [],
      "name": "termsOfService",
      "outputs": [
        {
          "internalType": "string",
          "name": "",
          "type": "string"
        }
      ],
      "stateMutability": "view",
      "type": "function"
    },
    {
      "inputs": [],
      "name": "winnerMultiplier",
      "outputs": [
        {
          "internalType": "uint256",
          "name": "",
          "type": "uint256"
        }
      ],
      "stateMutability": "view",
      "type": "function"
    },
    {
      "inputs": [
        {
          "internalType": "uint256",
          "name": "_arbitrationID",
          "type": "uint256"
        },
        {
          "internalType": "address payable",
          "name": "_beneficiary",
          "type": "address"
        },
        {
          "internalType": "uint256",
          "name": "_round",
          "type": "uint256"
        },
        {
          "internalType": "uint256",
          "name": "_answer",
          "type": "uint256"
        }
      ],
      "name": "withdrawFeesAndRewards",
      "outputs": [
        {
          "internalType": "uint256",
          "name": "reward",
          "type": "uint256"
        }
      ],
      "stateMutability": "nonpayable",
      "type": "function"
    },
    {
      "inputs": [
        {
          "internalType": "uint256",
          "name": "_arbitrationID",
          "type": "uint256"
        },
        {
          "internalType": "address payable",
          "name": "_beneficiary",
          "type": "address"
        },
        {
          "internalType": "uint256",
          "name": "_contributedTo",
          "type": "uint256"
        }
      ],
      "name": "withdrawFeesAndRewardsForAllRounds",
      "outputs": [],
      "stateMutability": "nonpayable",
      "type": "function"
    }
  ],
  "transactionHash": "0x74149ac706021c0a7efa1fb951324bd1ee78a7cbd8f5af75f5fe00114de5ac45",
  "args": [
    "0x4C36d2919e407f0Cc2Ee3c993ccF8ac26d9CE64e",
    "0x88Fb25D399310c07d35cB9091b8346d8b1893aa5",
    "0x0000000000000000000000000000000000000000000000000000000000000064",
    "0x988b3a538b618c7a603e1c11ab82cd16dbe28069",
    "0x0000000000000000000000000000000000000000000000000000000000000000000000000000000000000000000000000000000000000000000000000000001f",
    "/ipfs/QmTYEpuN4iqbYPXc6ba2QCcYGDwRVNvSFfyWGpDkx7kC3B",
    "/ipfs/QmNV5NWwCudYKfiHuhdWxccrPyxs4DnbLGQace2oMKHkZv/Question_Resolution_Policy.pdf",
    3000,
    7000,
    5000
  ],
  "numDeployments": 5,
  "solcInputHash": "93073abbd994a43dc54757b2e290b9e4",
  "bytecode": "0x6101606040523480156200001257600080fd5b5060405162003c7938038062003c7983398181016040526101408110156200003957600080fd5b81516020830151604080850151606086015160808701805193519597949692959194919392820192846401000000008211156200007557600080fd5b9083019060208201858111156200008b57600080fd5b8251640100000000811182820188101715620000a657600080fd5b82525081516020918201929091019080838360005b83811015620000d5578181015183820152602001620000bb565b50505050905090810190601f168015620001035780820380516001836020036101000a031916815260200191505b50604052602001805160405193929190846401000000008211156200012757600080fd5b9083019060208201858111156200013d57600080fd5b82516401000000008111828201881017156200015857600080fd5b82525081516020918201929091019080838360005b83811015620001875781810151838201526020016200016d565b50505050905090810190601f168015620001b55780820380516001836020036101000a031916815260200191505b5060405260200180516040519392919084640100000000821115620001d957600080fd5b908301906020820185811115620001ef57600080fd5b82516401000000008111828201881017156200020a57600080fd5b82525081516020918201929091019080838360005b83811015620002395781810151838201526020016200021f565b50505050905090810190601f168015620002675780820380516001836020036101000a031916815260200191505b506040908152602082810151918301516060938401516001600160601b03198e861b811660a0528d861b811660c05260e08d9052948b901b90941660805288519295509350620002bd9160009189019062000392565b508351620002d390600190602087019062000392565b5061010083905261012082905261014081905260408051602080825287518183015287516000937f61606860eb6c87306811e2695215385101daab53bd6ab4e9f9049aead9363c7d938a93909283928301918501908083838a5b83811015620003475781810151838201526020016200032d565b50505050905090810190601f168015620003755780820380516001836020036101000a031916815260200191505b509250505060405180910390a2505050505050505050506200043e565b828054600181600116156101000203166002900490600052602060002090601f016020900481019282620003ca576000855562000415565b82601f10620003e557805160ff191683800117855562000415565b8280016001018555821562000415579182015b8281111562000415578251825591602001919060010190620003f8565b506200042392915062000427565b5090565b5b8082111562000423576000815560010162000428565b60805160601c60a05160601c60c05160601c60e0516101005161012051610140516137346200054560003980610a9652806117e75280611e0452508061186a5280611de35280611f9a5250806117b65280611dc25280611fbe52508061272b5280612c4f528061354c525080610dcf528061125152806113fe528061246e528061281d5280612d41525080610b4e5280610d9e52806113d2528061244552806126c4528061274c52806128475280612be85280612c705280612d6b525080610c065280610f3b5280611625528061171c52806119645280611bff5280611d83528061202052806120fd52806122aa5280612f085280613030528061324952506137346000f3fe60806040526004361061021a5760003560e01c80639b3ac99811610123578063c21ae061116100ab578063edabc4741161006f578063edabc4741461098b578063ef12696714610a01578063fc6f8f1614610a16578063fe2dddeb14610a40578063ffa1ad7414610a7f5761021a565b8063c21ae061146107fc578063c599c66f14610826578063d661dd31146108fe578063e742e2ed14610913578063ec85635b1461094c5761021a565b8063aba980eb116100f2578063aba980eb146106d5578063bb163782146106ff578063bb2fe65f14610729578063bde80ca714610778578063be26fc88146107c35761021a565b80639b3ac998146105ef578063a22352e214610604578063a6a7f0eb1461062e578063a829c3d1146106b25761021a565b80634b2f0ea0116101a6578063756804c011610175578063756804c01461047b57806379873f8a146104a55780638a9bb02a146104e05780638d8b2d7e146105b0578063965394ab146105da5761021a565b80634b2f0ea0146103f057806354dba90f1461042757806368cb30f51461043c5780636cc6cde1146104665761021a565b80631e117f49116101ed5780631e117f4914610316578063311a6c561461032b578063362c34791461035d57806348f37857146103a25780634aa6a1e4146103b75761021a565b80630c139eb41461021f5780630c7ac7b6146102465780630fa8c7ce146102d05780631062b39a146102e5575b600080fd5b34801561022b57600080fd5b50610234610a94565b60408051918252519081900360200190f35b34801561025257600080fd5b5061025b610ab8565b6040805160208082528351818301528351919283929083019185019080838360005b8381101561029557818101518382015260200161027d565b50505050905090810190601f1680156102c25780820380516001836020036101000a031916815260200191505b509250505060405180910390f35b3480156102dc57600080fd5b50610234610b46565b3480156102f157600080fd5b506102fa610b4c565b604080516001600160a01b039092168252519081900360200190f35b34801561032257600080fd5b5061025b610b70565b34801561033757600080fd5b5061035b6004803603604081101561034e57600080fd5b5080359060200135610bca565b005b34801561036957600080fd5b506102346004803603608081101561038057600080fd5b508035906001600160a01b036020820135169060408101359060600135610f92565b3480156103ae57600080fd5b506102fa61124f565b3480156103c357600080fd5b5061035b600480360360408110156103da57600080fd5b50803590602001356001600160a01b0316611273565b6104136004803603604081101561040657600080fd5b5080359060200135611593565b604080519115158252519081900360200190f35b34801561043357600080fd5b50610234611d67565b34801561044857600080fd5b506104136004803603602081101561045f57600080fd5b5035611d6c565b34801561047257600080fd5b506102fa611d81565b34801561048757600080fd5b506102fa6004803603602081101561049e57600080fd5b5035611da5565b3480156104b157600080fd5b506104ba611dc0565b604080519485526020850193909352838301919091526060830152519081900360800190f35b3480156104ec57600080fd5b506105106004803603604081101561050357600080fd5b5080359060200135611e2c565b604051808060200184815260200180602001838103835286818151815260200191508051906020019060200280838360005b8381101561055a578181015183820152602001610542565b50505050905001838103825284818151815260200191508051906020019060200280838360005b83811015610599578181015183820152602001610581565b505050509050019550505050505060405180910390f35b3480156105bc57600080fd5b50610234600480360360208110156105d357600080fd5b5035611f91565b3480156105e657600080fd5b50610234611f98565b3480156105fb57600080fd5b50610234611fbc565b34801561061057600080fd5b506102346004803603602081101561062757600080fd5b5035611fe0565b34801561063a57600080fd5b5061035b6004803603604081101561065157600080fd5b8135919081019060408101602082013564010000000081111561067357600080fd5b82018360208201111561068557600080fd5b803590602001918460018302840111640100000000831117156106a757600080fd5b5090925090506120f0565b61035b600480360360408110156106c857600080fd5b508035906020013561218a565b3480156106e157600080fd5b50610234600480360360208110156106f857600080fd5b5035612604565b34801561070b57600080fd5b506102346004803603602081101561072257600080fd5b5035612616565b34801561073557600080fd5b5061075f6004803603606081101561074c57600080fd5b5080359060208101359060400135612619565b6040805192835290151560208301528051918290030190f35b34801561078457600080fd5b506107a26004803603602081101561079b57600080fd5b5035612697565b604080519283526001600160a01b0390911660208301528051918290030190f35b3480156107cf57600080fd5b5061035b600480360360408110156107e657600080fd5b50803590602001356001600160a01b03166126b9565b34801561080857600080fd5b506102346004803603602081101561081f57600080fd5b5035612a5a565b34801561083257600080fd5b506108656004803603606081101561084957600080fd5b50803590602081013590604001356001600160a01b0316612a6c565b604051808060200180602001838103835285818151815260200191508051906020019060200280838360005b838110156108a9578181015183820152602001610891565b50505050905001838103825284818151815260200191508051906020019060200280838360005b838110156108e85781810151838201526020016108d0565b5050505090500194505050505060405180910390f35b34801561090a57600080fd5b50610234612bd7565b34801561091f57600080fd5b5061035b6004803603604081101561093657600080fd5b50803590602001356001600160a01b0316612bdd565b34801561095857600080fd5b506102346004803603606081101561096f57600080fd5b508035906001600160a01b036020820135169060400135613303565b34801561099757600080fd5b506109c4600480360360408110156109ae57600080fd5b50803590602001356001600160a01b031661350d565b604051808560048111156109d457fe5b81526001600160f81b03909416602085015250604080840192909252606083015251908190036080019150f35b348015610a0d57600080fd5b5061023461354a565b348015610a2257600080fd5b5061023460048036036020811015610a3957600080fd5b503561356e565b348015610a4c57600080fd5b5061035b60048036036060811015610a6357600080fd5b508035906001600160a01b0360208201351690604001356135a0565b348015610a8b57600080fd5b5061025b6135fc565b7f000000000000000000000000000000000000000000000000000000000000000081565b6000805460408051602060026001851615610100026000190190941693909304601f81018490048402820184019092528181529291830182828015610b3e5780601f10610b1357610100808354040283529160200191610b3e565b820191906000526020600020905b815481529060010190602001808311610b2157829003601f168201915b505050505081565b60001981565b7f000000000000000000000000000000000000000000000000000000000000000081565b60018054604080516020600284861615610100026000190190941693909304601f81018490048402820184019092528181529291830182828015610b3e5780601f10610b1357610100808354040283529160200191610b3e565b600082815260036020908152604080832080546001820154818652600285528386206001600160a01b03918216808852955292909420909392917f0000000000000000000000000000000000000000000000000000000000000000163314610c79576040805162461bcd60e51b815260206004820152601760248201527f4f6e6c792061726269747261746f7220616c6c6f776564000000000000000000604482015290519081900360640190fd5b6002815460ff166004811115610c8b57fe5b14610cda576040805162461bcd60e51b815260206004820152601a602482015279496e76616c6964206172626974726174696f6e2073746174757360301b604482015290519081900360640190fd5b60038101805486916000916000198101908110610cf357fe5b90600052602060002090600502019050806004018054905060011415610d315780600401600081548110610d2357fe5b906000526020600020015491505b60028301829055825460ff19166003178355604080516024810187905260001984016044808301919091528251808303909101815260649091018252602080820180516306bad43760e51b6001600160e01b039091168117909152835163e5789d0360e01b8152935190937f00000000000000000000000000000000000000000000000000000000000000006001600160a01b03169263dc8601b3927f0000000000000000000000000000000000000000000000000000000000000000928692869263e5789d03926004808201939291829003018186803b158015610e1557600080fd5b505afa158015610e29573d6000803e3d6000fd5b505050506040513d6020811015610e3f57600080fd5b50516040516001600160e01b031960e086901b1681526001600160a01b038416600482019081526044820183905260606024830190815284516064840152845191929091608490910190602086019080838360005b83811015610eac578181015183820152602001610e94565b50505050905090810190601f168015610ed95780820380516001836020036101000a031916815260200191505b50945050505050602060405180830381600087803b158015610efa57600080fd5b505af1158015610f0e573d6000803e3d6000fd5b505050506040513d6020811015610f2457600080fd5b50506040805185815290518b916001600160a01b037f000000000000000000000000000000000000000000000000000000000000000016917f394027a5fa6e098a1191094d1719d6929b9abc535fcc0c8f448d6a4e756222769181900360200190a350505050505050505050565b600084815260056020908152604080832054600283528184206001600160a01b039091168085529252822060038101805484919087908110610fd057fe5b6000918252602090912060059091020190506003825460ff166004811115610ff457fe5b1461103d576040805162461bcd60e51b8152602060048201526014602482015273111a5cdc1d5d19481b9bdd081c995cdbdb1d995960621b604482015290519081900360640190fd5b600085815260018201602052604090205460ff16611082576001600160a01b0387166000908152600282016020908152604080832088845290915290205493506111b1565b6002820154600090815260018201602052604090205460ff1661114f5760048101546001106110b2576000611148565b806000016000826004016001815481106110c857fe5b9060005260206000200154815260200190815260200160002054816000016000836004016000815481106110f857fe5b6000918252602080832090910154835282810193909352604091820181205460038601546001600160a01b038d1683526002870185528383208b845290945291902054920191028161114657fe5b045b93506111b1565b84826002015414156111b157600085815260208290526040902054806111765760006111ad565b60038201546001600160a01b038916600090815260028401602090815260408083208a8452909152902054829102816111ab57fe5b045b9450505b8315611244576001600160a01b038716600081815260028301602090815260408083208984529091528082208290555186156108fc0291879190818181858888f1935050505050866001600160a01b031686897f54b3cab3cb5c4aca3209db1151caff092e878011202e43a36782d4ebe0b963ae8888604051808381526020018281526020019250505060405180910390a45b505050949350505050565b7f000000000000000000000000000000000000000000000000000000000000000081565b60008281526002602090815260408083206001600160a01b0385168452909152902082906004815460ff1660048111156112a957fe5b146112f8576040805162461bcd60e51b815260206004820152601a602482015279496e76616c6964206172626974726174696f6e2073746174757360301b604482015290519081900360640190fd5b805460008381526002602081815260408084206001600160a01b03891685529091528220828155600181018390559081018290556101009092046001600160f81b0316919061134a6003830182613681565b50506040516001600160a01b0385169082156108fc029083906000818181858888f1505060408051602481018a90526001600160a01b03808a166044808401919091528351808403909101815260649092018352602082810180516001600160e01b03166305fb2b4f60e51b908117909152845163e5789d0360e01b815294519097509295507f0000000000000000000000000000000000000000000000000000000000000000909116935063dc8601b3927f0000000000000000000000000000000000000000000000000000000000000000928692869263e5789d039260048083019392829003018186803b15801561144357600080fd5b505afa158015611457573d6000803e3d6000fd5b505050506040513d602081101561146d57600080fd5b50516040516001600160e01b031960e086901b1681526001600160a01b038416600482019081526044820183905260606024830190815284516064840152845191929091608490910190602086019080838360005b838110156114da5781810151838201526020016114c2565b50505050905090810190601f1680156115075780820380516001836020036101000a031916815260200191505b50945050505050602060405180830381600087803b15801561152857600080fd5b505af115801561153c573d6000803e3d6000fd5b505050506040513d602081101561155257600080fd5b50506040516001600160a01b0387169088907fe7700735be0b02f71ef1d623678daf36cd936af4c349a22ad9d5a8b217df0dd990600090a350505050505050565b600082815260026020818152604080842060058352818520546001600160a01b03168552909152822090815460ff1660048111156115cd57fe5b14611617576040805162461bcd60e51b81526020600482015260156024820152742737903234b9b83aba32903a379030b83832b0b61760591b604482015290519081900360640190fd5b6000816001015490506000807f00000000000000000000000000000000000000000000000000000000000000006001600160a01b031663afe15cfb846040518263ffffffff1660e01b815260040180828152602001915050604080518083038186803b15801561168657600080fd5b505afa15801561169a573d6000803e3d6000fd5b505050506040513d60408110156116b057600080fd5b50805160209091015190925090504282118015906116cd57508042105b611717576040805162461bcd60e51b815260206004820152601660248201527520b83832b0b6103832b934b7b21034b99037bb32b91760511b604482015290519081900360640190fd5b6000807f00000000000000000000000000000000000000000000000000000000000000006001600160a01b0316631c3db16d866040518263ffffffff1660e01b81526004018082815260200191505060206040518083038186803b15801561177e57600080fd5b505afa158015611792573d6000803e3d6000fd5b505050506040513d60208110156117a857600080fd5b50519050878114156117dc577f0000000000000000000000000000000000000000000000000000000000000000915061188c565b61271061180b8585037f000000000000000000000000000000000000000000000000000000000000000061361d565b8161181257fe5b0484420310611868576040805162461bcd60e51b815260206004820152601f60248201527f41707065616c20706572696f64206973206f76657220666f72206c6f73657200604482015290519081900360640190fd5b7f000000000000000000000000000000000000000000000000000000000000000091505b50600385018054600019810191600091839081106118a657fe5b600091825260208083208c84526001600590930201918201905260409091205490915060ff161561191e576040805162461bcd60e51b815260206004820152601b60248201527f41707065616c2066656520697320616c726561647920706169642e0000000000604482015290519081900360640190fd5b6040805163791f8b7360e11b8152600481018881526024820192835260008054600260001961010060018416150201909116046044840181905290936001600160a01b037f0000000000000000000000000000000000000000000000000000000000000000169363f23f16e6938c938793919260640190849080156119e45780601f106119b9576101008083540402835291602001916119e4565b820191906000526020600020905b8154815290600101906020018083116119c757829003601f168201915b5050935050505060206040518083038186803b158015611a0357600080fd5b505afa158015611a17573d6000803e3d6000fd5b505050506040513d6020811015611a2d57600080fd5b505190506000611a53612710611a43848861361d565b81611a4a57fe5b84919004613651565b60008c815260208590526040812054919250903490611a73908490613666565b11611a975760008c815260208590526040902054611a92908390613666565b611a99565b345b9050336001600160a01b0316858e7fcae597f39a3ad75c2e10d46b031f023c5c2babcd58ca0491b122acda3968d4c08f85604051808381526020018281526020019250505060405180910390a433600090815260028501602090815260408083208f8452825280832080548501905590869052902080548201908190558211611bcc578360000160008d8152602001908152602001600020548460030160008282540192505081905550836004018c908060018154018082558091505060019003906000526020600020016000909190919091505560018460010160008e815260200190815260200160002060006101000a81548160ff0219169083151502179055508b858e7f39493c1b78d9a13bcc9e1d532fc7faed3889248d93affa811416ce3c6bcb1a6860405160405180910390a45b600484015460011015611d08576003808b0180546001018155600052840154611bf59084613666565b84600301819055507f00000000000000000000000000000000000000000000000000000000000000006001600160a01b03166349912f88848b60006040518463ffffffff1660e01b81526004018083815260200180602001828103825283818154600181600116156101000203166002900481526020019150805460018160011615610100020316600290048015611cce5780601f10611ca357610100808354040283529160200191611cce565b820191906000526020600020905b815481529060010190602001808311611cb157829003601f168201915b505093505050506000604051808303818588803b158015611cee57600080fd5b505af1158015611d02573d6000803e3d6000fd5b50505050505b6000611d143483613666565b1115611d4057336108fc611d283484613666565b6040518115909202916000818181858888f150505050505b50505060008981526001909101602052604090205460ff1696505050505050505b92915050565b600081565b60046020526000908152604090205460ff1681565b7f000000000000000000000000000000000000000000000000000000000000000081565b6005602052600090815260409020546001600160a01b031681565b7f00000000000000000000000000000000000000000000000000000000000000007f00000000000000000000000000000000000000000000000000000000000000007f000000000000000000000000000000000000000000000000000000000000000061271090919293565b600082815260056020908152604080832054600283528184206001600160a01b03909116808552925282206003810180546060949385939092909185919088908110611e7457fe5b9060005260206000209060050201905080600401805480602002602001604051908101604052809291908181526020018280548015611ed257602002820191906000526020600020905b815481526020019060010190808311611ebe575b5050505060048301549195505067ffffffffffffffff81118015611ef557600080fd5b50604051908082528060200260200182016040528015611f1f578160200160208202803683370190505b50955060005b6004820154811015611f7f57816000016000836004018381548110611f4657fe5b9060005260206000200154815260200190815260200160002054878281518110611f6c57fe5b6020908102919091010152600101611f25565b50806003015494505050509250925092565b5060001990565b7f000000000000000000000000000000000000000000000000000000000000000081565b7f000000000000000000000000000000000000000000000000000000000000000081565b60405163f7434ea960e01b815260206004820190815260008054600260001961010060018416150201909116046024840181905290926001600160a01b037f0000000000000000000000000000000000000000000000000000000000000000169263f7434ea99285928291604490910190849080156120a05780601f10612075576101008083540402835291602001916120a0565b820191906000526020600020905b81548152906001019060200180831161208357829003601f168201915b50509250505060206040518083038186803b1580156120be57600080fd5b505afa1580156120d2573d6000803e3d6000fd5b505050506040513d60208110156120e857600080fd5b505192915050565b336001600160a01b0316837f00000000000000000000000000000000000000000000000000000000000000006001600160a01b03167fdccf2f8b2cc26eafcd61905cba744cff4b81d14740725f6376390dc6298a6a3c858560405180806020018281038252848482818152602001925080828437600083820152604051601f909101601f19169092018290039550909350505050a4505050565b60008281526004602052604090205460ff16156121ee576040805162461bcd60e51b815260206004820152601760248201527f4469737075746520616c72656164792063726561746564000000000000000000604482015290519081900360640190fd5b6000828152600260209081526040808320338452909152812090815460ff16600481111561221857fe5b1461226a576040805162461bcd60e51b815260206004820152601d60248201527f4172626974726174696f6e20616c726561647920726571756573746564000000604482015290519081900360640190fd5b60405163f7434ea960e01b815260206004820190815260008054600260001961010060018416150201909116046024840181905290926001600160a01b037f0000000000000000000000000000000000000000000000000000000000000000169263f7434ea992859282916044909101908490801561232a5780601f106122ff5761010080835404028352916020019161232a565b820191906000526020600020905b81548152906001019060200180831161230d57829003601f168201915b50509250505060206040518083038186803b15801561234857600080fd5b505afa15801561235c573d6000803e3d6000fd5b505050506040513d602081101561237257600080fd5b50519050348111156123c3576040805162461bcd60e51b81526020600482015260156024820152744465706f7369742076616c756520746f6f206c6f7760581b604482015290519081900360640190fd5b8154600160ff199091161760ff16610100346001600160f81b0316021782556040805160248101869052336044820152606480820186905282518083039091018152608490910182526020808201805163666b746960e11b6001600160e01b039091168117909152835163e5789d0360e01b8152935190936001600160a01b037f0000000000000000000000000000000000000000000000000000000000000000169263dc8601b3927f0000000000000000000000000000000000000000000000000000000000000000928692869263e5789d03926004808201939291829003018186803b1580156124b457600080fd5b505afa1580156124c8573d6000803e3d6000fd5b505050506040513d60208110156124de57600080fd5b50516040516001600160e01b031960e086901b1681526001600160a01b038416600482019081526044820183905260606024830190815284516064840152845191929091608490910190602086019080838360005b8381101561254b578181015183820152602001612533565b50505050905090810190601f1680156125785780820380516001836020036101000a031916815260200191505b50945050505050602060405180830381600087803b15801561259957600080fd5b505af11580156125ad573d6000803e3d6000fd5b505050506040513d60208110156125c357600080fd5b5050604080518681529051339188917f2067d1b3170fe803dd001b95b04f9d372eb9c3e5a48ed131a62962a7300bdb209181900360200190a3505050505050565b60066020526000908152604090205481565b90565b600083815260056020908152604080832054600283528184206001600160a01b03909116808552925282206003810180548493929184918890811061265a57fe5b600091825260208083209883526005909102909701808852604080832054600190920190985296902054959860ff90961697509495505050505050565b600360205260009081526040902080546001909101546001600160a01b031682565b336001600160a01b037f00000000000000000000000000000000000000000000000000000000000000001614612729576040805162461bcd60e51b815260206004820152601060248201526f13db9b1e4810535088185b1b1bddd95960821b604482015290519081900360640190fd5b7f00000000000000000000000000000000000000000000000000000000000000007f00000000000000000000000000000000000000000000000000000000000000006001600160a01b0316639e307dff6040518163ffffffff1660e01b815260040160206040518083038186803b1580156127a357600080fd5b505afa1580156127b7573d6000803e3d6000fd5b505050506040513d60208110156127cd57600080fd5b50511461281b576040805162461bcd60e51b815260206004820152601760248201527613db9b1e481a1bdb594818da185a5b88185b1b1bddd959604a1b604482015290519081900360640190fd5b7f00000000000000000000000000000000000000000000000000000000000000006001600160a01b03167f00000000000000000000000000000000000000000000000000000000000000006001600160a01b031663d67bdd256040518163ffffffff1660e01b815260040160206040518083038186803b15801561289e57600080fd5b505afa1580156128b2573d6000803e3d6000fd5b505050506040513d60208110156128c857600080fd5b50516001600160a01b03161461291f576040805162461bcd60e51b815260206004820152601760248201527613db9b1e481a1bdb59481c1c9bde1e48185b1b1bddd959604a1b604482015290519081900360640190fd5b60008281526002602090815260408083206001600160a01b0385168452909152902082906001815460ff16600481111561295557fe5b146129a4576040805162461bcd60e51b815260206004820152601a602482015279496e76616c6964206172626974726174696f6e2073746174757360301b604482015290519081900360640190fd5b805460008381526002602081815260408084206001600160a01b03891685529091528220828155600181018390559081018290556101009092046001600160f81b031691906129f66003830182613681565b50506040516001600160a01b0385169082156108fc029083906000818181858888f150506040516001600160a01b03881693508892507fe7700735be0b02f71ef1d623678daf36cd936af4c349a22ad9d5a8b217df0dd99150600090a35050505050565b60009081526003602052604090205490565b600083815260056020908152604080832054600283528184206001600160a01b039091168085529252822060038101805460609485949392909188908110612ab057fe5b9060005260206000209060050201905080600401805480602002602001604051908101604052809291908181526020018280548015612b0e57602002820191906000526020600020905b815481526020019060010190808311612afa575b5050505060048301549196505067ffffffffffffffff81118015612b3157600080fd5b50604051908082528060200260200182016040528015612b5b578160200160208202803683370190505b50935060005b8451811015612bcb576001600160a01b038716600090815260028301602052604081208751909190889084908110612b9557fe5b6020026020010151815260200190815260200160002054858281518110612bb857fe5b6020908102919091010152600101612b61565b50505050935093915050565b61271081565b336001600160a01b037f00000000000000000000000000000000000000000000000000000000000000001614612c4d576040805162461bcd60e51b815260206004820152601060248201526f13db9b1e4810535088185b1b1bddd95960821b604482015290519081900360640190fd5b7f00000000000000000000000000000000000000000000000000000000000000007f00000000000000000000000000000000000000000000000000000000000000006001600160a01b0316639e307dff6040518163ffffffff1660e01b815260040160206040518083038186803b158015612cc757600080fd5b505afa158015612cdb573d6000803e3d6000fd5b505050506040513d6020811015612cf157600080fd5b505114612d3f576040805162461bcd60e51b815260206004820152601760248201527613db9b1e481a1bdb594818da185a5b88185b1b1bddd959604a1b604482015290519081900360640190fd5b7f00000000000000000000000000000000000000000000000000000000000000006001600160a01b03167f00000000000000000000000000000000000000000000000000000000000000006001600160a01b031663d67bdd256040518163ffffffff1660e01b815260040160206040518083038186803b158015612dc257600080fd5b505afa158015612dd6573d6000803e3d6000fd5b505050506040513d6020811015612dec57600080fd5b50516001600160a01b031614612e43576040805162461bcd60e51b815260206004820152601760248201527613db9b1e481a1bdb59481c1c9bde1e48185b1b1bddd959604a1b604482015290519081900360640190fd5b60008281526002602090815260408083206001600160a01b0385168452909152902082906001815460ff166004811115612e7957fe5b14612ec8576040805162461bcd60e51b815260206004820152601a602482015279496e76616c6964206172626974726174696f6e2073746174757360301b604482015290519081900360640190fd5b60405163f7434ea960e01b815260206004820190815260008054600260001961010060018416150201909116046024840181905290926001600160a01b037f0000000000000000000000000000000000000000000000000000000000000000169263f7434ea9928592829160449091019084908015612f885780601f10612f5d57610100808354040283529160200191612f88565b820191906000526020600020905b815481529060010190602001808311612f6b57829003601f168201915b50509250505060206040518083038186803b158015612fa657600080fd5b505afa158015612fba573d6000803e3d6000fd5b505050506040513d6020811015612fd057600080fd5b5051825490915061010090046001600160f81b031681116132ba576040805163c13517e160e01b81526000196004820181815260248301938452600080546002610100600183161502850190911604604485018190526001600160a01b037f0000000000000000000000000000000000000000000000000000000000000000169563c13517e19588959492606490910190849080156130b05780601f10613085576101008083540402835291602001916130b0565b820191906000526020600020905b81548152906001019060200180831161309357829003601f168201915b505093505050506020604051808303818588803b1580156130d057600080fd5b505af1935050505080156130f657506040513d60208110156130f157600080fd5b505160015b61314057815460ff191660041782556040516001600160a01b0385169086907f9beda0c81abc1c65da7685f113195974dfddb781dfde6263e5a1b13a5356ffad90600090a36132b5565b6000818152600360208181526040808420888155600180820180546001600160a01b03199081166001600160a01b038e169081179092558b885260048652848820805460ff19908116851790915560058752858920805490921690921790558787526006909452918520439055875460ff938116600217939093168855878201869055928701805490910181559092529061010090046001600160f81b0316839003801561320e576040516001600160a01b0388169082156108fc029083906000818181858888f150505050505b82876001600160a01b0316897fcf9bcbc2efae51060af73ef64119281007f63eada739f19c41c181d8350fa81460405160405180910390a4827f00000000000000000000000000000000000000000000000000000000000000006001600160a01b03167f74baab670a4015ab2f1b467c5252a96141a2573f2908e58a92081e80d3cfde3d600089604051808381526020018281526020019250505060405180910390a35050505b6132fc565b815460ff191660041782556040516001600160a01b0385169086907f9beda0c81abc1c65da7685f113195974dfddb781dfde6263e5a1b13a5356ffad90600090a35b5050505050565b600083815260056020908152604080832054600283528184206001600160a01b03909116808552925282206003815460ff16600481111561334057fe5b101561334d575050613506565b6002810154600382015460005b8181101561350057600084600301828154811061337357fe5b600091825260208083208b84526001600590930201918201905260409091205490915060ff166133cd576001600160a01b038916600090815260028201602090815260408083208b845290915290205496909601956134f7565b600084815260018201602052604090205460ff166134975760048101546001106133f857600061348e565b8060000160008260040160018154811061340e57fe5b90600052602060002001548152602001908152602001600020548160000160008360040160008154811061343e57fe5b6000918252602080832090910154835282810193909352604091820181205460038601546001600160a01b038f1683526002870185528383208e845290945291902054920191028161348c57fe5b045b870196506134f7565b878414156134f757600088815260208290526040902054806134ba5760006134f1565b60038201546001600160a01b038b16600090815260028401602090815260408083208d8452909152902054829102816134ef57fe5b045b88019750505b5060010161335a565b50505050505b9392505050565b6002602081815260009384526040808520909152918352912080546001820154919092015460ff83169261010090046001600160f81b0316919084565b7f000000000000000000000000000000000000000000000000000000000000000081565b600090815260056020908152604080832054600283528184206001600160a01b03909116845290915290206003015490565b600083815260056020908152604080832054600283528184206001600160a01b0390911680855292528220600381015491929091905b818110156135f3576135ea87878388610f92565b506001016135d6565b50505050505050565b604051806040016040528060058152602001640322e302e360dc1b81525081565b60008261362c57506000611d61565b8282028284828161363957fe5b041461364757600019613649565b805b949350505050565b60008282018381101561364757600019613649565b60008282111561367857506000611d61565b50808203611d61565b50805460008255600502906000526020600020908101906136a291906136a5565b50565b808211156136cc576000600382018190556136c360048301826136d0565b506005016136a5565b5090565b50805460008255906000526020600020908101906136a291905b808211156136cc57600081556001016136ea56fea2646970667358221220bcc609c66659909ccfb8e3ebb9f2da3c07b56b4bdf9f4409ec49c0803a341ccb64736f6c63430007060033",
  "devdoc": {
    "details": "This contract is meant to be deployed to the Ethereum chains where Kleros is deployed.",
    "kind": "dev",
    "methods": {
      "constructor": {
        "params": {
          "_amb": "ArbitraryMessageBridge contract address.",
          "_arbitrator": "Arbitrator contract address.",
          "_arbitratorExtraData": "The extra data used to raise a dispute in the arbitrator.",
          "_homeChainId": "The chain ID where the home proxy is deployed.",
          "_homeProxy": "The address of the proxy.",
          "_loserAppealPeriodMultiplier": "Multiplier for calculating the appeal period for the losing answer.",
          "_loserMultiplier": "Multiplier for calculation the appeal cost of the losing answer.",
          "_metaEvidence": "The URI of the meta evidence file.",
          "_termsOfService": "The path for the Terms of Service for Kleros as an arbitrator for Realitio.",
          "_winnerMultiplier": "Multiplier for calculating the appeal cost of the winning answer."
        }
      },
      "externalIDtoLocalID(uint256)": {
        "params": {
          "_externalDisputeID": "Dispute id as in arbitrator side."
        },
        "returns": {
          "_0": "localDisputeID Dispute id as in arbitrable contract."
        }
      },
      "fundAppeal(uint256,uint256)": {
        "params": {
          "_answer": "One of the possible rulings the arbitrator can give that the funder considers to be the correct answer to the question. Note that the answer has Kleros denomination, meaning that it has '+1' offset compared to Realitio format. Also note that '0' answer can be funded.",
          "_arbitrationID": "The ID of the arbitration, which is questionID cast into uint256."
        },
        "returns": {
          "_0": "Whether the answer was fully funded or not."
        }
      },
      "getContributionsToSuccessfulFundings(uint256,uint256,address)": {
        "params": {
          "_arbitrationID": "The ID of the arbitration.",
          "_contributor": "The address whose contributions to query.",
          "_round": "The round to query."
        },
        "returns": {
          "contributions": "The amount contributed to each funded answer by the contributor.",
          "fundedAnswers": "IDs of the answers that are fully funded."
        }
      },
      "getDisputeFee(bytes32)": {
        "returns": {
          "_0": "The fee to create a dispute."
        }
      },
      "getFundingStatus(uint256,uint256,uint256)": {
        "params": {
          "_answer": "The answer choice to get funding status for.",
          "_arbitrationID": "The ID of the arbitration.",
          "_round": "The round to query."
        },
        "returns": {
          "fullyFunded": "Whether the answer is fully funded or not.",
          "raised": "The amount paid for this answer."
        }
      },
      "getMultipliers()": {
        "returns": {
          "divisor": "Multiplier divisor.",
          "loser": "Losers stake multiplier.",
          "loserAppealPeriod": "Multiplier for calculating an appeal period duration for the losing side.",
          "winner": "Winners stake multiplier."
        }
      },
      "getNumberOfRounds(uint256)": {
        "params": {
          "_arbitrationID": "The ID of the arbitration related to the question."
        },
        "returns": {
          "_0": "The number of rounds."
        }
      },
      "getRoundInfo(uint256,uint256)": {
        "params": {
          "_arbitrationID": "The ID of the arbitration.",
          "_round": "The round to query."
        },
        "returns": {
          "feeRewards": "The amount of fees that will be used as rewards.",
          "fundedAnswers": "IDs of fully funded answers.",
          "paidFees": "The amount of fees paid for each fully funded answer."
        }
      },
      "getTotalWithdrawableAmount(uint256,address,uint256)": {
        "details": "This function is O(n) where n is the total number of rounds.This could exceed the gas limit, therefore this function should be used only as a utility and not be relied upon by other contracts.",
        "params": {
          "_arbitrationID": "The ID of the arbitration.",
          "_beneficiary": "The contributor for which to query.",
          "_contributedTo": "Answer that received contributions from contributor."
        },
        "returns": {
          "sum": "The total amount available to withdraw."
        }
      },
      "handleFailedDisputeCreation(bytes32,address)": {
        "params": {
          "_questionID": "The ID of the question.",
          "_requester": "The address of the arbitration requester."
        }
      },
      "numberOfRulingOptions(uint256)": {
        "returns": {
          "_0": "count The number of ruling options."
        }
      },
      "questionIDToArbitrationID(bytes32)": {
        "params": {
          "_questionID": "The ID of the question."
        },
        "returns": {
          "_0": "The ID of the arbitration."
        }
      },
      "receiveArbitrationAcknowledgement(bytes32,address)": {
        "params": {
          "_questionID": "The ID of the question.",
          "_requester": "The requester."
        }
      },
      "receiveArbitrationCancelation(bytes32,address)": {
        "params": {
          "_questionID": "The ID of the question.",
          "_requester": "The requester."
        }
      },
      "requestArbitration(bytes32,uint256)": {
        "params": {
          "_maxPrevious": "The maximum value of the current bond for the question. The arbitration request will get rejected if the current bond is greater than _maxPrevious. If set to 0, _maxPrevious is ignored.",
          "_questionID": "The ID of the question."
        }
      },
      "rule(uint256,uint256)": {
        "details": "Accounts for the situation where the winner loses a case due to paying less appeal fees than expected.",
        "params": {
          "_disputeID": "The ID of the dispute in the ERC792 arbitrator.",
          "_ruling": "The ruling given by the arbitrator."
        }
      },
      "submitEvidence(uint256,string)": {
        "params": {
          "_arbitrationID": "The ID of the arbitration related to the question.",
          "_evidenceURI": "Link to evidence."
        }
      },
      "withdrawFeesAndRewards(uint256,address,uint256,uint256)": {
        "params": {
          "_answer": "The answer to query the reward from.",
          "_arbitrationID": "The ID of the arbitration.",
          "_beneficiary": "The address to send reward to.",
          "_round": "The round from which to withdraw."
        },
        "returns": {
          "reward": "The withdrawn amount."
        }
      },
      "withdrawFeesAndRewardsForAllRounds(uint256,address,uint256)": {
        "details": "This function is O(n) where n is the total number of rounds. Arbitration cost of subsequent rounds is `A(n) = 2A(n-1) + 1`.      So because of this exponential growth of costs, you can assume n is less than 10 at all times.",
        "params": {
          "_arbitrationID": "The ID of the arbitration.",
          "_beneficiary": "The address that made contributions.",
          "_contributedTo": "Answer that received contributions from contributor."
        }
      }
    },
    "title": "Arbitration proxy for Realitio on Ethereum side (A.K.A. the Foreign Chain). This version of the contract has an appeal support.",
    "version": 1
  },
  "userdoc": {
    "events": {
      "ArbitrationCanceled(bytes32,address)": {
        "notice": "Should be emitted when the arbitration is canceled by the Home Chain."
      },
      "ArbitrationCreated(bytes32,address,uint256)": {
        "notice": "Should be emitted when the dispute is created."
      },
      "ArbitrationFailed(bytes32,address)": {
        "notice": "Should be emitted when the dispute could not be created."
      },
      "ArbitrationRequested(bytes32,address,uint256)": {
        "notice": "Should be emitted when the arbitration is requested."
      }
    },
    "kind": "user",
    "methods": {
      "constructor": {
        "notice": "Creates an arbitration proxy on the foreign chain."
      },
      "externalIDtoLocalID(uint256)": {
        "notice": "Maps external (arbitrator side) dispute id to local (arbitrable) dispute id."
      },
      "fundAppeal(uint256,uint256)": {
        "notice": "Takes up to the total amount required to fund an answer. Reimburses the rest. Creates an appeal if at least two answers are funded."
      },
      "getContributionsToSuccessfulFundings(uint256,uint256,address)": {
        "notice": "Gets contributions to the answers that are fully funded."
      },
      "getDisputeFee(bytes32)": {
        "notice": "Gets the fee to create a dispute."
      },
      "getFundingStatus(uint256,uint256,uint256)": {
        "notice": "Gets the information of a round of a question for a specific answer choice."
      },
      "getMultipliers()": {
        "notice": "Returns stake multipliers."
      },
      "getNumberOfRounds(uint256)": {
        "notice": "Gets the number of rounds of the specific question."
      },
      "getRoundInfo(uint256,uint256)": {
        "notice": "Gets the information of a round of a question."
      },
      "getTotalWithdrawableAmount(uint256,address,uint256)": {
        "notice": "Returns the sum of withdrawable amount."
      },
      "handleFailedDisputeCreation(bytes32,address)": {
        "notice": "Cancels the arbitration in case the dispute could not be created."
      },
      "numberOfRulingOptions(uint256)": {
        "notice": "Returns number of possible ruling options. Valid rulings are [0, return value]."
      },
      "questionIDToArbitrationID(bytes32)": {
        "notice": "Casts question ID into uint256 thus returning the related arbitration ID."
      },
      "receiveArbitrationAcknowledgement(bytes32,address)": {
        "notice": "Receives the acknowledgement of the arbitration request for the given question and requester. TRUSTED."
      },
      "receiveArbitrationCancelation(bytes32,address)": {
        "notice": "Receives the cancelation of the arbitration request for the given question and requester. TRUSTED."
      },
      "requestArbitration(bytes32,uint256)": {
        "notice": "Requests arbitration for the given question and contested answer."
      },
      "rule(uint256,uint256)": {
        "notice": "Rules a specified dispute. Can only be called by the arbitrator."
      },
      "submitEvidence(uint256,string)": {
        "notice": "Allows to submit evidence for a particular question."
      },
      "withdrawFeesAndRewards(uint256,address,uint256,uint256)": {
        "notice": "Sends the fee stake rewards and reimbursements proportional to the contributions made to the winner of a dispute. Reimburses contributions if there is no winner."
      },
      "withdrawFeesAndRewardsForAllRounds(uint256,address,uint256)": {
        "notice": "Allows to withdraw any rewards or reimbursable fees for all rounds at once."
      }
    },
    "version": 1
  },
  "storageLayout": {
    "storage": [
      {
        "astId": 1317,
        "contract": "src/RealitioForeignArbitrationProxyWithAppeals.sol:RealitioForeignArbitrationProxyWithAppeals",
        "label": "arbitratorExtraData",
        "offset": 0,
        "slot": "0",
        "type": "t_bytes_storage"
      },
      {
        "astId": 1325,
        "contract": "src/RealitioForeignArbitrationProxyWithAppeals.sol:RealitioForeignArbitrationProxyWithAppeals",
        "label": "termsOfService",
        "offset": 0,
        "slot": "1",
        "type": "t_string_storage"
      },
      {
        "astId": 1337,
        "contract": "src/RealitioForeignArbitrationProxyWithAppeals.sol:RealitioForeignArbitrationProxyWithAppeals",
        "label": "arbitrationRequests",
        "offset": 0,
        "slot": "2",
        "type": "t_mapping(t_uint256,t_mapping(t_address,t_struct(ArbitrationRequest)1288_storage))"
      },
      {
        "astId": 1341,
        "contract": "src/RealitioForeignArbitrationProxyWithAppeals.sol:RealitioForeignArbitrationProxyWithAppeals",
        "label": "disputeIDToDisputeDetails",
        "offset": 0,
        "slot": "3",
        "type": "t_mapping(t_uint256,t_struct(DisputeDetails)1293_storage)"
      },
      {
        "astId": 1345,
        "contract": "src/RealitioForeignArbitrationProxyWithAppeals.sol:RealitioForeignArbitrationProxyWithAppeals",
        "label": "arbitrationIDToDisputeExists",
        "offset": 0,
        "slot": "4",
        "type": "t_mapping(t_uint256,t_bool)"
      },
      {
        "astId": 1349,
        "contract": "src/RealitioForeignArbitrationProxyWithAppeals.sol:RealitioForeignArbitrationProxyWithAppeals",
        "label": "arbitrationIDToRequester",
        "offset": 0,
        "slot": "5",
        "type": "t_mapping(t_uint256,t_address)"
      },
      {
        "astId": 1353,
        "contract": "src/RealitioForeignArbitrationProxyWithAppeals.sol:RealitioForeignArbitrationProxyWithAppeals",
        "label": "arbitrationCreatedBlock",
        "offset": 0,
        "slot": "6",
        "type": "t_mapping(t_uint256,t_uint256)"
      }
    ],
    "types": {
      "t_address": {
        "encoding": "inplace",
        "label": "address",
        "numberOfBytes": "20"
      },
      "t_array(t_struct(Round)1313_storage)dyn_storage": {
        "base": "t_struct(Round)1313_storage",
        "encoding": "dynamic_array",
        "label": "struct RealitioForeignArbitrationProxyWithAppeals.Round[]",
        "numberOfBytes": "32"
      },
      "t_array(t_uint256)dyn_storage": {
        "base": "t_uint256",
        "encoding": "dynamic_array",
        "label": "uint256[]",
        "numberOfBytes": "32"
      },
      "t_bool": {
        "encoding": "inplace",
        "label": "bool",
        "numberOfBytes": "1"
      },
      "t_bytes_storage": {
        "encoding": "bytes",
        "label": "bytes",
        "numberOfBytes": "32"
      },
      "t_enum(Status)1276": {
        "encoding": "inplace",
        "label": "enum RealitioForeignArbitrationProxyWithAppeals.Status",
        "numberOfBytes": "1"
      },
      "t_mapping(t_address,t_mapping(t_uint256,t_uint256))": {
        "encoding": "mapping",
        "key": "t_address",
        "label": "mapping(address => mapping(uint256 => uint256))",
        "numberOfBytes": "32",
        "value": "t_mapping(t_uint256,t_uint256)"
      },
      "t_mapping(t_address,t_struct(ArbitrationRequest)1288_storage)": {
        "encoding": "mapping",
        "key": "t_address",
        "label": "mapping(address => struct RealitioForeignArbitrationProxyWithAppeals.ArbitrationRequest)",
        "numberOfBytes": "32",
        "value": "t_struct(ArbitrationRequest)1288_storage"
      },
      "t_mapping(t_uint256,t_address)": {
        "encoding": "mapping",
        "key": "t_uint256",
        "label": "mapping(uint256 => address)",
        "numberOfBytes": "32",
        "value": "t_address"
      },
      "t_mapping(t_uint256,t_bool)": {
        "encoding": "mapping",
        "key": "t_uint256",
        "label": "mapping(uint256 => bool)",
        "numberOfBytes": "32",
        "value": "t_bool"
      },
      "t_mapping(t_uint256,t_mapping(t_address,t_struct(ArbitrationRequest)1288_storage))": {
        "encoding": "mapping",
        "key": "t_uint256",
        "label": "mapping(uint256 => mapping(address => struct RealitioForeignArbitrationProxyWithAppeals.ArbitrationRequest))",
        "numberOfBytes": "32",
        "value": "t_mapping(t_address,t_struct(ArbitrationRequest)1288_storage)"
      },
      "t_mapping(t_uint256,t_struct(DisputeDetails)1293_storage)": {
        "encoding": "mapping",
        "key": "t_uint256",
        "label": "mapping(uint256 => struct RealitioForeignArbitrationProxyWithAppeals.DisputeDetails)",
        "numberOfBytes": "32",
        "value": "t_struct(DisputeDetails)1293_storage"
      },
      "t_mapping(t_uint256,t_uint256)": {
        "encoding": "mapping",
        "key": "t_uint256",
        "label": "mapping(uint256 => uint256)",
        "numberOfBytes": "32",
        "value": "t_uint256"
      },
      "t_string_storage": {
        "encoding": "bytes",
        "label": "string",
        "numberOfBytes": "32"
      },
      "t_struct(ArbitrationRequest)1288_storage": {
        "encoding": "inplace",
        "label": "struct RealitioForeignArbitrationProxyWithAppeals.ArbitrationRequest",
        "members": [
          {
            "astId": 1278,
            "contract": "src/RealitioForeignArbitrationProxyWithAppeals.sol:RealitioForeignArbitrationProxyWithAppeals",
            "label": "status",
            "offset": 0,
            "slot": "0",
            "type": "t_enum(Status)1276"
          },
          {
            "astId": 1280,
            "contract": "src/RealitioForeignArbitrationProxyWithAppeals.sol:RealitioForeignArbitrationProxyWithAppeals",
            "label": "deposit",
            "offset": 1,
            "slot": "0",
            "type": "t_uint248"
          },
          {
            "astId": 1282,
            "contract": "src/RealitioForeignArbitrationProxyWithAppeals.sol:RealitioForeignArbitrationProxyWithAppeals",
            "label": "disputeID",
            "offset": 0,
            "slot": "1",
            "type": "t_uint256"
          },
          {
            "astId": 1284,
            "contract": "src/RealitioForeignArbitrationProxyWithAppeals.sol:RealitioForeignArbitrationProxyWithAppeals",
            "label": "answer",
            "offset": 0,
            "slot": "2",
            "type": "t_uint256"
          },
          {
            "astId": 1287,
            "contract": "src/RealitioForeignArbitrationProxyWithAppeals.sol:RealitioForeignArbitrationProxyWithAppeals",
            "label": "rounds",
            "offset": 0,
            "slot": "3",
            "type": "t_array(t_struct(Round)1313_storage)dyn_storage"
          }
        ],
        "numberOfBytes": "128"
      },
      "t_struct(DisputeDetails)1293_storage": {
        "encoding": "inplace",
        "label": "struct RealitioForeignArbitrationProxyWithAppeals.DisputeDetails",
        "members": [
          {
            "astId": 1290,
            "contract": "src/RealitioForeignArbitrationProxyWithAppeals.sol:RealitioForeignArbitrationProxyWithAppeals",
            "label": "arbitrationID",
            "offset": 0,
            "slot": "0",
            "type": "t_uint256"
          },
          {
            "astId": 1292,
            "contract": "src/RealitioForeignArbitrationProxyWithAppeals.sol:RealitioForeignArbitrationProxyWithAppeals",
            "label": "requester",
            "offset": 0,
            "slot": "1",
            "type": "t_address"
          }
        ],
        "numberOfBytes": "64"
      },
      "t_struct(Round)1313_storage": {
        "encoding": "inplace",
        "label": "struct RealitioForeignArbitrationProxyWithAppeals.Round",
        "members": [
          {
            "astId": 1297,
            "contract": "src/RealitioForeignArbitrationProxyWithAppeals.sol:RealitioForeignArbitrationProxyWithAppeals",
            "label": "paidFees",
            "offset": 0,
            "slot": "0",
            "type": "t_mapping(t_uint256,t_uint256)"
          },
          {
            "astId": 1301,
            "contract": "src/RealitioForeignArbitrationProxyWithAppeals.sol:RealitioForeignArbitrationProxyWithAppeals",
            "label": "hasPaid",
            "offset": 0,
            "slot": "1",
            "type": "t_mapping(t_uint256,t_bool)"
          },
          {
            "astId": 1307,
            "contract": "src/RealitioForeignArbitrationProxyWithAppeals.sol:RealitioForeignArbitrationProxyWithAppeals",
            "label": "contributions",
            "offset": 0,
            "slot": "2",
            "type": "t_mapping(t_address,t_mapping(t_uint256,t_uint256))"
          },
          {
            "astId": 1309,
            "contract": "src/RealitioForeignArbitrationProxyWithAppeals.sol:RealitioForeignArbitrationProxyWithAppeals",
            "label": "feeRewards",
            "offset": 0,
            "slot": "3",
            "type": "t_uint256"
          },
          {
            "astId": 1312,
            "contract": "src/RealitioForeignArbitrationProxyWithAppeals.sol:RealitioForeignArbitrationProxyWithAppeals",
            "label": "fundedAnswers",
            "offset": 0,
            "slot": "4",
            "type": "t_array(t_uint256)dyn_storage"
          }
        ],
        "numberOfBytes": "160"
      },
      "t_uint248": {
        "encoding": "inplace",
        "label": "uint248",
        "numberOfBytes": "31"
      },
      "t_uint256": {
        "encoding": "inplace",
        "label": "uint256",
        "numberOfBytes": "32"
      }
    }
  }
}